:020000040800F2
:10000000A82700207DE10008C9B90008C9BA000886
:10001000FDBB000801BC000805BC00080000000092
:1000200000000000000000000000000049E200089D
:1000300009BC0008000000004DE2000851E2000881
:1000400055E2000859E200085DE2000817BC00080C
:1000500061E2000865E20008E7C500080BC6000879
:100060002FC6000853C6000877C6000869E20008DA
:100070006DE2000871E20008C5C5000875E20008DD
:1000800079E200087DE20008EFBC000881E2000888
:1000900085E2000889E200088DE200089BC600089E
:1000A00091E2000895E2000899E200089DE200084C
:1000B000A1E20008A5E200080BBC0008A9E20008C4
:1000C000ADE20008B1E20008B5E20008B9E20008BC
:1000D000BDE20008C1E20008C5E20008C9E200086C
:1000E00033C70008CDE20008D1E20008D5E20008DD
:1000F000D9E20008DDE20008E1E20008E5E20008DC
:10010000E9E20008DDC50008EDE20008F1E20008C0
:10011000F5E20008F9E20008FDE2000801E300084A
:10012000C7C5000805E3000809E30008D3C50008B7
:100130000DE3000815BC000811E3000815E30008F2
:1001400019E300081DE3000821E3000825E3000887
:1001500029E30008C9C50008C3C500082DE300084D
:1001600031E3000835E3000839E300083DE3000807
:1001700041E3000845E3000849E3000800000000EF
:100180004DE30008EDBC0008424F4F540000000052
:100190000100000003000000010000000000010851
:1001A000000000014204206900000000010000007E
:1001B000000000010000000000000000000000003E
:1001C0004178007850EA012080B27047C178827887
:1001D00052EA0122417851EA0221007850EA0120D6
:1001E00070470170401C89B2090A0170401C7047B9
:1001F0000170401C090A0170401C090A0170401C72
:10020000090A0170401C7047002A06D00B78037061
:10021000491C401C521E002AF8D170470170401C36
:10022000521E002AFAD1704710B4030000201C7837
:100230000878201A491C5B1C521E002A01D0002895
:10024000F5D010BC704700E0401C0278002A02D0B4
:1002500002788A42F8D10078704770B40200002317
:100260001C0001E00123641C022C16D2DFF8885A1E
:10027000200128580028F5D0200128581668B042DF
:10028000F1D12001284440689668B042EBD12001AA
:10029000284480685569A842E5D1022C08D1002B7A
:1002A00001D1022901D1002000E01220C0B20DE0EE
:1002B000002907D1DFF8400A210108448089B0F500
:1002C000807F01D1102000E00020C0B270BC7047D8
:1002D000002100E0491C022905D2DFF81C0A0A01AE
:1002E00080580028F6D1022901D1002000E0012029
:1002F000704730B40200002300E05B1C022B12D2D6
:10030000DFF8F4091C0104591568AC42F5D11C0151
:10031000044464689568AC42EFD11C0120448068B5
:100320005469A042E9D1022B1FD1002300E05B1CDD
:10033000022B05D2DFF8C0091C0100590028F6D1B4
:10034000022B01D100202DE0DFF8AC0914681D015B
:10035000445194681D0105446C6052691C010444B9
:10036000A26000221C0120448281002908D0DFF80D
:1003700088091A0110448089002801D0002011E06A
:10038000002902D04FF4807005E0DFF86C091901F4
:1003900008448089401CDFF860191A0111448881E3
:1003A0005B1C180030BC7047401E02281AD2DFF8D0
:1003B0004839010119448A89110089B2B1F5807F59
:1003C00000D10022110089B2002900D0521E010183
:1003D00019448A8192B2002A02D1002100011950E9
:1003E000002000E00220C0B2704710B4002109E0F4
:1003F000DFF804290B01D358834202D100230C01FA
:100400001351491C0229F3D310BC7047F8B50500FD
:100410000024E878002820D02E6B0123320015F14B
:100420003401687802F06BF8002801D0012414E050
:100430000020E870686A301AE96988420DD2AF7806
:1004400009E0E86986190123320015F13401687862
:1004500002F055F87F1E022FF3D22000C0B2F2BD89
:1004600070B504000D000026206B854214D02000DA
:10047000FFF7CCFF06003000C0B200280CD10123EA
:100480002A0014F13401607802F02AF8002802D022
:100490005FF0FF35012625633000C0B270BD38B56E
:1004A00004002000FFF7B2FF05002800C0B20028BA
:1004B0003CD12078032831D1207901282ED14FF466
:1004C0000072002114F13400FFF7A8FE4AF655210E
:1004D00004F23220FFF785FEDFF8201814F1340013
:1004E000FFF786FEDFF8181814F50670FFF780FE98
:1004F000616914F50770FFF77BFE216914F5087038
:10050000FFF776FE206A401C20630123226B14F162
:100510003401607801F0F3FF0020207100220021F7
:10052000607801F0FBFF002800D001252800C0B250
:1005300032BD891E8269921E914201D3002004E0DF
:100540004289C06A02FB0101080070472DE9F041B1
:100550000C000568022C02D3A869844202D35FF024
:10056000010859E05FF0FF382878012804D051D302
:1005700003283CD02AD34DE0270017EB5707696AC0
:1005800011EB57212800FFF76BFF002844D1F80535
:10059000C00D284490F834607F1C696A11EB572124
:1005A0002800FFF75DFF002836D1FF05FF0D05EBA2
:1005B000070090F8340056EA0026E00702D5360915
:1005C000B04602E03605360DB04625E0696A11EB0B
:1005D00014212800FFF744FF00281DD16000C0054A
:1005E000C00D28443430FFF7EBFD804614E0696A03
:1005F00011EBD4112800FFF733FF00280CD1A00025
:10060000C005C00D28443430FFF7E0FD804628F0D7
:10061000704801E05FF001084046BDE8F0812DE937
:10062000F04107000D0016000224022DC0F0848066
:10063000B869854280F080803878012804D07BD367
:1006400003285AD042D377E0A84618EB5808796AB5
:1006500011EB58213800FFF703FF04002000C0B25F
:10066000002869D15FEAC850C00D3844343018F111
:100670000108E90705D5017811F00F0151EA0611CB
:1006800000E0310001700120F870796A11EB582107
:100690003800FFF7E5FE04002000C0B200284BD16F
:1006A0005FEAC8585FEAD85807EB08003430E9071A
:1006B00001D5360906E0017811F0F001360A16F08E
:1006C0000F060E4306700120F87035E0796A11EBD1
:1006D00015213800FFF7C4FE04002000C0B2002836
:1006E0002AD1310089B26800C005C00D38443430C9
:1006F000FFF777FD0120F8701EE0796A11EBD51144
:100700003800FFF7ADFE04002000C0B2002813D16E
:10071000A800C005C00D38443430FFF757FD000F66
:1007200060F31F763100A800C005C00D3844343096
:10073000FFF75EFD0120F8702000C0B2BDE8F08137
:10074000F8B505000F00110000202E68022F02D31B
:10075000B069874201D3022032E0002928D05FF03F
:10076000FF323000FFF75BFF0100C9B200291FD044
:10077000C0B225E0012C24D014F1010F23D00022B7
:1007800039003000FFF74BFF0100C9B200291CD12E
:100790007069B169891E884206D27069401C706117
:1007A000307950F0010030712700B069874206D2DD
:1007B00039002800FFF7CAFE0400002CDAD100201F
:1007C000F2BD0220FCE70120FAE7C0B2F8E72DE90C
:1007D000F04107000C003E68002C07D13569002D60
:1007E00002D0B069854210D301250EE02100380007
:1007F000FFF7ACFE022801D201204FE010F1010FFB
:100800004CD0B169884249D32500A84618F10108A7
:10081000B069804503D35FF0020845450ED34146D9
:100820003800FFF793FE00280AD001282CD010F1E1
:10083000010F29D0A845E9D100202FE000202DE0AC
:100840005FF0FF3241463000FFF7E9FE0100C9B218
:10085000002906D1002C04D0424621003000FFF7C9
:10086000DEFE0100C9B200290FD1C6F81080B069C0
:10087000801E7169884202D37069401E70613079B0
:1008800050F00100307108E008E0C0B2012802D148
:100890005FF0FF3801E05FF001084046BDE8F081FD
:1008A0000368C06A021D490A5889B1FBF0F003E0F1
:1008B000884207D3401A121D1168121D0029F7D172
:1008C000002001E01168081870472DE9F04105008B
:1008D0000E002F68B6F5001F02D216F01F0F01D0D0
:1008E000022045E06E61AC68002C03D13878032803
:1008F00000DBBC6A002C09D13000400939898842EC
:1009000001D3022034E0B86AE86120E0B7F80A8039
:100910004FF4007000FB08F806E0022C10D3B86911
:1009200084420DD2B6EB080646450BD321002800C1
:10093000FFF70CFE040014F1010FEED1012017E0C7
:10094000022015E021003800FFF7F3FDE861AC61FB
:10095000E869002801D102200AE0E86910EB56207E
:10096000E861F605F60D07EB06003430286200203A
:10097000BDE8F0812DE9F04106000C00D6F80080BA
:1009800077692037F069002802D0B7F5001F01D33E
:1009900004207EE0F80574D1F069401CF061B06974
:1009A000002809D138004009B8F80810884268D3F7
:1009B0000020F06104206CE0B8F80A00401E10EA44
:1009C000572F5ED1B1693000FFF7C0FD0500022D41
:1009D00001D202205DE015F1010F01D1012058E0A4
:1009E000D8F81800854246D3002C03D10020F061CE
:1009F00004204EE0B1693000FFF7E9FE0500002D4C
:100A000001D1072045E0012D01D1022041E015F17F
:100A1000010F01D101203CE04046FFF7F7FC002820
:100A200001D0012035E04FF40072002118F13400AC
:100A3000FFF7F4FB002429004046FFF77AFDC8F8D1
:100A4000300005E0641CD8F83000401CC8F83000C5
:100A5000B8F80A00844209D2012088F80300404611
:100A6000FFF7D4FC0028EDD0012012E0D8F83000C8
:100A7000041BC8F83040B56129004046FFF759FD16
:100A8000F0617761FF05FF0D08EB0700343030623D
:100A90000020BDE8F081F8B504000D0026680021B3
:100AA0002000FFF712FF0100C9B200291ED1002764
:100AB000E1693000FFF7D4FC0100C9B200290BD175
:100AC000216A0978E52903D0216A0978002904D12F
:100AD0007F1CAF4202D109E008E00027012120007D
:100AE000FFF748FF0100C9B20029E1D00100C9B2F7
:100AF000042900D10720C0B2F2BD70B504000D007A
:100B000015F11A00FFF75CFB06002078032805D1D9
:100B100015F11400FFF754FB56EA0046300070BD93
:100B200070B504000D001600310089B215F11A00ED
:100B3000FFF757FB2078032806D1360C310089B225
:100B400015F11400FFF74DFB70BD2DE9F8430700C8
:100B50000D0015F11A00FFF733FB002801D000202B
:100B600042E02E7816F03F06761E0D204643012403
:100B70005FF0000812E0FF2E27D2484680B201F055
:100B80000CFD040037F8160001F007FD761CA4B236
:100B900080B2844219D14C4618F10108B8F10D0F0A
:100BA00015D2DFF8540B10F808002844FFF708FBB3
:100BB0008146200080B20028DDD11FFA89F94FF666
:100BC000FF708145E8D000200EE000200CE028787E
:100BD000400608D5A4B2002C05D037F8160000282E
:100BE00001D0002000E00120BDE8F2832DE9F041B2
:100BF00006000C0014F11A00FFF7E2FA002801D0F9
:100C0000002034E0257835F040056D1E0D20454369
:100C100001275FF0000807E0FF2D1BD20F0026F828
:100C200015706D1C18F10108B8F10D0F14D2DFF822
:100C3000C80A10F808002044FFF7C2FA0100380083
:100C400080B20028E8D189B24FF6FF708142E9D026
:100C500000200CE000200AE02078400606D5FF2D99
:100C600001D3002003E0002026F815000120BDE894
:100C7000F0812DE9F04706000C00150063730F208A
:100C8000E07200202073002114F11A00FFF7A9FA86
:100C90002F00FFB27F1E0D2047435FF0000AD046B1
:100CA0001FFA88F84FF6FF79504680B2484502D0C7
:100CB00036F817A07F1C514689B2DFF83C0A10F8BD
:100CC00008002044FFF78DFA504680B2002800D17A
:100CD000CA4618F10108B8F10D0FE3D31FFA8AFADA
:100CE000CA4503D036F81700002801D155F0400559
:100CF0002570BDE8F087000040120020525261418B
:100D0000727241617CB5050016001C000B222800A0
:100D1000FFF77AFA062C18D33088002815D03188CE
:100D2000B61C00201028F7D222000C00A4B214F048
:100D3000010414EB420489B24908E20303D584F4A8
:100D4000883494F02104401CECE7072114F00F00D4
:100D500030300200D2B23A2A00DBC01D6A4650543D
:100D6000491E2409002CF1D17E205054002000E0BF
:100D7000401C884202D22B5C202BF9D10300581C66
:100D8000082902D2545C491C00E02024EC540828B5
:100D9000F4D373BD020000200B210300DBB25B081B
:100DA00013EBC01013781818521C491E0029F4D1F7
:100DB000C0B270472DE9F04704000D005FF0040A4F
:100DC0002668FF27B846B946E069002858D0E1698F
:100DD0003000FFF745FB82465046C0B200281ED1C6
:100DE000206A00780100C9B2002919D0216AC97AA5
:100DF00011F03F01A1710200D2B2E52A0DD002002C
:100E0000D2B22E2A09D00A00D2B232F02002082A29
:100E100009D10122D2B2AA4207D0B84627E02FE07A
:100E20005FF0040A2CE00022F4E7C9B20F2931D1A7
:100E3000410607D5216A91F80D9010F0BF00804659
:100E4000616921634146C0B2C9B288420ED14846A9
:100E5000216A497BC0B2884208D1216AF068FFF755
:100E6000C5FE002802D0B8F1010800E0B846002114
:100E70002000FFF77FFD82465046C0B20028A3D075
:100E80005046C0B2002801D00020E0615046C0B2F8
:100E9000BDE8F0875FFA88F8B8F1000F06D1206A44
:100EA000FFF778FF5FFA89F9814502D05FF0FF30E4
:100EB0002063E5E72DE9F0470400256800212000C4
:100EC000FFF703FD0100C9B2002901D0C0B27BE0E9
:100ED000FF263700B8465FF0FF39C4F83090E1696B
:100EE0002800FFF7BDFA82465046C0B2002818D14C
:100EF000206A00780100C9B2002913D0216AC97A9A
:100F000011F03F01A1710200D2B2E52A05D00A0713
:100F10000BD50A00D2B20F2A07D0B046C4F83090E1
:100F200045E04FE05FF0040A4CE0C9B20F2922D13E
:100F300094F82F1049063AD4410606D5216A4F7B12
:100F400010F0BF008046616921634146C0B2C9B25A
:100F500088420ED13800216A497BC0B2884208D14C
:100F6000216AE868FFF7F1FD002802D0B8F1010816
:100F70001DE0B0461BE05FFA88F8B8F1000F07D11A
:100F8000B846206AFFF706FF5FFA88F8804518D058
:100F900094F82F00C00707D40B2214F12401206A13
:100FA000FFF742F900280DD0B046C4F83090002178
:100FB0002000FFF7DFFC82465046C0B200288ED0EA
:100FC00000E0FFE75046C0B2BDE8F0872DE9FE43E0
:100FD00005002E6895F82F0010F0A00F01D0062014
:100FE000A5E0002700E07F1CF06830F8170000281B
:100FF000F9D10C2215F124016846FFF705F9E846FE
:1010000098F80B00C00729D5402085F82F005FF025
:10101000010901E019F10109B9F1640F0ED24B4643
:10102000F268694615F12400FFF76CFE2800FFF70F
:1010300041FF04002000C0B20028EBD0B9F1640FDA
:1010400001D1072073E02000C0B2042802D02000A4
:10105000C0B26CE098F80B0085F82F0098F80B00F0
:10106000800705D50C370D20B7FBF0F4641C00E0B9
:10107000012421002800FFF70EFD07003800C0B250
:10108000002832D1641E002C2FD06969B1EB4411C5
:101090002800FFF71AFC07003800C0B2002824D14E
:1010A00015F12400FFF776FE8046E9693000FFF76E
:1010B000D7F907003800C0B2002816D14346DBB28A
:1010C0002200D2B2296AF068FFF7D3FD0120F07048
:1010D00000212800FFF74EFC07003800C0B20028AE
:1010E00003D1641E002CE0D1FFE73800C0B2002815
:1010F0001BD1E9693000FFF7B3F907003800C0B22F
:10110000002812D120220021286AFFF787F80B223D
:1011100015F12401286AFFF777F895F82F0010F0F1
:101120001800296A08730120F0703800C0B2BDE8C9
:10113000FE832DE9F04105000C002E680020A0750B
:10114000E869002800F08580286B10F1010F24D099
:101150000027B84607E0B8F1FF0F18D204EB0801EA
:10116000887518F10108F06830F817007F1C02003C
:1011700080B200280DD00021100080B201F0E0F90B
:10118000010089B20029E6D15FF0000801E05FF0BC
:101190000008002004EB080188750021080004EB1A
:1011A0000002927DFFE70B2835D22B6A1B5C401CA6
:1011B0001E00F6B2202EF6D01E00F6B2052E00D18B
:1011C000E52309280CD11600B6B2002E03D12E2635
:1011D00004EB0107BE752E2604EB01077E72491C45
:1011E00004EB010673721600B6B2002E11D11E0078
:1011F000F6B2413E1A2E09D2092801D3102600E08A
:1012000008262F6A3F7B374200D0203304EB0106CB
:10121000B375491CC7E792B2002A08D1002004EB3D
:1012200001029075286A007B002800D1002100206F
:1012300021444872286AC07A2072286A1C30FEF75E
:10124000C5FF2060286A1630FEF7C0FFE080000C62
:10125000A080BDE8F08101684A1C026008780100A6
:1012600089B261391A2900D22038010089B2802957
:1012700005DBDFF80C1880B2084410F8800C80B24F
:101280007047F2B582B0050016001C003000461E03
:10129000002806D002A8FFF7DEFF0028F6D10020C4
:1012A0004BE02878002803D1002C01D0012044E035
:1012B000009502980190009800783F2816D0009879
:1012C00000782A2812D06846FFF7C5FF060001A85B
:1012D000FFF7C1FF07003000390080B289B28842B1
:1012E00022D1B6B2002EE6D1012026E000231A005A
:1012F0000098411C009100783F2801D1521C00E069
:101300000123009800783F28F2D0009800782A281E
:10131000EED001990098FFF7B4FF002802D10198A0
:10132000077801E0012008E002A8FFF794FF002CF5
:1013300002D0BFB2002FBBD10020FEBD2DE9F84F77
:1013400006000D002F683068C06800900024A04699
:1013500024E0010089B22F2933D0010089B25C2931
:101360002FD0FF2C36D200F0FF00012180B201F017
:10137000E7F88146484680B200282DD0484680B222
:10138000802807DA494689B2DFF8F806FEF75BFFE6
:10139000002823D1009820F81490641C17F8080046
:1013A00018F10108010089B22029D2DA07EB0801FF
:1013B000296080B2202813DA5FF0040A14E018F1E3
:1013C000010817F808102F29F9D017F808105C2920
:1013D000F5D0EBE706208BE0062089E0062087E0C9
:1013E0005FF0000A00E0641E002C0BD0009800EBB8
:1013F000440030F8020C010089B22029F3D080B2F9
:101400002E28F0D00020009921F81400002C01D1E2
:1014100006206DE00B22202116F12400FEF7FEFECF
:10142000002500E06D1C009830F815002028F9D048
:10143000009830F815002E28F4D0002D03D05AF073
:10144000030A00E0641E002C06D0009800EB440064
:1014500030F8020C2E28F5D15FF000094F46FFB29C
:101460005FF008080BE0584680B2202805D05846A7
:1014700080B22E283ED1A5423CD05AF0030A0098F3
:1014800030F815B06D1C584680B20028EBD196F8A4
:101490002400E52802D1052086F82400B8F1080FC1
:1014A00001D15FEA89094846C0B210F00C000C284F
:1014B00005D04846C0B210F00300032801D15AF00D
:1014C000020A5FEA8A7010D44846C0B210F00300E6
:1014D000012801D15AF0100A5FFA89F919F00C09B4
:1014E000B9F1040F01D15AF0080A86F82FA00020A4
:1014F000BDE8F28F474501D2A54212D1B8F10B0FDA
:1015000002D15AF0030AC2E7A54201D05AF0030AF9
:10151000AC42BCD3250008275FF00B085FEA8909BD
:10152000ADE7584680B2802812DB0021584680B2D1
:1015300001F006F88346584680B2002806D0DFF84E
:1015400040051FFA8BFB584410F880BC5AF0020A81
:10155000584680B2002807D0594689B2DFF82805DE
:10156000FEF771FE002804D05FF05F0B5AF0030A0B
:1015700010E0584680B241381A2802D259F00209C8
:1015800008E0584680B261381A2803D259F00109A0
:10159000BBF1200B06EB070080F824B07F1C6EE740
:1015A00073B5040025002E6802E00198401C0190EC
:1015B000019800782F28F8D0019800785C28F4D0A2
:1015C0000020A8600198007820281FD2802084F88D
:1015D0002F0000212000FFF778F92AE02000FFF714
:1015E00069FC94F82F200100C9B2002917D15107D6
:1015F0001DD4A879C0061BD56069C005C00D304454
:1016000010F134013000FFF778FAA86001A920003A
:10161000FFF794FE0100C9B20029DFD009E0010004
:10162000C9B2042902D1510700D4052001E000E02D
:101630000520C0B276BD10B402005FF0FF30116823
:1016400000291AD0136800E05B1C1978202902D306
:1016500019783A29F8D119783A290DD111680C78FE
:10166000303C491C0A2C06D2994204D1022C02D2E9
:101670002000591C116000E0002010BC704710B51C
:1016800004000020E0705FF0FF3020632000FEF7D0
:10169000E7FE002801D004202CE004F23220FEF7FF
:1016A0008FFD4AF65521884201D0032022E094F8AC
:1016B0003400E92807D094F83400EB2819D194F8C5
:1016C0003600902815D114F16A00FEF77FFD20F056
:1016D0007F40DFF8B813884201D100200AE014F1FE
:1016E0008600FEF773FDDFF8A813884201D10020C1
:1016F00000E0022010BD00009CE00008F8B584B0B6
:101700000F00140000213960FFF795FF0600002E3E
:1017100001D50B205EE1DFF87C0350F82650002D48
:1017200001D10C2056E13D6014F0FE042878002819
:101730000DD0687800F0ACFEC10708D4E4B2002CEC
:1017400003D0400701D50A2044E1002042E10020F7
:1017500028706E70687800F0AAFEC10701D50320DA
:1017600038E1E4B2002C03D0400701D50A2031E172
:10177000002421002800FFF782FF0100C9B20229DE
:101780002AD1002410E000200AE02001284410F5AE
:10179000F97108790028F6D011F10800FEF716FD5E
:1017A000694641F82400641C042CEED30026002E68
:1017B00000D0761E684650F82640002C04D0210048
:1017C0002800FFF75CFF00E003200100C9B20229F6
:1017D00002DB761C042EEDD30100C9B2042901D12D
:1017E0000120F7E0C0B2022801DB0D20F2E015F184
:1017F0003F00FEF7E5FCB0F5007F01D00D20E9E0E9
:1018000015F14A00FEF7DCFC0700002F04D115F1AA
:101810005800FEF7DBFC0700EF6195F84400A87064
:10182000A878012804D0A878022801D00D20D1E0A2
:10183000A878474395F8410068816889002804D05A
:1018400068896989491E084201D00D20C2E015F15E
:101850004500FEF7B5FC2881287A10F00F0F01D063
:101860000D20B7E015F14700FEF7AAFC0600002E98
:1018700004D115F15400FEF7A9FC060015F1420051
:10188000FEF79EFC0100080080B2002801D10D2067
:10189000A0E017FA81F2288912EB1012964201D2C9
:1018A0000D2097E0B61A6889B6FBF0F0002801D148
:1018B0000D208FE003264FF6F673984200D20226E1
:1018C00040F6F673984200D20126801CA8612C6273
:1018D00014FA81F068621219EA623000C0B203287B
:1018E00014D115F15E00FEF76BFC002801D00D202D
:1018F00070E02889002801D00D206BE015F1600010
:10190000FEF764FCA862A869800016E02889002818
:1019100001D10D205EE0686A3F18AF623000C0B2AE
:10192000022802D1A869400007E0A96903204143C9
:10193000287E10F0010010EB5100E96900F2FF1061
:10194000B1EB502F01D20D2044E05FF0FF30686111
:1019500068692861802028713000C0B203282ED128
:1019600015F16400FEF72CFC012828D1641C21002D
:101970002800FEF775FD002821D10020287105F20E
:101980003220FEF71DFC4AF65521884217D115F189
:101990003400FEF71BFC4049884210D115F5067053
:1019A000FEF714FC3D49884209D115F50770FEF792
:1019B0000DFC686115F50870FEF708FC28612E70B3
:1019C00037480188491C01800088E8802800FEF71C
:1019D0000CFD002005B0F0BD70B504000D00092617
:1019E000002C12D0206800280FD020680078002832
:1019F0000BD0A0882168C988884206D12068407829
:101A000000F046FDC00700D400263000C0B2002818
:101A100001D1206800E0002028603000C0B270BD15
:101A2000F3B581B01500029800906846FFF703FEF9
:101A30000600002E01D50B2020E0164F57F8264057
:101A4000002C04D02000FEF7D0FC0020207001986C
:101A5000002802D0002001990870019847F826005C
:101A60000198002802D0EDB2012D01D0002005E040
:101A7000002201A902A8FFF741FEC0B2FEBD00008E
:101A800074D300088CE10008E8E1000846415400E6
:101A90004641543314130020525261417272416125
:101AA000701300202DE9F241ADF50F7D0400170001
:101AB000002C01D1092022E117F03F073A00D2B2F1
:101AC00069468FA8FFF71AFE06003000C0B2002852
:101AD00040F00D81009801900FA80099C8608F997F
:101AE00001A8FFF75DFD06003000C0B200280FD14D
:101AF0009DF83300000601D5062609E017F0FE0F19
:101B000001D0012100E0002101A8FEF7A6FB06009C
:101B100017F01C0F5ED03000C0B2002810D030008B
:101B2000C0B2042809D1FEF7D3FB002804D001A8D5
:101B3000FFF74CFA060000E0122657F0080709E00C
:101B40009DF80A0010F0110F01D0072602E0780777
:101B500000D508263000C0B200284CD138074AD53D
:101B600000F097FD0500290009980E30FEF740FBB4
:101B7000290009981630FEF73BFB20200999C8720E
:101B800009990098FEF7B9FF05000022099900980D
:101B9000FEF7C6FF002109981C30FEF729FB012043
:101BA0000099C870002D26D00098D0F8308000220F
:101BB000290001A8FEF7C4FD06003000C0B20028CD
:101BC00019D141460098FEF74BFC06006D1E0098A7
:101BD000056110E03000C0B200280CD19DF80A0069
:101BE000C00601D5042606E0B80704D59DF80A0012
:101BF000C00700D507263000C0B2002816D138072C
:101C000001D557F040070098006B60620998A06208
:101C100017F0FE0F01D0012100E0002101A8FEF71E
:101C200068FB20612069002800D102263000C0B284
:101C300000285CD109990098FEF75FFFA060099821
:101C40001C30FEF7C3FAE0600020E06200982060DC
:101C50000098C088A0802775002060750020206251
:101C60000020A0614FF40072002114F13000FEF753
:101C7000D5FAB8063BD5E068002838D0E068A06106
:101C8000009847894FF400704743A168E5680BE06E
:101C90002000FEF75BFC0100022900D2022611F1B0
:101CA000010F00D10126ED1B3000C0B2002801D188
:101CB000AF42EDD3E1613000C0B2002817D1E80592
:101CC00015D00098FEF735FC0100002801D102264E
:101CD0000DE011EB552121620123226A14F130013C
:101CE0000098407800F0FCFB002800D0012630006E
:101CF000C0B2002801D0002020603000C0B20DF535
:101D0000107DBDE8F0812DE9FC47060088461400EF
:101D10001F000020386069463000FFF75DFE0100BB
:101D2000C9B2002904D1717D0800C9B2002901D0CF
:101D3000C0B2C8E0307DC00701D40720C3E0F1681D
:101D4000B069081AA0424FD204004DE010F1010F13
:101D50006ED0F061F1690098FEF7EBFB8246BAF1B4
:101D6000000F69D015EB0A0AA1465FEA5929B9F1BB
:101D7000000F69D00098408919EB0501884204D210
:101D800000984089A946B0EB09094B4652464146A6
:101D90000098407800F0A4FB002851D1307D000667
:101DA00013D5306AB0EB0A0048450ED24FF40072EA
:101DB00016F13001306AB0EB0A0A4FF4007000FBF4
:101DC0000AFA08EB0A00FEF71FFA4FF4007000FB56
:101DD00009F9C844B06919EB0000B061386819EB23
:101DE00000003860B4EB0904002C6BD0B069C0056A
:101DF0004AD1B06900994D896D1E15EA5025002D14
:101E0000A8D1B069002801D1B0680BE0F06A0028C1
:101E100004D0B1693000FEF743FD03E0F169300002
:101E2000FEF794FB022891D20220707502204AE04E
:101E300001207075012046E002207075022042E00A
:101E40000120707501203EE0306A50451AD0307D87
:101E500000060DD50123326A16F130010098407852
:101E600000F04DFB002825D1307D10F07F0030754B
:101E70000123524616F130010098407800F030FB03
:101E800000281BD1C6F820A0D6F818905FEAC959DF
:101E90005FEAD959D9F500794C4500D2A1464A46A6
:101EA000B069C005C00D304410F130014046FEF766
:101EB000ABF98EE701207075012004E001207075F8
:101EC000012000E00020BDE8F6877CB504006946EB
:101ED0002000FFF781FD0100C9B2002943D1217D17
:101EE000490640D5207D00060FD50123226A14F152
:101EF00030010098407800F002FB002801D001205A
:101F000032E0207D10F07F00207500F0C2FB05005C
:101F1000616A0098FEF7A4FA0100C9B2002922D133
:101F2000A66AF07A50F02000F072A26831002068B2
:101F3000FEF7F6FDE16816F11C00FEF759F92900DD
:101F400016F11600FEF754F9002116F11200FEF703
:101F500048F901200099C8700098FEF7A0FA217D89
:101F600011F0BF012175C0B276BD1CB50400200080
:101F7000FFF7ABFF0100C9B2002910D1694620006C
:101F8000FFF72AFD0100C9B2002908D12069FEF738
:101F90000BFA0100C9B2002901D100212160C0B2B1
:101FA00016BD2DE9F84F04000E0069462000FFF72A
:101FB00013FD05002800C0B2002800D1657D28006F
:101FC000C0B2002802D02800C0B23CE1E06A00287C
:101FD00000F08A8016F1010F3AD1E06A0668071D09
:101FE0005FF00208A068002820D081465FF0000A58
:101FF00018F1020883461AF1010A01002000FEF7D9
:10200000A5FA02281AD310F1010F1BD01BF1010B06
:102010005845EFD0464505D3C7F800A0391DC1F893
:1020200000900F1D009989698842DED3E06AC0F8EC
:10203000008046450AD30020386002E10220607526
:10204000022000E1012060750120FCE01125F8E08C
:10205000E068B04200D2E668A661002E00F0F18090
:10206000711E2000FEF71CFCE061E1690098FEF79C
:1020700060FA0700002F03D1022060750220E2E021
:10208000761E00984089401E10EA5620C719A069A4
:10209000C00500F0D680206A874200F0D280207D03
:1020A000000611D50123226A14F13001009840780E
:1020B00000F025FA002803D0012060750120C2E05D
:1020C000207D10F07F00207501233A0014F13001CB
:1020D0000098407800F004FA002803D001206075D1
:1020E0000120B0E02762ACE0E068B04203D2207D7E
:1020F000800700D4E668A0690027A761002E6CD095
:102100000099B1F80A804FF4007101FB08F800282B
:1021100010D0411EB1FBF8F1721EB2FBF8F28A42F8
:1021200008D3401EB8F101018843A061A069361AA6
:10213000E06915E0A068002811D100212000FEF719
:1021400046FB012803D10220607502207BE010F1DC
:10215000010F03D101206075012074E0A060E061EF
:10216000002807D139E0022831D3009989698842D3
:102170002DD2E061B0450FD2B6EB0806A16918EB8D
:102180000101A161217D890716D501002000FEF71C
:102190001EFB002814D10026A1697118A161F10568
:1021A0001BD001000098FEF7C4F90700002F12D1E0
:1021B00002206075022046E001002000FEF7C6F90B
:1021C00010F1010FCFD10120607501203BE002200A
:1021D0006075022037E017EB5627E068A169884256
:1021E00005D2A069E060207D50F040002075A06914
:1021F000C00526D0206A874223D0207D000611D555
:102200000123226A14F130010098407800F077F938
:10221000002803D001206075012014E0207D10F01B
:102220007F00207501233A0014F1300100984078B6
:1022300000F056F9002803D001206075012002E06B
:1022400027622800C0B2BDE8F28F72B5ADF5017DFE
:102250000400002C01D1092052E02500002269462B
:1022600081A8FFF74BFA06003000C0B200283FD12A
:102270000098286001A80099C86081992000FFF7A4
:102280008FF906003000C0B200282CD194F82F003E
:10229000000609D4A879C00605D5216A0098FEF782
:1022A0002CFCA86000E005263000C0B200281AD13E
:1022B0000098C088A88000212000FEF706FB0600D9
:1022C0003000C0B200280ED1A868002809D0002133
:1022D0002000FEF70EF828612869002803D1122695
:1022E00001E0002028613000C0B2042800D105269A
:1022F0003000C0B2002801D0002028603000C0B2F9
:102300000DF5027D70BD1CB5040069462000FFF785
:1023100063FB0100C9B200290BD12169002902D059
:102320002069FEF741F80100C9B2002901D100215E
:102330002160C0B216BD30B5ADF5017D05000C00C1
:1023400069462800FFF748FB0100C9B2002923D1E4
:10235000002C04D100212800FEF7B7FA1CE001A8E8
:102360000099C86000212800FEF724FD0100C9B2D1
:10237000042900D100200100C9B200290CD121009C
:102380002800FEF7D6FE00212800FEF7F3FA010030
:10239000C9B2042900D10020C0B20DF5017D30BDC5
:1023A00070B505000C0021002800FFF7C4FF0600EF
:1023B0003000C0B2002810D1002C0ED0A07D002823
:1023C0000BD00023002214F11601686BFEF759FFB1
:1023D0000028E8D03000C0B270BDFBE738B504007B
:1023E0000D00110063632000FFF72FFF0100C9B249
:1023F000002903D129002000FFF7D2FFC0B232BD6F
:1024000031B5ADF50E7D0C00002280A98EA8FFF736
:1024100075F905002800C0B2002817D168468099D8
:10242000C8608E9980A8FFF7BBF805002800C0B2ED
:1024300000280BD19DF82F02000601D5062505E0E6
:10244000002C03D0210080A8FEF773FE2800C0B244
:102450000DF50F7D30BD30B4002513E050F8042B8E
:10246000D30744BFA9F101039A18091F042942F8B0
:10247000045BFAD213468C0744BF15809B1CC90726
:1024800048BF1D7050F8041B0029E7D130BC7047CD
:1024900080B50100294A0800C0B21044007BC9B2CF
:1024A00002EB8101496849688847C0B202BD80B526
:1024B00002000020214B1100C9B2595C00290DD146
:1024C00001201100C9B258541000C0B21844007B5A
:1024D000D2B203EB8201496809688847C0B202BDE5
:1024E00038B50400154D2000C0B22844007BE4B28A
:1024F00005EB84046468A468A047C0B232BD38B557
:1025000004000E4D2000C0B22844007BE4B205EB6D
:1025100084046468E468A047C0B232BD10B503000B
:10252000064CC9B21800C0B22044007BDBB204EBF9
:1025300083035B681B699847C0B210BD98120020E6
:1025400010B4020092B2802A24DB00290ED00100D0
:1025500089B2B1F5807F01DB00201BE03B4980B2EE
:1025600001EB4000B0F58070008813E0002100E02E
:10257000491C0A0092B2802A08DA0200334B0C0090
:10258000A4B233F8143092B29A42F1D108008030EC
:1025900000F0FF0080B210BC704770B4010089B237
:1025A000B1F5805F01DA2A4907E02A4905E092B2D5
:1025B000002A02D1A4B201EB44010B888A1C190045
:1025C00089B2002905D001001C0089B2A4B2A14241
:1025D00000D237E01488911C220092B2120A04F053
:1025E000FF040500ADB22600B6B216FA83F6B54276
:1025F000DDDA92B2002A0CD0022A15D00FD3042AB9
:1026000016D013D3062A17D014D3082A18D015D3FE
:1026100018E080B29BB2C01A31F8100012E0C31A61
:1026200013F00103C01A0DE010380BE0203809E068
:10263000303807E01A3805E0083003E0503801E090
:10264000B0F5E35080B270BC7047000028CD0008A0
:1026500034CB00086CD1000810B5234C210023486E
:1026600000F075F8224908702249234800F06FF8FD
:1026700022490870012221002148FFF7D1F9010009
:102680000800C0B2002803D0C9B21E4800F069F8A3
:1026900010BD80B51C4800F083F80090684600F03B
:1026A0009DF8010000204A69503A50EA42600A69E8
:1026B000521C520512F0F0721043CA68120412F450
:1026C000F81210438A68D20212F4784210434A6822
:1026D000520112F4FC6210430968022291FBF2F1EC
:1026E00011F01F01084302BD24130020ACDF0008D5
:1026F00072130020281300206405002073130020AB
:10270000B00A0020BCDC00080013002030B4030035
:1027100001200024104CA57B022D15DA0020A57B9A
:102720006055A07B04EB80004360A07B20440273D3
:10273000A07B421CA273303008703A2048702F20D2
:1027400088700020C8700020C0B230BC704780B5CF
:102750000022FFF7DBFF02BD98120020034800684B
:1027600070470EB4002003B0704700002013002013
:1027700011B58BB00C0069460BA800F055F8059810
:1027800000F26C7020800498401CA0700398E070E8
:1027900002982071019860710098A0710CB010BD72
:1027A00000B58BB090F90610009190F905100191D9
:1027B00090F90410029190F90310039190F902101E
:1027C000491E0491B0F90000A0F26C700590002041
:1027D0000890684600F044F80BB000BD10B5044600
:1027E00000F0A6F82168BDE8104041184FF0FF3214
:1027F000002000F09FB88268521C8260426832B1AB
:102800000268531C036011704168491E41607047A3
:1028100000F08EF8296841182046BDE838404FF096
:10282000FF3200F087B8000038B505000C4618BF2D
:10283000002C00D0ECE700BF02A000F001F900205E
:1028400032BD00006C6F63616C74696D655F733AD3
:102850002062616420617267756D656E74000000AE
:102860002DE9F84306460C20316991FBF0F000EBAE
:102870004002B1EB820144BF0C31401E002847D515
:102880007269C0F100439A4249DB726980180546BB
:1028900000F0F6F8D6F804C0D6F800E0224BB7688E
:1028A0004FF4B4619CFBF1F89EFBF3F4994640F2BF
:1028B0006D11F368182201FB050597FBF2F25D1913
:1028C0005519454465191948451902EB4200A7EB13
:1028D000C0074FF461624FF4B461574301FB18CC59
:1028E00009FB0575CCEB0C1005EB8005754409FB65
:1028F0001454326A2146304600F01CF8306A002831
:10290000C8BFA4F5616400F013F8201ABDE8F28393
:10291000BBDD6FF000427369121A9A42B5DA4FF0CC
:10292000FF30BDE8F28300BF80510100209CFFFF13
:10293000002070472DE9F84F05003248DFF8C880C5
:1029400008BF324D00EB01092A6209F56160009071
:102950000FF2D4062EA701E0DDF80090B9FBF8FADB
:102960000AF10100072190FBF1F1C1EBC101401A0E
:10297000A86140F26D109AFBF0F400E0641E0021A3
:10298000204600F07DF840F26D1101FB04018A45FC
:10299000F4DBAAEB010B14F0030F6C61C5F81CB05B
:1029A00000D10CB9304600E038460C2100F1180285
:1029B00032F9023D491E9B45FADB296108FB1A9951
:1029C00030F91100ABEB0000401CE8604FF461618E
:1029D000B9FBF1F0A86001FB10993C20B9FBF0F0C5
:1029E0006860C0EB0011A9EB81002860286A00280C
:1029F00005D5284600F07AF800282862ACDC284685
:102A0000BDE8F28F807EAA8380510100141200205D
:102A100000001F003C005B0079009800B600D50064
:102A2000F400120131014F0100001F003B005A0069
:102A300078009700B500D400F300110130014E0179
:102A400080B500B906A005490B681BB12222002100
:102A5000984701E000F04DF8222002BD60130020ED
:102A6000636F6E73747261696E742068616E646CFA
:102A700065723A20626164206D65737361676500F9
:102A80000246002A04DD501E431000EB937005E05F
:102A900012F1030F04DA401002EB9070801000E096
:102AA000002012F0030F00D112B900BF09A200E00C
:102AB00002A232F9111008187047000000001F0030
:102AC0003C005B0079009800B600D500F4001201CC
:102AD00031014F0100001F003B005A0078009700B1
:102AE000B500D400F300110130014E014FF0FF306A
:102AF0007047012000F033B838B505000C00FFF72F
:102B00002DFE002C01D0002802D15FF0FF3007E03D
:102B1000012D04D0022D02D05FF0FF3000E0002034
:102B200032BD001E032802D35FF0FF3000E000201A
:102B30007047002803D0012801D0022802D15FF09D
:102B4000FF3001E05FF0FF30704710B5002403E074
:102B50002000FFF7E6FF641C032CF9DB10BD72B602
:102B6000FEE72E0010B50400002C01D1012074E016
:102B70002068DFF87015884205D04FF4AC71DFF89B
:102B8000680500F0E0FF6068002809D06068B0F5D3
:102B9000005F05D040F25911DFF84C0500F0D3FF7B
:102BA000A068002809D0A068B0F5806F05D04FF468
:102BB000AD71DFF8340500F0C6FFE068002809D0E9
:102BC000E068B0F5007F05D040F25B11DFF8180532
:102BD00000F0B9FF206900280DD02069B0F5006F22
:102BE00009D02069B0F5805F05D04FF4AE71DFF8F1
:102BF000F80400F0A8FF6069002809D06069B0F50A
:102C0000804F05D040F25D11DFF8DC0400F09BFF3F
:102C1000A069B0F5807F05D34FF4AF71DFF8C80429
:102C200000F091FF94F83400002804D100202077B0
:102C3000200000F0E1FF032084F83400200000F0C1
:102C40000DF8002801D0012007E00020A06300203B
:102C50002063012084F83400002010BD30B589B015
:102C60000400002003900020049000200590002024
:102C70000690002007907620089003A983B068464C
:102C8000182201F099F80EBC206801F0D9F8C0B202
:102C9000002801D0012039E0DFF82056002028600C
:102CA000206801F041F901202860022001F04EFD6A
:102CB000200000F093FD002807D0012184F8341093
:102CC000A16B0843A063012020E0200000F00DFD6F
:102CD000002807D0012184F83410A16B0843A063B9
:102CE000012013E04FF40071206801F001FA002880
:102CF0000BD0DFF8CC1522689163A16B0843A06369
:102D0000012084F83400012000E0002009B030BD2B
:102D10002DE9F04786B006000C001500994601F039
:102D200029FD0700A046002C05D1B06B50F00060D3
:102D3000B06301202BE196F83400012840F0228195
:102D40000020B063F06D19EB0501884205D2B06B2D
:102D500050F00070B063012019E1032086F83400C0
:102D600000203168C862706C012802D04FF40070F6
:102D700045435FF0FF3000904FF4007000FB09F016
:102D800001909020029002200390002004900120E6
:102D900005906946306801F033F9B9F1020F06D3A6
:102DA000022030632900306801F0D4F905E00120E9
:102DB00030632900306801F0B4F900280DD0DFF845
:102DC000001532689163B16B0843B063012086F847
:102DD0003400002030630120D9E0019C0E9D306852
:102DE000406B40F22A3108423AD13068406B00040F
:102DF00020D5002C1ED05FF0000A18E0306801F0EA
:102E00008BF888F8000018F10101641E0200120A14
:102E10000A70491C641E0200120C0A70491C641ED0
:102E2000000E087011F10108641E1AF1010ABAF1CE
:102E3000080FE3D301F09EFCC01BA84201D2002D75
:102E4000CDD1DFF87C0431688863B06B50F000406E
:102E5000B063012086F8340000203063032096E040
:102E60003068406BC00518D5B9F1020F15D3706CEE
:102E7000032812D0306801F0B8F900280DD0DFF82F
:102E8000401432689163B16B0843B063012086F847
:102E9000340000203063012079E03068406B000787
:102EA0000ED5DFF81C0431688863B06B50F0080061
:102EB000B063012086F8340000203063012066E012
:102EC0003068406B80070ED5DFF8F4033168886303
:102ED000B06B50F00200B063012086F8340000208F
:102EE0003063012053E03068406B80060ED5DFF878
:102EF000D00331688863B06B50F02000B0630120CC
:102F000086F8340000203063012040E03068406BD8
:102F100080022ED5002C2CD0306800F0FDFF88F800
:102F2000000018F10101641E0200120A0A70491C17
:102F3000641E0200120C0A70491C641E000E087008
:102F400011F10108641E01F015FCC01BA84201D25A
:102F5000002DDBD1DFF8680331688863B06B50F077
:102F60000040B063012086F8340000203063012067
:102F70000DE040F23A5031688863012086F8340051
:102F8000002004E0B06B50F00050B063012006B0A8
:102F9000BDE8F08770B586B005000C0011001E007A
:102FA000002C05D1A86B50F00060A863012096E0CA
:102FB00095F83400012840F091800020A863E86D66
:102FC0007218904205D2A86B50F00070A8630120DF
:102FD00085E0032085F8340000202A68D062286844
:102FE000C26B40F21A2002432868C2630FF2F55008
:102FF000EA6BD0630FF2FD50EA6BD0640020EA6BFD
:103000001065686C012802D04FF400704143022E15
:1030100005D3A0202863286801F0CEF804E09020B2
:103020002863286801F0AFF800280DD0DFF890126F
:103030002A689163A96B0843A863012085F83400CE
:103040000020286301204AE00120DFF80C16086008
:103050004020E96B8860E86B0068016831F0C001CE
:10306000E86B80680143E86B006801604FF400730F
:1030700003FB06F39B08286810F180022100E86B2F
:1030800001F015FD002814D02868C16BDFF8F8079F
:1030900001402868C1638A4829688863A86B50F09A
:1030A0008040A863012085F83400002028630120B7
:1030B00015E05FF0FF3000904FF40070464301963A
:1030C00090200290002003900020049001200590A1
:1030D0006946286800F094FF002000E0022006B056
:1030E00070BD0000002C0140FCDF000838B5040072
:1030F000256B2068406B000405D5280703D5200008
:1031000000F0CCFCD9E02068406BC00555D54FF4E9
:103110008070216888632068C16BDFF87007014008
:103120002068C1632068C06A400840002168C86206
:10313000280721D515F0220F0AD0206801F055F894
:10314000002805D0A16B0843A063200001F0B2FE67
:1031500040F23A5021688863012084F8340000204E
:10316000206315F0030F03D0200001F0ACFEA4E0B3
:10317000200001F0A4FEA0E0280640F19E80A806F1
:103180000AD5206801F031F8002805D0A16B08436A
:10319000A063200001F08EFE15F0030F40F08D803B
:1031A0002068C06A30F008002168C862012084F8F5
:1031B0003400200001F083FE7FE02068406B400473
:1031C00005D5280703D5200000F08AFC75E02068AB
:1031D000406B40F23A2108426FD02068406B800774
:1031E00003D5A06B50F00200A0632068406B00077D
:1031F00003D5A06B50F00800A0632068406B8006E8
:1032000003D5A06B50F02000A0632068406BC0067F
:1032100003D5A06B50F01000A0632068406B8005C0
:1032200003D5A06B50F00800A06340F23A7021680B
:1032300088632068C16BDFF8580601402068C163CD
:10324000206800F0D2FFA16B0843A063280708D5CF
:10325000012084F8340000202063200001F02AFEC1
:103260002BE0280629D515F0300F0CD00FF2ED30E9
:10327000E16B0865E06B01F067FC00281DD0E06B96
:1032800000F0ECF919E015F0030F0CD00FF2154027
:10329000216C0865206C01F057FC00280DD0206CD3
:1032A00000F000FA09E00020A063012084F8340057
:1032B00000202063200001F0FEFD31BDA0802542EA
:1032C000FF05400010B4426E920F0A70426E920EDB
:1032D00012F00F024A70426E120E12F003028A7050
:1032E000426E120CCA70426E120A0A71426E4A7124
:1032F000826E120DCA80826E120C12F00F020A72D8
:10330000826ED20B12F001024A72826E920B12F0A0
:1033100001028A72826E520B12F00102CA72826E30
:10332000120B12F001020A7300224A73426C002A47
:1033300040F09B80826E40F6FC7313EA8203C26EFB
:1033400053EA92730B61C26ED20E12F007020A7535
:10335000C26E120E12F007024A75C26E520D12F0C2
:1033600007028A75C26E920C12F00702CA75C26E0D
:10337000D20B12F007020A760A69521C426501223A
:10338000436D0C7E14F00704A41C12FA04F463438A
:1033900043650B7A13F00F039A408265426D836D8B
:1033A0005B0A5A43C2654FF400720266C26E920B0A
:1033B00012F001024A76C26ED20912F07F028A76BA
:1033C00090F86C2012F07F02CA76026FD20F0A7753
:1033D000026F520F12F003024A77026F920E12F040
:1033E00007028A77026F920D12F00F02CA77026FFE
:1033F000520D12F0010281F82020002281F82120D4
:10340000026F120C12F0010281F82220026FD20B1F
:1034100012F0010281F82320026F920B12F00102D8
:1034200081F82420026F520B12F0010281F825204E
:10343000026F120B12F0010281F82620026F920A2D
:1034400012F0030281F82720026F120A12F0030221
:1034500081F82820006FC0F3460081F82900012080
:1034600081F82A00002010BC7047426C012A15D157
:10347000826E120412F47C12C36E52EA13420A6185
:103480000B695B1C4FF4806253434365426DC26518
:103490004FF400728265826D026687E7DFF8F413ED
:1034A00002689163816B51F080518163012180F842
:1034B00034100120D7E7426C0A60826C4A60C26C0B
:1034C0008A60026DCA60426D0A61826D4A61C26D96
:1034D0008A61006EC8610020704778B589B0040029
:1034E0000E000025002E0BD0B6F5006F08D0B6F503
:1034F000805F05D040F6C401DFF89C0300F023FB99
:10350000032084F83400606C03281FD0B6F5805F78
:1035100004D1A06B50F08050A0631BE0B6F5006FA3
:1035200006D1200000F0D2F9A16B0843A06311E09E
:10353000002E06D1200000F0F4F9A16B0843A0632F
:1035400008E0A06B50F00060A06303E0A06B50F0B7
:103550008050A063A06B002808D0DFF838032168F2
:103560008863012084F83400012514E0606803902A
:10357000A0680490E0680590069660690790A069CD
:10358000089003A983B06846182200F015FC0EBC11
:10359000206800F055FC4FF40071206800F0A8FD91
:1035A000002807D0DFF8EC1222689163A16B084372
:1035B000A0630125012084F834002800C0B20AB0BD
:1035C00070BD1CB50400002000906946200000F08A
:1035D00067F9002802D0A16B0843A0630098C0F3EC
:1035E000432016BD806B0168C96B51F4807100687F
:1035F000C163704710B5846B01F0BEFB022829D06F
:10360000206C406DE16B496D012801D001291ED16C
:10361000A048216888632068C06B30F49D702168E1
:10362000C863A06B50F08040A0632000FFF7C9FF83
:10363000062801D0052805D1206800F0D6FDA16B31
:103640000843A063012084F8340000202063200098
:1036500001F030FC10BD00008C85254210B5846B54
:1036600040F23A50216888632000FFF7AAFF012149
:1036700084F8341000212163062801D0052805D1E3
:10368000206800F0B2FDA16B0843A063A06B002886
:1036900003D1200001F00FFC02E0200001F00AFC41
:1036A00010BD000010B5846B40F23A502168886369
:1036B0002000FFF786FF012184F8341000212163E8
:1036C000062801D0052805D1206800F08EFDA16BE9
:1036D0000843A063A06B002803D1200001F0EBFB9E
:1036E00002E0200001F0E6FB10BD18B58FB0040029
:1036F0000120ADF80C00206800F01AFC002802D16F
:103700005FF0806068E0606C032819D0206800F0EA
:1037100033FE002860D10021206800F05BFC606768
:103720000421206800F056FCA0670821206800F002
:1037300051FCE0670C21206800F04CFCC4F88000CC
:10374000606C032805D003A9206800F042FE002821
:1037500042D1606C03281DD0BDF80C002065216D9E
:103760000904206800F01FFE002835D100212068E0
:1037700000F030FC60660421206800F02BFCA0669D
:103780000821206800F026FCE0660C21206800F08B
:1037900021FC20670421206800F01CFC000DE0647F
:1037A00004A92000FFF78EFD002802D05FF08050B2
:1037B00012E0226D12040023206800F030FD002882
:1037C0000AD1211D83B06846182200F0F5FA0EBC1C
:1037D000206800F035FB002010B010BD7CB505005E
:1037E0000020009000260024286800F031FD002809
:1037F00049D1286800F043FD002807D00020A864C4
:10380000286800F025FD002802D03CE00120A864D3
:10381000A86C012818D10021286800F048FD002874
:1038200012D05FF080502EE01C49286800F058FD4F
:10383000002817D10021286800F0CCFB06003400D6
:10384000E40F0098401C00904FF6FF7000998142F1
:103850000BD2002C09D10021286800F028FD002897
:10386000E2D010E05FF080500DE00099814202D379
:103870005FF0807007E0700002D50120686401E00D
:1038800000206864002076BDE5FDFFFFC53CFFFF1A
:10389000C5FCFFFFFF054000FCDF0008000010C171
:1038A00038B505000C00002C02D15FF000600CE080
:1038B000296D0904286800F0A6FD002805D1002123
:1038C000286800F087FB2060002032BD1CB5040092
:1038D00008220021684601F0FBFA0021206800F070
:1038E00079FB800102D54FF4006019E069462000A1
:1038F00000F042F8002813D1019840030ED5216D45
:103900000904206800F0D3FC002809D102212068B6
:1039100000F0FFFC002803D1002001E05FF0806090
:1039200016BD1CB5040008220021684601F0D0FA3B
:103930000021206800F04EFB800102D54FF40060AA
:1039400019E06946200000F017F8002813D101980B
:10395000C0030ED5216D0904206800F0A8FC0028E2
:1039600009D10021206800F0D4FC002803D10020F8
:1039700001E05FF0806016BDF8B588B004000F006C
:1039800000F0F8FE0500002608220021684601F03C
:103990009FFA0821206800F0ABFB00287CD1216D44
:1039A0000904206800F083FC002875D15FF0FF3027
:1039B00002900820039030200490022005900020FF
:1039C00006900120079002A9206800F019FB2068EA
:1039D00000F0B8FC00285FD12068406B10F02A0F7F
:1039E00018D12068406B800207D5206800F094FA57
:1039F000694641F82600761C03E02068406B80048D
:103A000008D500F0B7FE401B10F1010FE4D15FF0C4
:103A1000004041E02068406B000704D50820216881
:103A20008863082038E02068406B800704D50220B6
:103A30002168886302202FE02068406B800604D54F
:103A4000202021688863202026E040F23A50216837
:103A50008863684641684268120212F47F0252EAA3
:103A600001624168090A11F47F410A43406852EA41
:103A700010623A60381D0099009A120212F47F0217
:103A800052EA01620099090A11F47F410A43009940
:103A900052EA11620260002009B0F0BDF8B50500DD
:103AA000AF6AEC6A002C1AD0002614E0286800F0F7
:103AB00033FA3870791C641E0200120A0A70491C1D
:103AC000641E0200120C0A70491C641E000E08706D
:103AD0004F1C641E761C082EE8D3AF62EC62F1BD69
:103AE000F8B505002F6A6C6A002C23D000261DE073
:103AF00038780090781C641E0099027851EA0221FF
:103B00000091401C641E0099027851EA0241009124
:103B1000401C641E0099027851EA02610091471C22
:103B2000641E6946286800F0FAF9761C082EDFD377
:103B30002F626C62F1BD000080B50A0001002248CE
:103B4000FEF70FFE01BD80B5FFF7F6FF01BD0CB417
:103B5000F8B5A2B00C00002506A91C4A92E8C800DE
:103B600081E8C80072B680B205909DF91E000490ED
:103B70009DF91D0003909DF91C0002909DF91B000A
:103B800001909DF91A000090BDF91830104A642187
:103B900009A8284401F0A6F9642109A801F0E4F974
:103BA00028AB2200D0F1640109AC204401F008FAEE
:103BB00009AA6421074801F03DFA01F01AFB23B07D
:103BC000F0BC5DF80CFB0000F8E10008A4E100087F
:103BD00044DC0008040000206548664901600021BB
:103BE0004160002181600021C1600021016100214C
:103BF00041610121816170472DE9F84F86B00400D1
:103C00001422002101A801F063F920685949884273
:103C100040F0AB80002000905748016851F40061EB
:103C20000160006810F4006000900098002000908F
:103C3000524D286850F004002860286810F00400F5
:103C40000090009800200090286850F0080028603C
:103C5000286810F00800009000984FF4F850019088
:103C60000220029000200390032004900C20059075
:103C700001A9434801F0D0FA0420019002200290EB
:103C800000200390032004900C20059001A93D48DA
:103C900001F0C2FA00220521312001F07BFA312027
:103CA00001F097FA00200090286850F48000286006
:103CB000286810F4800000900098334D3348286045
:103CC0005FF000666E600020A8600020E8604FF49E
:103CD00080672F614FF48058C5F814804FF48049F5
:103CE000C5F818902020E86100202862042068624E
:103CF0000320A8625FF4000AC5F82CA05FF4001B43
:103D0000C5F830B0280000F03BFD2564AC63204DC1
:103D1000204828606E604020A8600020E8602F6185
:103D2000C5F81480C5F818902020E86100202862AA
:103D3000042068620320A862C5F82CA0C5F830B042
:103D4000280000F01DFDE563AC63002205213B2047
:103D500001F020FA3B2001F03CFA00220521452029
:103D600001F018FA452001F034FA07B0BDE8F08FF1
:103D70002C0E0020002C0140443802403038024014
:103D800000080240000C0240B00E002058640240BF
:103D9000100F0020A064024062B38B0708D0521EAF
:103DA00011F8013B00F8013B00F024808B07F6D1AD
:103DB000830740F0208000BF103A07D330B4B1E849
:103DC0003810103AA0E83810F9D230BC530724BF9D
:103DD000B1E80810A0E8081044BF51F8043B40F8CF
:103DE000043BD20724BF31F8022B20F8022B44BF3A
:103DF0000B7803707047121F17D35B0009D151F87D
:103E0000043B20F8023B1B0C121F20F8023BF6D2A9
:103E10000BE051F8043B00F8013B1B0A20F8023B81
:103E20001B0C121F00F8013BF3D238BF121D521EAB
:103E300024BF11F8013B00F8013BF8D8704700009F
:103E40000EB430B504000025DFF8E408844204D045
:103E5000DB21DFF8E008FFF776FE0398002808D0A2
:103E60000398B0F5005F04D0DC21DFF8C808FFF745
:103E70006AFE0498002808D00498B0F5806F04D03A
:103E8000DD21DFF8B008FFF75EFE0598002808D0B6
:103E90000598B0F5007F04D0DE21DFF89808FFF721
:103EA00052FE069800280CD00698B0F5006F08D096
:103EB0000698B0F5805F04D0DF21DFF87808FFF7BF
:103EC00042FE0798002808D00798B0F5804F04D02C
:103ED000E021DFF86008FFF736FE0898B0F5807F34
:103EE00004D3E121DFF84C08FFF72DFE0399049875
:103EF0000143059801430698014307980143089838
:103F000001430D436168DFF8300801400D436560EF
:103F1000002030BC5DF810FBD0F8800070470968C5
:103F2000C0F8801000207047032101600020704716
:103F3000006810F00300704770B504000E00002503
:103F40007068402805D340F26711DFF8E807FFF7F3
:103F5000FAFDB06800280BD0B068402808D0B068DF
:103F6000C02805D04FF4B471DFF8C807FFF7EBFDA8
:103F7000F06800280DD0F068B0F5807F09D0F068B7
:103F8000B0F5007F05D040F26911DFF8A807FFF710
:103F9000DAFD3069002809D03069B0F5806F05D0AE
:103FA0004FF4B571DFF88C07FFF7CDFD3068A060E6
:103FB0007168B0680143F0680143306901430D4303
:103FC000E068000B00030543E560002070BD006958
:103FD000C0B2704738B505000C00002C0BD0042C83
:103FE00009D0082C07D00C2C05D04FF4CB71DFF88A
:103FF0004407FFF7A8FD15F114002418206832BD0E
:1040000070B505000C0000266068B0F1007F05D394
:1040100040F2AB11DFF81C07FFF795FDA068002800
:104020002FD0A06810282CD0A068202829D0A06804
:10403000302826D0A068402823D0A068502820D05F
:10404000A06860281DD0A06870281AD0A0688028B9
:1040500017D0A068902814D0A068A02811D0A0681C
:10406000B0280ED0A068C0280BD0A068D02808D0F7
:10407000A068E02805D04FF4D671DFF8B806FFF746
:1040800062FDE068002808D0E068022805D040F210
:10409000AD11DFF8A006FFF756FD2069002808D013
:1040A0002069042805D04FF4D771DFF88806FFF7A0
:1040B0004AFD6069002808D06069012805D040F2F7
:1040C000AF11DFF87006FFF73EFD20686862606898
:1040D000A862A168E0680143206901436069014367
:1040E0000E43E86A30F0F7000643EE62002070BD30
:1040F00018B585B004000091102001904020029076
:10410000002003904FF48060049069462000FFF780
:1041100013FF40F6B8321021200000F08DF906B0F0
:1041200010BD18B585B00400009111200190402009
:104130000290002003904FF48060049069462000B4
:10414000FFF7FAFE40F6B8321121200000F074F9B2
:1041500006B010BD18B585B0040000911220019082
:1041600040200290002003904FF480600490694644
:104170002000FFF7E1FE40F6B8321221200000F0E7
:104180005BF906B010BD18B585B004000091182089
:10419000019040200290002003904FF48060049032
:1041A00069462000FFF7C8FE40F6B832182120000B
:1041B00000F042F906B010BD18B585B004000091BA
:1041C0001920019040200290002003904FF480605D
:1041D000049069462000FFF7AFFE40F6B83219217F
:1041E000200000F029F906B010BD18B585B0040014
:1041F000002000900C2001904020029000200390AD
:104200004FF48060049069462000FFF795FEDFF8C8
:104210002C250C21200000F00FF906B010BD18B5B8
:1042200085B00400009207200190402002900020F9
:1042300003904FF48060049069462000FFF77CFEF5
:1042400040F6B8320721200000F0F6F806B010BDA5
:1042500018B585B0040000200090002001900020D7
:104260000290002003904FF4806004906946200083
:10427000FFF762FE200000F041FA06B010BD18B54D
:1042800085B004004FF4D5700090082001904020C4
:104290000290002003904FF4806004906946200053
:1042A000FFF74AFE200000F0FCF906B010BD18B57B
:1042B00085B004000091372001904020029000203A
:1042C00003904FF48060049069462000FFF734FEAD
:1042D00040F6B8323721200000F0AEF806B010BD2D
:1042E00018B585B00400DFF8580401430091292077
:1042F000019040200290002003904FF480600490D1
:1043000069462000FFF718FE200000F05BF906B0B8
:1043100010BD18B585B00400009106200190402022
:104320000290002003904FF48060049069462000C2
:10433000FFF702FE40F6B8320621200000F07CF8BC
:1043400006B010BD18B585B00400002000903320E1
:10435000019040200290002003904FF48060049070
:1043600069462000FFF7E8FD40F6B832332120000F
:1043700000F062F806B010BD18B585B0040000204A
:10438000009002200190C0200290002003904FF482
:104390008060049069462000FFF7CEFD200000F009
:1043A000E7F806B010BD18B585B0040000910920EB
:1043B0000190C0200290002003904FF48060049090
:1043C00069462000FFF7B8FD200000F0D1F806B0E4
:1043D00010BD30B585B004000D0000200090032012
:1043E000019040200290002003904FF480600490E0
:1043F00069462000FFF7A0FD2A000321200000F0FD
:1044000004F905B030BD18B585B0040000910D2049
:10441000019040200290002003904FF480600490AF
:1044200069462000FFF788FD40F6B8320D212000D4
:1044300000F002F806B010BDF8B504000D0016003B
:10444000DFF800030068C0084FF47A71B0FBF1F0A8
:1044500000FB06F0002000F08DF9070000F08AF95B
:10446000C01B86420CD3606B10F0450FF6D00005E0
:10447000F4D4606B400706D50420A063042076E0E6
:104480005FF0004073E0606BC00703D50120A063BC
:1044900001206CE0C520A0632000FFF798FDEDB27D
:1044A000A84201D0012062E000212000FFF792FD28
:1044B000A549084201D1002059E0002802D55FF04B
:1044C000007054E0410001D5402050E0810001D54A
:1044D00080204CE0C10002D54FF4807047E001011C
:1044E00002D54FF4007042E0410102D54FF48060E4
:1044F0003DE0C10102D54FF4006038E0010202D571
:104500004FF4805033E0410202D54FF400502EE0CA
:10451000810202D54FF4804029E0C10202D54FF458
:10452000004024E0410302D55FF400301FE0810326
:1045300002D55FF480201AE0C10302D55FF40020A9
:1045400015E0010402D55FF4801010E0410402D5AB
:104550005FF400100BE0810402D55FF4800006E0F8
:10456000000702D55FF4000001E05FF48030F2BD87
:1045700074490968C9084FF47A72B1FBF2F240F647
:10458000B8314A43002111004A1E00290CD0416B6A
:1045900011F0450FF7D00905F5D4416B490706D551
:1045A0000421816304200CE05FF0004009E0416BCE
:1045B000C90703D501218163012002E0C521816380
:1045C000002070475F490968C9084FF47A72B1FB4F
:1045D000F2F240F6B8314A43012111004A1E002987
:1045E0000CD0416B11F0450FF7D00905F5D4416BA4
:1045F000490706D504218163042005E05FF00040EF
:1046000002E0C52181630020704770B505000E00EF
:1046100014004C480068C0084FF47A71B0FBF1F107
:1046200040F6B830414300200800411E00280CD05D
:10463000686B10F0450FF7D00005F5D4686B4007A4
:1046400006D50420A86304202AE05FF0004027E09C
:10465000686BC00703D50120A863012020E0280073
:10466000FFF7B5FCF6B2B04201D0012018E0C5203A
:10467000A86300212800FFF7ADFC10F4604F03D1C0
:10468000000C208000200BE0410402D54FF40050C4
:1046900006E0000402D54FF4805001E05FF4803062
:1046A00070BD28490968C9084FF47A72B1FBF2F26B
:1046B00040F6B8314A43002111004A1E00290CD0AF
:1046C000416B11F0450FF7D00905F5D4416B49074F
:1046D00006D50421816304200FE05FF000400CE068
:1046E000416BC90703D501218163012005E0416BBE
:1046F000490601D5402181630020704711490968AE
:10470000C9084FF47A72B1FBF2F240F6B8314A436D
:10471000002111004A1E002906D0416B0906F8D578
:10472000C5218163002070475FF00040FBE7000077
:10473000002C01401CDF00080081FFFF00E1F505AF
:10474000000010805805002008E0FFFD38B5040087
:1047500000F010F8050014F1010F02D004480078B1
:10476000241800F007F8401BA042FAD331BD00BF67
:10477000AD06002001480068704700BF38130020D4
:1047800038B504000020FFF7F5FF0500002C01D12B
:1047900001208BE12068DFF8441688424FD0206862
:1047A000DFF83C1688424AD02068DFF83816884285
:1047B00045D02068DFF83016884240D02068DFF806
:1047C0002C1688423BD02068DFF82416884236D069
:1047D0002068DFF82016884231D02068DFF81816EC
:1047E00088422CD02068DFF81416884227D0206831
:1047F000DFF80C16884222D02068DFF808168842BD
:104800001DD02068DFF80016884218D02068DFF835
:10481000FC15884213D02068DFF8F41588420ED0CA
:104820002068DFF8F015884209D02068DFF8E81525
:10483000884204D0B721DFF8E405FFF784F9606807
:10484000002820D06068B0F1007F1CD06068B0F113
:10485000806F18D06068B0F1C06F14D06068B0F19C
:10486000006F10D06068B0F1206F0CD06068B0F1BC
:10487000406F08D06068B0F1606F04D0B821DFF8F5
:104880009C05FFF760F9A06800280AD0A0684028BE
:1048900007D0A068802804D0B921DFF88005FFF791
:1048A00052F9E068B0F5007F07D0E068002804D036
:1048B000BA21DFF86805FFF746F92069B0F5806F87
:1048C00007D02069002804D0BB21DFF85005FFF78E
:1048D0003AF9606900280CD06069B0F5006F08D023
:1048E0006069B0F5805F04D0BC21DFF83005FFF7C8
:1048F0002AF9A06900280CD0A069B0F5005F08D0A3
:10490000A069B0F5804F04D0BD21DFF81005FFF796
:104910001AF9E06900280BD0E069B0F5807F07D074
:10492000E069202804D0BE21DFF8F004FFF70BF97E
:10493000206A002810D0206AB0F5803F0CD0206A91
:10494000B0F5003F08D0206AB0F5403F04D0BF2149
:10495000DFF8C804FFF7F7F8606A002807D0606A3C
:10496000042804D0C021DFF8B404FFF7ECF8606A33
:10497000002838D0A06A00280DD0A06A01280AD0EB
:10498000A06A022807D0A06A032804D0C521DFF856
:104990008C04FFF7D8F8E06A002810D0E06AB0F580
:1049A000000F0CD0E06AB0F1807F08D0E06AB0F16F
:1049B000C07F04D0C621DFF86404FFF7C4F8206B81
:1049C000002810D0206BB0F5001F0CD0206BB0F584
:1049D000800F08D0206BB0F5C00F04D0C721DFF8DE
:1049E0003C04FFF7B0F8022084F83500002084F87A
:1049F0003400206800684008400021680860206892
:104A00000068C0070BD5FFF7B5FE401B0628F6D39C
:104A100020206065032084F83500032046E02068EC
:104A20000168DFF8FC0301406268A0680243E068A7
:104A300002432069024360690243A0690243E069BE
:104A40000243206A02431143606A042803D1E26AE8
:104A5000206B024311432068016020684569ED081E
:104A6000ED00606A0543606A042810D1A06A05431E
:104A7000E06A00280BD0200000F0D8F9002806D00A
:104A800040206065012084F8350001200EE0206898
:104A90004561200000F089F93F22E16D8A40826083
:104AA00000206065012084F83500002032BD2DE92A
:104AB000F8430500884691461C000026AF6D002C87
:104AC00002D0B4F5803F05D340F2CB11DFF84C03A0
:104AD000FFF739F895F83400012801D1022031E0C0
:104AE000012085F8340095F83500012824D10220F2
:104AF00085F835000020686523004A4641462800B5
:104B000000F03CF93F21E86D8140B96028680068F9
:104B100050F0160029680860286C002805D0286825
:104B2000006850F00800296808602868006850F0A4
:104B300001002968086003E0002085F8340002269F
:104B40003000C0B2BDE8F28390F83510022903D0DE
:104B500080214165012009E0052180F835100168B8
:104B60000968490849000068016000207047F8B5ED
:104B7000040000200090DFF8AC0200684FF41651EA
:104B8000B0FBF1F5A66D37680821E06D11FA00F071
:104B9000074210D02068006840070CD520680068E4
:104BA00030F0040022681060E06D8140B160606DFB
:104BB00050F001006065E06D3900C140C8070BD5B9
:104BC00020684069000607D50121E06D8140B16091
:104BD000606D50F0020060650421E06D11FA00F094
:104BE00007420AD020680068800706D5E06D814042
:104BF000B160606D50F0040060651021E06D11FA45
:104C000000F007422CD020680068000728D5E06D2E
:104C10008140B16020680068400311D520680068B9
:104C2000000306D4206C00281AD02000216C88478D
:104C300016E0A06C002813D02000A16C88470FE07C
:104C400020680068C00505D42068006830F00800BE
:104C500021680860206C002802D02000216C884761
:104C60002021E06D11FA00F007425FD02068006853
:104C7000C0065BD5E06D8140B16094F83500052831
:104C800028D12068006830F016002168086020688C
:104C9000406930F0800021684861206C002802D112
:104CA000A06C002805D02068006830F0080021685A
:104CB00008603F21E06D8140B160012084F835003B
:104CC000002084F83400206D002802D02000216DDF
:104CD000884750E020680068400311D520680068CC
:104CE000000306D4606C002820D02000616C884747
:104CF0001CE0E06B002819D02000E16B884715E02C
:104D000020680068C0050BD42068006830F01000EF
:104D100021680860012084F83500002084F8340000
:104D2000E06B002802D02000E16B8847606D00280E
:104D300021D0606DC00718D5052084F835002068A3
:104D4000006840084000216808600098401C0090FE
:104D5000854204D320680068C007F6D4FFE701202D
:104D600084F83500002084F83400E06C002802D07C
:104D70002000E16C8847F1BD406D704730B4046895
:104D8000246834F4802405682C60046863608368B8
:104D9000402B04D103689A600068C16003E0036897
:104DA00099600068C26030BC7047017801F0FF0173
:104DB00010391822B1FBF2F11B4A525CC26504297A
:104DC00005D30168890A8902091D816503E001682C
:104DD000890A89028165806D704700001060024079
:104DE000286002404060024058600240706002400B
:104DF00088600240A0600240B86002401064024037
:104E000028640240406402405864024070640240DA
:104E100088640240A0640240B8640240D4DF000805
:104E20003F8010F058050020F0E10008020000204B
:104E3000936A9169002914D1002B05D0022B03D06D
:104E400007D3032B0BD00BE0D16AC90100D5012099
:104E50002EE0D16AB1F1C07F00D1012028E027E027
:104E600026E09169B1F5005F15D1002B05D0022B2A
:104E700003D004D3032B07D00CE0012018E0D16A43
:104E8000C90100D5012013E0D16AB1F1C07F00D182
:104E900001200DE00CE0002B022B02D9DB1E02D01A
:104EA00006E0012004E0D16AC90100D50120FFE736
:104EB000C0B27047704780B500F009F801BD80B5F9
:104EC00000F0F2FC01BD80B500F0EFFC01BD7047C1
:104ED00010B5044610460A460146204600F0E6FC9E
:104EE000204610BD08B410B5002818BF002985B0B1
:104EF00005D0B1F1004F02D25AB90021017000BFB4
:104F000012A0FDF79DFD05B010BC4FF0FF305DF81D
:104F100008FB0290491E039107AB01210193009108
:104F20000024049401AB02A9074878441A3000F029
:104F3000F1FC029901B10C70002858BF049805B02B
:104F400010BC5DF808FB00BFAFD8FFFF736E707236
:104F5000696E74665F733A2062616420617267757E
:104F60006D656E7400000000030027D0820707D033
:104F7000491E26BF10F8012B012A1DE08207F7D138
:104F800004290ED90268091F22BFA2F1013C2CEAB4
:104F9000020C1CF0803F04BF50F8042FF3E701F12E
:104FA0000401491E28BF10F8012B21BF012AB1F1CD
:104FB000010110F8012BF8E7491C984170470000E7
:104FC0001CB5002818BF002984B005D0B1F1004FEE
:104FD00002D242B9002101700FA0FDF731FD4FF060
:104FE000FF3006B010BD491E0291019001210091D1
:104FF0000024039405AB01A906487844163000F05C
:1050000089FC019901B10C70002858BF039806B0C3
:1050100010BD00BFE3D7FFFF76736E7072696E74C8
:10502000665F733A2062616420617267756D656EB8
:105030007400000070B506000D4618BF002D144620
:1050400002D0B5F1004F03D30E48784436300EE05D
:1050500054B1204601F040FCA84205D220448642CB
:105060003CBF7019844206D20020307006A0BDE813
:105070007040FDF7E5BC2146304601F049FC0020B8
:1050800070BD00BF808C00007374726370795F73B1
:105090003A2062616420617267756D656E7400000C
:1050A00010F00700DFF854311A684FF6FF010A408C
:1050B000DFF84C1151EA00210A431A607047DFF80B
:1050C0003C010068C0F302207047010049B200298A
:1050D00009D4012210F01F018A40DFF8281140B2E4
:1050E000400941F820207047020052B2002A05D43E
:1050F0000901DFF8142140B2115408E00901DFF87A
:105100000C2140B210F00F00104400F8041C70474E
:1051100010B410F00700D0F10703052B01D30423CE
:1051200001E0D0F10703041D072C01D2002000E0AC
:10513000C01E012414FA03F35B1E1940814014FAC7
:1051400000F0401E1040084310BC7047BFF34F8F63
:10515000DFF8A8100A6812F4E062DFF8B400024336
:105160000A60BFF34F8F00BFFDE710B50400072CA6
:105170000CD0062C0AD0052C08D0042C06D0032C09
:1051800004D09021DFF88C00FEF7DDFC2000FFF753
:1051900087FF10BD70B504000D0016000020102E12
:1051A00004D3A821DFF86C00FEF7CDFC102D04D34A
:1051B000A921DFF86000FEF7C6FCFFF780FF320090
:1051C0002900FFF7A5FF0100200040B2FFF78CFF88
:1051D00070BD10B50400200040B2002804D5BC21E9
:1051E000DFF83000FEF7AFFC200040B2FFF76DFFA4
:1051F00010BD80B5FFF7AAFF01BD00000CED00E077
:105200000000FA0500E100E000E400E018ED00E035
:105210000400FA058CDE00082DE9F84304008846F6
:10522000002000200020DFF8D454AC4224D0DFF866
:10523000D004844220D0DFF8CC0484421CD0DFF8B4
:10524000C804844218D0DFF8C404844214D0DFF8C4
:10525000C004844210D0DFF8BC0484420CD0DFF8D4
:10526000B804844208D0DFF8B404844204D0AC21EE
:10527000DFF8AC04FEF767FCD8F80000000405D0A6
:10528000D8F80000000C0004002804D0AD21DFF89D
:105290009004FEF758FCD8F80400002836D0D8F85F
:1052A0000400012832D0D8F8040011282ED0D8F8F4
:1052B000040002282AD0D8F80400122826D0D8F8F2
:1052C0000400B0F5881F21D0D8F80400B0F5041F01
:1052D0001CD0D8F80400B0F5441F17D0D8F804004B
:1052E000B0F5901F12D0D8F80400B0F5081F0DD00B
:1052F000D8F80400B0F5481F08D0D8F804000328F7
:1053000004D0AE21DFF81804FEF71DFC00263BE0B8
:10531000082304E0DFF800048442F9D10723DBB25C
:1053200016F00300C0B2800083401A4330008008AA
:1053300041F82020DFF8EC130868B843D8F80420BF
:10534000D20200D538430860DFF8DC130868B843A0
:10535000D8F80420920200D538430860DFF8CC1357
:105360000868B843D8F80420920300D53843086091
:10537000DFF8BC130868B843D8F80420D20301D57D
:10538000074338000860761C102E80F07B815FF0A8
:10539000010919FA06F0D8F8007007408742F2D1E7
:1053A00098F8040010F00300012805D098F80400D4
:1053B00010F0030002282FD1D8F80C00002810D0DC
:1053C000D8F80C0001280CD0D8F80C00022808D01E
:1053D000D8F80C00032804D0C021DFF84403FEF7FE
:1053E000B2FBA16803223000C0B24000824091436A
:1053F000D8F80C203000C0B2400082401143A160B8
:10540000606819FA06F930EA0900D8F80410C1F307
:105410000011B1400843606098F8040010F00300E8
:1054200003281FD0D8F8080000280CD0D8F80800AE
:10543000012808D0D8F80800022804D0D121DFF8CC
:10544000E002FEF780FBE16803223000C0B24000BA
:1054500082409143D8F808203000C0B2400082401A
:105460001143E16098F8040010F00300022840F0B6
:10547000B380D8F81000002800F09580D8F810000C
:10548000092800F09080D8F81000002800F08B80E8
:10549000D8F81000002800F08680D8F81000002806
:1054A00000F08180D8F8100000287CD0D8F81000D7
:1054B000012878D0D8F81000012874D0D8F810004E
:1054C000022870D0D8F8100002286CD0D8F810004C
:1054D000022868D0D8F81000032864D0D8F810004B
:1054E000042860D0D8F8100004285CD0D8F8100048
:1054F000042858D0D8F81000052854D0D8F8100047
:10550000052850D0D8F8100009284CD0D8F8100041
:10551000062848D0D8F81000092844D0D8F8100040
:10552000072840D0D8F8100007283CD0D8F8100041
:10553000072838D0D8F81000082834D0D8F8100040
:10554000082830D0D8F8100008282CD0D8F810003F
:10555000092828D0D8F81000092824D0D8F810003D
:105560000A2820D0D8F810000A281CD0D8F810003B
:105570000B2818D0D8F810000C2814D0D8F8100038
:105580000C2810D0D8F810000D280CD0D8F8100036
:105590000C2808D0D8F810000F2804D0DE21DFF83E
:1055A0008001FEF7D0FA3000C00804EB8000016AE9
:1055B0000F2216F00700C0B2800082409143D8F855
:1055C000102016F00700C0B2800082401143300066
:1055D000C00804EB80000162216803223000C0B2E1
:1055E00040008240914398F8042012F003023000FA
:1055F000C0B24000824011432160D8F8040010F48A
:10560000403F3FF4C0AE00200090DFF82801016861
:1056100051F480410160006810F4804000900098CF
:10562000DFF814113000800851F820200F2316F005
:105630000300C0B2800083409A43AC4201D10023F2
:105640006DE6DFF8BC00844201D1012367E6DFF894
:10565000B400844201D1022361E62B48844201D187
:1056600003235CE62948844201D1042357E62848F5
:10567000844201D1052352E6264884427FF44AAE93
:1056800006234CE6BDE8F18338B504000D00280080
:1056900080B2002804D14FF4BE712148FEF753FABE
:1056A0002069ADB2284201D0012000E00020C0B244
:1056B00032BD70B505000E001400300080B2002825
:1056C00004D140F29D111648FEF73DFA2000C0B209
:1056D000002808D02000C0B2012804D04FF4CF71B8
:1056E0000F48FEF730FAE4B2002C02D0B6B2AE6139
:1056F00002E0B6B23604AE6170BD000000000240A8
:105700000004024000080240000C02400010024069
:105710000014024000180240001C02400020024019
:10572000BCDE0008083C01400C3C0140043C014048
:10573000003C0140443802400838014038B50400BC
:10574000FFF718F80500FFF715F8401BA04205D237
:1057500001F0EAF80028F6D1002001E05FF0FF3008
:1057600032BD10B54F4C0120207001F0DDF800284B
:1057700003D1207810F0FE002070207810BD38B5DD
:105780000400484D0120287001F0DCF8002804D105
:105790002000C0B2FFF7E5FF2870287832BD80B541
:1057A000C0B2FFF7DEFF02BDF8B50C0015001E0009
:1057B00001274FF4FA60FFF7C1FF002802D5380037
:1057C000C0B219E04FF4FA6332002900200001F062
:1057D000D7F8C0B200280DD1FEF7CCFF0400FEF7C9
:1057E000C9FF001BB0F5FA6F04D201F09DF8002844
:1057F000F5D100273800C0B2F2BDF8B50C00150095
:105800001E0001274FF4FA60FFF798FF002802D529
:105810003800C0B216E032002900200001F0C2F8C2
:1058200000280DD1FEF7A6FF0400FEF7A3FF001B22
:10583000B0F5FA6F04D201F077F80028F5D100270F
:105840003800C0B2F2BD10B588B014000120154870
:105850000078C00701D5032022E0C9B2002905D095
:1058600002290CD004D3032910D017E0002016E041
:10587000684601F0A7F80698206000200FE068460F
:1058800001F0A0F807982080002008E0684601F0A9
:1058900099F80798400A2060002000E00420C0B278
:1058A00008B010BDAC0600207047704762F30F22AD
:1058B00062F31F42401810F0030308D0C91A1FD327
:1058C000DB0748BF00F8012D28BF20F8022D130088
:1058D00030B414461546103928BF20E93C00FAD8E8
:1058E000490728BF20E90C0048BF40F8042D890073
:1058F00028BF20F8022D48BF00F8012D30BC7047AA
:10590000C91818BF00F8012DCB0728BF00F8012DDA
:10591000704700002DE9F14FB0B0924604910DF1AF
:1059200042013A9A2B9199464A7000200AE01AF8EF
:10593000011B0498309A90470028049000F0B48628
:105940000D98401C0D909AF8000050B12528EED11A
:10595000002100220791089209910A920B910C9262
:1059600004E00D9800F0A2BE41F001011AF8010F09
:105970002028F9D023280CD02B2804D02D2805D09E
:10598000302809D00BE041F00201EFE741F00401BB
:10599000ECE741F00801E9E741F01001E6E72A28C9
:1059A0000FD1D9F8002052F8040BC9F800200028C4
:1059B0000F9003D540420F9041F004010AF1010A13
:1059C00014E00F92DFF824380AE00F98984205DAC5
:1059D00000EB800402EB4402303A0F920AF1010A14
:1059E0009AF80020A2F130000A28EED39AF80000BD
:1059F0002E2803D04FF0FF320E9229E01AF8010F43
:105A00002A2809D1D9F8000050F8042BC9F8000061
:105A10000E920AF1010A1BE02D280CBF0AF1010ABF
:105A2000002000220E92DFF8C4470BE040B90E9A26
:105A3000A24205DA02EB820503EB4503303B0E93ED
:105A40000AF1010A9AF80030A3F130020A2AEDD3D4
:105A5000ADF84010DFF89807784400F294709AF897
:105A6000001000F0B7FF08B11AF8010B8DF84200E2
:105A70009DF84200682805D19AF8000068280CD1EA
:105A8000622106E06C2804BF9AF800006C2804D15B
:105A900071218DF842100AF1010A12A806901AF835
:105AA00001BBBBF125012CD01C3900F0D081091FAE
:105AB000022940F2CC81133900F02185093900F028
:105AC000C681891E00F0B685491E00F06385491E17
:105AD000022940F2BC81091F00F05C85491F00F0DB
