:020000040800F2
:10000000A065002025DB000845D9000847D9000875
:1000100049D900084BD900084DD90008000000005C
:100020000000000000000000000000002997000808
:100030004FD9000800000000D19600084D4C000880
:10004000A1DC0008A5DC0008A9DC0008ADDC000884
:10005000B1DC0008B5DC000839CD00083BCD000854
:100060003DCD00083FCD000841CD0008B9DC0008B7
:10007000BDDC0008C1DC000805CB00086DD000081D
:10008000C5DC0008C9DC0008CDDC0008D1DC0008B4
:10009000D5DC0008D9DC0008DDDC000843CD000811
:1000A000E1DC0008BB8D0008C58D0008E5DC000818
:1000B000E9DC0008EDDC000851D90008F1DC00089B
:1000C000F5DC0008F9DC0008FDDC000879D0000848
:1000D00001DD0008F382000805DD0008FD8200084C
:1000E00045CD000809DD00080DDD000811DD000820
:1000F000CF8D000815DD000819DD00081DDD0008A2
:1001000021DD00082FCD000825DD000829DD0008CD
:100110002DDD000831DD000835DD000839DD00087F
:100120003DDD000841DD000845DD000825CD000863
:1001300049DD00085BD900084DDD000851DD0008ED
:1001400055DD000859DD00085DDD000861DD0008AF
:1001500065DD0008C1CB0008F9CA00080783000864
:1001600069DD00086DDD000871DD000875DD00083F
:1001700079DD00087DDD000881DD00080000000059
:1001800085DD000889DD00082DE9F14FB0B0924609
:1001900004910DF142013A9A2B9199464A70002040
:1001A0000AE01AF8011B0498309A9047002804903E
:1001B00000F0B4860D98401C0D909AF8000050B1E4
:1001C0002528EED1002100220791089209910A9278
:1001D0000B910C9204E00D9800F0A2BE41F00101D9
:1001E0001AF8010F2028F9D023280CD02B2804D08E
:1001F0002D2805D0302809D00BE041F00201EFE7AF
:1002000041F00401ECE741F00801E9E741F0100199
:10021000E6E72A280FD1D9F8002052F8040BC9F8D4
:10022000002000280F9003D540420F9041F00401B8
:100230000AF1010A14E00F92DFF824380AE00F985F
:10024000984205DA00EB800402EB4402303A0F9248
:100250000AF1010A9AF80020A2F130000A28EED330
:100260009AF800002E2803D04FF0FF320E9229E0BA
:100270001AF8010F2A2809D1D9F8000050F8042BE8
:10028000C9F800000E920AF1010A1BE02D280CBFEC
:100290000AF1010A002000220E92DFF8C4470BE0A9
:1002A00040B90E9AA24205DA02EB820503EB450340
:1002B000303B0E930AF1010A9AF80030A3F13002A4
:1002C0000A2AEDD3ADF84010DFF89807784400F221
:1002D00094709AF8001000F055FF08B11AF8010B5D
:1002E0008DF842009DF84200682805D19AF8000078
:1002F00068280CD1622106E06C2804BF9AF800003F
:100300006C2804D171218DF842100AF1010A12A85B
:1003100006901AF801BBBBF125012CD01C3900F066
:10032000D081091F022940F2CC81133900F02185C8
:10033000093900F0C681891E00F0B685491E00F01B
:100340006385491E022940F2BC81091F00F05C85CB
:10035000491F00F02881491E00F00B85491E00F05E
:10036000D080C91E0DD0891E00F00385C91E00F083
:10037000008500F0A4BD25238DF84830012100F050
:10038000A9BDD9F8000050F8044BC9F80000002CB2
:10039000059440F0A3802B994878002800F09980BC
:1003A0004FF0FF340FF6803000F006FF201A40F0C7
:1003B000B58500F090BD6D1E40F0A7853096079D75
:1003C00012AF75B1309E17F8012B02A9304600F02C
:1003D00071FE002801D46D1EF5D10028309640F042
:1003E0009D850A9D3020002D8DF804000CDD309E87
:1003F000012301AA02A9304600F06CFE002840F05B
:100400008D856D1EF4D13096059F089D75B1309E87
:1004100017F8012B02A9304600F04CFE002801D449
:100420006D1EF5D10028309640F078850B9D302068
:10043000002D8DF804000CDD309E012301AA02A9D5
:10044000304600F047FE002840F068856D1EF4D16C
:10045000309605980899099D471875B1309E17F890
:10046000012B02A9304600F025FE002801D46D1EA4
:10047000F5D10028309640F051850C9D3020002D9C
:100480008DF804000CDD309E012301AA02A930463C
:1004900000F020FE002840F041856D1EF4D130961A
:1004A0009DF8400041077FF588AE2020002C8DF894
:1004B00004007FF782AE309D012301AA02A92846DD
:1004C00000F008FE002840F02985641EF4D1309524
:1004D00073E60FF66040059000F0FDBC0E9D002D08
:1004E00004D5204600F088FE044607E02A46204650
:1004F00000F0AAFE002814BF041B2C46089400F04C
:10050000EABCD9F8001051F8040BC9F8001020F02B
:100510000004002121F0FF3512ABCDE9024505931F
:10052000DDE9022306993C2413B90AB90E9898B163
:1005300002F00F053035641EEEB23A2EA8BF273503
:10054000120942EA03721B090D5508BF002A03D0A5
:1005500005980D19A842EBD308190590C4F13C0287
:100560000E98089282420ADABDF84010821A4FF6BD
:10057000EF7001400A92ADF8401000F0ACBC0028CA
:1005800040F1A9849DF8400000F01400102840F0CC
:10059000A2840F9B07990A985B1A1B1A9A1A002AC1
:1005A00040F39984E3E32B99487820B14FF0FF346E
:1005B0000FF65030F8E69DF84200622861D06828B6
:1005C00017D06A283FD06C2806D0712847D07428ED
:1005D0002CD07A281DD064E0D9F8001051F8040B13
:1005E000C9F80010002868D14FF0FF340FF62C3006
:1005F000DAE6D9F8001051F8040BC9F8001020B958
:100600004FF0FF340FF61430CEE60D99018000F064
:1006100062BCD9F8001051F8040BC9F8001000288A
:100620004BD14FF0FF340FF6F420BDE6D9F800109F
:1006300051F8040BC9F8001000283ED14FF0FF34E8
:100640000FF6D820B0E6D9F8001051F8040BC9F81D
:10065000001080B94FF0FF340FF6C020A4E6D9F89F
:10066000001051F8040BC9F8001020B94FF0FF3406
:100670000FF6A82098E60D9AD317C0E9002300F0E2
:100680002ABCD9F8001051F8040BC9F8001020B9A1
:100690004FF0FF340FF6842086E60D99017000F0CC
:1006A0001ABCD9F8001051F8040BC9F8001020B991
:1006B0004FF0FF340FF6642076E60D99016000F0EC
:1006C0000ABCD9F80020D21D22F00702C9F8002088
:1006D000D2E900010832C9F80020CDE90201C80FB3
:1006E00002D007982D210AE0BDF84000810702D50D
:1006F00007982B2103E0C00705D50798202112AAEF
:100700001154401C079012A807994BF0200243187F
:10071000DDE90201CDE92C01612A059321AC0BD062
:100720000E98002802D506200E9005E001BF4BF080
:100730002000672801210E91DDE9020148004015E3
:10074000401C0A460DD109030BD0ABF16105032013
:100750001A2D089002D20FF6E0110DE00FF6DC1111
:100760000AE070B912030CD1ABF1610503201A2D18
:1007700008901AD30FF6CC110322184600F090FD12
:10078000A9E3DDE90201CDE92E01DDE92E2323F005
:100790000047B7F5801F22F000060DD20022002F7F
:1007A00008BF002E009203D116E00FF69411E3E784
:1007B0006A4600F0C9FD0FE0DFF8D808DFF8D81866
:1007C00000EB17500090DDE92E234FF0FF30194069
:1007D000DFF8C87810403943CDE902014BF0200022
:1007E00061280DD1059830210170821CBBF1610F89
:1007F00005920CBF7821582141700798801C079002
:10080000DDE9020120F0000231F0004308BF002AB8
:1008100002D10026002567E14BF02008B8F1610FF6
:1008200040F0B4800E98002847BF21210191401C60
:100830000190019FDDE92C017F1C00220023DDE9EE
:10084000024500F0B9FD00998DF8842038BF85F08D
:100850000045091F002F00910DF1850653DD20464C
:1008600029460022002300F0BFFD4CD24800400D75
:1008700000F11C0312D0002B10DD40F2FF70834208
:1008800006DBDFF81C1805F000421143002011E0E0
:100890006FF31E5141EA035120460BE024F00000A3
:1008A00035F0004108BF00280FBF29461C22294609
:1008B00000F0B2FD04460D4600F04CFEFF1F002F75
:1008C000804609DD00F064FE02460B4620462946BC
:1008D00000F070FE04460D46F01D0721B8F1000F30
:1008E0000CDD491E5EBF08F00F0200F8012D4FEA33
:1008F0002818F3D502E0002200F8012D491EFAD590
:10090000C61D002FABDC0DF18500361A019886421A
:10091000D8BF304600280DF1850430D4B04206DA45
:100920000DF185010A5C082AA8BF0F2100DA002119
:10093000024621AB134400E0401E13F80159521E39
:100940008D42F9D00F2904D10DF185018B5C5B1C20
:100950008B54002A04D50099091D21AC401C00913C
:10096000411E0CD46218ABF13A0613783033DDB275
:100970003A2DA8BFF318491E02F80139F5D50E9992
:10098000002940F1AF80421E0E92ABE00099DFF8E3
:10099000142747F29750414391FBF2F2DDE92C45D1
:1009A000009225F00045D2F1070204DD20462946D9
:1009B00000F04DFB0BE052420020DFF8EC1600F097
:1009C00046FB02460B462046294600F065FE0446DB
:1009D000B8F1660F0E9806BF009F0A3706273F182A
:1009E000142FC8BF142730200D468DF884000DF158
:1009F0008506002F38DD2046294600F071FF0146AC
:100A00000A4606F1080304200A26B2FBF6F606EBB6
:100A1000860EA2EB4E02303203F8012C0A22B6FBFE
:100A2000F2F202EB820EA6EB4E063036401E03F8C1
:100A3000026DE9D1083F002F03F10806D9DD084611
:100A400000F062FF02460B462046294600F0B2FD48
:100A50000022DFF8583600F065FF04460D46CAE76D
:100A6000CBCCCC0C2CD200000DF18500361A0DF148
:100A7000850404E00098401E761E0090641C2078D7
:100A80003028F7D0B8F1660F02D10099491C04E074
:100A9000B8F1650F0CBF012100210E98081886429D
:100AA000B8BF701E00281DD4B04204DA215C34297E
:100AB000C8BF392100DC30210246631E9D1800E0CA
:100AC000401E15F80169521E8E42F9D0392902D113
:100AD000A15C491CA154002A04D50099491C1C465C
:100AE000401C00910646009D01F00EF8406A077810
:100AF000DDF8388030B2002802DC01260FF24864AD
:100B00004BF02000662808BF6D1C16D0672846D120
:100B100028B210F1040F48DB404546DA9DF840004A
:100B20006D1C010703D430B24045B8BF804628B2DF
:100B3000B8EB000848BF4FF000080FFA85FBBBF187
:100B4000000F00F3B5800898411C089130220599E8
:100B50000A54B8F1000F03DC9DF84000010704D5EA
:100B60000898411C089105990F5418EB0B0FB8BF5A
:100B7000C8F100052DB268420B90A84432B29045EE
:100B8000B8BF4646059B089836B2099632462146BC
:100B9000184400F085FBA8EB06000C90D2E0BBF1F6
:100BA000610F17D14FF0700B19E030B2404504DAF5
:100BB0009DF840100A0758BF8046B8F1010848BFA9
:100BC0004FF00008BBF1670F14BF4FF0450B4FF01B
:100BD000650B04E0BBF1410F08BF4FF0500B0898C4
:100BE000411C0891B8F1000F059914F8012B0A5423
:100BF00003DC9DF8400001071AD50898411C0891B4
:100C0000B8F1000F05990F5412DD761E30B2804501
:100C10000598089BB8BF464632B22146184400F0FA
:100C20003FFB089936B271180891A8EB06000B90AB
:100C300005980899084429B2002980F800B003D427
:100C40002B224270821C04E02D2242700D46821C31
:100C50006D4200212CAB28460AE004460A2094FB92
:100C6000F0F000EB8005A4EB450403F8014B491CB0
:100C700000B20028F1DC012906DC4BF020006528D9
:100C800004BF302002F8010B00292CAB08D1302022
:100C900002F8010B06E0491E585C303002F8010BE7
:100CA0000029F8DC059908980844121A099249E0CD
:100CB00030B229B288421CDA0598089B32B221462C
:100CC000184400F0EDFA089936B27118ABEB06063D
:100CD000B8F1000F08910B9603DC9DF84000020765
:100CE00004D5059847540999491C0991CDF83080DD
:100CF00028E00598089B2AB22146184400F0D0FA53
:100D00000898761B5844B8F1000F089003DC9DF852
:100D100040100A0703D5411C089105990F5430B2C1
:100D200080450598089BB8BF464632B204EB0B01DC
:100D3000184400F0B5FA089836B230180890A8EBBD
:100D400006000B909DF8400000F01400102840F0C1
:100D5000C280079A08990B988A18099982180C98EA
:100D60008A1882180F98824280F2B580821A0A92FD
:100D7000B1E09DF84200622808D068280ED06A28A9
:100D800014D06C281FD0712810D01CE0D9F80010A6
:100D900051F8040BC9F80010C0B21AE0D9F80010DD
:100DA00051F8040BC9F8001080B212E0D9F8002005
:100DB000D21D22F00702C9F80020D2E90001083252
:100DC000C9F8002006E0D9F8001051F8040BC9F862
:100DD00000100021CDE902019DF8400001075AD51D
:100DE000DDE90223002B08BF002A54D04BF020007D
:100DF000782850D1079812A930220A54401C431C6D
:100E0000079301F800B046E09DF84200622808D040
:100E100068280ED06A2814D06C281FD0712810D0F2
:100E20001CE0D9F8001051F8040BC9F8001040B2CA
:100E30001AE0D9F8001051F8040BC9F8001000B2FC
:100E400012E0D9F80020D21D22F00702C9F80020D4
:100E5000D2E900010832C9F8002006E0D9F80010F4
:100E600051F8040BC9F80010C117CDE9020100299F
:100E700002D507982D210AE0BDF84000810702D570
:100E800007982B2103E0C00705D50798202112AA57
:100E90001154401C079012A807990144059102A81B
:100EA000594600F04FF816E001200790D9F80000ED
:100EB00050F8041BC9F800008DF848100BE02521FC
:100EC0000122BBF1000F8DF84810079203D08DF876
:100ED00049B0022107910F9A07980A990C9C121A9F
:100EE0000898521A0B99121A0998521A121A9DF858
:100EF0004000141B41073FF562AA2020002C8DF80A
:100F000004007FF75CAA309E2546012301AA02A9AE
:100F1000304600F0DFF800283FF44DAA4FF0FF30D4
:100F200031B0BDE8F08F00007072696E74665F7357
:100F30003A2062616420257320617267756D656E69
:100F4000740000002DE9FC4307466F293E6908BF85
:100F5000082405D041F02000782814BF0A2410246A
:100F60003C25D7E90023642918BF69299046994692
:100F700005D1002B03D5D8F1000869EB4909B9F177
:100F8000000F08BFB8F1000F0CD1386B50B9082C16
:100F900039D197F83800010735D530203B2586F840
:100FA0003B0030E08DF80010404649462246E317EA
:100FB00000F0B0FD3032D0B26D1E3A28019504DB4E
:100FC0009DF80000A0F151018A187255404649462B
:100FD0002246E31700F09EFD80465FEA010908BF44
:100FE000B8F1000F03D0F86871198842DCD3082CDF
:100FF00009D197F83800010705D5705D302802D077
:101000006D1E30207055C5F13C02BA617119F9604E
:10101000386B824208DA821A3A624FF6EF70398FE3
:1010200001403987BDE8F38300280ED597F83800D2
:1010300000F01400102808D17B6B7969386A5B1ABC
:101040001B1A9A1A002AC8BF3A62BDE8F3832DE939
:10105000D04306460F4614464FF00008DFF8509084
:1010600012E0E00707D542464B463046394600F0CD
:1010700059FC06460F464046494642464B4600F05C
:1010800051FC641080468946002CEAD1304639462E
:10109000BDE8D08302FCFFFFFFFF0F800000E03FB0
:1010A0000000F07FA08601000000F03F84D7974148
:1010B0000000244010B503460C461146A06898472E
:1010C000A06020B1E06A401CE062002010BD4FF03B
:1010D000FF3010BDF8B505460E4617461C460020E9
:1010E0005CB117F8011BB068A847B06030B1F06A76
:1010F000401CF0620020641EF3D1F2BD4FF0FF30BF
:10110000F2BD00007072696E74665F733A20256EDE
:1011100020646973616C6C6F776564007072696ECE
:1011200074663A2062616420256E20617267756D75
:10113000656E7400000000006E616E004E414E004E
:10114000696E6600494E4600300030B4002513E059
:1011500050F8042BD30744BFA9F101039A18091FC3
:10116000042942F8045BFAD213468C0744BF158069
:101170009B1CC90748BF1D7050F8041B0029E7D10C
:1011800030BC7047C9B202788A421AB11CBF10F84D
:10119000012FF9E718BF0020704703681AB95A1EDB
:1011A000026008467047197811B94FF0FF30704758
:1011B000591C01601878704780B500B906A0054930
:1011C0000B681BB122220021984701E000F0BAFD14
:1011D000222002BD90610020636F6E73747261699A
:1011E0006E742068616E646C65723A20626164207E
:1011F0006D6573736167650000F10103810704D0B9
:1012000010F8011B820781B1FAD10268A2F1013105
:10121000914311F0803104BF50F8042FF6E709BA6A
:10122000B1FA81F100EBD100401CC01A704782680E
:10123000521C8260426832B10268531C0360117014
:101240004168491E41607047C9B2830706D0521EEB
:1012500022D310F8013B9942F7D11FE0083A13D38B
:1012600002F1040241EA012141EA014150F8043B44
:10127000121F21BF4B40A3F1013C2CEA030C1CF0D0
:10128000803FF3D0C9B2001F083210F8013B521E54
:1012900028BF91EA030FF8D818BF0120401E7047FD
:1012A00062B38B0708D0521E11F8013B00F8013BD6
:1012B00000F024808B07F6D1830740F0208000BF28
:1012C000103A07D330B4B1E83810103AA0E838101B
:1012D000F9D230BC530724BFB1E80810A0E80810C9
:1012E00044BF51F8043B40F8043BD20724BF31F817
:1012F000022B20F8022B44BF0B7803707047121F9B
:1013000017D35B0009D151F8043B20F8023B1B0CBA
:10131000121F20F8023BF6D20BE051F8043B00F814
:10132000013B1B0A20F8023B1B0C121F00F8013B7B
:10133000F3D238BF121D521E24BF11F8013B00F832
:10134000013BF8D870472E0010B5144600F002F8A3
:10135000226010BDC1F30A5343B14A0012F5001FC9
:1013600028D2A3F2FE32A1EB0251704750EA410CA1
:1013700020D001F0004C31EA0C01B1FA81F204BF37
:10138000B0FA80F3D2180B3AB2F120032CBF00FA66
:1013900003F1914041EA0C013EBFC2F1200C20FA5A
:1013A0000CF319439040524240F2FD33D21A01EB44
:1013B00003517047002270474FF4001C1CEB410F93
:1013C00094BF1CEB430F09E041EA030C50EA4C0CBC
:1013D00052EA0C0C03D2994208BF9042704714BFE6
:1013E0008B428242704743004FF4001C1CEB410FBC
:1013F00094BF1CEB430F09E041EA030C50EA4C0C8C
:1014000052EA0C0C03D28B4208BF8242704714BFD1
:101410009942904270470000124254D440F2FF7C3F
:101420001CEA11530FD0634531D09B1863453CBF74
:1014300001EB0251704701F0004141EA0C510020DC
:10144000AFF30080704750EA410320D001F0004C18
:1014500091EA0C011CD0B1FA81F30B3B9A420DD9F1
:10146000D21A994051EA0C01C3F1200C20FA0CFC6D
:1014700061449840531C40F2FF7CD7E7914041EA19
:101480000C01C2F1200C20FA0CF319439040704774
:10149000B0FA80F31533202BE0D3202AEED3203A84
:1014A000203B9A4209D9D21A00FA03F141EA0C0111
:1014B0000020531C40F2FF7CB8E700FA02F141EA39
:1014C0000C0100207047524240F2FF7C1CEA11538D
:1014D0000DD06345DBD0B2EB030C3CBFA1EB025156
:1014E00070470CF1010221EA035141F4801150EAE6
:1014F000410CCCD001F0004C352A27DC30B481EA15
:101500000C01B2F1200309DAC2F12003044601FA0A
:1015100003F5D0402843D1409C400CE0C3F12002A9
:10152000450020FA03F418BF44F0010421FA03F047
:1015300091400C43002174F1004550F1000051EB43
:101540000C01244230BC7FF47BAF70476146002021
:1015500076E70000C1F30A5340F2FE329B1A14DD15
:10156000D3F120034FEAE17208DDC90241EA50518C
:1015700041F00040D84080185040704703F2E130FD
:1015800010B1D24382F00040704700207047000045
:10159000C11768B14840401AB0FA80F29040D21C9E
:1015A000C907C2F5846241EA025202EBD02140052C
:1015B0007047000070B44FF0004591EA030F40F10E
:1015C000CD836B40841A71EB030603D2001BB1413B
:1015D000121973414FF4001C1CEB410F34BF7CEB1C
:1015E000430442E00C0DA4EB1356352E4FDC45EAC4
:1015F000C323DB0A45EAC121C912B6F120050DDD7E
:1016000063FA05F6EB4086EA0305124218BF45F07F
:101610000105C01851F100010CD213E062FA06F581
:10162000F2405540F3415A40B340F3405A408018CD
:10163000594107D349085FEA30005FEA350528BF02
:1016400045F0010501F58011420875F1004250F1A5
:10165000000041EB04514E0016F5001F70BC38BF6E
:1016600070470020090D090570471CEB410F10D28F
:1016700052EA43060BD0BCEB410F05D80C0DAB432F
:10168000661E342EB6DD02E0AB438018594170BCB3
:10169000704770BC70470000F0B540F2FF7581EAFA
:1016A000030C0CF0004C15EA11541DBF15EA13573A
:1016B000AC42AF42E5E0BC41C1F31301C3F31303F5
:1016C000801A994143F4801304D2641E40004941BA
:1016D00080185941C90241EA5051B1FBF3F603FBAE
:1016E0001611A2FB0675D7EBC020A94102D2761EC7
:1016F00080185941C90241EA5051B1FBF3FE03FB86
:101700001E11A2FB0E75D7EBC020A94103D2AEF18A
:10171000010E80185941890241EA9051760546EA46
:101720008E2EB1FBF3F603FB1611A2FB0675D7EB69
:101730008020A94102D2761E80185941C90241EA8F
:1017400050514EEA060EB1FBF3F603FB1611A2FB55
:101750000675D7EBC020A94102D2761E80185941E8
:10176000C90241EA5051B1FBF3F703FB1711A2FB89
:101770000735D3EBC020A94167F100070CBF004239
:1017800047F0010766F3D5274FEA1E31B80814F574
:10179000806412DDBD0775F1004250EB0E5051EB35
:1017A000045111F5801F5CBF41EA0C01F0BD4CF003
:1017B0007F6141F0E0410020F0BDBD076D0840EAC7
:1017C0000E5041F48011D4F10104B4F120060ADA7C
:1017D000C4F120060200E04001FA06F3E14018439C
:1017E000B24015430EE0342C13DCC6F1200445EA68
:1017F00040056D0820FA06F2154321FA06F0A140D3
:101800000D43002175F1004250F1000051EB0C0135
:10181000F0BD00205FEA0C01F0BDCFB992185B412A
:10182000B3FA83F704BFB2FA82F6BF190B3FB7F1E0
:1018300020062FBF02FA06F3BB40C7F1200622FAAA
:1018400006F638BF3343BA401CB1E419641E33E7CF
:101850007F4231F00041B1FA81F404BFB0FA80F662
:10186000A4190B3CB4F120062FBF00FA06F1A140E9
:10187000C4F1200620FA06F638BF3143A0403C1BD5
:101880001AE7AC421ABF05EA1357AF4212E050EA1A
:1018900041061CBF52EA4306BFE750EA4107304603
:1018A00061461CBF41EA0551F0BD52EA430C08BF36
:1018B000C143F0BD00204FF4001616EB410F98BF56
:1018C00016EB430F08BF16EB410F24BFC14305E0E1
:1018D00016EB430F0CBF61464CEA0551F0BD00000A
:1018E000400D491840EA81200CD2490DA1F58061D4
:1018F000491C40F0004005DBD1F11F0154BFC84036
:10190000C017704700207047014648B1B0FA80F117
:101910008840C91CC1F58461090501EBD02140054F
:1019200070470000B0B581EA030C0CF0004C40F2A7
:10193000FF7515EA11541DBF15EA1357AC42AF42AB
:1019400039E0E41923EA455343F48013C90241F016
:10195000004141EA505EC7021100A7FB02020028C5
:101960004FF00000EEFB01204FF00001E3FB0721E8
:1019700018BF42F00102401800214941E3FB0E016B
:10198000A4F580640F0302D252004041494154F152
:1019900001046CDD470872F1004250F1000051EB88
:1019A0000451A1F580115CBF41EA0C01B0BD4CEAC5
:1019B00005510020B0BD05EA1357AC4214BFAF4239
:1019C00041E050EA410E1CBF52EA430E02E061467C
:1019D0000020B0BD24423C441BD15FEA070EF6D084
:1019E000090302BF01460020AEF1140EB1FA81F7DF
:1019F000AEEB070401FA07FE0C37C7F1200100FA2D
:101A000007F7C8404EEA000E23EA455343F480131B
:101A1000A2E733F00043B3FA83F704BFB2FA82FEC1
:101A200077440B3FE41BB7F1200E2FBF02FA0EF3F1
:101A3000BB40C7F1200E22FA0EFE38BF43EA0E0368
:101A4000BA40641C82E750EA410E14BF52EA430ECA
:101A50006FF000014FF4001717EB430F8ABF1946D0
:101A600017EB410FB5E74CEA05510020B0BDD4F1AA
:101A70000104B4F120070FDAC4F12007520828BF8F
:101A800042F0010210FA07F501FA07F7E1BF2A4315
:101A9000E0403843E1400FE0352C98DCC7F12004EA
:101AA00052EA400220FA07F218BF42F0010231FA6E
:101AB00007F0A1400A43002172F1004250F10000FA
:101AC00051EB0C01B0BD0000613807E005E0A0F16A
:101AD00061011A2901D20120704741381A2880413A
:101AE000C00F7047A0F10901052901D3202801D1B9
:101AF0000120704700207047A0F141011A2938BF2A
:101B00002030704701487047014870477802002034
:101B100040020020BBBBE1B1B2F5803F80F07E8087
:101B2000022A1ED98C46B1FBF2F102FB11C31B0441
:101B300043EA1043B3FBF2FC02FB1C3380B240EAE1
:101B40000343B3FBF2F002FB103240EA0C400023E7
:101B50007047022A05D98446B0FBF2F002FB10C29E
:101B600070474AB105D100F0010249085FEA300030
:101B7000704700220023704700F0A6B90B00020056
:101B8000002100207047904271EB030CF6D3B3F5AF
:101B9000803F2FD2F0B5B3FA83F7B1FA81F4A7F101
:101BA0000F0E3D1B5340CEF1200602FA0EF2F34118
:101BB0005340B5F10F0746D80F3C2C444140C4F1C7
:101BC0002006A040F1414140B1FBF3F603FB1611A2
:101BD000A2FB0645001BA94102D2761E801859417E
:101BE00080EA010221FA0EF362FA0EF200215A4055
:101BF0003046F0BD30B4B1FBF3FC03FB1C11A2FB7B
:101C00000C45001BA94103D2ACF1010C80185941CD
:101C100030BC02460B46604600217047B2F1807F1F
:101C200065D3F0B5B2FA82F7B1FA81F4C7F10F06C5
:101C30003D1B22FA06F307F1110EF24120355A40FE
:101C4000B5F10F07B8D94140C4F12006A040F141D9
:101C50004140B1FBF3FC03FB1C11A2FB0C45001B34
:101C6000A94103D2BCF1010C801859410F2F12D3A6
:101C70000F3FC90341EA5041B1FBF3F603FB1611D4
:101C8000A2FB0645D4EBC030A94102D2761E8018D3
:101C9000594146EACC3C07B34140C7F12006B84061
:101CA000F1414140B1FBF3F603FB1611A2FB0645DF
:101CB000001BA94102D2761E8018594180EA010218
:101CC00021FA0EF3C7F1200462FA0EF20CFA07F0C3
:101CD0005A402CFA04F13043F0BD80EA010221FAA7
:101CE0000EF3002162FA0EF260465A40F0BD8C46B7
:101CF000B1FBF2F102FB11C31B0243EA1063B3FB19
:101D0000F2FC02FB1C331B024CEA002043EA106386
:101D1000B3FBF2FC02FB1C331B024CEA002043EA3B
:101D20001063B3FBF2FC02FB1C331B024CEA0020E5
:101D300043EA1063B3FBF2FC02FB1C324CEA0020C6
:101D400000237047012000F0C1B8000070B44FF0CC
:101D5000004591EA030F7FF535AC6B40841A71EBB7
:101D6000030604D26E40001BB141121973414FF4B7
:101D7000001C1CEB410F34BF7CEB430683E00C0DD1
:101D8000A4EB1356362E00F37C80012E45EAC323C4
:101D900041DC43EA525312BFD20292025B0824058F
:101DA00045EAC12141EA5051D2EBC020994125D4E6
:101DB00007D1B0FA80F610FA06F162D00020203682
:101DC00008E0B1FA81F6B140C6F1200220FA02F231
:101DD0001143B0404FEAF474B4EB465434F00106BA
:101DE0004FEA74040AD8D6F50016760D04F00044C4
:101DF000F04061FA06F25040F1404840C00A40EA23
:101E0000415021F0004128BF5FEA500550F1000029
:101E100044EBD12135E0DB0A45EAC121C90AB6F11C
:101E200020050EDD42EA0242120CC5F1200603FA3B
:101E300006F6EB4042EA06056D42984161F1000169
:101E40000DE062FA06F5F240554063FA06FC82EABC
:101E50000C02F3405A406D42904161EB030111F4D2
:101E6000801F05D1641E620502D06D0040414941CA
:101E700021F48011430875F1004350F1000041EB5B
:101E8000045170BC70471CEB410F15D223F0004386
:101E900052EA43060BD04FEA4C0CBCEB410F04D87E
:101EA0000C0D661E342EB7DDEBE7801A994150EA1F
:101EB000410608BF0021E4E708BF1CEB430F28BF21
:101EC0006FF00001DDE700007047000020210903EA
:101ED00026311820ABBEF9E710B50400002C01D163
:101EE00001201AE094F83400002804D10020207763
:101EF000200000F02EFF032084F83400200000F0C2
:101F00000DF8002801D0012007E00020A063002088
:101F10002063012084F83400002010BD30B589B062
:101F20000400002003900020049000200590002071
:101F30000690002007907620089003A983B0684699
:101F40001822FFF7BDF90EBC206800F0F1FFC0B207
:101F5000002801D0012039E0DFF8E4540020286097
:101F6000206801F004F801202860022001F056FBEF
:101F7000200000F009FD002807D0012184F834106A
:101F8000A16B0843A063012020E0200000F083FC47
:101F9000002807D0012184F83410A16B0843A06306
:101FA000012013E04FF40071206801F019F80028B7
:101FB0000BD0DFF8901422689163A16B0843A063F3
:101FC000012084F83400012000E0002009B030BD79
:101FD00070B586B0040015001E00002905D1A06B65
:101FE00050F00060A063012097E094F834000128CD
:101FF00040F092800020A063E06D7219904205D2FB
:10200000A06B50F00070A063012086E0032084F8EC
:10201000340000202268D0622068C26B40F22A306F
:1020200002432068C2630FF23570226CD0630FF256
:102030007570226CD0640020226C10650020226C28
:102040009060206C0068026832F0C002206C8068EA
:102050000243206C006802604FF4007303FB06F338
:102060009B080A00206810F18001206C01F05AFBE7
:10207000002812D02068C06B30F495702168C863C6
:10208000DFF8C00321688863A06B50F08040A06334
:10209000012084F8340001203FE00120DFF894198A
:1020A0000860606C012802D04FF4007045435FF077
:1020B000FF3000904FF4007000FB06F0019090207C
:1020C00002900220039000200490012005906946B0
:1020D000206800F06FFF022E06D3822020632900C3
:1020E000206800F0AFFF05E0812020632900206810
:1020F00000F08FFF00280DD0DFF8481322689163AD
:10210000A16B0843A063012084F834000020206301
:10211000012002E0002000E0022006B070BD70B592
:1021200086B005000C0011001E00002C05D1A86B24
:1021300050F00060A863012096E095F83400012873
:1021400040F091800020A863E86D7218904205D29B
:10215000A86B50F00070A863012085E0032085F88B
:10216000340000202A68D0622868C26B40F21A202E
:1021700002432868C2630FF2D550EA6BD0630FF2B6
:102180002560EA6BD0640020EA6B1065686C01285A
:1021900002D04FF400704143022E05D3A0202863E3
:1021A000286800F081FF04E090202863286800F090
:1021B00062FF00280DD0DFF88C122A689163A96BAA
:1021C0000843A863012085F834000020286301201B
:1021D0004AE00120DFF85C1808604020E96B886065
:1021E000E86B0068016831F0C001E86B806801436A
:1021F000E86B006801604FF4007303FB06F39B0873
:10220000286810F180022100E86B01F08BFA0028A9
:1022100014D02868C16BDFF8200801402868C1632A
:10222000884829688863A86B50F08040A863012023
:1022300085F8340000202863012015E05FF0FF30AE
:1022400000904FF4007046430196902002900020C9
:10225000039000200490012005906946286800F052
:10226000A9FE002000E0022006B070BD38B50400D1
:10227000256B2068406B000405D5280703D5200096
:1022800000F0E2FCD9E02068406BC00555D54FF462
:102290008070216888632068C16BDFF8A007014067
:1022A0002068C1632068C06A400840002168C86295
:1022B000280721D515F0220F0AD0206800F00DFF65
:1022C000002805D0A16B0843A063200001F046FC64
:1022D00040F23A5021688863012084F834000020DD
:1022E000206315F0030F03D0200001F040FCA4E0B0
:1022F000200001F038FCA0E0280640F19E80A806EE
:102300000AD5206800F0E9FE002805D0A16B08433B
:10231000A063200001F022FC15F0030F40F08D8037
:102320002068C06A30F008002168C862012084F883
:102330003400200001F017FC7FE02068406B40046F
:1023400005D5280703D5200000F0A0FC75E0206823
:10235000406B40F23A2108426FD02068406B800702
:1023600003D5A06B50F00200A0632068406B00070B
:1023700003D5A06B50F00800A0632068406B800676
:1023800003D5A06B50F02000A0632068406BC0060E
:1023900003D5A06B50F01000A0632068406B80054F
:1023A00003D5A06B50F00800A06340F23A7021689A
:1023B00088632068C16BDFF8880601402068C1632C
:1023C000206800F08AFEA16B0843A063280708D5A7
:1023D000012084F8340000202063200001F0BEFBBF
:1023E0002BE0280629D515F0300F0CD00FF219403C
:1023F000E16B0865E06B01F01DFA00281DD0E06B71
:1024000000F002FA19E015F0030F0CD00FF2414072
:10241000216C0865206C01F00DFA00280DD0206CAD
:1024200000F016FA09E00020A063012084F83400CF
:1024300000202063200001F092FB31BD000000006D
:10244000A0802542FF05400010B4426E920F0A7032
:10245000426E920E12F00F024A70426E120E12F08D
:1024600003028A70426E120CCA70426E120A0A711E
:10247000426E4A71826E120DCA80826E120C12F088
:102480000F020A72826ED20B12F001024A72826E41
:10249000920B12F001028A72826E520B12F001024C
:1024A000CA72826E120B12F001020A7300224A7382
:1024B000426C002A40F09B80826E40F6FC7313EA67
:1024C0008203C26E53EA92730B61C26ED20E12F097
:1024D00007020A75C26E120E12F007024A75C26E2A
:1024E000520D12F007028A75C26E920C12F00702AA
:1024F000CA75C26ED20B12F007020A760A69521C24
:1025000042650122436D0C7E14F00704A41C12FAEC
:1025100004F4634343650B7A13F00F039A4082651A
:10252000426D836D5B0A5A43C2654FF400720266C6
:10253000C26E920B12F001024A76C26ED20912F0FC
:102540007F028A7690F86C2012F07F02CA76026FC2
:10255000D20F0A77026F520F12F003024A77026F0E
:10256000920E12F007028A77026F920D12F00F029C
:10257000CA77026F520D12F0010281F8202000226A
:1025800081F82120026F120C12F0010281F8222042
:10259000026FD20B12F0010281F82320026F920B1E
:1025A00012F0010281F82420026F520B12F0010296
:1025B00081F82520026F120B12F0010281F826200B
:1025C000026F920A12F0030281F82720026F120AAA
:1025D00012F0030281F82820006FC0F3460081F852
:1025E0002900012081F82A00002010BC7047426CAD
:1025F000012A15D1826E120412F47C12C36E52EAC3
:1026000013420A610B695B1C4FF4806253434365BC
:10261000426DC2654FF400728265826D026687E783
:10262000DFF8201402689163816B51F0805181635F
:10263000012180F834100120D7E7426C0A60826CD7
:102640004A60C26C8A60026DCA60426D0A61826D26
:102650004A61C26D8A61006EC8610020704778B51A
:1026600089B004000E000025032084F83400606C5B
:1026700003281FD0B6F5805F04D1A06B50F08050C6
:10268000A0631BE0B6F5006F06D1200000F0F4F95E
:10269000A16B0843A06311E0002E06D1200000F0DA
:1026A00016FAA16B0843A06308E0A06B50F000602D
:1026B000A06303E0A06B50F08050A063A06B0028E3
:1026C00008D0DFF8800321688863012084F8340093
:1026D000012514E060680390A0680490E06805900C
:1026E000069660690790A069089003A983B06846C0
:1026F0001822FEF7E5FD0EBC206800F019FC4FF42F
:102700000071206800F06CFC002807D0DFF834135B
:1027100022689163A16B0843A0630125012084F81E
:1027200034002800C0B20AB070BD1CB504000020FF
:1027300000906946200000F089F9002802D0A16BC2
:102740000843A0630098C0F3432016BD806B016866
:10275000C96B51F480710068C163704710B5846B18
:10276000206B82280AD1206800F0B7FC002805D031
:10277000A16B0843A063200001F0F0F92068C06A53
:1027800030F008002168C86240F23A50216888633E
:10279000012084F8340000202063200001F0E7F9D4
:1027A00010BD000010B5846B01F05CF9022829D03F
:1027B000206C406DE16B496D012801D001291ED1CB
:1027C000A048216888632068C06B30F49D70216840
:1027D000C863A06B50F08040A0632000FFF7A5FF06
:1027E000062801D0052805D1206800F076FCA16BF1
:1027F0000843A063012084F83400002020632000F7
:1028000001F0ACF910BD000010B5846B40F23A50F5
:10281000216888632000FFF788FF012184F83410C5
:1028200000212163062801D0052805D1206800F089
:1028300054FCA16B0843A063A06B002803D12000C7
:1028400001F08DF902E0200001F088F910BD0000D0
:1028500010B5846B40F23A50216888632000FFF77E
:1028600064FF012184F8341000212163062801D07F
:10287000052805D1206800F030FCA16B0843A06357
:10288000A06B002803D1200001F069F902E02000CC
:1028900001F064F910BD18B58FB004000120ADF847
:1028A0000C00206800F067FB002802D15FF0806018
:1028B00068E0606C032819D0206800F0D5FC00287F
:1028C00060D10021206800F071FB6067042120685E
:1028D00000F06CFBA0670821206800F067FBE06750
:1028E0000C21206800F062FBC4F88000606C0328B3
:1028F00005D003A9206800F0E4FC002842D1606CF8
:1029000003281DD0BDF80C002065216D0904206846
:1029100000F0C1FC002835D10021206800F046FB02
:1029200060660421206800F041FBA0660821206851
:1029300000F03CFBE0660C21206800F037FB2067CC
:102940000421206800F032FB000DE06404A920009F
:10295000FFF77AFD002802D05FF0805012E0226D70
:1029600012040023206800F0D2FB00280AD1211DA8
:1029700083B068461822FEF7A3FC0EBC206800F066
:10298000D7FA002010B010BD7CB5050000200090E3
:1029900000260024286800F0D3FB002849D12868CD
:1029A00000F0E5FB002807D00020A864286800F0AC
:1029B000C7FB002802D03CE00120A864A86C0128D5
:1029C00018D10021286800F0EAFB002812D05FF03F
:1029D00080502EE01C49286800F0FAFB002817D12F
:1029E0000021286800F0E2FA06003400E40F0098A5
:1029F000401C00904FF6FF70009981420BD2002CD2
:102A000009D10021286800F0CAFB0028E2D010E0BC
:102A10005FF080500DE00099814202D35FF080703A
:102A200007E0700002D50120686401E000206864BE
:102A3000002076BD8C852542E5FDFFFFC53CFFFFEC
:102A4000C5FCFFFFFF054000000010C138B50500C0
:102A50000C00002C02D15FF000600CE0296D09042D
:102A6000286800F048FC002805D10021286800F003
:102A70009DFA2060002032BD1CB504000822002110
:102A8000684601F079F80021206800F08FFA800193
:102A900002D54FF4006019E06946200000F042F8CA
:102AA000002813D1019840030ED5216D0904206838
:102AB00000F075FB002809D10221206800F0A1FB7D
:102AC000002803D1002001E05FF0806016BD1CB536
:102AD000040008220021684601F04EF80021206819
:102AE00000F064FA800102D54FF4006019E06946F5
:102AF000200000F017F8002813D10198C0030ED56C
:102B0000216D0904206800F04AFB002809D100214A
:102B1000206800F076FB002803D1002001E05FF080
:102B2000806016BDF8B588B004000F0001F02EF8E3
:102B30000500002608220021684601F01DF8082142
:102B4000206800F04DFA00287CD1216D090420682E
:102B500000F025FB002875D15FF0FF3002900820BF
:102B60000390302004900220059000200690012060
:102B7000079002A9206800F01DFA206800F05AFBB7
:102B800000285FD12068406B10F02A0F18D1206810
:102B9000406B800207D5206800F0E1F9694641F8F2
:102BA0002600761C03E02068406B800408D500F006
:102BB000EDFF401B10F1010FE4D15FF0004041E058
:102BC0002068406B000704D508202168886308202E
:102BD00038E02068406B800704D5022021688863B4
:102BE00002202FE02068406B800604D52020216859
:102BF0008863202026E040F23A50216888636846C6
:102C000041684268120212F47F0252EA016241688E
:102C1000090A11F47F410A43406852EA10623A609F
:102C2000381D0099009A120212F47F0252EA0162E2
:102C30000099090A11F47F410A43009952EA11628E
:102C40000260002009B0F0BDF8B50500AF6AEC6A7B
:102C5000002C1AD0002614E0286800F080F93870A3
:102C6000791C641E0200120A0A70491C641E0200CC
:102C7000120C0A70491C641E000E08704F1C641E62
:102C8000761C082EE8D3AF62EC62F1BDF8B5050002
:102C90002F6A6C6A002C23D000261DE03878009043
:102CA000781C641E0099027851EA02210091401CB0
:102CB000641E0099027851EA02410091401C641E92
:102CC0000099027851EA02610091471C641E69462E
:102CD000286800F047F9761C082EDFD32F626C625B
:102CE000F1BD000080B501F035F882490968C1F3F3
:102CF0000311082901D2012103E00222083912FA46
:102D000001F1B0FBF1F002BD7B4A914200D37B4957
:102D10004900B0FBF1F0801EB0F5807F00D3FF20AA
:102D2000704738B5764CFFF7DDFF2060754D76486B
:102D30002860002068600020A8600020E860002073
:102D400028610020686171492068FFF7DDFFA861F4
:102D500031BD2DE9F84F86B004001422002101A8EE
:102D600000F00AFF20686849884240F0C0800020D7
:102D700000906748016851F400610160006810F438
:102D8000006000900098002000906248016851F0B7
:102D900004010160016811F0040100910099002113
:102DA0000091016851F008010160006810F008000E
:102DB000009000984FF4F8500190022002900020FB
:102DC0000390032004900C20059001A9524801F0C3
:102DD00001F80420019002200290002003900320BB
:102DE00004900C20059001A94C4800F0F3FF00224C
:102DF0000521312001F05CF9312001F06AF9DFF89A
:102E000020B14848CBF800005FF00065CBF80450D3
:102E10000020CBF808000020CBF80C004FF48066AF
:102E2000CBF810604FF48057CBF814704FF4804803
:102E3000CBF818802020CBF81C000020CBF8200015
:102E40000420CBF824000320CBF828005FF400090D
:102E5000CBF82C905FF4001ACBF830A0584600F065
:102E6000F1FB002801D001F0C5F9C4F840B0CBF85F
:102E70003840DFF8B4B02D48CBF80000CBF8045050
:102E80004020CBF808000020CBF80C00CBF81060F5
:102E9000CBF81470CBF818802020CBF81C00002051
:102EA000CBF820000420CBF824000320CBF8280026
:102EB000CBF82C90CBF830A0584600F0C3FB00288C
:102EC00001D001F097F9C4F83CB0CBF838400022AB
:102ED00005213B2001F0ECF83B2001F0FAF800223C
:102EE0000521452001F0E4F8452001F0F2F807B093
:102EF000BDE8F08F0838024041787D0140787D01BF
:102F00000861002034580020002C01408096980071
:102F1000443802403038024000080240000C0240B1
:102F20009C5A002058640240FC5A0020A0640240D1
:102F30000EB40022009B01990B4302990B430399A5
:102F40000B4304990B4305990B431A434368DFF87D
:102F5000B8160B401A434260002003B07047D0F807
:102F6000800070470968C0F8801000207047032176
:102F7000016000207047006810F00300704710B433
:102F800000230A6882604C688A681443CA68144344
:102F900009690C432343C168090B09030B43C36050
:102FA000002010BC70470069C0B270471430091887
:102FB0000868704710B400230A6842624A68826257
:102FC0008C68CA6814430A69144349690C43234353
:102FD000C16A31F0F7010B43C362002010BC704797
:102FE00018B585B004000091102001904020029097
:102FF000002003904FF48060049069462000FFF7A2
:10300000BEFF41F288321021200000F08DF906B099
:1030100010BD18B585B0040000911120019040202A
:103020000290002003904FF48060049069462000D5
:10303000FFF7A5FF41F288321121200000F074F95A
:1030400006B010BD18B585B00400009112200190A3
:1030500040200290002003904FF480600490694665
:103060002000FFF78CFF41F288321221200000F08F
:103070005BF906B010BD18B585B0040000911820AA
:10308000019040200290002003904FF48060049053
:1030900069462000FFF773FF41F2883218212000B3
:1030A00000F042F906B010BD18B585B004000091DB
:1030B0001920019040200290002003904FF480607E
:1030C000049069462000FFF75AFF41F28832192127
:1030D000200000F029F906B010BD18B585B0040035
:1030E000002000900C2001904020029000200390CE
:1030F0004FF48060049069462000FFF740FFDFF83E
:103100000C250C21200000F00FF906B010BD18B5F9
:1031100085B004000092072001904020029000201A
:1031200003904FF48060049069462000FFF727FF6A
:1031300041F288320721200000F0F6F806B010BDF9
:1031400018B585B0040000200090002001900020F8
:103150000290002003904FF48060049069462000A4
:10316000FFF70DFF200000F036FA06B010BD18B5CD
:1031700085B004004FF4D5700090082001904020E5
:103180000290002003904FF4806004906946200074
:10319000FFF7F5FE200000F0F2F906B010BD18B5FB
:1031A00085B004000091372001904020029000205B
:1031B00003904FF48060049069462000FFF7DFFE23
:1031C00041F288323721200000F0AEF806B010BD81
:1031D00018B585B00400DFF83804014300912920B8
:1031E000019040200290002003904FF480600490F2
:1031F00069462000FFF7C3FE200000F053F906B037
:1032000010BD18B585B00400009106200190402043
:103210000290002003904FF48060049069462000E3
:10322000FFF7ADFE41F288320621200000F07CF865
:1032300006B010BD18B585B0040000200090332002
:10324000019040200290002003904FF48060049091
:1032500069462000FFF793FE41F2883233212000B7
:1032600000F062F806B010BD18B585B0040000206B
:10327000009002200190C0200290002003904FF4A3
:103280008060049069462000FFF779FE200000F07E
:10329000E0F806B010BD18B585B004000091092013
:1032A0000190C0200290002003904FF480600490B1
:1032B00069462000FFF763FE200000F0CAF806B060
:1032C00010BD30B585B004000D0000200090032033
:1032D000019040200290002003904FF48060049001
:1032E00069462000FFF74BFE2A000321200000F072
:1032F000FBF805B030BD18B585B0040000910D2075
:10330000019040200290002003904FF480600490D0
:1033100069462000FFF733FE41F288320D2120007C
:1033200000F002F806B010BD38B504000D00DFF85B
:10333000E4020068C0084FF47A71B0FBF1F0424338
:103340001000421E00280CD0606B10F0450FF7D023
:103350000005F5D4606B400706D50420A063042067
:1033600076E05FF0004073E0606BC00703D501209A
:10337000A06301206CE0C520A0632000FFF713FECE
:10338000EDB2A84201D0012062E000212000FFF749
:103390000DFEA149084201D1002059E0002802D5C4
:1033A0005FF0007054E0410001D5402050E0810002
:1033B00001D580204CE0C10002D54FF4807047E079
:1033C000010102D54FF4007042E0410102D54FF4F3
:1033D00080603DE0C10102D54FF4006038E0010299
:1033E00002D54FF4805033E0410202D54FF4005033
:1033F0002EE0810202D54FF4804029E0C10202D5BF
:103400004FF4004024E0410302D55FF400301FE098
:10341000810302D55FF480201AE0C10302D55FF476
:10342000002015E0010402D55FF4801010E0410493
:1034300002D55FF400100BE0810402D55FF4800038
:1034400006E0000702D55FF4000001E05FF4803081
:1034500032BD70490968C9084FF47A72B1FBF2F2C3
:1034600041F288314A4311004A1E00290CD0416BB9
:1034700011F0450FF7D00905F5D4416B490706D582
:103480000421816304200CE05FF0004009E0416BFF
:10349000C90703D501218163012002E0C5218163B1
:1034A000002070475B490968C9084FF47A72B1FB84
:1034B000F2F241F288314A4311004A1E00290CD031
:1034C000416B11F0450FF7D00905F5D4416B490761
:1034D00006D504218163042005E05FF0004002E08E
:1034E000C52181630020704770B505000E001400EF
:1034F00048480068C0084FF47A71B0FBF1F141F21E
:10350000883041430800411E00280CD0686B10F041
:10351000450FF7D00005F5D4686B400706D50420A9
:10352000A86304202AE05FF0004027E0686BC00732
:1035300003D50120A863012020E02800FFF733FD18
:10354000F6B2B04201D0012018E0C520A8630021E6
:103550002800FFF72BFD10F4604F03D1000C2080F2
:1035600000200BE0410402D54FF4005006E00004B7
:1035700002D54FF4805001E05FF4803070BD2549E2
:103580000968C9084FF47A72B1FBF2F241F288314E
:103590004A4311004A1E00290CD0416B11F0450F1F
:1035A000F7D00905F5D4416B490706D5042181639D
:1035B00004200FE05FF000400CE0416BC90703D529
:1035C00001218163012005E0416B490601D54021BD
:1035D0008163002070470F490968C9084FF47A7267
:1035E000B1FBF2F241F288314A4311004A1E002930
:1035F00006D0416B0906F8D5C521816300207047CC
:103600005FF00040FBE700000081FFFF00E1F505EF
:1036100000001080F401002008E0FFFD38B5040030
:1036200000F0B4FA050014F1010F02D0044800784C
:10363000241800F0ABFA401BA042FAD331BD00BF02
:10364000BA03002038B50400002000F09FFA0500FE
:10365000002C01D1012064E0606A0028022084F877
:103660003500002084F834002068006840084000DD
:103670002168086020680068C0070BD500F086FA52
:10368000401B0628F6D320206065032084F835000F
:10369000032046E020680168DFF82C0401406268DE
:1036A000A0680243E0680243206902436069024364
:1036B000A0690243E0690243206A02431143606A41
:1036C000042803D1E26A206B0243114320680160A1
:1036D00020684569ED08ED00606A0543606A0428CA
:1036E00010D1A06A0543E06A00280BD0200000F04A
:1036F000F1F9002806D040206065012084F83500EB
:1037000001200EE020684561200000F0C4F93F224E
:10371000E16D8A40826000206065012084F83500F8
:10372000002032BD70B504000025A66D94F8340069
:10373000012801D102202EE0012084F8340094F801
:103740003500012821D1022084F835000020606571
:10375000200000F089F93F21E06D8140B1602068D0
:10376000006850F0160021680860206C002805D021
:103770002068006850F00800216808602068006830
:1037800050F001002168086003E0002084F8340054
:1037900002252800C0B270BD70B50400A56D00F010
:1037A000F5F9060094F83500022806D080206065FF
:1037B000002084F8340001203BE02068006830F0ED
:1037C0001600216808602068406930F08000216898
:1037D0004861206C002802D1A06C002805D0206828
:1037E000006830F008002168086020680068400820
:1037F00040002168086020680068C0070ED500F00E
:10380000C5F9801B0628F6D320206065032084F8C4
:103810003500002084F8340003200AE03F21E06DE9
:103820008140A960012084F83500002084F834002C
:10383000002070BD90F83510022903D08021416529
:10384000012009E0052180F8351001680968490860
:1038500049000068016000207047F8B504000020AE
:103860000090DFF8680200684FF41651B0FBF1F5E4
:10387000A66D37680821E06D11FA00F0074210D0FC
:103880002068006840070CD52068006830F004000C
:1038900022681060E06D8140B160606D50F0010001
:1038A0006065E06D3900C140C8070BD520684069EC
:1038B000000607D50121E06D8140B160606D50F0D8
:1038C000020060650421E06D11FA00F007420AD0A1
:1038D00020680068800706D5E06D8140B160606DAA
:1038E00050F0040060651021E06D11FA00F007420D
:1038F0002CD020680068000728D5E06D8140B160B9
:1039000020680068400311D520680068000306D4D1
:10391000206C00281AD02000216C884716E0A06C8B
:10392000002813D02000A16C88470FE020680068B1
:10393000C00505D42068006830F0080021680860E0
:10394000206C002802D02000216C88472021E06DE7
:1039500011FA00F007425FD020680068C0065BD50E
:10396000E06D8140B16094F83500052828D12068C9
:10397000006830F01600216808602068406930F067
:10398000800021684861206C002802D1A06C0028CA
:1039900005D02068006830F00800216808603F21E9
:1039A000E06D8140B160012084F83500002084F88A
:1039B0003400206D002802D02000216D884750E09F
:1039C00020680068400311D520680068000306D411
:1039D000606C002820D02000616C88471CE0E06B00
:1039E000002819D02000E16B884715E020680068A6
:1039F000C0050BD42068006830F010002168086012
:103A0000012084F83500002084F83400E06B0028A1
:103A100002D02000E16B8847606D002821D0606DE6
:103A2000C00718D5052084F83500206800684008D4
:103A30004000216808600098401C0090854204D333
:103A400020680068C007F6D4FFE7012084F835003D
:103A5000002084F83400E06C002802D02000E16CE3
:103A60008847F1BD406D704730B40468246834F471
:103A7000802405682C60046863608368402B04D14F
:103A800003689A600068C16003E003689960006899
:103A9000C26030BC7047017801F0FF011039182274
:103AA000B1FBF2F10A4A525CC265042905D30168F0
:103AB000890A8902091D816503E00168890A890272
:103AC0008165806D704700003F8010F0F401002098
:103AD00018DC000802000020936A9169002914D1C3
:103AE000002B05D0022B03D007D3032B0BD00BE008
:103AF000D16AC90100D501202EE0D16AB1F1C07FA1
:103B000000D1012028E027E026E09169B1F5005FAF
:103B100015D1002B05D0022B03D004D3032B07D0E3
:103B20000CE0012018E0D16AC90100D5012013E0A2
:103B3000D16AB1F1C07F00D101200DE00CE0002B73
:103B4000022B02D9DB1E02D006E0012004E0D16A7C
:103B5000C90100D50120FFE7C0B27047704780B5AA
:103B600000F009F801BD80B500F02EFC01BD80B564
:103B700000F036FC01BD704710B5044610460A46F9
:103B80000146204600F03CFC204610BD014800687C
:103B9000704700BF0C6100202DE9F04104000E00C9
:103BA000002C01D1012092E0634D286810F007003D
:103BB000B04207D22E70286810F00700B04201D042
:103BC000012084E02078800716D52078400704D5AE
:103BD0005A48016851F4E05101602078000704D58B
:103BE0005648016851F46041016054490A6832F056
:103BF000F002A06802430A602078C00735D56068EB
:103C0000012805D14E480068800313D401205EE0EE
:103C10006068022802D06068032805D1484800681F
:103C2000800107D4012052E045480068800701D494
:103C300001204CE0414F39688908890060680143E0
:103C40003960FFF7A3FF8046386810F00C00616808
:103C5000B0EB810F09D0FFF799FFB0EB080041F2FC
:103C600089318842F0D3032031E0286810F0070042
:103C7000864207D22E70286810F00700B04201D0AB
:103C8000012024E02078400706D52C490A6832F448
:103C9000E052E06802430A602078000707D5274811
:103CA000016831F46041226951EAC201016000F00B
:103CB00051F82449214A1268C2F30312895CC840B2
:103CC000214908602148006800F0CEFB0020BDE8D3
:103CD000F0811D480068704780B5FFF7FAFF1C4966
:103CE000164A1268C2F38222895CC84002BD80B5C0
:103CF000FFF7EFFF1649114A1268C2F34232895C9E
:103D0000C84002BD0F2202600C4A136813F003037F
:103D10004360136813F0F0038360136813F4E053F7
:103D2000C3601268D20812F4E052026102480068CF
:103D300010F0070008607047003C0240083802405D
:103D40000038024004DB0008F4010020F0010020EC
:103D500020DC000810B500200020002000201948B9
:103D6000006810F00C00002804D0042804D00828B3
:103D700004D025E0144824E0144822E0144C2268C2
:103D800012F03F022068400209D52068C0F3881075
:103D90000E49A1FB00010023FDF7BCFE08E02068EE
:103DA000C0F388100849A1FB00010023FDF7B2FE13
:103DB0002168C1F30141491C4900B0FBF1F000E06A
:103DC000014810BD083802400024F40040787D010D
:103DD00004380240F8B4002200220022002337E019
:103DE000082704E0DFF8E8219042F9D10727FFB265
:103DF00013F00302D2B2920097403E431A00920899
:103E000045F82260DFF8CC512A68A2434E68F602DA
:103E100000D522432A60DFF8C0512A68A2434E68C9
:103E2000B60200D522432A60DFF8B0512A68A243C7
:103E30004E68B60300D522432A60DFF8A4512A68F1
:103E4000A2434E68F60301D5144322002A605B1C8E
:103E5000102B80F0A880012515FA03F20C6814409D
:103E60009442F4D10A7912F00302012A04D00A79AB
:103E700012F00302022A16D1866803271A00D2B272
:103E800052009740BE43CF681A00D2B2520097400A
:103E90003E43866042689D40AA434D68C5F30015C5
:103EA0009D402A4342600A7912F00302032A0DD092
:103EB000C56803261A00D2B252009640B5438E68F8
:103EC0001A00D2B2520096403543C5600A7912F00A
:103ED0000302022A17D11A00D20800EB8202156AE7
:103EE0000F2613F00702D2B292009640B5430E6936
:103EF00013F00702D2B29200964035431A00D2085E
:103F000000EB82021562056803261A00D2B2520045
:103F10009640B5430E7916F003061A00D2B252004D
:103F20009640354305604A6812F4403F8FD0002226
:103F300000922C4A156855F480451560126812F4F9
:103F400080420092009A284D1A00920855F822608B
:103F50000F2713F00302D2B292009740BE43234AC8
:103F6000904201D1002742E7214A904201D1012726
:103F70003DE7204A904201D1022738E71E4A90428D
:103F800001D1032733E71D4A904201D104272EE7D0
:103F90001B4A904201D1052729E71A4A90427FF433
:103FA00021AF062723E7F1BC7047006989B20842B8
:103FB00001D0012000E00020C0B27047D2B2002A38
:103FC00002D089B2816102E089B20904816170473F
:103FD000001C0240083C01400C3C0140043C0140F4
:103FE000003C0140443802400838014000000240D3
:103FF0000004024000080240000C02400010024091
:10400000001402400018024010F00700334B1A68F9
:104010004FF6FF010A40324951EA00210A431A6073
:1040200070472E480068C0F302207047010049B273
:10403000002908D4012210F01F018A40294940B20A
:10404000400941F820207047020052B2002A04D4EF
:104050000901254A40B2115407E00901234A40B240
:1040600010F00F00104400F8041C704710B410F05A
:104070000700D0F10703052B01D3042301E0D0F1A1
:104080000703041D072C01D2002000E0C01E0124FC
:1040900014FA03F35B1E1940814014FA00F0401E2D
:1040A0001040084310BC704780B5FFF7ADFF01BD5D
:1040B00070B504000D0016000020FFF7B2FF3200BB
:1040C0002900FFF7D3FF0100200040B2FFF7BCFF3B
:1040D00070BD80B540B2FFF7A9FF01BD0CED00E057
:1040E0000000FA0500E100E000E400E018ED00E067
:1040F00080B53C48016851F00101016000F010FA00
:1041000000F013F800F026FA00F010FC00F082FC3A
:10411000FEF707FE00F06CFD00F0AAFD00F0F8FFCE
:1041200001F00AF800F0CBFDFEE780B592B0302236
:10413000002106A8FFF720FD1422002101A8FFF7A7
:104140001BFD002000902848016851F0805101605B
:10415000006810F0805000900098002000902348E4
:10416000016851F480410160006810F480400090C3
:104170000098012006905FF48030079002200C9098
:104180005FF480000D9019200E904FF4A8700F90EE
:10419000022010900720119006A801F003F80028D3
:1041A00001D000F027F80F2001900220029000209B
:1041B00003904FF4A05004904FF4805005900521D7
:1041C00001A8FFF7E9FC002801D000F013F813B0B4
:1041D00000BD80B500680649884201D101F0C4F9EC
:1041E00001BD0000042004E040380240007000409F
:1041F0000008004072B6FEE738B5040000F077FD15
:10420000050000F074FD401BA04205D201F0B8F992
:104210000028F6D1002001E05FF0FF3032BD10B57C
:10422000754C0120207001F0ABF9002803D12078F3
:1042300010F0FE002070207810BD38B504006E4DDF
:104240000120287000F027FD02281CD101F0A6F9FA
:10425000002804D12000C0B2FFF7E1FF28702878C1
:10426000012810D0654C2068002805D100220221C9
:104270000A2000F084FE20602068002803D12878FE
:1042800050F001002870287832BD80B5C0B2FFF729
:10429000C6FF02BD2DE9FC410E001700984601241F
:1042A00047F230552800FFF7A7FF002802D520006D
:1042B000C0B223E042463900300001F08DF9C0B2AF
:1042C000002819D12B00002269464C48006800F0F4
:1042D000E1FE002810D1BDF8000001280CD100F04B
:1042E00006FD060000F003FD801BA84204D201F089
:1042F00047F90028F6D100242000C0B2BDE8F681BD
:104300002DE9FC410C0015001E00012747F2305832
:104310004046FFF771FF002802D53800C0B222E006
:1043200032002900200001F067F9002819D1434626
:10433000002269463148006800F0ACFE002810D128
:10434000BDF8000002280CD100F0D1FC040000F000
:10435000CEFC001B404504D201F012F90028F6D132
:1043600000273800C0B2BDE8F68110B588B014004F
:10437000012021480078C00701D5032022E0C9B2FE
:10438000002905D002290CD004D3032910D017E04E
:10439000002016E0684601F03FF9069820600020F2
:1043A0000FE0684601F038F907982080002008E007
:1043B000684601F031F90798400A2060002000E0CB
:1043C0000420C0B208B010BD80B50220ADF80000D6
:1043D0000023002269460948006800F01AFE01BD6A
:1043E00080B50120ADF80000002300226946034893
:1043F000006800F00EFE01BDB9030020046100203A
:1044000062F30F2262F31F42401810F0030308D03A
:10441000C91A1FD3DB0748BF00F8012D28BF20F8B9
:10442000022D130030B414461546103928BF20E978
:104430003C00FAD8490728BF20E90C0048BF40F8E3
:10444000042D890028BF20F8022D48BF00F8012D57
:1044500030BC7047C91818BF00F8012DCB0728BF22
:1044600000F8012D7047000078B587B004000020E7
:104470000020002000902548016851F004010160EF
:10448000006810F004000090009801A902A8FFF74E
:1044900039FC0598002802D1FFF71EFC02E0FFF767
:1044A0001BFC40001A49B0FBF1F0401E194D1A499F
:1044B000296040F2E731E96068600020286100204F
:1044C000A8600020A861280001F0AEF806003000C6
:1044D000C0B2002815D1280001F0DDF80600300038
:1044E000C0B200280DD11E20FFF7F3FD102C07D21B
:1044F000002221001E20FFF7DBFD0848046000E0D9
:1045000001263000C0B208B070BD00004038024043
:1045100040420F00605F002000080040F0010020D2
:1045200080B50B48016851F400710160016851F4D5
:1045300080610160016851F4807101600320FFF720
:10454000B3FD0F20FFF790FF01F066FC002002BDD5
:10455000003C02402DE9F84F86B014220021684645
:10456000FFF70AFB00200590E648016851F01001B2
:104570000160016811F01001059105990021059174
:10458000016851F480710160016811F48071059136
:10459000059900210591016851F00401016001684D
:1045A00011F004010591059900210591016851F070
:1045B00020010160016811F0200105910599002199
:1045C0000591016851F080010160016811F08001DE
:1045D0000591059900210591016851F001010160E3
:1045E000016811F00101059105990021059101680B
:1045F00051F002010160016811F002010591059975
:1046000000210591016851F040010160016811F03D
:1046100040010591059900210591016851F00801BB
:104620000160006810F0080005900598B64C012262
:1046300023212000FFF7C2FC002220212000FFF7E9
:10464000BDFC01224FF4C061B048FFF7B7FC012266
:104650000D21AF48FFF7B2FCAE4D01224DF64441AB
:104660002800FFF7ABFC00224FF408512800FFF7A9
:10467000A5FC47F2C01601223100A748FFF79EFCB7
:10468000A64F012201213800FFF798FCDFF8908245
:1046900001224FF400414046FFF790FCDFF884927E
:1046A000012240214846FFF789FC0122802148462B
:1046B000FFF784FCDFF870A201224FF440715046EE
:1046C000FFF77CFC802000900120019000200290E8
:1046D0000020039069464846FFF77CFB4420009089
:1046E000002001900020029069462000FFF772FB35
:1046F00023200090012001900020029000200390D0
:1047000069462000FFF766FB4FF47F6000905FF47E
:10471000881BCDF804B00020029069463800FFF7EE
:1047200059FB4FF4005000900020019000200290AF
:1047300069467748FFF74EFB4FF4C06000900120B8
:104740000190002002900020039069466F48FFF717
:1047500041FB0D20009001200190002002900020DC
:10476000039069466A48FFF735FB4FF644600090B6
:10477000012001900020029000200390694628004B
:10478000FFF728FB302000901220019000200290BB
:10479000032003900420049069462800FFF71AFBC9
:1047A0004FF4C15000900020019000200290694613
:1047B0004046FFF70FFB01200090CDF804B0002029
:1047C000029069465046FFF705FB4CF2040000904A
:1047D000002001900020029069465046FFF7FAFA47
:1047E0004FF4C0700090122001900020029003202E
:1047F00003900420049069462800FFF7EBFA009626
:104800000120019000200290002003906946424858
:10481000FFF7E0FA012000900120019000200290B3
:104820000020039069463800FFF7D4FA4FF40045A2
:10483000009511200190002002900220039069460B
:104840004046FFF7C7FA08200090002001900020A2
:10485000029069464846FFF7BDFA402000900120CB
:104860000190002002900020039069464846FFF71F
:10487000B1FA0095CDF804B00020029069462648B0
:10488000FFF7A8FA4FF4407000900120019000203B
:1048900002900020039069465046FFF79BFA0022E1
:1048A00005210620FFF704FC0620FFF712FC00227A
:1048B00005210720FFF7FCFB0720FFF70AFC002279
:1048C00005210A20FFF7F4FB0A20FFF702FC002273
:1048D00005211720FFF7ECFB1720FFF7FAFB00225A
:1048E00005212820FFF7E4FB2820FFF7F2FB002238
:1048F00003212000FFF762FB6420FEF78FFE07B064
:10490000BDE8F08F30380240001002400014024031
:1049100000080240001C0240001802400020024033
:1049200000000240000C0240000402401FB51022AB
:1049300000216846FFF720F9304C314820605FF4D1
:10494000803060600020A060002020610020207680
:10495000002084F820000020E0622A48A0620020A5
:10496000E0600120E061002084F8300001206061F7
:10497000200001F075FA002801D0FFF73BFC03206E
:10498000009001200190002002906946200001F073
:1049900099FA002801D0FFF72DFC1FBD10B586B095
:1049A00004001422002101A8FFF7E6F8206814494A
:1049B000884221D1002000901348016851F4807191
:1049C0000160006810F48070009000980020009052
:1049D0000E48016851F001010160006810F001000B
:1049E000009000981820019003200290002003906E
:1049F00001A90748FFF7EEF906B010BDF85D0020E9
:104A0000002001400100000F4438024030380240CD
:104A10000000024070B58EB01C2200216846FFF7EE
:104A2000ABF81C22002107A8FFF7A6F867485FF043
:104A300020440460664D4560022181600021C16010
:104A40000021016110214161002181610021C161CA
:104A500000210162002141624FF4805686620021EC
:104A6000C1620021016300214163002181630021B3
:104A70004164022100910121019102210291012151
:104A8000039110210491112105910021069100222A
:104A9000694601F08DFB002801D0FFF7ABFB4D48C4
:104AA00004604560042181600021C1600021016132
:104AB00000214161002181610021C1610021016269
:104AC0000021416286620021C16200210163002150
:104AD0004163002181630021416404210091002190
:104AE00001910F2102910A210391002106910421D5
:104AF0000791002108910A2109910A210A910021B8
:104B00000D9107AA694601F053FB002801D0FFF779
:104B100071FB0EB070BD80B586B0142200216846CE
:104B2000FFF72AF82C490868002849D101200860BD
:104B3000002005902948016851F0010101600068DA
:104B400010F00100059005984FF698700090022033
:104B5000019000200290032003900C2004906946ED
:104B60001F48FFF737F94FF23F00009002200190F5
:104B700000200290032003900C20049069461948FD
:104B8000FFF728F940F23F600090022001900020DA
:104B90000290032003900C20049069461248FFF70E
:104BA00019F94FF6B3700090022001900020029096
:104BB000032003900C20049069460C48FFF70AF983
:104BC00007B000BD80B5FFF7A6FF01BD685C0020FF
:104BD000040100A0B85C0020DC60002038380240EE
:104BE000001002400014024000180240000C024075
:104BF00080B50649064801F02EFB064908700649B3
:104C0000064801F028FB0649087001BDCC60002071
:104C1000C0DA000898610020D06000202C0200203B
:104C200099610020020052B2002A05D40901DFF880
:104C3000B82140B2115408E00901DFF8B02140B2B8
:104C400010F00F00104400F8041C704780B5DFF826
:104C5000A001006801F059FF012801D002F064F9B9
:104C600001BD80B500217FF00400FFF7DBFF01BD2F
:104C7000EFF30580002802D07FF005000AE0DFF89E
:104C800074110868002803D101200860002001E0A9
:104C90005FF0FF30704780B501F037FF002803D088
:104CA000022803D1022009E0032007E0DFF84401D5
:104CB0000068012801D1012000E0002002BD10B5EC
:104CC000EFF30580002802D07FF005000EE0DFF84A
:104CD00024412068012807D1FFF7C3FF022020608C
:104CE00001F011FC002001E05FF0FF3010BD80B545
:104CF000EFF30580002802D001F0CCFC01E001F0C8
:104D0000C5FC02BDF8B584B000230393EFF305831F
:104D1000002B56D10300002B53D0802518230024EC
:104D20005FF0FF36002A2ED01768002F00D01468DD
:104D30009769002F00D09369002B04D0392B02D241
:104D40001779FF0701D500203CE05769002F01D0FB
:104D50005569AD089768002F0AD0D7685C2F07D334
:104D60001769002F04D05769002F01D001260BE0EE
:104D70009768002F08D1D768002F05D11769002F39
:104D800002D1002600E00026012E0BD19668029683
:104D90001269019200930B002A00210001F062FACF
:104DA00003900EE0002E0CD103AA019200930B0099
:104DB0002A0092B2210001F097FA012801D00020C8
:104DC0000390039805B0F0BD10B5EFF305810029FD
:104DD00002D07FF0050404E00024002801D001F097
:104DE0006CFB200010BD000000E400E018ED00E0C6
:104DF00010E000E0AC6000207CB50E00150000243F
:104E0000EFF30581002956D1002854D0B04252D387
:104E10005FF0FF32002D0FD0A968002904D0E968A7
:104E2000502901D3012208E0A968002905D1E968C9
:104E3000002902D1002200E0002212F1010F3AD035
:104E4000012822D1012A09D103200090AB68002259
:104E50000021012002F01DF9040005E003220021D9
:104E6000012002F06AF90400002C1AD0002E18D09C
:104E7000002300220021200002F0D4F9012810D0E4
:104E8000200002F038FD00240BE0012A05D1AA68B9
:104E9000310002F088F9040003E0310002F0A4F9C7
:104EA0000400002C07D0002D01D0296800E000216B
:104EB000200002F0EDFD200076BD38B50C00002585
:104EC000002802D17FF003052BE0EFF305810029D4
:104ED0001BD0002C02D07FF0030522E000210091BE
:104EE0006A46002102F0B0FC012802D07FF00205E2
:104EF00017E00098002814D05FF0805064490860E3
:104F0000BFF34F8FBFF36F8F0BE0210002F0CEFB9A
:104F1000012806D0002C02D07FF0010501E07FF0CF
:104F20000205280032BD1CB50024002802D17FF004
:104F3000030422E0EFF30581002915D00021009140
:104F4000694602F0AAFA012802D07FF0020414E0B8
:104F50000098002811D05FF080504D490860BFF3E1
:104F60004F8FBFF36F8F08E000230022002102F073
:104F700059F9012801D07FF00204200016BD7CB54C
:104F800014000025EFF30582002A40D100283ED00E
:104F900000293CD05FF0FF33002C1DD0A268002A0E
:104FA0000CD0E268502A09D32269002A06D062692F
:104FB00001FB00F6B24201D301230EE0A268002AF1
:104FC0000BD1E268002A08D12269002A05D1626962
:104FD000002A02D1002300E00023012B07D1002288
:104FE0000092A368226902F054F8050005E0002B46
:104FF00003D1002202F0A1F80500002D07D0002CFB
:1050000001D0216800E00021280002F041FD2800C5
:1050100076BD38B51C000025EFF30582002A1FD0AD
:10502000002803D0002901D0002C02D07FF0030516
:105030002AE00022009200236A4602F0BEF901280D
:1050400002D07FF002051FE0009800281CD05FF01E
:1050500080500F490860BFF34F8FBFF36F8F13E08D
:10506000002801D0002902D17FF003050CE00023C5
:10507000220002F0D7F8012806D0002C02D07FF0E1
:10508000010501E07FF00205280032BD00000000AC
:1050900004ED00E038B51C000025EFF30582002A7E
:1050A0001FD0002803D0002901D0002C02D07FF0AF
:1050B000030529E0002200926A4602F0C5FB0128A0
:1050C00002D07FF002051FE0009800281CD05FF09E
:1050D0008050DFF838100860BFF34F8FBFF36F8F39
:1050E00012E0002801D0002902D17FF003050BE077
:1050F000220002F02EFA012806D0002C02D07FF008
:10510000010501E07FF00205280032BD04ED00E05A
:105110000648016851F08071016000200449086070
:105120000448016851F0010101607047FCED00E0A6
:10513000041000E0001000E080B5DFF858200021E6
:105140000FF20D00FFF7DEFDDFF84C10086001BD27
:105150001CB500201248D0E90023CDE9002300202F
:1051600002F067FD04006A460121200002F074FD90
:1051700000220221200002F06FFD002002F05EFFFD
:105180000649086003F045FD4FF47A70FFF71CFEF6
:10519000FAE7000074D80008D8600020D46000202E
:1051A00010DC00082DE9FC410400002C01D1012095
:1051B000C4E12078C0075FD5DFF88403016811F0EF
:1051C0000C01042909D0006810F00C0008280ED149
:1051D000DFF870030068400209D5DFF86C0300684F
:1051E000800349D56068002846D10120A6E16068A7
:1051F000B0F5803F06D1DFF85003016851F48031EB
:10520000016018E06068B0F5A02F0AD1DFF838031C
:10521000016851F480210160016851F4803101601E
:1052200009E0DFF82403016831F48031016001688E
:1052300031F480210160606800280ED0FEF7A6FCE2
:105240000500DFF804030068800315D4FEF79EFC18
:10525000401B6528F5D3032070E1FEF797FC05009D
:10526000DFF8E4020068800306D5FEF78FFC401BE0
:105270006528F5D3032061E1207880071DD5B0486B
:10528000016811F00C0F08D0006810F00C0008281D
:105290002AD1AC480068400226D4AB48016889078F
:1052A00004D5E168012901D0012047E1016831F00E
:1052B000F801226951EAC20101602078000751D546
:1052C000606900283DD00120A0490860FEF75EFC1F
:1052D00005009F480068800744D4FEF757FC401B38
:1052E0000328F6D3032029E1E068002818D0012024
:1052F00098490860FEF74AFC050093480168890751
:1053000006D4FEF743FC401B0328F6D3032015E127
:10531000016831F0F801226951EAC2010160CCE76D
:1053200000208C490860FEF731FC050086480068C3
:105330008007C2D5FEF72AFC401B0328F6D30320C2
:10534000FCE0002081490860FEF720FC0500804851
:105350000068800706D5FEF719FC401B0328F6D32A
:105360000320EBE0207840076FD500267A4D2868AF
:10537000C0000BD400200090286850F080502860B6
:10538000286810F08050009000980126734F38680C
:10539000C00511D4386850F480703860FEF7F6FB11
:1053A00080463868C00507D4FEF7F0FBB0EB080074
:1053B0000328F6D30320C1E0A068012805D168487E
:1053C000016851F00101016015E0A068052809D1CC
:1053D0006348016851F004010160016851F0010166
:1053E000016008E05E480168490849000160016801
:1053F00031F004010160A06800280FD0FEF7C6FB61
:10540000070057480068800718D4FEF7BFFBC01B91
:1054100041F289318842F4D303208FE0FEF7B6FBD6
:1054200007004F480068800708D5FEF7AFFBC01B98
:1054300041F289318842F4D303207FE0F6B2012E95
:1054400003D1286830F080502860A069002874D00B
:105450003B48006810F00C00082843D0A0690228DF
:105460002FD1404E00203060FEF790FB0700364DF4
:105470002868800106D5FEF789FBC01B0328F6D3F8
:1054800003205BE0E169206A0143606A51EA801110
:10549000A06A4008401E51EA0041E06A51EA0061FA
:1054A0002848016001203060FEF770FB0400286886
:1054B000800142D4FEF76AFB001B0328F7D30320C8
:1054C0003CE0002027490860FEF760FB04001E480E
:1054D0000068800131D5FEF759FB001B0328F6D385
:1054E00003202BE0A069012801D1012026E0154806
:1054F0000068A16901291ED010F48001E26991427F
:1055000019D110F03F01226A914214D147F6C071BF
:105510000140626AB1EB821F0DD110F44031A26AE2
:105520005208521EB1EB024F05D110F07060E16AD3
:10553000B0EB016F01D0012000E00020BDE8F68152
:10554000083802400438024000380240800E4742CA
:10555000743802400000474240380240007000406A
:10556000703802406000474203480168034A1278DD
:1055700089180160704700BF0C610020BA03002049
:1055800080B50548FDF7D1F8042801D1002000E0DE
:105590000120C0B202BD00BF3458002038B5002041
:1055A00003F086FB012801D0012012E0094D2800FC
:1055B000FCF792FC04002000C0B2002807D14FF491
:1055C00000612800FDF74BF8002800D001242000DE
:1055D000C0B232BD3458002010B5130000240A00B8
:1055E00001000448FCF7F4FC002800D0012420004E
:1055F000C0B210BD3458002010B5130000240A00BA
:1056000001000448FCF78BFD002800D00124200095
:10561000C0B210BD3458002080B501000148FDF72C
:105620000CF801BD3458002010B50400002C01D145
:1056300001202FE094F83D00002805D1002084F8D7
:105640003C00200000F0E7FB022084F83D00211D13
:10565000206800F091FA012084F84600012084F8C7
:105660003E00012084F83F00012084F84000012022
:1056700084F84100012084F84200012084F84300AE
:10568000012084F84400012084F84500012084F8BA
:105690003D00002010BD90F83D10012901D00120EF
:1056A00043E0022180F83D100168C96851F0010112
:1056B0000268D1600168DFF87420914221D001684E
:1056C000B1F1804F1DD00168DFF86420914218D0FD
:1056D0000168DFF86020914213D00168DFF858209C
:1056E00091420ED00168DFF85420914209D0016840
:1056F000DFF84C20914204D00168DFF84820914245
:105700000CD10168896811F0070106290CD00168E5
:10571000096851F001010068016005E0016809684D
:1057200051F0010100680160002070470000014055
:105730000004004000080040000C0040000401404C
:10574000004001400018004010B50400002C01D1B9
:1057500001202FE094F83D00002805D1002084F8B6
:105760003C00200003F0B2FA022084F83D00211D25
:10577000206800F001FA012084F84600012084F836
:105780003E00012084F83F00012084F84000012001
:1057900084F84100012084F84200012084F843008D
:1057A000012084F84400012084F84500012084F899
:1057B0003D00002010BD10B50400002902D194F86E
:1057C0003E000BE0042902D194F83F0006E00829CE
:1057D00002D194F8400001E094F84100012801D082
:1057E00001206BE0002904D1022084F83E00C0B201
:1057F00011E0042904D1022084F83F00C0B20AE07D
:10580000082904D1022084F84000C0B203E002203D
:1058100084F84100C0B20122206800F0E9FADFF804
:10582000A0102068884204D02068DFF898209042B9
:1058300001D1012000E00020C0B2002805D020687E
:10584000406C50F40040226850642068884221D0A7
:105850002068B0F1804F1DD02068DFF86C108842BE
:1058600018D02068DFF86410884213D02068DFF871
:10587000601088420ED02068DFF84810884209D0B6
:105880002068DFF85010884204D02068DFF8481004
:1058900088420CD12068806810F0070006280CD0E0
:1058A0002068006850F001002168086005E0206869
:1058B000006850F0010021680860002010BD000061
:1058C00000000140000401400004004000080040C6
:1058D000000C0040004001400018004010B50400DA
:1058E0002068006980071AD52068C068800716D52F
:1058F0007FF002002168086101202077206880691C
:1059000010F0030F03D0200003F020FA05E0200080
:1059100003F07EFA200003F07CFA00202077206854
:10592000006940071AD52068C068400716D57FF087
:10593000040021680861022020772068806910F443
:10594000407F03D0200003F001FA05E0200003F0BF
:105950005FFA200003F05DFA0020207720680069DC
:1059600000071AD52068C068000716D57FF0080028
:1059700021680861042020772068C06910F0030FB7
:1059800003D0200003F0E2F905E0200003F040FA24
:10599000200003F03EFA0020207720680069C0064E
:1059A0001AD52068C068C00616D57FF0100021689F
:1059B0000861082020772068C06910F4407F03D078
:1059C000200003F0C3F905E0200003F021FA2000D5
:1059D00003F01FFA0020207720680069C0070AD56D
:1059E0002068C068C00706D57FF001002168086103
:1059F0002000FEF7EEFB2068006900060AD520684B
:105A0000C068000606D57FF080002168086120008C
:105A100003F000FA2068006940060AD52068C068D3
:105A2000400606D57FF0400021680861200003F0A1
:105A3000F2F92068006980060AD52068C0688006EF
:105A400006D57FF0200021680861200003F0E4F90A
:105A500010BD70B504000E00002594F83C0001282C
:105A600001D102206FE0012084F83C00002A06D01A
:105A7000042A1BD0082A31D00C2A46D05DE0310020
:105A8000206800F0D8F82068806950F0080021688C
:105A900088612068806930F004002168886120688E
:105AA0008169306901432068816147E031002068E5
:105AB00000F0F3F82068806950F400602168886184
:105AC0002068806930F4806021688861206880697E
:105AD000316950EA0120216888612FE03100206897
