:020000040800F2
:100000008873002029FA0008E9E70008EDE70008F6
:10001000A9E80008ADE80008B1E800080000000009
:10002000000000000000000000000000E9340008AB
:10003000B5E800080000000091340008C174000811
:1000400059FC00085DFC000861FC0008CBE80008D2
:1000500065FC000869FC0008796C00087B6C0008EE
:100060007D6C00087F6C0008816C00086DFC000846
:1000700071FC000875FC0008596A000861E6000878
:1000800079FC00087DFC000881FC000885FC000864
:1000900089FC00088DFC000891FC0008836C0008B6
:1000A00095FC00086BAE000875AE000899FC0008CE
:1000B0009DFC0008A1FC0008B7E80008A5FC0008AA
:1000C000A9FC0008ADFC0008B1FC00086DE60008C2
:1000D000B5FC0008C39F0008B9FC0008CD9F0008CC
:1000E000856C0008BDFC0008C1FC0008C5FC0008C8
:1000F0007FAE0008C9FC0008CDFC0008D1FC000858
:10010000D5FC00086F6C0008D9FC0008DDFC000875
:10011000E1FC0008E5FC0008E9FC0008EDFC000833
:10012000F1FC0008F5FC0008F9FC0008656C00080B
:10013000FDFC0008C1E8000801FD000805FD0008FD
:1001400009FD00080DFD000811FD000815FD00085F
:1001500019FD0008076B00084D6A0008D79F0008CA
:100160001DFD000821FD000825FD000829FD0008EF
:100170002DFD000831FD000835FD000800000000DD
:1001800039FD00083DFD00082DE9F14FB0B0924661
:1001900004910DF142013A9A2B9199464A70002040
:1001A0000AE01AF8011B0498309A9047002804903E
:1001B00000F0B4860D98401C0D909AF8000050B1E4
:1001C0002528EED1002100220791089209910A9278
:1001D0000B910C9204E00D9800F0A2BE41F00101D9
:1001E0001AF8010F2028F9D023280CD02B2804D08E
:1001F0002D2805D0302809D00BE041F00201EFE7AF
:1002000041F00401ECE741F00801E9E741F0100199
:10021000E6E72A280FD1D9F8002052F8040BC9F8D4
:10022000002000280F9003D540420F9041F00401B8
:100230000AF1010A14E00F92DFF824380AE00F985F
:10024000984205DA00EB800402EB4402303A0F9248
:100250000AF1010A9AF80020A2F130000A28EED330
:100260009AF800002E2803D04FF0FF320E9229E0BA
:100270001AF8010F2A2809D1D9F8000050F8042BE8
:10028000C9F800000E920AF1010A1BE02D280CBFEC
:100290000AF1010A002000220E92DFF8C4470BE0A9
:1002A00040B90E9AA24205DA02EB820503EB450340
:1002B000303B0E930AF1010A9AF80030A3F13002A4
:1002C0000A2AEDD3ADF84010DFF89807784400F221
:1002D00094709AF8001000F055FF08B11AF8010B5D
:1002E0008DF842009DF84200682805D19AF8000078
:1002F00068280CD1622106E06C2804BF9AF800003F
:100300006C2804D171218DF842100AF1010A12A85B
:1003100006901AF801BBBBF125012CD01C3900F066
:10032000D081091F022940F2CC81133900F02185C8
:10033000093900F0C681891E00F0B685491E00F01B
:100340006385491E022940F2BC81091F00F05C85CB
:10035000491F00F02881491E00F00B85491E00F05E
:10036000D080C91E0DD0891E00F00385C91E00F083
:10037000008500F0A4BD25238DF84830012100F050
:10038000A9BDD9F8000050F8044BC9F80000002CB2
:10039000059440F0A3802B994878002800F09980BC
:1003A0004FF0FF340FF6803000F006FF201A40F0C7
:1003B000B58500F090BD6D1E40F0A7853096079D75
:1003C00012AF75B1309E17F8012B02A9304600F02C
:1003D00071FE002801D46D1EF5D10028309640F042
:1003E0009D850A9D3020002D8DF804000CDD309E87
:1003F000012301AA02A9304600F06CFE002840F05B
:100400008D856D1EF4D13096059F089D75B1309E87
:1004100017F8012B02A9304600F04CFE002801D449
:100420006D1EF5D10028309640F078850B9D302068
:10043000002D8DF804000CDD309E012301AA02A9D5
:10044000304600F047FE002840F068856D1EF4D16C
:10045000309605980899099D471875B1309E17F890
:10046000012B02A9304600F025FE002801D46D1EA4
:10047000F5D10028309640F051850C9D3020002D9C
:100480008DF804000CDD309E012301AA02A930463C
:1004900000F020FE002840F041856D1EF4D130961A
:1004A0009DF8400041077FF588AE2020002C8DF894
:1004B00004007FF782AE309D012301AA02A92846DD
:1004C00000F008FE002840F02985641EF4D1309524
:1004D00073E60FF66040059000F0FDBC0E9D002D08
:1004E00004D5204600F088FE044607E02A46204650
:1004F00000F0AAFE002814BF041B2C46089400F04C
:10050000EABCD9F8001051F8040BC9F8001020F02B
:100510000004002121F0FF3512ABCDE9024505931F
:10052000DDE9022306993C2413B90AB90E9898B163
:1005300002F00F053035641EEEB23A2EA8BF273503
:10054000120942EA03721B090D5508BF002A03D0A5
:1005500005980D19A842EBD308190590C4F13C0287
:100560000E98089282420ADABDF84010821A4FF6BD
:10057000EF7001400A92ADF8401000F0ACBC0028CA
:1005800040F1A9849DF8400000F01400102840F0CC
:10059000A2840F9B07990A985B1A1B1A9A1A002AC1
:1005A00040F39984E3E32B99487820B14FF0FF346E
:1005B0000FF65030F8E69DF84200622861D06828B6
:1005C00017D06A283FD06C2806D0712847D07428ED
:1005D0002CD07A281DD064E0D9F8001051F8040B13
:1005E000C9F80010002868D14FF0FF340FF62C3006
:1005F000DAE6D9F8001051F8040BC9F8001020B958
:100600004FF0FF340FF61430CEE60D99018000F064
:1006100062BCD9F8001051F8040BC9F8001000288A
:100620004BD14FF0FF340FF6F420BDE6D9F800109F
:1006300051F8040BC9F8001000283ED14FF0FF34E8
:100640000FF6D820B0E6D9F8001051F8040BC9F81D
:10065000001080B94FF0FF340FF6C020A4E6D9F89F
:10066000001051F8040BC9F8001020B94FF0FF3406
:100670000FF6A82098E60D9AD317C0E9002300F0E2
:100680002ABCD9F8001051F8040BC9F8001020B9A1
:100690004FF0FF340FF6842086E60D99017000F0CC
:1006A0001ABCD9F8001051F8040BC9F8001020B991
:1006B0004FF0FF340FF6642076E60D99016000F0EC
:1006C0000ABCD9F80020D21D22F00702C9F8002088
:1006D000D2E900010832C9F80020CDE90201C80FB3
:1006E00002D007982D210AE0BDF84000810702D50D
:1006F00007982B2103E0C00705D50798202112AAEF
:100700001154401C079012A807994BF0200243187F
:10071000DDE90201CDE92C01612A059321AC0BD062
:100720000E98002802D506200E9005E001BF4BF080
:100730002000672801210E91DDE9020148004015E3
:10074000401C0A460DD109030BD0ABF16105032013
:100750001A2D089002D20FF6E0110DE00FF6DC1111
:100760000AE070B912030CD1ABF1610503201A2D18
:1007700008901AD30FF6CC110322184600F090FD12
:10078000A9E3DDE90201CDE92E01DDE92E2323F005
:100790000047B7F5801F22F000060DD20022002F7F
:1007A00008BF002E009203D116E00FF69411E3E784
:1007B0006A4600F0C9FD0FE0DFF8D808DFF8D81866
:1007C00000EB17500090DDE92E234FF0FF30194069
:1007D000DFF8C87810403943CDE902014BF0200022
:1007E00061280DD1059830210170821CBBF1610F89
:1007F00005920CBF7821582141700798801C079002
:10080000DDE9020120F0000231F0004308BF002AB8
:1008100002D10026002567E14BF02008B8F1610FF6
:1008200040F0B4800E98002847BF21210191401C60
:100830000190019FDDE92C017F1C00220023DDE9EE
:10084000024500F0B9FD00998DF8842038BF85F08D
:100850000045091F002F00910DF1850653DD20464C
:1008600029460022002300F0BFFD4CD24800400D75
:1008700000F11C0312D0002B10DD40F2FF70834208
:1008800006DBDFF81C1805F000421143002011E0E0
:100890006FF31E5141EA035120460BE024F00000A3
:1008A00035F0004108BF00280FBF29461C22294609
:1008B00000F0B2FD04460D4600F04CFEFF1F002F75
:1008C000804609DD00F064FE02460B4620462946BC
:1008D00000F070FE04460D46F01D0721B8F1000F30
:1008E0000CDD491E5EBF08F00F0200F8012D4FEA33
:1008F0002818F3D502E0002200F8012D491EFAD590
:10090000C61D002FABDC0DF18500361A019886421A
:10091000D8BF304600280DF1850430D4B04206DA45
:100920000DF185010A5C082AA8BF0F2100DA002119
:10093000024621AB134400E0401E13F80159521E39
:100940008D42F9D00F2904D10DF185018B5C5B1C20
:100950008B54002A04D50099091D21AC401C00913C
:10096000411E0CD46218ABF13A0613783033DDB275
:100970003A2DA8BFF318491E02F80139F5D50E9992
:10098000002940F1AF80421E0E92ABE00099DFF8E3
:10099000142747F29750414391FBF2F2DDE92C45D1
:1009A000009225F00045D2F1070204DD20462946D9
:1009B00000F04DFB0BE052420020DFF8EC1600F097
:1009C00046FB02460B462046294600F065FE0446DB
:1009D000B8F1660F0E9806BF009F0A3706273F182A
:1009E000142FC8BF142730200D468DF884000DF158
:1009F0008506002F38DD2046294600F071FF0146AC
:100A00000A4606F1080304200A26B2FBF6F606EBB6
:100A1000860EA2EB4E02303203F8012C0A22B6FBFE
:100A2000F2F202EB820EA6EB4E063036401E03F8C1
:100A3000026DE9D1083F002F03F10806D9DD084611
:100A400000F062FF02460B462046294600F0B2FD48
:100A50000022DFF8583600F065FF04460D46CAE76D
:100A6000CBCCCC0CCCF100000DF18500361A0DF189
:100A7000850404E00098401E761E0090641C2078D7
:100A80003028F7D0B8F1660F02D10099491C04E074
:100A9000B8F1650F0CBF012100210E98081886429D
:100AA000B8BF701E00281DD4B04204DA215C34297E
:100AB000C8BF392100DC30210246631E9D1800E0CA
:100AC000401E15F80169521E8E42F9D0392902D113
:100AD000A15C491CA154002A04D50099491C1C465C
:100AE000401C00910646009D01F00EF8406A077810
:100AF000DDF8388030B2002802DC01260FF24864AD
:100B00004BF02000662808BF6D1C16D0672846D120
:100B100028B210F1040F48DB404546DA9DF840004A
:100B20006D1C010703D430B24045B8BF804628B2DF
:100B3000B8EB000848BF4FF000080FFA85FBBBF187
:100B4000000F00F3B5800898411C089130220599E8
:100B50000A54B8F1000F03DC9DF84000010704D5EA
:100B60000898411C089105990F5418EB0B0FB8BF5A
:100B7000C8F100052DB268420B90A84432B29045EE
:100B8000B8BF4646059B089836B2099632462146BC
:100B9000184400F085FBA8EB06000C90D2E0BBF1F6
:100BA000610F17D14FF0700B19E030B2404504DAF5
:100BB0009DF840100A0758BF8046B8F1010848BFA9
:100BC0004FF00008BBF1670F14BF4FF0450B4FF01B
:100BD000650B04E0BBF1410F08BF4FF0500B0898C4
:100BE000411C0891B8F1000F059914F8012B0A5423
:100BF00003DC9DF8400001071AD50898411C0891B4
:100C0000B8F1000F05990F5412DD761E30B2804501
:100C10000598089BB8BF464632B22146184400F0FA
:100C20003FFB089936B271180891A8EB06000B90AB
:100C300005980899084429B2002980F800B003D427
:100C40002B224270821C04E02D2242700D46821C31
:100C50006D4200212CAB28460AE004460A2094FB92
:100C6000F0F000EB8005A4EB450403F8014B491CB0
:100C700000B20028F1DC012906DC4BF020006528D9
:100C800004BF302002F8010B00292CAB08D1302022
:100C900002F8010B06E0491E585C303002F8010BE7
:100CA0000029F8DC059908980844121A099249E0CD
:100CB00030B229B288421CDA0598089B32B221462C
:100CC000184400F0EDFA089936B27118ABEB06063D
:100CD000B8F1000F08910B9603DC9DF84000020765
:100CE00004D5059847540999491C0991CDF83080DD
:100CF00028E00598089B2AB22146184400F0D0FA53
:100D00000898761B5844B8F1000F089003DC9DF852
:100D100040100A0703D5411C089105990F5430B2C1
:100D200080450598089BB8BF464632B204EB0B01DC
:100D3000184400F0B5FA089836B230180890A8EBBD
:100D400006000B909DF8400000F01400102840F0C1
:100D5000C280079A08990B988A18099982180C98EA
:100D60008A1882180F98824280F2B580821A0A92FD
:100D7000B1E09DF84200622808D068280ED06A28A9
:100D800014D06C281FD0712810D01CE0D9F80010A6
:100D900051F8040BC9F80010C0B21AE0D9F80010DD
:100DA00051F8040BC9F8001080B212E0D9F8002005
:100DB000D21D22F00702C9F80020D2E90001083252
:100DC000C9F8002006E0D9F8001051F8040BC9F862
:100DD00000100021CDE902019DF8400001075AD51D
:100DE000DDE90223002B08BF002A54D04BF020007D
:100DF000782850D1079812A930220A54401C431C6D
:100E0000079301F800B046E09DF84200622808D040
:100E100068280ED06A2814D06C281FD0712810D0F2
:100E20001CE0D9F8001051F8040BC9F8001040B2CA
:100E30001AE0D9F8001051F8040BC9F8001000B2FC
:100E400012E0D9F80020D21D22F00702C9F80020D4
:100E5000D2E900010832C9F8002006E0D9F80010F4
:100E600051F8040BC9F80010C117CDE9020100299F
:100E700002D507982D210AE0BDF84000810702D570
:100E800007982B2103E0C00705D50798202112AA57
:100E90001154401C079012A807990144059102A81B
:100EA000594600F04FF816E001200790D9F80000ED
:100EB00050F8041BC9F800008DF848100BE02521FC
:100EC0000122BBF1000F8DF84810079203D08DF876
:100ED00049B0022107910F9A07980A990C9C121A9F
:100EE0000898521A0B99121A0998521A121A9DF858
:100EF0004000141B41073FF562AA2020002C8DF80A
:100F000004007FF75CAA309E2546012301AA02A9AE
:100F1000304600F0DFF800283FF44DAA4FF0FF30D4
:100F200031B0BDE8F08F00007072696E74665F7357
:100F30003A2062616420257320617267756D656E69
:100F4000740000002DE9FC4307466F293E6908BF85
:100F5000082405D041F02000782814BF0A2410246A
:100F60003C25D7E90023642918BF69299046994692
:100F700005D1002B03D5D8F1000869EB4909B9F177
:100F8000000F08BFB8F1000F0CD1386B50B9082C16
:100F900039D197F83800010735D530203B2586F840
:100FA0003B0030E08DF80010404649462246E317EA
:100FB00000F0B0FD3032D0B26D1E3A28019504DB4E
:100FC0009DF80000A0F151018A187255404649462B
:100FD0002246E31700F09EFD80465FEA010908BF44
:100FE000B8F1000F03D0F86871198842DCD3082CDF
:100FF00009D197F83800010705D5705D302802D077
:101000006D1E30207055C5F13C02BA617119F9604E
:10101000386B824208DA821A3A624FF6EF70398FE3
:1010200001403987BDE8F38300280ED597F83800D2
:1010300000F01400102808D17B6B7969386A5B1ABC
:101040001B1A9A1A002AC8BF3A62BDE8F3832DE939
:10105000D04306460F4614464FF00008DFF8509084
:1010600012E0E00707D542464B463046394600F0CD
:1010700059FC06460F464046494642464B4600F05C
:1010800051FC641080468946002CEAD1304639462E
:10109000BDE8D08302FCFFFFFFFF0F800000E03FB0
:1010A0000000F07FA08601000000F03F84D7974148
:1010B0000000244010B503460C461146A06898472E
:1010C000A06020B1E06A401CE062002010BD4FF03B
:1010D000FF3010BDF8B505460E4617461C460020E9
:1010E0005CB117F8011BB068A847B06030B1F06A76
:1010F000401CF0620020641EF3D1F2BD4FF0FF30BF
:10110000F2BD00007072696E74665F733A20256EDE
:1011100020646973616C6C6F776564007072696ECE
:1011200074663A2062616420256E20617267756D75
:10113000656E7400000000006E616E004E414E004E
:10114000696E6600494E4600300030B4002513E059
:1011500050F8042BD30744BFA9F101039A18091FC3
:10116000042942F8045BFAD213468C0744BF158069
:101170009B1CC90748BF1D7050F8041B0029E7D10C
:1011800030BC7047C9B202788A421AB11CBF10F84D
:10119000012FF9E718BF0020704703681AB95A1EDB
:1011A000026008467047197811B94FF0FF30704758
:1011B000591C01601878704780B500B906A0054930
:1011C0000B681BB122220021984701E000F0BAFD14
:1011D000222002BD486F0020636F6E7374726169D4
:1011E0006E742068616E646C65723A20626164207E
:1011F0006D6573736167650000F10103810704D0B9
:1012000010F8011B820781B1FAD10268A2F1013105
:10121000914311F0803104BF50F8042FF6E709BA6A
:10122000B1FA81F100EBD100401CC01A704782680E
:10123000521C8260426832B10268531C0360117014
:101240004168491E41607047C9B2830706D0521EEB
:1012500022D310F8013B9942F7D11FE0083A13D38B
:1012600002F1040241EA012141EA014150F8043B44
:10127000121F21BF4B40A3F1013C2CEA030C1CF0D0
:10128000803FF3D0C9B2001F083210F8013B521E54
:1012900028BF91EA030FF8D818BF0120401E7047FD
:1012A00062B38B0708D0521E11F8013B00F8013BD6
:1012B00000F024808B07F6D1830740F0208000BF28
:1012C000103A07D330B4B1E83810103AA0E838101B
:1012D000F9D230BC530724BFB1E80810A0E80810C9
:1012E00044BF51F8043B40F8043BD20724BF31F817
:1012F000022B20F8022B44BF0B7803707047121F9B
:1013000017D35B0009D151F8043B20F8023B1B0CBA
:10131000121F20F8023BF6D20BE051F8043B00F814
:10132000013B1B0A20F8023B1B0C121F00F8013B7B
:10133000F3D238BF121D521E24BF11F8013B00F832
:10134000013BF8D870472E0010B5144600F002F8A3
:10135000226010BDC1F30A5343B14A0012F5001FC9
:1013600028D2A3F2FE32A1EB0251704750EA410CA1
:1013700020D001F0004C31EA0C01B1FA81F204BF37
:10138000B0FA80F3D2180B3AB2F120032CBF00FA66
:1013900003F1914041EA0C013EBFC2F1200C20FA5A
:1013A0000CF319439040524240F2FD33D21A01EB44
:1013B00003517047002270474FF4001C1CEB410F93
:1013C00094BF1CEB430F09E041EA030C50EA4C0CBC
:1013D00052EA0C0C03D2994208BF9042704714BFE6
:1013E0008B428242704743004FF4001C1CEB410FBC
:1013F00094BF1CEB430F09E041EA030C50EA4C0C8C
:1014000052EA0C0C03D28B4208BF8242704714BFD1
:101410009942904270470000124254D440F2FF7C3F
:101420001CEA11530FD0634531D09B1863453CBF74
:1014300001EB0251704701F0004141EA0C510020DC
:10144000AFF30080704750EA410320D001F0004C18
:1014500091EA0C011CD0B1FA81F30B3B9A420DD9F1
:10146000D21A994051EA0C01C3F1200C20FA0CFC6D
:1014700061449840531C40F2FF7CD7E7914041EA19
:101480000C01C2F1200C20FA0CF319439040704774
:10149000B0FA80F31533202BE0D3202AEED3203A84
:1014A000203B9A4209D9D21A00FA03F141EA0C0111
:1014B0000020531C40F2FF7CB8E700FA02F141EA39
:1014C0000C0100207047524240F2FF7C1CEA11538D
:1014D0000DD06345DBD0B2EB030C3CBFA1EB025156
:1014E00070470CF1010221EA035141F4801150EAE6
:1014F000410CCCD001F0004C352A27DC30B481EA15
:101500000C01B2F1200309DAC2F12003044601FA0A
:1015100003F5D0402843D1409C400CE0C3F12002A9
:10152000450020FA03F418BF44F0010421FA03F047
:1015300091400C43002174F1004550F1000051EB43
:101540000C01244230BC7FF47BAF70476146002021
:1015500076E70000C1F30A5340F2FE329B1A14DD15
:10156000D3F120034FEAE17208DDC90241EA50518C
:1015700041F00040D84080185040704703F2E130FD
:1015800010B1D24382F00040704700207047000045
:10159000C11768B14840401AB0FA80F29040D21C9E
:1015A000C907C2F5846241EA025202EBD02140052C
:1015B0007047000070B44FF0004591EA030F40F10E
:1015C000CD836B40841A71EB030603D2001BB1413B
:1015D000121973414FF4001C1CEB410F34BF7CEB1C
:1015E000430442E00C0DA4EB1356352E4FDC45EAC4
:1015F000C323DB0A45EAC121C912B6F120050DDD7E
:1016000063FA05F6EB4086EA0305124218BF45F07F
:101610000105C01851F100010CD213E062FA06F581
:10162000F2405540F3415A40B340F3405A408018CD
:10163000594107D349085FEA30005FEA350528BF02
:1016400045F0010501F58011420875F1004250F1A5
:10165000000041EB04514E0016F5001F70BC38BF6E
:1016600070470020090D090570471CEB410F10D28F
:1016700052EA43060BD0BCEB410F05D80C0DAB432F
:10168000661E342EB6DD02E0AB438018594170BCB3
:10169000704770BC70470000F0B540F2FF7581EAFA
:1016A000030C0CF0004C15EA11541DBF15EA13573A
:1016B000AC42AF42E5E0BC41C1F31301C3F31303F5
:1016C000801A994143F4801304D2641E40004941BA
:1016D00080185941C90241EA5051B1FBF3F603FBAE
:1016E0001611A2FB0675D7EBC020A94102D2761EC7
:1016F00080185941C90241EA5051B1FBF3FE03FB86
:101700001E11A2FB0E75D7EBC020A94103D2AEF18A
:10171000010E80185941890241EA9051760546EA46
:101720008E2EB1FBF3F603FB1611A2FB0675D7EB69
:101730008020A94102D2761E80185941C90241EA8F
:1017400050514EEA060EB1FBF3F603FB1611A2FB55
:101750000675D7EBC020A94102D2761E80185941E8
:10176000C90241EA5051B1FBF3F703FB1711A2FB89
:101770000735D3EBC020A94167F100070CBF004239
:1017800047F0010766F3D5274FEA1E31B80814F574
:10179000806412DDBD0775F1004250EB0E5051EB35
:1017A000045111F5801F5CBF41EA0C01F0BD4CF003
:1017B0007F6141F0E0410020F0BDBD076D0840EAC7
:1017C0000E5041F48011D4F10104B4F120060ADA7C
:1017D000C4F120060200E04001FA06F3E14018439C
:1017E000B24015430EE0342C13DCC6F1200445EA68
:1017F00040056D0820FA06F2154321FA06F0A140D3
:101800000D43002175F1004250F1000051EB0C0135
:10181000F0BD00205FEA0C01F0BDCFB992185B412A
:10182000B3FA83F704BFB2FA82F6BF190B3FB7F1E0
:1018300020062FBF02FA06F3BB40C7F1200622FAAA
:1018400006F638BF3343BA401CB1E419641E33E7CF
:101850007F4231F00041B1FA81F404BFB0FA80F662
:10186000A4190B3CB4F120062FBF00FA06F1A140E9
:10187000C4F1200620FA06F638BF3143A0403C1BD5
:101880001AE7AC421ABF05EA1357AF4212E050EA1A
:1018900041061CBF52EA4306BFE750EA4107304603
:1018A00061461CBF41EA0551F0BD52EA430C08BF36
:1018B000C143F0BD00204FF4001616EB410F98BF56
:1018C00016EB430F08BF16EB410F24BFC14305E0E1
:1018D00016EB430F0CBF61464CEA0551F0BD00000A
:1018E000400D491840EA81200CD2490DA1F58061D4
:1018F000491C40F0004005DBD1F11F0154BFC84036
:10190000C017704700207047014648B1B0FA80F117
:101910008840C91CC1F58461090501EBD02140054F
:1019200070470000B0B581EA030C0CF0004C40F2A7
:10193000FF7515EA11541DBF15EA1357AC42AF42AB
:1019400039E0E41923EA455343F48013C90241F016
:10195000004141EA505EC7021100A7FB02020028C5
:101960004FF00000EEFB01204FF00001E3FB0721E8
:1019700018BF42F00102401800214941E3FB0E016B
:10198000A4F580640F0302D252004041494154F152
:1019900001046CDD470872F1004250F1000051EB88
:1019A0000451A1F580115CBF41EA0C01B0BD4CEAC5
:1019B00005510020B0BD05EA1357AC4214BFAF4239
:1019C00041E050EA410E1CBF52EA430E02E061467C
:1019D0000020B0BD24423C441BD15FEA070EF6D084
:1019E000090302BF01460020AEF1140EB1FA81F7DF
:1019F000AEEB070401FA07FE0C37C7F1200100FA2D
:101A000007F7C8404EEA000E23EA455343F480131B
:101A1000A2E733F00043B3FA83F704BFB2FA82FEC1
:101A200077440B3FE41BB7F1200E2FBF02FA0EF3F1
:101A3000BB40C7F1200E22FA0EFE38BF43EA0E0368
:101A4000BA40641C82E750EA410E14BF52EA430ECA
:101A50006FF000014FF4001717EB430F8ABF1946D0
:101A600017EB410FB5E74CEA05510020B0BDD4F1AA
:101A70000104B4F120070FDAC4F12007520828BF8F
:101A800042F0010210FA07F501FA07F7E1BF2A4315
:101A9000E0403843E1400FE0352C98DCC7F12004EA
:101AA00052EA400220FA07F218BF42F0010231FA6E
:101AB00007F0A1400A43002172F1004250F10000FA
:101AC00051EB0C01B0BD0000613807E005E0A0F16A
:101AD00061011A2901D20120704741381A2880413A
:101AE000C00F7047A0F10901052901D3202801D1B9
:101AF0000120704700207047A0F141011A2938BF2A
:101B00002030704701487047014870478402002028
:101B10004C020020BBBBE1B1B2F5803F80F07E807B
:101B2000022A1ED98C46B1FBF2F102FB11C31B0441
:101B300043EA1043B3FBF2FC02FB1C3380B240EAE1
:101B40000343B3FBF2F002FB103240EA0C400023E7
:101B50007047022A05D98446B0FBF2F002FB10C29E
:101B600070474AB105D100F0010249085FEA300030
:101B7000704700220023704700F0A6B90B00020056
:101B8000002100207047904271EB030CF6D3B3F5AF
:101B9000803F2FD2F0B5B3FA83F7B1FA81F4A7F101
:101BA0000F0E3D1B5340CEF1200602FA0EF2F34118
:101BB0005340B5F10F0746D80F3C2C444140C4F1C7
:101BC0002006A040F1414140B1FBF3F603FB1611A2
:101BD000A2FB0645001BA94102D2761E801859417E
:101BE00080EA010221FA0EF362FA0EF200215A4055
:101BF0003046F0BD30B4B1FBF3FC03FB1C11A2FB7B
:101C00000C45001BA94103D2ACF1010C80185941CD
:101C100030BC02460B46604600217047B2F1807F1F
:101C200065D3F0B5B2FA82F7B1FA81F4C7F10F06C5
:101C30003D1B22FA06F307F1110EF24120355A40FE
:101C4000B5F10F07B8D94140C4F12006A040F141D9
:101C50004140B1FBF3FC03FB1C11A2FB0C45001B34
:101C6000A94103D2BCF1010C801859410F2F12D3A6
:101C70000F3FC90341EA5041B1FBF3F603FB1611D4
:101C8000A2FB0645D4EBC030A94102D2761E8018D3
:101C9000594146EACC3C07B34140C7F12006B84061
:101CA000F1414140B1FBF3F603FB1611A2FB0645DF
:101CB000001BA94102D2761E8018594180EA010218
:101CC00021FA0EF3C7F1200462FA0EF20CFA07F0C3
:101CD0005A402CFA04F13043F0BD80EA010221FAA7
:101CE0000EF3002162FA0EF260465A40F0BD8C46B7
:101CF000B1FBF2F102FB11C31B0243EA1063B3FB19
:101D0000F2FC02FB1C331B024CEA002043EA106386
:101D1000B3FBF2FC02FB1C331B024CEA002043EA3B
:101D20001063B3FBF2FC02FB1C331B024CEA0020E5
:101D300043EA1063B3FBF2FC02FB1C324CEA0020C6
:101D400000237047012000F0C0B8000070B44FF0CD
:101D5000004591EA030F7FF535AC6B40841A71EBB7
:101D6000030604D26E40001BB141121973414FF4B7
:101D7000001C1CEB410F34BF7CEB430683E00C0DD1
:101D8000A4EB1356362E00F37C80012E45EAC323C4
:101D900041DC43EA525312BFD20292025B0824058F
:101DA00045EAC12141EA5051D2EBC020994125D4E6
:101DB00007D1B0FA80F610FA06F162D00020203682
:101DC00008E0B1FA81F6B140C6F1200220FA02F231
:101DD0001143B0404FEAF474B4EB465434F00106BA
:101DE0004FEA74040AD8D6F50016760D04F00044C4
:101DF000F04061FA06F25040F1404840C00A40EA23
:101E0000415021F0004128BF5FEA500550F1000029
:101E100044EBD12135E0DB0A45EAC121C90AB6F11C
:101E200020050EDD42EA0242120CC5F1200603FA3B
:101E300006F6EB4042EA06056D42984161F1000169
:101E40000DE062FA06F5F240554063FA06FC82EABC
:101E50000C02F3405A406D42904161EB030111F4D2
:101E6000801F05D1641E620502D06D0040414941CA
:101E700021F48011430875F1004350F1000041EB5B
:101E8000045170BC70471CEB410F15D223F0004386
:101E900052EA43060BD04FEA4C0CBCEB410F04D87E
:101EA0000C0D661E342EB7DDEBE7801A994150EA1F
:101EB000410608BF0021E4E708BF1CEB430F28BF21
:101EC0006FF00001DDE70000704780B500F09EF97B
:101ED00072B6FEE778B585B005000B98002807D1EB
:101EE000502080F31188BFF34F8FBFF36F8FFEE751
:101EF0000C9C002C07D1502080F31188BFF34F8F2A
:101F0000BFF36F8FFEE75C260096009E5C2E07D025
:101F1000502080F31188BFF34F8FBFF36F8FFEE720
:101F2000009E002C13D0002811D02063022084F8DA
:101F3000590000200390029404A801900A98009090
:101F4000280000F042F8200000F0A0F801E0002096
:101F50000490049806B070BD2DE9F84384B00700E2
:101F6000884616009946300080B2800000F054FD8B
:101F70000500002D0BD05C2000F04EFD0400002C6D
:101F800001D0256304E0280000F0D8FD00E0002423
:101F9000002C15D0002084F85900002003900294F2
:101FA0000D9801900C9800904B46B6B23200414615
:101FB000380000F00AF8200000F068F8012001E085
:101FC0005FF0FF3005B0BDE8F0832DE9F843050070
:101FD0000C00170098460A9EB900A522D6F830904A
:101FE000484600F059FE306B00EB8700071FFF08E2
:101FF000FF0017F00700002807D0502080F3118859
:10200000BFF34F8FBFF36F8FFEE7002C10D000217E
:1020100000E0491C102907D2605C06EB010282F83F
:102020003400605C0028F4D1002086F8430002E010
:10203000002086F83400DDF82090B9F1380F01D384
:102040005FF03709099CC6F82C90C6F84C90002028
:102050003065301D00F062FE16F1180000F05EFEE3
:102060003661D9F13809C6F818907662002070659B
:10207000002086F8580042462900380000F08CFE07
:102080003060002C00D02660BDE8F18338B5040034
:1020900000F012FFDFF868130868401C0860DFF8E2
:1020A00064532868002806D12C60086801280DD1E7
:1020B00000F0E5FA0AE0DFF850030068002805D1D7
:1020C000E06A2968C96A884200D32C60DFF83C03C3
:1020D0000168491C016000686064DFF8340301682E
:1020E000E26A914201D2E16A0160211DDFF82423F6
:1020F000E36A1420434302EB030000F012FE00F0F9
:10210000F5FEDFF80403006800280DD02868C06AD7
:10211000E16A884208D25FF08050DFF890140860CE
:10212000BFF34F8FBFF36F8F31BD10B50400002098
:10213000002C14D0DFF8B0030068002807D050202E
:1021400080F31188BFF34F8FBFF36F8FFEE700F06E
:102150005DF80021200000F013FC00F05DF800287D
:1021600008D15FF08050DFF844140860BFF34F8F50
:10217000BFF36F8F10BD10B586B000200490002013
:10218000039005AA03A904A800F032FFDFF8104667
:102190000498029003980190002000900023059A73
:1021A000DFF800160FF2B140FFF794FE20602068C0
:1021B000002801D0012000E00020012801D100F01A
:1021C00023FF012817D1502080F31188BFF34F8FD0
:1021D000BFF36F8F5FF0FF30DFF85016086001200B
:1021E000DFF8241208600020DFF83813086000F0E0
:1021F000FCFD06B010BD10F1010FFAD1502080F3A4
:102200001188BFF34F8FBFF36F8FFEE7DFF8D8025F
:102210000168491C0160704770B500240025DFF893
:10222000C8623068002807D1502080F31188BFF3BE
:102230004F8FBFF36F8FFEE700F03EFE3068401E09
:1022400030603068002855D1DFF8B40100680028FC
:1022500026D14FE0C868C46814F1180000F088FD6A
:10226000201D00F085FDDFF8A8010168E26A9142B7
:1022700001D2E16A0160211DDFF89821E36A142090
:10228000434302EB030000F04CFDE06ADFF87411F9
:102290000968C96A884203D30120DFF8B8160860CC
:1022A000DFF8F81408680028D4D1002C01D000F021
:1022B00052FADFF8BC663468002C0CD000F02AF823
:1022C000002803D00120DFF88C160860641E002C63
:1022D000F4D100203060DFF87C060068002809D0C7
:1022E00001255FF08050DFF8C4120860BFF34F8F04
:1022F000BFF36F8F00F0FAFD280070BDDFF82402F5
:102300000068704780B500F01BFE0020DFF8140263
:10231000006802BDF8B5002573480068002867D141
:1023200080480468641C0460002C19D1DFF8801216
:1023300008680068002807D0502080F31188BFF398
:102340004F8FBFF36F8FFEE708689A4A13680B60E0
:102350001060DFF820060168491C016000F0FBF9FD
:10236000DFF8C864306884422DD320E0381D00F0C7
:10237000FFFCB86A002803D017F1180000F0F8FC41
:1023800023480168FA6A914201D2F96A0160391D55
:10239000204AFB6A1420434302EB030000F0C1FC17
:1023A000F86A18490968C96A884200D3012580493A
:1023B00008680068002817D00868C068C76878688F
:1023C0008442D3D230600F4800681249C26A142098
:1023D00042438858022800D30125DFF878050068B9
:1023E00000280AD0012508E05FF0FF303060EAE7FE
:1023F000DFF87C050168491C01602800F2BD00007F
:10240000046F0020F46E0020106F0020206F002069
:102410000C6F0020C84F002038B5334800680028F2
:1024200004D00120DFF82C15086045E00020DFF81B
:1024300024150860DFF840452068006B5FF0A53187
:1024400002688A4208D142688A4205D182688A427B
:1024500002D1C068884205D0206810F1340120689C
:1024600001F013F8DFF81425106800E0401E142373
:10247000DFF8685503FB00F16958002909D10028ED
:10248000F4D1502080F31188BFF34F8FBFF36F8FCB
:10249000FEE703FB00F305EB03014B685B684B6051
:1024A0004B6811F10805AB4202D14B685B684B6089
:1024B0004968C9682160106031BD10B50C00002862
:1024C00007D1502080F31188BFF34F8FBFF36F8F78
:1024D000FEE7DFF80C150968183100F02EFC012129
:1024E000200000F04DFA10BD2C6F002038B50D0013
:1024F0001400002807D1502080F31188BFF34F8FBC
:10250000BFF36F8FFEE7DFF8D8140968183100F0C9
:1025100008FC002C01D05FF0FF352100280000F0FE
:102520002FFA31BD086F002010B5C068C468002CB8
:1025300007D1502080F31188BFF34F8FBFF36F8F07
:10254000FEE714F1180000F013FCDFF898040068AF
:10255000002815D1201D00F00BFCDFF820040168D5
:10256000E26A914201D2E16A0160211DDFF86C2428
:10257000E36A1420434302EB030000F0D2FB05E0C2
:1025800014F11801DFF8140200F0CBFBDFF8E803C8
:102590000068C06AE16A884205D201200121DFF8A3
:1025A000B423116000E0002010BD000004ED00E045
:1025B000F86E0020FC6E0020DFF8B8130968016097
:1025C000DFF8241409684160704738B504000D0035
:1025D000002C07D1502080F31188BFF34F8FBFF339
:1025E0006F8FFEE7002D07D1502080F31188BFF3D5
:1025F0004F8FBFF36F8FFEE700F05EFCDFF8E8035C
:1026000000686168411A2A6812F1010F01D10024A3
:1026100018E0DFF86023126823689A4204D06268E9
:10262000904201D301240DE02868814207D2286836
:10263000411A29602000FFF7BFFF002402E00020BC
:102640002860012400F052FC200032BD0120DFF898
:10265000041308607047000080B500F03AF8DFF816
:102660007C030068022807D35FF080502849086087
:10267000BFF34F8FBFF36F8F00F006FFEDE738B564
:10268000002408E0DFF85403142101FB04F108449E
:1026900000F035FB641C382CF4D3DFF850432000E5
:1026A00000F02DFBDFF84853280000F028FB3B48E2
:1026B00000F025FBDFF83C0300F021FBDFF83803D6
:1026C00000F01DFBDFF834030460DFF8340305601D
:1026D00031BD38B515E000F0EFFBDFF81803C06836
:1026E000C468201D00F044FBDFF818030168491E90
:1026F00001602868401E286000F0F8FB200000F010
:1027000009F8DFF8045328680028E4D131BD00003F
:1027100004ED00E010B5040094F85900002806D13B
:10272000206B00F00BFA200000F008FA10BD94F8BE
:102730005900012803D1200000F000FAF6E794F8D0
:1027400059000228F2D0502080F31188BFF34F8F38
:10275000BFF36F8FFEE7DFF8A41208680068002857
:1027600004D15FF0FF303149086005E00868C068B7
:10277000C06840682D4908607047DFF89002006823
:10278000002801D1012007E0DFF858020068002886
:1027900001D1022000E0002070470000BC6D002045
:1027A000286F002018FC0008F8B50400002100285C
:1027B00039D0DFF8C451E06A2A68D26A90422CD23C
:1027C000A069002804D42868C06AD0F13800A0614C
:1027D000DFF8086214276069E16A7943314488426E
:1027E00016D1201D00F0C4FA2868C06AE062DFF844
:1027F00020020168E26A914201D2E16A0160211D72
:10280000E06A07FB00F706EB070000F08AFA02E037
:102810002868C06AE062012105E0E06C2A68D26A9B
:10282000904200D201210800F2BD0000246F002078
:1028300010B50400002100283DD0DFF83C010068FD
:10284000844207D0502080F31188BFF34F8FBFF32D
:102850006F8FFEE7206D002807D1502080F311888C
:10286000BFF34F8FBFF36F8FFEE7206D401E2065D3
:10287000E06AE26C90421ED0206D00281BD1201D22
:1028800000F076FAE06CE062E06AD0F13800A06116
:10289000DFF8E8000168E26A914201D2E16A016072
:1028A000211DDFF83821E36A1420434302EB0300C3
:1028B00000F037FA0121080010BD000070B50400D7
:1028C0000122002844D0206D002807D1502080F339
:1028D0001188BFF34F8FBFF36F8FFEE7E06C884224
:1028E00000D3E16CE06A884232D0206D90422FD153
:1028F000DFF884000068844207D1502080F31188FB
:10290000BFF34F8FBFF36F8FFEE7E06AE162A2690A
:10291000002A02D4D1F13801A161DFF8C050142699
:10292000616970432844814212D1201D00F020FAD1
:10293000DFF8DC000168E26A914201D2E16A0160DD
:10294000211DE06A06FB00F605EB060000F0E9F940
:1029500070BD0000186F0020DFF8841008680028A0
:1029600003D00868026D521C0265086870470000B9
:10297000146F00201C6F0020F46E00200C6F0020EC
:10298000F8B505000C0018480668154F3868001D9A
:1029900000F0EEF915F1010F07D1002C05D03868D1
:1029A000011D154800F0BDF916E0AD193868456005
:1029B000B54206D23868011D1148006800F0BDF923
:1029C0000AE03868011D0D48006800F0B6F91148AA
:1029D00001688D4200D20560F1BD0000C84F0020A3
:1029E000F46E00202C6F0020086F0020946D0020F2
:1029F000A86D0020D06D0020E46D0020F86E00204E
:102A0000FC6E0020046F0020006F0020106F00207B
:102A10000C6F0020246F00202DE9F84304000025EE
:102A2000FFF7F4FBDFF84C92D9F80000002801D141
:102A300000F0C1F8904F386804426AD1002C15D0DC
:102A40008E480068041914F0070F0FD014F1080025
:102A500014F00704041B14F0070F07D0502080F374
:102A60001188BFF34F8FBFF36F8FFEE7002C50D05C
:102A7000DFF80C82D8F80000A0424AD38148010058
:102A8000066801E0310036687068A04202D2306802
:102A90000028F7D1D9F8000086423AD077480A6872
:102AA000036802EB030532680A6000684000716841
:102AB000091B884214D206EB040111F0070000281C
:102AC00007D0502080F31188BFF34F8FBFF36F8F73
:102AD000FEE77068001B48607460080000F09AF818
:102AE000D8F800107068091AC8F800106648D8F8BD
:102AF00000100268914202D2D8F80010016071689B
:102B00003868014371600020306060480168491CEA
:102B10000160FFF781FB002D01D100F0B7FC15F03B
:102B20000700002807D0502080F31188BFF34F8F93
:102B3000BFF36F8FFEE72800BDE8F28310B50100F8
:102B4000002837D04D480068404201EB00044A4954
:102B500060680A68104207D1502080F31188BFF3E3
:102B60004F8FBFF36F8FFEE72068002807D05020FB
:102B700080F31188BFF34F8FBFF36F8FFEE760685C
:102B80000A68104216D02068002813D162680868CD
:102B900082436260FFF73AFB39490A68606882182D
:102BA0000A60200000F036F839480168491C0160CD
:102BB000FFF732FB10BD10B44FF4705235480100DE
:102BC00011F0070F04D0C91DC908C900521A821894
:102BD0002C48016000234360521828480068121AEC
:102BE000D208D200234802600023046863600023F7
:102BF00004682360521A4A60006808604868224AE4
:102C0000106048681E4908605FF000401A4908607B
:102C100010BC704710B41B4A00E012681168814272
:102C2000FBD3110053681944814204D151684068B4
:102C3000411851601000010043681944136899421B
:102C400010D10C4913680C68A34208D0436811687E
:102C50004968CB18436011680968016004E009689D
:102C6000016001E011680160824200D0106010BC78
:102C7000704700007C6E0020906E002038FC000839
:102C8000806E0020386E0020846E0020886E002048
:102C90008C6E0020C803002062F30F2262F31F42F3
:102CA000401810F0030308D0C91A1FD3DB0748BF30
:102CB00000F8012D28BF20F8022D130030B414466F
:102CC0001546103928BF20E93C00FAD8490728BF2B
:102CD00020E90C0048BF40F8042D890028BF20F8E7
:102CE000022D48BF00F8012D30BC7047C91818BF2D
:102CF00000F8012DCB0728BF00F8012D704710F117
:102D0000080141605FF0FF31816010F10801C1608E
:102D100010F108010161002101607047002101618B
:102D2000704742684A6093688B609368596091600D
:102D300008610168491C0160704710B40B6813F109
:102D4000010F01D1026907E010F1080200E05268AA
:102D500054682468A342FAD253684B604B68996068
:102D60008A60516008610168491C016010BC7047AD
:102D70000169826843689A60426883685A604A6859
:102D8000824201D182684A60002202610868401EC6
:102D90000860086870470000001F5FF080730360E0
:102DA000001F490849000160001F0FF21501016072
:102DB00014380260001F7FF0020101602038704764
:102DC0007248006810F1010F07D0502080F311887D
:102DD000BFF34F8FBFF36F8FFEE7502080F3118852
:102DE000BFF34F8FBFF36F8FFEE7E0B56848016810
:102DF000684A914207D1502080F31188BFF34F8F6A
:102E0000BFF36F8FFEE700686349884207D1502007
:102E100080F31188BFF34F8FBFF36F8FFEE75F48DA
:102E200001780191FF21017001788DF800109DF863
:102E3000001011F050015A4A11705A4907220A60D5
:102E400007E00A68521E0A609DF8002052008DF8C3
:102E500000209DF800201206F3D40A68D2F1070280
:102E6000042A07D0502080F31188BFF34F8FBFF39F
:102E70006F8FFEE70A6812020A600A6812F4E062C5
:102E80000A60019901704848016851F470010160BD
:102E9000016851F07041016000F090F800203B495A
:102EA000086000F03FFB4148016851F0404101607B
:102EB00000F028FB00200EBD502080F31188BFF3E6
:102EC0004F8FBFF36F8F31490A68521C0A6009683F
:102ED00001290AD136490968090606D080F311880C
:102EE000BFF34F8FBFF36F8FFEE770472749086826
:102EF000002807D1502080F31188BFF34F8FBFF314
:102F00006F8FFEE70868401E08600868002802D13D
:102F1000002080F31188704780B5502080F311881D
:102F2000BFF34F8FBFF36F8FFFF7F4F9002803D083
:102F30005FF080501E490860002080F3118801BDB9
:102F4000EFF3058010280FD31A490968085C14496B
:102F50000978C0B2884207D2502080F31188BFF3AD
:102F60004F8FBFF36F8FFEE70E4800681249096864
:102F700011F4E061884207D2502080F31188BFF33A
:102F80004F8FBFF36F8FFEE770470000F8010020FE
:102F900000ED00E071C20F4170C20F4100E400E09B
:102FA000526F0020A06E002020ED00E034EF00E022
:102FB00004ED00E03CFC00080CED00E008480021B6
:102FC00001600021074A1160074909684FF47A72CD
:102FD000B1FBF2F1491E054A1160072101607047FB
:102FE00010E000E018E000E00002002014E000E043
:102FF000034B03600348086080201060704700BFE7
:10300000A86800202858002038B586B0002400F0B9
:10301000FCF9DFF84404006800281DD0002004906B
:103020000020039005AA03A904A800F089FADFF89C
:103030002C540498029003980190182000900023CB
:10304000059ADFF81C140FF2FD00FEF743FF28601D
:103050002868002800D00124002C07D1502080F3DC
:103060001188BFF34F8FBFF36F8FFEE7200007B0CB
:1030700030BD7FB504001D000020002C07D150207A
:1030800080F31188BFF34F8FBFF36F8FFEE7DFF838
:10309000C8633368002B1CD000910192029406296A
:1030A00011DAFFF76AFB022806D1089A0023694665
:1030B000306800F063FB0CE00023002269463068B2
:1030C00000F05CFB05E000232A006946306800F050
:1030D00020FC04B070BD7CB504000D00DFF8840353
:1030E0000068C068C668301DFFF742FE96F82800E9
:1030F00040071BD523002A00B1690919300000F0F0
:103100008DF8002818D00020009000232200002114
:103110003000FFF7AEFF002807D1502080F3118860
:10312000BFF34F8FBFF36F8FFEE705E096F82800DF
:1031300010F0FE0086F828003000316A884773BD21
:103140000000000080B5684600F041F8009900F0EA
:1031500003F800F082F8F6E77CB505000C00FFF7F5
:1031600055F8684600F046F80600009800282BD174
:10317000002C08D1AE4206D3FFF74EF831002800EC
:10318000FFF7A9FF22E0002C08D0DFF8DC0200687E
:103190000068002801D1012400E000242200AD1BBA
:1031A0002900DFF8B402006800F046FFFFF734F8AA
:1031B00000280BD15FF08050DFF8B0120860BFF339
:1031C0004F8FBFF36F8F01E0FFF726F873BDDFF875
:1031D000942211680968002901D1012100E0002131
:1031E00001600068002803D11068C068006800E032
:1031F0000020704770B50400FFF780F80500DFF885
:1032000070623068854204D200F0C5F80120206069
:1032100001E0002020603560280070BD10B500245A
:10322000416000618A420BD3D21A81698A4201D37C
:10323000012410E0011D8C480068FFF77EFD0AE0C4
:103240009A4203D2994201D3012404E0011D85482A
:103250000068FFF772FD200010BD10B586B0FFE7D3
:10326000002201A97C48006800F01FFC002800F043
:103270009080019800280ED502AA002A07D150207C
:1032800080F31188BFF34F8FBFF36F8FFEE7916814
:1032900050681268904701980028E1D4039C606947
:1032A000002802D0201DFFF763FD05A8FFF7A2FF4D
:1032B0000200019800280ED002280CD00BD304285D
:1032C0003AD032D3062806D053D308282DD002D3C3
:1032D000092831D05CE094F8280050F0010084F80F
:1032E0002800029B0299A06941182000FFF796FF71
:1032F0000028B5D02000216A884794F828004007AC
:10330000AED5002000900023029AA0698218002107
:103310002000FFF7AEFE0028A2D1502080F31188D4
:10332000BFF34F8FBFF36F8FFEE794F8280010F0C4
:10333000FE0084F8280093E794F8280050F001007C
:1033400084F828000298A061A069002809D0130021
:103350001000A1698A18110002002000FFF75EFF2B
:103360007EE7502080F31188BFF34F8FBFF36F8F3C
:10337000FEE794F82800800703D42000FFF7DEFB67
:1033800005E094F8280010F0FE0084F8280067E7B4
:1033900066E706B010BD7CB505E070603661311D92
:1033A0002068FFF7CAFC2F4C20680068002826D050
:1033B0002068C06805682068C068C668301DFFF7CF
:1033C000D7FC3000316A884796F828004007EAD5D4
:1033D000B06940198542E0D30020009000232A0004
:1033E00000213000FFF745FE002800D0DBE7502029
:1033F00080F31188BFF34F8FBFF36F8FFEE7206814
:1034000019490A682260086073BD7CB5FFF754FD56
:10341000114C206800281BD1164D2800FFF76FFCC7
:10342000154E3000FFF76BFC0E4805600E48066035
:1034300000200090114B124A10210A2000F0D5F80C
:1034400020602068002803D00E49206800F0CCFDE1
:10345000FFF74CFD73BD0000386F00203C6F00206B
:1034600020FC0008306F0020346F002004ED00E0E5
:10347000406F0020F86D00200C6E0020546A002080
:10348000C863002028FC00087047704770470000A0
:10349000EFF30980BFF36F8F264B1A681EF0100FF1
:1034A00008BF20ED108A20E9F04F106009B44FF0FA
:1034B000500080F31188BFF34F8FBFF36F8FFEF77B
:1034C000ABFF4FF0000080F3118809BC1968086851
:1034D000B0E8F04F1EF0100F08BFB0EC108A80F378
:1034E0000988BFF36F8F7047124B19680868B0E8FE
:1034F000F04F80F30988BFF36F8F4FF0000080F327
:10350000118870470C480068006880F308884FF005
:10351000000080F3148862B661B6BFF34F8FBFF32B
:103520006F8F00DFDFF81400016841F47001016063
:1035300070470000F46E002008ED00E088ED00E028
:10354000034B0360034808604FF4807010607047BD
:10355000046900202854002038B504000D00002C18
:1035600007D1502080F31188BFF34F8FBFF36F8FC7
:10357000FEE7FFF7A1FC2168E26B206C424301EB00
:103580000200A0600020A063206860602168E26BF8
:10359000521E206C424301EB0200E0605FF0FF30FE
:1035A00084F8440084F84500002D12D120690028D9
:1035B00017D014F11000FEF7B7FF002811D05FF00C
:1035C0008050DFF8D8170860BFF34F8FBFF36F8FBD
:1035D00007E014F11000FFF792FB14F12400FFF74D
:1035E0008EFBFFF783FC012032BD38B51C0000289C
:1035F00007D1502080F31188BFF34F8FBFF36F8F37
:10360000FEE7002C07D1502080F31188BFF34F8FC5
:10361000BFF36F8FFEE7002A01D0002901D00123FC
:1036200000E00023DBB2002B07D1502080F311888B
:10363000BFF34F8FBFF36F8FFEE7002A01D1002940
:1036400001D1012300E00023DBB2002B07D1502081
:1036500080F31188BFF34F8FBFF36F8FFEE75023C6
:103660000093009B502B07D0502080F31188BFF3AC
:103670004F8FBFF36F8FFEE7009B002C07D0049B9A
:10368000012584F846500094DBB200F027F82000B2
:1036900032BDF8B505000E001700002D07D15020EF
:1036A00080F31188BFF34F8FBFF36F8FFEE706FBE8
:1036B00005F05030FFF7B0F90400002C0CD02000CA
:1036C00010F15002002084F8460000943B00DBB269
:1036D0003100280000F002F82000F2BD38B51C00CF
:1036E000049D002901D12D6000E02A60E86329646F
:1036F00001212800FFF730FF85F84C4031BD1CB593
:103700000C001300002807D1502080F31188BFF36C
:103710004F8FBFF36F8FFEE7A04207D2502080F398
:103720001188BFF34F8FBFF36F8FFEE70221009127
:1037300000220021FFF759FF002800D0846316BD46
:1037400010B50C00002807D1502080F31188BFF37A
:103750004F8FBFF36F8FFEE7A04207D2502080F358
:103760001188BFF34F8FBFF36F8FFEE70222002156
:10377000FFF78FFF002800D0846310BDF7B5050068
:103780000E001F000024002D07D1502080F3118867
:10379000BFF34F8FBFF36F8FFEE7002E02D1286C6F
:1037A000002801D1012000E00020C0B2002807D18C
:1037B000502080F31188BFF34F8FBFF36F8FFEE768
:1037C000022F02D1E86B012801D1012000E0002086
:1037D000C0B2002807D1502080F31188BFF34F8F6B
:1037E000BFF36F8FFEE7FEF7C8FF002802D10298F3
:1037F000002801D1012000E00020C0B2002838D10B
:10380000502080F31188BFF34F8FBFF36F8FFEE717
:10381000029800285CD0002C03D16846FEF7CCFE4D
:103820000124FFF763FBFEF7F1FCFFF745FB95F979
:10383000440010F1010F02D1002085F8440095F9F1
:10384000450010F1010F02D1002085F84500FFF777
:103850004DFB02A96846FEF7B8FE002852D12800A9
:1038600000F0B3FB002837D1280000F069FBFEF719
:10387000D3FCFFF721FBA86BE96B884201D3022F31
:10388000C6D13A003100280000F002FB696A002925
:103890000FD015F12400FEF747FE002814D05FF08A
:1038A0008050DFF8F8140860BFF34F8FBFF36F8FBD
:1038B0000AE0002808D05FF08050DFF8E0140860CC
:1038C000BFF34F8FBFF36F8FFFF710FB01201FE097
:1038D000FFF70CFB00201BE0029915F11000FEF72A
:1038E000ECFD280000F02CFBFEF796FC0028C0D170
:1038F0005FF08050DFF8A4140860BFF34F8FBFF370
:103900006F8FB6E7280000F01BFBFEF785FC002058
:10391000FEBD2DE9F84305000E0014009846002D69
:1039200007D1502080F31188BFF34F8FBFF36F8F03
:10393000FEE7002E02D1286C002801D1012000E012
:103940000020C0B2002807D1502080F31188BFF3B7
:103950004F8FBFF36F8FFEE7B8F1020F02D1E86B14
:10396000012801D1012000E00020C0B2002807D1C9
:10397000502080F31188BFF34F8FBFF36F8FFEE7A6
:10398000FFF7DEFAEFF31187502080F31188BFF3C1
:103990004F8FBFF36F8FA86BE96B884202D3B8F1EA
:1039A000020F21D195F94590A86B424631002800BD
:1039B00000F06EFA48465FF0FF3140B288420DD108
:1039C000686A002809D015F12400FEF7ADFD002833
:1039D00003D0002C01D00120206003E019F101097F
:1039E00085F84590012000E0002087F31188BDE8AC
:1039F000F28370B505000C00002D07D1502080F334
:103A00001188BFF34F8FBFF36F8FFEE7286C00283C
:103A100007D0502080F31188BFF34F8FBFF36F8F13
:103A2000FEE72868002802D1A868002801D10120FB
:103A300000E00020C0B2002807D1502080F3118898
:103A4000BFF34F8FBFF36F8FFEE7FFF779FAEFF306
:103A50001186502080F31188BFF34F8FBFF36F8F13
:103A6000A86BE96B88421CD295F94510401CA863ED
:103A700008005FF0FF3240B290420DD1686A002822
:103A80000DD015F12400FEF74FFD002807D0002CC3
:103A900005D00120206002E0491C85F84510012076
:103AA00000E0002086F3118870BDF7B506000F0016
:103AB0000024002E07D1502080F31188BFF34F8FD0
:103AC000BFF36F8FFEE7002F02D1306C002801D1C9
:103AD000012000E00020C0B2002807D1502080F370
:103AE0001188BFF34F8FBFF36F8FFEE7FEF745FEE0
:103AF000002802D10298002801D1012000E0002016
:103B0000C0B200280CD1502080F31188BFF34F8F32
:103B1000BFF36F8FFEE7300000F012FAFEF77CFB78
:103B2000FFF7CAF9B56B002D06D1029800281FD106
:103B3000FFF7DCF9002064E03900300000F0EBF919
:103B40006D1EB563306900280ED016F11000FEF727
:103B5000EBFC002808D05FF08050DFF840120860CE
:103B6000BFF34F8FBFF36F8FFFF7C0F9012048E01D
:103B7000002C03D16846FEF71FFD0124FFF7B6F9BC
:103B8000FEF744FBFFF798F996F9440010F1010F96
:103B900002D1002086F8440096F9450010F1010F8B
:103BA00002D1002086F84500FFF7A0F902A9684677
:103BB000FEF70BFD002819D1300000F0F8F90028BD
:103BC000A9D0029916F12400FEF777FC300000F02E
:103BD000B7F9FEF721FB0028A2D15FF080506F49B2
:103BE0000860BFF34F8FBFF36F8F99E7300000F08D
:103BF000A7F9FEF711FB300000F0D9F900288FD0AB
:103C00000020FEBD73B582B0060000240025002E02
:103C100007D1502080F31188BFF34F8FBFF36F8F10
:103C2000FEE7306C002807D0502080F31188BFF3E6
:103C30004F8FBFF36F8FFEE7FEF79FFD002802D185
:103C40000398002801D1012000E00020C0B2002824
:103C50000CD1502080F31188BFF34F8FBFF36F8FCB
:103C6000FEE7300000F06CF9FEF7D6FAFFF724F912
:103C7000B06B00280CD1039800282AD1002D24D045
:103C8000502080F31188BFF34F8FBFF36F8FFEE793
:103C9000401EB0633068002802D1FEF75DFEB060C0
:103CA000306900280DD016F11000FEF73DFC002809
:103CB00007D05FF0805039490860BFF34F8FBFF3E2
:103CC0006F8FFFF713F9012065E0FFF70FF9002070
:103CD00061E0002C03D16846FEF76EFC0124FFF77B
:103CE00005F9FEF793FAFFF7E7F896F9440010F1AB
:103CF000010F02D1002086F8440096F9450010F12A
:103D0000010F02D1002086F84500FFF7EFF803A964
:103D10006846FEF75AFC002824D1300000F047F92D
:103D200000289ED03068002807D1FFF7C5F8B0689A
:103D3000FEF73AFD0500FFF7D9F8039916F12400C4
:103D4000FEF7BBFB300000F0FBF8FEF765FA002839
:103D50008CD15FF0805011490860BFF34F8FBFF3E3
:103D60006F8F83E7300000F0EBF8FEF755FA300074
:103D700000F01DF900283FF479AF002D0AD0FFF7BD
:103D80009BF8300000F07AF80100B068FEF796FD6D
:103D9000FFF7ACF8002004B070BD000004ED00E0B7
:103DA0002DE9F84305000E001400002D07D1502026
:103DB00080F31188BFF34F8FBFF36F8FFEE7002EA4
:103DC00002D1286C002801D1012000E00020C0B2FF
:103DD000002807D1502080F31188BFF34F8FBFF325
:103DE0006F8FFEE7FFF7ACF8EFF31188502080F3F8
:103DF0001188BFF34F8FBFF36F8FAF6B002F21D0B0
:103E000095F944903100280000F085F87F1EAF63DB
:103E100048465FF0FF3140B288420DD12869002842
:103E20000ED015F11000FEF77FFB002808D0002C03
:103E300006D00120206003E019F1010985F84490C3
:103E4000012000E0002088F31188BDE8F28310B55E
:103E50000400002C07D1502080F31188BFF34F8F4E
:103E6000BFF36F8FFEE7200000F0D0F894F8460013
:103E7000002802D12000FEF761FE10BD416A002932
:103E800004D0006B0068D0F1380000E000207047DB
:103E90002DE9F041060015000027B46B306C0028B6
:103EA00009D13068002831D1B068FEF7C1FC0700A5
:103EB0000020B0602AE0002D0FD1326C7568280018
:103EC000FDF7EEF97068316C084470607068B16895
:103ED00088421BD33068706018E0326CD6F80C80D2
:103EE0004046FDF7DDF9F068316C49420844F06066
:103EF000F0683168884204D2B068316C49420844A5
:103F0000F060022D02D1002C00D0641E641CB4634A
:103F10003800BDE8F08110B50C00016C00290ED00E
:103F2000C168026C1144C160C1688268914201D3CA
:103F30000168C160026CC1682000FDF7B1F910BDD5
:103F400070B50400FEF7B8FF94F9455008E014F18D
:103F50002400FEF7E9FA002801D0FEF777FB6D1E7A
:103F6000280040B2012802DB606A0028EFD15FF030
:103F7000FF3584F84550FEF7B9FFFEF79DFF94F931
:103F8000446008E014F11000FEF7CEFA002801D0DA
:103F9000FEF75CFB761E300040B2012802DB206990
:103FA0000028EFD184F84450FEF7A0FF70BD10B593
:103FB0000400FEF781FFA06B002801D1012400E07E
:103FC0000024FEF793FF200010BD10B50400FEF79B
:103FD00073FFA06BE16B884201D1012400E0002453
:103FE000FEF784FF200010BD10B4002300E05B1C2E
:103FF000082B09D20F4C54F83320002AF7D144F88B
:10400000331004EBC301486010BC7047002100E08E
:10401000491C08290CD2074A02EBC1035B688342A2
:10402000F6D1002042F83100002002EBC1014860C7
:10403000704700003C6D002070B504000D001600B4
:10404000FEF73AFF94F9440010F1010F02D100206D
:1040500084F8440094F9450010F1010F02D10020CA
:1040600084F84500FEF742FFA06B002805D132001E
:10407000290014F12400FEF739FA2000FFF760FF51
:1040800070BD000010B50400002C01D101201AE021
:1040900094F83400002804D100202077200000F09C
:1040A0002EFF032084F83400200000F00DF80028D3
:1040B00001D0012007E00020A06300202063012040
:1040C00084F83400002010BD30B589B00400002011
:1040D000039000200490002005900020069000200E
:1040E00007907620089003A983B068461822FDF750
:1040F000E7F80EBC206800F0F7FFC0B2002801D03E
:10410000012039E0DFF8E45400202860206801F045
:104110000AF801202860022001F05CFB200000F07A
:1041200009FD002807D0012184F83410A16B084351
:10413000A063012020E0200000F083FC002807D0CD
:10414000012184F83410A16B0843A063012013E01F
:104150004FF40071206801F01FF800280BD0DFF841
:10416000901422689163A16B0843A063012084F836
:104170003400012000E0002009B030BD70B586B0E9
:10418000040015001E00002905D1A06B50F000604E
:10419000A063012097E094F83400012840F0928059
:1041A0000020A063E06D7219904205D2A06B50F020
:1041B0000070A063012086E0032084F83400002012
:1041C0002268D0622068C26B40F22A300243206825
:1041D000C2630FF23570226CD0630FF27570226CDF
:1041E000D0640020226C10650020226C9060206C4E
:1041F0000068026832F0C002206C80680243206CC4
:10420000006802604FF4007303FB06F39B080A008A
:10421000206810F18001206C01F060FB002812D0B2
:104220002068C06B30F495702168C863DFF8C00364
:1042300021688863A06B50F08040A063012084F85F
:10424000340001203FE00120DFF894190860606C21
:10425000012802D04FF4007045435FF0FF3000901A
:104260004FF4007000FB06F00190902002900220B5
:10427000039000200490012005906946206800F01A
:1042800075FF022E06D3822020632900206800F0EB
:10429000B5FF05E0812020632900206800F095FF2C
:1042A00000280DD0DFF8481322689163A16B084302
:1042B000A063012084F8340000202063012002E084
:1042C000002000E0022006B070BD70B586B0050089
:1042D0000C0011001E00002C05D1A86B50F00060EE
:1042E000A863012096E095F83400012840F0918001
:1042F0000020A863E86D7218904205D2A86B50F0B8
:104300000070A863012085E0032085F834000020B8
:104310002A68D0622868C26B40F21A2002432868DB
:10432000C2630FF2D550EA6BD0630FF22560EA6BDF
:10433000D0640020EA6B1065686C012802D04FF44D
:1043400000704143022E05D3A0202863286800F0A6
:1043500087FF04E090202863286800F068FF0028A9
:104360000DD0DFF88C122A689163A96B0843A8630B
:10437000012085F834000020286301204AE0012054
:10438000DFF85C1808604020E96B8860E86B006823
:10439000016831F0C001E86B80680143E86B006898
:1043A00001604FF4007303FB06F39B08286810F1CB
:1043B00080022100E86B01F091FA002814D02868EF
:1043C000C16BDFF8200801402868C163884829686C
:1043D0008863A86B50F08040A863012085F8340002
:1043E00000202863012015E05FF0FF3000904FF4BB
:1043F0000070464301969020029000200390002018
:104400000490012005906946286800F0AFFE002066
:1044100000E0022006B070BD38B50400256B2068AE
:10442000406B000405D5280703D5200000F0E2FC0E
:10443000D9E02068406BC00555D54FF480702168E5
:1044400088632068C16BDFF8A00701402068C16362
:104450002068C06A400840002168C862280721D54A
:1044600015F0220F0AD0206800F013FF002805D0B5
:10447000A16B0843A063200001F04CFC40F23A50CD
:1044800021688863012084F834000020206315F03F
:10449000030F03D0200001F046FCA4E0200001F04F
:1044A0003EFCA0E0280640F19E80A8060AD52068C0
:1044B00000F0EFFE002805D0A16B0843A0632000A8
:1044C00001F028FC15F0030F40F08D802068C06AD1
:1044D00030F008002168C862012084F83400200010
:1044E00001F01DFC7FE02068406B400405D52807E3
:1044F00003D5200000F0A0FC75E02068406B40F27E
:104500003A2108426FD02068406B800703D5A06B2A
:1045100050F00200A0632068406B000703D5A06B39
:1045200050F00800A0632068406B800603D5A06BA4
:1045300050F02000A0632068406BC00603D5A06B3C
:1045400050F01000A0632068406B800503D5A06B7D
:1045500050F00800A06340F23A7021688863206838
:10456000C16BDFF8880601402068C163206800F055
:1045700090FEA16B0843A063280708D5012084F8AA
:10458000340000202063200001F0C4FB2BE028064B
:1045900029D515F0300F0CD00FF21940E16B0865EA
:1045A000E06B01F023FA00281DD0E06B00F002FA66
:1045B00019E015F0030F0CD00FF24140216C086593
:1045C000206C01F013FA00280DD0206C00F016FAD0
:1045D00009E00020A063012084F83400002020635B
:1045E000200001F098FB31BD00000000A0802542B2
:1045F000FF05400010B4426E920F0A70426E920E98
:1046000012F00F024A70426E120E12F003028A700C
:10461000426E120CCA70426E120A0A71426E4A71E0
:10462000826E120DCA80826E120C12F00F020A7294
:10463000826ED20B12F001024A72826E920B12F05D
:1046400001028A72826E520B12F00102CA72826EED
:10465000120B12F001020A7300224A73426C002A04
:1046600040F09B80826E40F6FC7313EA8203C26EB8
:1046700053EA92730B61C26ED20E12F007020A75F2
:10468000C26E120E12F007024A75C26E520D12F07F
:1046900007028A75C26E920C12F00702CA75C26ECA
:1046A000D20B12F007020A760A69521C42650122F7
:1046B000436D0C7E14F00704A41C12FA04F4634347
:1046C00043650B7A13F00F039A408265426D836D48
:1046D0005B0A5A43C2654FF400720266C26E920BC7
:1046E00012F001024A76C26ED20912F07F028A7677
:1046F00090F86C2012F07F02CA76026FD20F0A7710
:10470000026F520F12F003024A77026F920E12F0FC
:1047100007028A77026F920D12F00F02CA77026FBA
:10472000520D12F0010281F82020002281F8212090
:10473000026F120C12F0010281F82220026FD20BDC
:1047400012F0010281F82320026F920B12F0010295
:1047500081F82420026F520B12F0010281F825200B
:10476000026F120B12F0010281F82620026F920AEA
:1047700012F0030281F82720026F120A12F00302DE
:1047800081F82820006FC0F3460081F8290001203D
:1047900081F82A00002010BC7047426C012A15D114
:1047A000826E120412F47C12C36E52EA13420A6142
:1047B0000B695B1C4FF4806253434365426DC265D5
:1047C0004FF400728265826D026687E7DFF820147D
:1047D00002689163816B51F080518163012180F8FF
:1047E00034100120D7E7426C0A60826C4A60C26CC8
:1047F0008A60026DCA60426D0A61826D4A61C26D53
:104800008A61006EC8610020704778B589B00400E5
:104810000E000025032084F83400606C03281FD0AC
:10482000B6F5805F04D1A06B50F08050A0631BE010
:10483000B6F5006F06D1200000F0F4F9A16B084333
:10484000A06311E0002E06D1200000F016FAA16B43
:104850000843A06308E0A06B50F00060A06303E091
:10486000A06B50F08050A063A06B002808D0DFF848
:10487000800321688863012084F83400012514E056
:1048800060680390A0680490E068059006966069EF
:104890000790A069089003A983B068461822FCF726
:1048A0000FFD0EBC206800F01FFC4FF40071206863
:1048B00000F072FC002807D0DFF8341322689163FF
:1048C000A16B0843A0630125012084F8340028006F
:1048D000C0B20AB070BD1CB504000020009069464B
:1048E000200000F089F9002802D0A16B0843A063E2
:1048F0000098C0F3432016BD806B0168C96B51F46A
:1049000080710068C163704710B5846B206B82288A
:104910000AD1206800F0BDFC002805D0A16B084337
:10492000A063200001F0F6F92068C06A30F00800AA
:104930002168C86240F23A5021688863012084F8F7
:10494000340000202063200001F0EDF910BD0000CC
:1049500010B5846B01F062F9022829D0206C406DFB
:10496000E16B496D012801D001291ED1A0482168C1
:1049700088632068C06B30F49D702168C863A06BA9
:1049800050F08040A0632000FFF7A5FF062801D06B
:10499000052805D1206800F07CFCA16B0843A063CA
:1049A000012084F8340000202063200001F0B2F9D7
:1049B00010BD000010B5846B40F23A502168886346
:1049C0002000FFF788FF012184F8341000212163C3
:1049D000062801D0052805D1206800F05AFCA16BFB
:1049E0000843A063A06B002803D1200001F093F9D5
:1049F00002E0200001F08EF910BD000010B5846BBC
:104A000040F23A50216888632000FFF764FF0121DB
:104A100084F8341000212163062801D0052805D12F
:104A2000206800F036FCA16B0843A063A06B00284F
:104A300003D1200001F06FF902E0200001F06AF9D3
:104A400010BD18B58FB004000120ADF80C0020682F
:104A500000F06DFB002802D15FF0806068E0606CC0
:104A6000032819D0206800F0DBFC002860D1002169
:104A7000206800F077FB60670421206800F072FB7B
:104A8000A0670821206800F06DFBE0670C2120681A
:104A900000F068FBC4F88000606C032805D003A90F
:104AA000206800F0EAFC002842D1606C03281DD089
:104AB000BDF80C002065216D0904206800F0C7FCDA
:104AC000002835D10021206800F04CFB60660421ED
:104AD000206800F047FBA0660821206800F042FB38
:104AE000E0660C21206800F03DFB2067042120686F
:104AF00000F038FB000DE06404A92000FFF77AFD08
:104B0000002802D05FF0805012E0226D12040023D2
:104B1000206800F0D8FB00280AD1211D83B0684628
:104B20001822FCF7CDFB0EBC206800F0DDFA002057
:104B300010B010BD7CB505000020009000260024B8
:104B4000286800F0D9FB002849D1286800F0EBFB69
:104B5000002807D00020A864286800F0CDFB0028BA
:104B600002D03CE00120A864A86C012818D10021E3
:104B7000286800F0F0FB002812D05FF080502EE093
:104B80001C49286800F000FC002817D10021286883
:104B900000F0E8FA06003400E40F0098401C009092
:104BA0004FF6FF70009981420BD2002C09D10021F1
:104BB000286800F0D0FB0028E2D010E05FF08050C1
:104BC0000DE00099814202D35FF0807007E0700031
:104BD00002D50120686401E000206864002076BDF1
:104BE0008C852542E5FDFFFFC53CFFFFC5FCFFFFAF
:104BF000FF054000000010C138B505000C00002C76
:104C000002D15FF000600CE0296D0904286800F013
:104C10004EFC002805D10021286800F0A3FA20608E
:104C2000002032BD1CB5040008220021684601F0B6
:104C30007FF80021206800F095FA800102D54FF43A
:104C4000006019E06946200000F042F8002813D106
:104C5000019840030ED5216D0904206800F07BFB0C
:104C6000002809D10221206800F0A7FB002803D109
:104C7000002001E05FF0806016BD1CB50400082232
:104C80000021684601F054F80021206800F06AFA1B
:104C9000800102D54FF4006019E06946200000F061
:104CA00017F8002813D10198C0030ED5216D09040F
:104CB000206800F050FB002809D10021206800F096
:104CC0007CFB002803D1002001E05FF0806016BD6E
:104CD000F8B588B004000F0001F034F80500002694
:104CE00008220021684601F023F80821206800F01E
:104CF00053FA00287CD1216D0904206800F02BFBB9
:104D0000002875D15FF0FF3002900820039030201A
:104D1000049002200590002006900120079002A92F
:104D2000206800F023FA206800F060FB00285FD1C3
:104D30002068406B10F02A0F18D12068406B800269
:104D400007D5206800F0E7F9694641F82600761C8F
:104D500003E02068406B800408D500F0F3FF401B9F
:104D600010F1010FE4D15FF0004041E02068406B9A
:104D7000000704D5082021688863082038E02068EF
:104D8000406B800704D502202168886302202FE051
:104D90002068406B800604D520202168886320208D
:104DA00026E040F23A5021688863684641684268CC
:104DB000120212F47F0252EA01624168090A11F4F8
:104DC0007F410A43406852EA10623A60381D0099F8
:104DD000009A120212F47F0252EA01620099090A53
:104DE00011F47F410A43009952EA116202600020E7
:104DF00009B0F0BDF8B50500AF6AEC6A002C1AD016
:104E0000002614E0286800F086F93870791C641ECA
:104E10000200120A0A70491C641E0200120C0A7079
:104E2000491C641E000E08704F1C641E761C082E60
:104E3000E8D3AF62EC62F1BDF8B505002F6A6C6A89
:104E4000002C23D000261DE038780090781C641ECA
:104E50000099027851EA02210091401C641E0099D9
:104E6000027851EA02410091401C641E00990278C8
:104E700051EA02610091471C641E6946286800F0EF
:104E80004DF9761C082EDFD32F626C62F1BD000055
:104E900080B501F03BF884490968C1F30311082982
:104EA00001D2012103E00222083912FA01F1B0FB1C
:104EB000F1F002BD7D4A914200D37D494900B0FB2B
:104EC000F1F0801EB0F5807F00D3FF20704738B529
:104ED000784CFFF7DDFF2060774D78482860002090
:104EE00068600020A8600020E860002028610020A1
:104EF000686173492068FFF7DDFFA86131BD2DE9C6
:104F0000F84F86B004001422002101A800F010FF21
:104F100020686A49884240F0C480002000906948B7
:104F2000016851F400610160006810F400600090B5
:104F30000098002000906448016851F0040101606D
:104F4000016811F0040100910099002100910168AD
:104F500051F008010160006810F00800009000980E
:104F60004FF4F8500190022002900020039003209B
:104F700004900C20059001A9544801F007F8042082
:104F800001900220029000200390032004900C2046
:104F9000059001A94E4800F0F9FF002205213120BB
:104FA00001F06FF9312001F07DF9DFF828B14A48AE
:104FB000CBF800005FF00065CBF804500020CBF880
:104FC00008000020CBF80C004FF48066CBF810608E
:104FD0004FF48057CBF814704FF48048CBF818800A
:104FE0002020CBF81C000020CBF820000420CBF8B8
:104FF00024000320CBF828005FF40009CBF82C90A4
:105000005FF4001ACBF830A0584600F0F7FB0028F8
:1050100003D09921314801F0E5F9C4F840B0CBF84C
:105020003840DFF8BCB02F48CBF80000CBF8045074
:105030004020CBF808000020CBF80C00CBF8106023
:10504000CBF81470CBF818802020CBF81C0000207F
:10505000CBF820000420CBF824000320CBF8280054
:10506000CBF82C90CBF830A0584600F0C7FB0028B6
:1050700003D0AE21194801F0B5F9C4F83CB0CBF823
:105080003840002205213B2001F0FBF83B2001F0D5
:1050900009F900220521452001F0F3F8452001F02F
:1050A00001F907B0BDE8F08F0838024041787D0172
:1050B00040787D01A86E002080650020002C014012
:1050C0008096980044380240303802400008024080
:1050D000000C0240E86700205864024050F20008CB
:1050E00048680020A06402400EB40022009B019991
:1050F0000B4302990B4303990B4304990B43059906
:105100000B431A434368DFF8B8160B401A4342605A
:10511000002003B07047D0F8800070470968C0F8DD
:105120008010002070470321016000207047006854
:1051300010F00300704710B400230A6882604C68C6
:105140008A681443CA68144309690C432343C1683D
:10515000090B09030B43C360002010BC70470069B2
:10516000C0B27047143009180868704710B40023A3
:105170000A6842624A6882628C68CA6814430A6993
:10518000144349690C432343C16A31F0F7010B43CF
:10519000C362002010BC704718B585B004000091B0
:1051A0001020019040200290002003904FF4806076
:1051B000049069462000FFF7BEFF41F288321021BB
:1051C000200000F08DF906B010BD18B585B00400C0
:1051D00000911120019040200290002003904FF494
:1051E0008060049069462000FFF7A5FF41F28832F5
:1051F0001121200000F074F906B010BD18B585B07B
:1052000004000091122001904020029000200390A1
:105210004FF48060049069462000FFF78CFF41F254
:1052200088321221200000F05BF906B010BD18B5DD
:1052300085B00400009118200190402002900020C9
:1052400003904FF48060049069462000FFF773FFDD
:1052500041F288321821200000F042F906B010BD5A
:1052600018B585B0040000911920019040200290EB
:10527000002003904FF48060049069462000FFF7FF
:105280005AFF41F288321921200000F029F906B0B6
:1052900010BD18B585B00400002000900C200190CE
:1052A00040200290002003904FF4806004906946F3
:1052B0002000FFF740FFDFF80C250C21200000F054
:1052C0000FF906B010BD18B585B004000092072094
:1052D000019040200290002003904FF480600490E1
:1052E00069462000FFF727FF41F28832072120009E
:1052F00000F0F6F806B010BD18B585B00400002027
:1053000000900020019000200290002003904FF4B4
:105310008060049069462000FFF70DFF200000F038
:1053200036FA06B010BD18B585B004004FF4D5703C
:1053300000900820019040200290002003904FF43C
:105340008060049069462000FFF7F5FE200000F021
:10535000F2F906B010BD18B585B0040000913720F1
:10536000019040200290002003904FF48060049050
:1053700069462000FFF7DFFE41F288323721200026
:1053800000F0AEF806B010BD18B585B00400DFF827
:105390003804014300912920019040200290002010
:1053A00003904FF48060049069462000FFF7C3FE2D
:1053B000200000F053F906B010BD18B585B0040008
:1053C00000910620019040200290002003904FF4AD
:1053D0008060049069462000FFF7ADFE41F28832FC
:1053E0000621200000F07CF806B010BD18B585B08D
:1053F0000400002000903320019040200290002003
:1054000003904FF48060049069462000FFF793FEFC
:1054100041F288323321200000F062F806B010BD5E
:1054200018B585B004000020009002200190C02033
:105430000290002003904FF48060049069462000A1
:10544000FFF779FE200000F0E0F806B010BD18B5B7
:1054500085B00400009109200190C0200290002036
:1054600003904FF48060049069462000FFF763FECC
:10547000200000F0CAF806B010BD30B585B00400B9
:105480000D00002000900320019040200290002099
:1054900003904FF48060049069462000FFF74BFEB4
:1054A0002A000321200000F0FBF805B030BD18B53C
:1054B00085B0040000910D20019040200290002052
:1054C00003904FF48060049069462000FFF733FE9C
:1054D00041F288320D21200000F002F806B010BD24
:1054E00038B504000D00DFF8E4020068C0084FF48E
:1054F0007A71B0FBF1F042431000421E00280CD03C
:10550000606B10F0450FF7D00005F5D4606B4007D5
:1055100006D50420A063042076E05FF0004073E02D
:10552000606BC00703D50120A06301206CE0C5209B
:10553000A0632000FFF713FEEDB2A84201D00120C6
:1055400062E000212000FFF70DFEA149084201D1D1
:10555000002059E0002802D55FF0007054E04100BF
:1055600001D5402050E0810001D580204CE0C100F1
:1055700002D54FF4807047E0010102D54FF400706E
:1055800042E0410102D54FF480603DE0C10102D507
:105590004FF4006038E0010202D54FF4805033E050
:1055A000410202D54FF400502EE0810202D54FF4A3
:1055B000804029E0C10202D54FF4004024E04103BD
:1055C00002D55FF400301FE0810302D55FF4802034
:1055D0001AE0C10302D55FF4002015E0010402D5F2
:1055E0005FF4801010E0410402D55FF400100BE07E
:1055F000810402D55FF4800006E0000702D55FF465
:10560000000001E05FF4803032BD70490968C908CC
:105610004FF47A72B1FBF2F241F288314A43110041
:105620004A1E00290CD0416B11F0450FF7D0090537
:10563000F5D4416B490706D50421816304200CE0B1
:105640005FF0004009E0416BC90703D50121816388
:10565000012002E0C5218163002070475B49096891
:10566000C9084FF47A72B1FBF2F241F288314A4331
:1056700011004A1E00290CD0416B11F0450FF7D0E4
:105680000905F5D4416B490706D50421816304203F
:1056900005E05FF0004002E0C52181630020704713
:1056A00070B505000E00140048480068C0084FF4AB
:1056B0007A71B0FBF1F141F2883041430800411E9C
:1056C00000280CD0686B10F0450FF7D00005F5D41A
:1056D000686B400706D50420A86304202AE05FF029
:1056E000004027E0686BC00703D50120A8630120B4
:1056F00020E02800FFF733FDF6B2B04201D00120D0
:1057000018E0C520A86300212800FFF72BFD10F446
:10571000604F03D1000C208000200BE0410402D533
:105720004FF4005006E0000402D54FF4805001E031
:105730005FF4803070BD25490968C9084FF47A725A
:10574000B1FBF2F241F288314A4311004A1E0029AE
:105750000CD0416B11F0450FF7D00905F5D4416B22
:10576000490706D50421816304200FE05FF0004063
:105770000CE0416BC90703D501218163012005E0DD
:10578000416B490601D540218163002070470F49D4
:105790000968C9084FF47A72B1FBF2F241F288311C
:1057A0004A4311004A1E002906D0416B0906F8D56C
:1057B000C5218163002070475FF00040FBE70000D7
:1057C0000081FFFF00E1F5050000108000020020CD
:1057D00008E0FFFD38B5040000F0B4FA050014F14C
:1057E000010F02D004480078241800F0ABFA401BE7
:1057F000A042FAD331BD00BFC603002038B5040073
:10580000002000F09FFA0500002C01D1012064E087
:10581000606A0028022084F83500002084F83400F3
:10582000206800684008400021680860206800681F
:10583000C0070BD500F086FA401B0628F6D32020BF
:105840006065032084F83500032046E02068016885
:10585000DFF82C0401406268A0680243E06802435C
:105860002069024360690243A0690243E069024380
:10587000206A02431143606A042803D1E26A206B64
:10588000024311432068016020684569ED08ED007E
:10589000606A0543606A042810D1A06A0543E06A83
:1058A00000280BD0200000F0F1F9002806D040209D
:1058B0006065012084F8350001200EE02068456114
:1058C000200000F0C4F93F22E16D8A408260002090
:1058D0006065012084F83500002032BD70B50400F9
:1058E0000025A66D94F83400012801D102202EE095
:1058F000012084F8340094F83500012821D10220D9
:1059000084F8350000206065200000F089F93F210F
:10591000E06D8140B1602068006850F01600216899
:105920000860206C002805D02068006850F008004E
:10593000216808602068006850F001002168086054
:1059400003E0002084F8340002252800C0B270BDB6
:1059500070B50400A56D00F0F5F9060094F8350067
:10596000022806D080206065002084F834000120E1
:105970003BE02068006830F016002168086020686D
:10598000406930F0800021684861206C002802D115
:10599000A06C002805D02068006830F0080021685D
:1059A000086020680068400840002168086020689E
:1059B0000068C0070ED500F0C5F9801B0628F6D395
:1059C00020206065032084F83500002084F834002E
:1059D00003200AE03F21E06D8140A960012084F8A6
:1059E0003500002084F83400002070BD90F8351098
:1059F000022903D080214165012009E0052180F8BA
:105A000035100168096849084900006801600020F4
:105A10007047F8B5040000200090DFF868020068C5
:105A20004FF41651B0FBF1F5A66D37680821E06D13
:105A300011FA00F0074210D02068006840070CD52A
:105A40002068006830F0040022681060E06D81403A
:105A5000B160606D50F001006065E06D3900C140DB
:105A6000C8070BD520684069000607D50121E06D05
:105A70008140B160606D50F0020060650421E06D0E
:105A800011FA00F007420AD020680068800706D5A6
:105A9000E06D8140B160606D50F0040060651021E0
:105AA000E06D11FA00F007422CD020680068000772
:105AB00028D5E06D8140B16020680068400311D5B1
:105AC00020680068000306D4206C00281AD020004B
:105AD000216C884716E0A06C002813D02000A16C30
