:020000040800F2
:100000000868002049C1000855BE000857BE000816
:1000100059BE00085BBE00085DBE0008000000007D
:100020000000000000000000000000007D34000817
:100030005FBE00080000000025340008095D0008CC
:1000400091C2000895C2000899C200089DC200082C
:10005000A1C20008A5C2000861BE00086BBE00086E
:10006000A9C20008ADC200086DBE0008B1C20008F8
:10007000B5C20008B9C2000853B60008F18C0008E8
:10008000BDC20008C1C20008C5C20008C9C200083C
:10009000CDC20008D1C20008D5C2000877BE000852
:1000A000D9C20008036C00080D6C0008DDC200080E
:1000B000E1C20008E5C200089DBE0008E9C20008D0
:1000C000EDC20008F1C20008F5C20008FD8C00086E
:1000D000F9C20008A9500008FDC20008B35000088A
:1000E000E5B4000801C3000805C3000809C30008FF
:1000F000176C00080DC3000811C3000815C30008E1
:1001000019C300081DC3000821C3000825C3000847
:1001100029C300082DC3000831C3000835C30008F7
:1001200039C300083DC3000841C3000845C30008A7
:1001300049C30008A7BE00084DC3000851C300080A
:1001400055C3000859C300085DC3000861C3000817
:1001500065C30008EFB6000849B60008BD500008A6
:1001600069C300086DC3000871C3000875C30008A7
:1001700079C300087DC3000881C3000800000000A7
:1001800085C3000889C300082DE9F14FB0B092463D
:1001900004910DF142013A9A2B9199464A70002040
:1001A0000AE01AF8011B0498309A9047002804903E
:1001B00000F0B4860D98401C0D909AF8000050B1E4
:1001C0002528EED1002100220791089209910A9278
:1001D0000B910C9204E00D9800F0A2BE41F00101D9
:1001E0001AF8010F2028F9D023280CD02B2804D08E
:1001F0002D2805D0302809D00BE041F00201EFE7AF
:1002000041F00401ECE741F00801E9E741F0100199
:10021000E6E72A280FD1D9F8002052F8040BC9F8D4
:10022000002000280F9003D540420F9041F00401B8
:100230000AF1010A14E00F92DFF824380AE00F985F
:10024000984205DA00EB800402EB4402303A0F9248
:100250000AF1010A9AF80020A2F130000A28EED330
:100260009AF800002E2803D04FF0FF320E9229E0BA
:100270001AF8010F2A2809D1D9F8000050F8042BE8
:10028000C9F800000E920AF1010A1BE02D280CBFEC
:100290000AF1010A002000220E92DFF8C4470BE0A9
:1002A00040B90E9AA24205DA02EB820503EB450340
:1002B000303B0E930AF1010A9AF80030A3F13002A4
:1002C0000A2AEDD3ADF84010DFF89807784400F221
:1002D00094709AF8001000F055FF08B11AF8010B5D
:1002E0008DF842009DF84200682805D19AF8000078
:1002F00068280CD1622106E06C2804BF9AF800003F
:100300006C2804D171218DF842100AF1010A12A85B
:1003100006901AF801BBBBF125012CD01C3900F066
:10032000D081091F022940F2CC81133900F02185C8
:10033000093900F0C681891E00F0B685491E00F01B
:100340006385491E022940F2BC81091F00F05C85CB
:10035000491F00F02881491E00F00B85491E00F05E
:10036000D080C91E0DD0891E00F00385C91E00F083
:10037000008500F0A4BD25238DF84830012100F050
:10038000A9BDD9F8000050F8044BC9F80000002CB2
:10039000059440F0A3802B994878002800F09980BC
:1003A0004FF0FF340FF6803000F004FF201A40F0C9
:1003B000B58500F090BD6D1E40F0A7853096079D75
:1003C00012AF75B1309E17F8012B02A9304600F02C
:1003D00071FE002801D46D1EF5D10028309640F042
:1003E0009D850A9D3020002D8DF804000CDD309E87
:1003F000012301AA02A9304600F06CFE002840F05B
:100400008D856D1EF4D13096059F089D75B1309E87
:1004100017F8012B02A9304600F04CFE002801D449
:100420006D1EF5D10028309640F078850B9D302068
:10043000002D8DF804000CDD309E012301AA02A9D5
:10044000304600F047FE002840F068856D1EF4D16C
:10045000309605980899099D471875B1309E17F890
:10046000012B02A9304600F025FE002801D46D1EA4
:10047000F5D10028309640F051850C9D3020002D9C
:100480008DF804000CDD309E012301AA02A930463C
:1004900000F020FE002840F041856D1EF4D130961A
:1004A0009DF8400041077FF588AE2020002C8DF894
:1004B00004007FF782AE309D012301AA02A92846DD
:1004C00000F008FE002840F02985641EF4D1309524
:1004D00073E60FF66040059000F0FDBC0E9D002D08
:1004E00004D5204600F086FE044607E02A46204652
:1004F00000F09CFE002814BF041B2C46089400F05A
:10050000EABCD9F8001051F8040BC9F8001020F02B
:100510000004002121F0FF3512ABCDE9024505931F
:10052000DDE9022306993C2413B90AB90E9898B163
:1005300002F00F053035641EEEB23A2EA8BF273503
:10054000120942EA03721B090D5508BF002A03D0A5
:1005500005980D19A842EBD308190590C4F13C0287
:100560000E98089282420ADABDF84010821A4FF6BD
:10057000EF7001400A92ADF8401000F0ACBC0028CA
:1005800040F1A9849DF8400000F01400102840F0CC
:10059000A2840F9B07990A985B1A1B1A9A1A002AC1
:1005A00040F39984E3E32B99487820B14FF0FF346E
:1005B0000FF65030F8E69DF84200622861D06828B6
:1005C00017D06A283FD06C2806D0712847D07428ED
:1005D0002CD07A281DD064E0D9F8001051F8040B13
:1005E000C9F80010002868D14FF0FF340FF62C3006
:1005F000DAE6D9F8001051F8040BC9F8001020B958
:100600004FF0FF340FF61430CEE60D99018000F064
:1006100062BCD9F8001051F8040BC9F8001000288A
:100620004BD14FF0FF340FF6F420BDE6D9F800109F
:1006300051F8040BC9F8001000283ED14FF0FF34E8
:100640000FF6D820B0E6D9F8001051F8040BC9F81D
:10065000001080B94FF0FF340FF6C020A4E6D9F89F
:10066000001051F8040BC9F8001020B94FF0FF3406
:100670000FF6A82098E60D9AD317C0E9002300F0E2
:100680002ABCD9F8001051F8040BC9F8001020B9A1
:100690004FF0FF340FF6842086E60D99017000F0CC
:1006A0001ABCD9F8001051F8040BC9F8001020B991
:1006B0004FF0FF340FF6642076E60D99016000F0EC
:1006C0000ABCD9F80020D21D22F00702C9F8002088
:1006D000D2E900010832C9F80020CDE90201C80FB3
:1006E00002D007982D210AE0BDF84000810702D50D
:1006F00007982B2103E0C00705D50798202112AAEF
:100700001154401C079012A807994BF0200243187F
:10071000DDE90201CDE92C01612A059321AC0BD062
:100720000E98002802D506200E9005E001BF4BF080
:100730002000672801210E91DDE9020148004015E3
:10074000401C0A460DD109030BD0ABF16105032013
:100750001A2D089002D20FF6E0110DE00FF6DC1111
:100760000AE070B912030CD1ABF1610503201A2D18
:1007700008901AD30FF6CC110322184600F082FD20
:10078000A9E3DDE90201CDE92E01DDE92E2323F005
:100790000047B7F5801F22F000060DD20022002F7F
:1007A00008BF002E009203D116E00FF69411E3E784
:1007B0006A4600F0BBFD0FE0DFF8D808DFF8D81874
:1007C00000EB17500090DDE92E234FF0FF30194069
:1007D000DFF8C87810403943CDE902014BF0200022
:1007E00061280DD1059830210170821CBBF1610F89
:1007F00005920CBF7821582141700798801C079002
:10080000DDE9020120F0000231F0004308BF002AB8
:1008100002D10026002567E14BF02008B8F1610FF6
:1008200040F0B4800E98002847BF21210191401C60
:100830000190019FDDE92C017F1C00220023DDE9EE
:10084000024500F0ABFD00998DF8842038BF85F09B
:100850000045091F002F00910DF1850653DD20464C
:1008600029460022002300F0B1FD4CD24800400D83
:1008700000F11C0312D0002B10DD40F2FF70834208
:1008800006DBDFF81C1805F000421143002011E0E0
:100890006FF31E5141EA035120460BE024F00000A3
:1008A00035F0004108BF00280FBF29461C22294609
:1008B00000F0A4FD04460D4600F03EFEFF1F002F91
:1008C000804609DD00F056FE02460B4620462946CA
:1008D00000F062FE04460D46F01D0721B8F1000F3E
:1008E0000CDD491E5EBF08F00F0200F8012D4FEA33
:1008F0002818F3D502E0002200F8012D491EFAD590
:10090000C61D002FABDC0DF18500361A019886421A
:10091000D8BF304600280DF1850430D4B04206DA45
:100920000DF185010A5C082AA8BF0F2100DA002119
:10093000024621AB134400E0401E13F80159521E39
:100940008D42F9D00F2904D10DF185018B5C5B1C20
:100950008B54002A04D50099091D21AC401C00913C
:10096000411E0CD46218ABF13A0613783033DDB275
:100970003A2DA8BFF318491E02F80139F5D50E9992
:10098000002940F1AF80421E0E92ABE00099DFF8E3
:10099000142747F29750414391FBF2F2DDE92C45D1
:1009A000009225F00045D2F1070204DD20462946D9
:1009B00000F04DFB0BE052420020DFF8EC1600F097
:1009C00046FB02460B462046294600F057FE0446E9
:1009D000B8F1660F0E9806BF009F0A3706273F182A
:1009E000142FC8BF142730200D468DF884000DF158
:1009F0008506002F38DD2046294600F063FF0146BA
:100A00000A4606F1080304200A26B2FBF6F606EBB6
:100A1000860EA2EB4E02303203F8012C0A22B6FBFE
:100A2000F2F202EB820EA6EB4E063036401E03F8C1
:100A3000026DE9D1083F002F03F10806D9DD084611
:100A400000F054FF02460B462046294600F0A4FD64
:100A50000022DFF8583600F057FF04460D46CAE77B
:100A6000CBCCCC0C10B800000DF18500361A0DF17E
:100A7000850404E00098401E761E0090641C2078D7
:100A80003028F7D0B8F1660F02D10099491C04E074
:100A9000B8F1650F0CBF012100210E98081886429D
:100AA000B8BF701E00281DD4B04204DA215C34297E
:100AB000C8BF392100DC30210246631E9D1800E0CA
:100AC000401E15F80169521E8E42F9D0392902D113
:100AD000A15C491CA154002A04D50099491C1C465C
:100AE000401C00910646009D00F0E0FF406A077838
:100AF000DDF8388030B2002802DC01260FF24864AD
:100B00004BF02000662808BF6D1C16D0672846D120
:100B100028B210F1040F48DB404546DA9DF840004A
:100B20006D1C010703D430B24045B8BF804628B2DF
:100B3000B8EB000848BF4FF000080FFA85FBBBF187
:100B4000000F00F3B5800898411C089130220599E8
:100B50000A54B8F1000F03DC9DF84000010704D5EA
:100B60000898411C089105990F5418EB0B0FB8BF5A
:100B7000C8F100052DB268420B90A84432B29045EE
:100B8000B8BF4646059B089836B2099632462146BC
:100B9000184400F077FBA8EB06000C90D2E0BBF104
:100BA000610F17D14FF0700B19E030B2404504DAF5
:100BB0009DF840100A0758BF8046B8F1010848BFA9
:100BC0004FF00008BBF1670F14BF4FF0450B4FF01B
:100BD000650B04E0BBF1410F08BF4FF0500B0898C4
:100BE000411C0891B8F1000F059914F8012B0A5423
:100BF00003DC9DF8400001071AD50898411C0891B4
:100C0000B8F1000F05990F5412DD761E30B2804501
:100C10000598089BB8BF464632B22146184400F0FA
:100C200031FB089936B271180891A8EB06000B90B9
:100C300005980899084429B2002980F800B003D427
:100C40002B224270821C04E02D2242700D46821C31
:100C50006D4200212CAB28460AE004460A2094FB92
:100C6000F0F000EB8005A4EB450403F8014B491CB0
:100C700000B20028F1DC012906DC4BF020006528D9
:100C800004BF302002F8010B00292CAB08D1302022
:100C900002F8010B06E0491E585C303002F8010BE7
:100CA0000029F8DC059908980844121A099249E0CD
:100CB00030B229B288421CDA0598089B32B221462C
:100CC000184400F0DFFA089936B27118ABEB06064B
:100CD000B8F1000F08910B9603DC9DF84000020765
:100CE00004D5059847540999491C0991CDF83080DD
:100CF00028E00598089B2AB22146184400F0C2FA61
:100D00000898761B5844B8F1000F089003DC9DF852
:100D100040100A0703D5411C089105990F5430B2C1
:100D200080450598089BB8BF464632B204EB0B01DC
:100D3000184400F0A7FA089836B230180890A8EBCB
:100D400006000B909DF8400000F01400102840F0C1
:100D5000C280079A08990B988A18099982180C98EA
:100D60008A1882180F98824280F2B580821A0A92FD
:100D7000B1E09DF84200622808D068280ED06A28A9
:100D800014D06C281FD0712810D01CE0D9F80010A6
:100D900051F8040BC9F80010C0B21AE0D9F80010DD
:100DA00051F8040BC9F8001080B212E0D9F8002005
:100DB000D21D22F00702C9F80020D2E90001083252
:100DC000C9F8002006E0D9F8001051F8040BC9F862
:100DD00000100021CDE902019DF8400001075AD51D
:100DE000DDE90223002B08BF002A54D04BF020007D
:100DF000782850D1079812A930220A54401C431C6D
:100E0000079301F800B046E09DF84200622808D040
:100E100068280ED06A2814D06C281FD0712810D0F2
:100E20001CE0D9F8001051F8040BC9F8001040B2CA
:100E30001AE0D9F8001051F8040BC9F8001000B2FC
:100E400012E0D9F80020D21D22F00702C9F80020D4
:100E5000D2E900010832C9F8002006E0D9F80010F4
:100E600051F8040BC9F80010C117CDE9020100299F
:100E700002D507982D210AE0BDF84000810702D570
:100E800007982B2103E0C00705D50798202112AA57
:100E90001154401C079012A807990144059102A81B
:100EA000594600F04FF816E001200790D9F80000ED
:100EB00050F8041BC9F800008DF848100BE02521FC
:100EC0000122BBF1000F8DF84810079203D08DF876
:100ED00049B0022107910F9A07980A990C9C121A9F
:100EE0000898521A0B99121A0998521A121A9DF858
:100EF0004000141B41073FF562AA2020002C8DF80A
:100F000004007FF75CAA309E2546012301AA02A9AE
:100F1000304600F0DFF800283FF44DAA4FF0FF30D4
:100F200031B0BDE8F08F00007072696E74665F7357
:100F30003A2062616420257320617267756D656E69
:100F4000740000002DE9FC4307466F293E6908BF85
:100F5000082405D041F02000782814BF0A2410246A
:100F60003C25D7E90023642918BF69299046994692
:100F700005D1002B03D5D8F1000869EB4909B9F177
:100F8000000F08BFB8F1000F0CD1386B50B9082C16
:100F900039D197F83800010735D530203B2586F840
:100FA0003B0030E08DF80010404649462246E317EA
:100FB00000F080FD3032D0B26D1E3A28019504DB7E
:100FC0009DF80000A0F151018A187255404649462B
:100FD0002246E31700F06EFD80465FEA010908BF74
:100FE000B8F1000F03D0F86871198842DCD3082CDF
:100FF00009D197F83800010705D5705D302802D077
:101000006D1E30207055C5F13C02BA617119F9604E
:10101000386B824208DA821A3A624FF6EF70398FE3
:1010200001403987BDE8F38300280ED597F83800D2
:1010300000F01400102808D17B6B7969386A5B1ABC
:101040001B1A9A1A002AC8BF3A62BDE8F3832DE939
:10105000D04306460F4614464FF00008DFF8509084
:1010600012E0E00707D542464B463046394600F0CD
:101070004BFC06460F464046494642464B4600F06A
:1010800043FC641080468946002CEAD1304639463C
:10109000BDE8D08302FCFFFFFFFF0F800000E03FB0
:1010A0000000F07FA08601000000F03F84D7974148
:1010B0000000244010B503460C461146A06898472E
:1010C000A06020B1E06A401CE062002010BD4FF03B
:1010D000FF3010BDF8B505460E4617461C460020E9
:1010E0005CB117F8011BB068A847B06030B1F06A76
:1010F000401CF0620020641EF3D1F2BD4FF0FF30BF
:10110000F2BD00007072696E74665F733A20256EDE
:1011100020646973616C6C6F776564007072696ECE
:1011200074663A2062616420256E20617267756D75
:10113000656E7400000000006E616E004E414E004E
:10114000696E6600494E4600300030B4002513E059
:1011500050F8042BD30744BFA9F101039A18091FC3
:10116000042942F8045BFAD213468C0744BF158069
:101170009B1CC90748BF1D7050F8041B0029E7D10C
:1011800030BC7047C9B202788A421AB11CBF10F84D
:10119000012FF9E718BF002070478268521C826057
:1011A000426832B10268531C036011704168491EE5
:1011B0004160704780B500B906A005490B681BB1B6
:1011C00022220021984701E000F08CFD222002BD80
:1011D000F8630020636F6E73747261696E742068C7
:1011E000616E646C65723A20626164206D65737330
:1011F0006167650000F10103810704D010F8011B4D
:10120000820781B1FAD10268A2F10131914311F054
:10121000803104BF50F8042FF6E709BAB1FA81F122
:1012200000EBD100401CC01A70472E00C9B28307E2
:1012300006D0521E22D310F8013B9942F7D11FE08D
:10124000083A13D302F1040241EA012141EA0141C3
:1012500050F8043B121F21BF4B40A3F1013C2CEA84
:10126000030C1CF0803FF3D0C9B2001F083210F805
:10127000013B521E28BF91EA030FF8D818BF012086
:10128000401E704762B38B0708D0521E11F8013B15
:1012900000F8013B00F024808B07F6D1830740F073
:1012A000208000BF103A07D330B4B1E83810103AAC
:1012B000A0E83810F9D230BC530724BFB1E80810B9
:1012C000A0E8081044BF51F8043B40F8043BD207A3
:1012D00024BF31F8022B20F8022B44BF0B78037097
:1012E0007047121F17D35B0009D151F8043B20F857
:1012F000023B1B0C121F20F8023BF6D20BE051F808
:10130000043B00F8013B1B0A20F8023B1B0C121F98
:1013100000F8013BF3D238BF121D521E24BF11F852
:10132000013B00F8013BF8D87047000010B51446A7
:1013300000F002F8226010BDC1F30A5343B14A0025
:1013400012F5001F28D2A3F2FE32A1EB0251704722
:1013500050EA410C20D001F0004C31EA0C01B1FA06
:1013600081F204BFB0FA80F3D2180B3AB2F1200335
:101370002CBF00FA03F1914041EA0C013EBFC2F1DB
:10138000200C20FA0CF319439040524240F2FD33F6
:10139000D21A01EB03517047002270474FF4001C32
:1013A0001CEB410F94BF1CEB430F09E041EA030C17
:1013B00050EA4C0C52EA0C0C03D2994208BF9042FE
:1013C000704714BF8B428242704700004FF4001CEC
:1013D0001CEB410F94BF1CEB430F09E041EA030CE7
:1013E00050EA4C0C52EA0C0C03D28B4208BF8242EA
:1013F000704714BF9942904270470000124254D483
:1014000040F2FF7C1CEA11530FD0634531D09B188A
:1014100063453CBF01EB0251704701F0004141EAD6
:101420000C510020AFF30080704750EA410320D0F8
:1014300001F0004C91EA0C011CD0B1FA81F30B3B96
:101440009A420DD9D21A994051EA0C01C3F1200CED
:1014500020FA0CFC61449840531C40F2FF7CD7E713
:10146000914041EA0C01C2F1200C20FA0CF319431F
:1014700090407047B0FA80F31533202BE0D3202A38
:10148000EED3203A203B9A4209D9D21A00FA03F14E
:1014900041EA0C010020531C40F2FF7CB8E700FA3F
:1014A00002F141EA0C0100207047524240F2FF7CF9
:1014B0001CEA11530DD06345DBD0B2EB030C3CBFEB
:1014C000A1EB025170470CF1010221EA035141F4F2
:1014D000801150EA410CCCD001F0004C352A27DCB9
:1014E00030B481EA0C01B2F1200309DAC2F1200321
:1014F000044601FA03F5D0402843D1409C400CE05B
:10150000C3F12002450020FA03F418BF44F001049F
:1015100021FA03F091400C43002174F1004550F191
:10152000000051EB0C01244230BC7FF47BAF7047CC
:101530006146002076E70000C1F30A5340F2FE3214
:101540009B1A14DDD3F120034FEAE17208DDC902D2
:1015500041EA505141F00040D84080185040704757
:1015600003F2E13010B1D24382F000407047002016
:1015700070470000C11768B14840401AB0FA80F2C5
:101580009040D21CC907C2F5846241EA025202EBC4
:10159000D02140057047000070B44FF0004591EA3B
:1015A000030F40F1A3836B40841A71EB030603D24F
:1015B000001BB141121973414FF4001C1CEB410F89
:1015C00034BF7CEB430442E00C0DA4EB1356352EE4
:1015D0004FDC45EAC323DB0A45EAC121C912B6F153
:1015E00020050DDD63FA05F6EB4086EA030512429D
:1015F00018BF45F00105C01851F100010CD213E0ED
:1016000062FA06F5F2405540F3415A40B340F340C8
:101610005A408018594107D349085FEA30005FEA11
:10162000350528BF45F0010501F58011420875F127
:10163000004250F1000041EB04514E0016F5001F2E
:1016400070BC38BF70470020090D090570471CEBBE
:10165000410F10D252EA43060BD0BCEB410F05D824
:101660000C0DAB43661E342EB6DD02E0AB43801892
:10167000594170BC704770BC70470000F0B540F233
:10168000FF7581EA030C0CF0004C15EA11541DBFE4
:1016900015EA1357AC42AF42E5E0BC41C1F3130178
:1016A000C3F31303801A994143F4801304D2641ED8
:1016B0004000494180185941C90241EA5051B1FBEB
:1016C000F3F603FB1611A2FB0675D7EBC020A94168
:1016D00002D2761E80185941C90241EA5051B1FB2D
:1016E000F3FE03FB1E11A2FB0E75D7EBC020A94130
:1016F00003D2AEF1010E80185941890241EA90519E
:10170000760546EA8E2EB1FBF3F603FB1611A2FB1B
:101710000675D7EB8020A94102D2761E8018594168
:10172000C90241EA50514EEA060EB1FBF3F603FB43
:101730001611A2FB0675D7EBC020A94102D2761E76
:1017400080185941C90241EA5051B1FBF3F703FB3C
:101750001711A2FB0735D3EBC020A94167F10007A1
:101760000CBF004247F0010766F3D5274FEA1E3150
:10177000B80814F5806412DDBD0775F1004250EB26
:101780000E5051EB045111F5801F5CBF41EA0C0172
:10179000F0BD4CF07F6141F0E0410020F0BDBD079D
:1017A0006D0840EA0E5041F48011D4F10104B4F107
:1017B00020060ADAC4F120060200E04001FA06F32E
:1017C000E1401843B24015430EE0342C13DCC6F15F
:1017D000200445EA40056D0820FA06F2154321FA77
:1017E00006F0A1400D43002175F1004250F10000C8
:1017F00051EB0C01F0BD00205FEA0C01F0BDCFB948
:1018000092185B41B3FA83F704BFB2FA82F6BF19AC
:101810000B3FB7F120062FBF02FA06F3BB40C7F11A
:10182000200622FA06F638BF3343BA401CB1E41949
:10183000641E33E77F4231F00041B1FA81F404BF06
:10184000B0FA80F6A4190B3CB4F120062FBF00FAC1
:1018500006F1A140C4F1200620FA06F638BF314354
:10186000A0403C1B1AE7AC421ABF05EA1357AF422F
:1018700012E050EA41061CBF52EA4306BFE750EAB5
:101880004107304661461CBF41EA0551F0BD52EAAE
:10189000430C08BFC143F0BD00204FF4001616EB07
:1018A000410F98BF16EB430F08BF16EB410F24BF43
:1018B000C14305E016EB430F0CBF61464CEA0551EE
:1018C000F0BD0000400D491840EA81200CD2490DBE
:1018D000A1F58061491C40F0004005DBD1F11F01FA
:1018E00054BFC840C017704700207047014648B138
:1018F000B0FA80F18840C91CC1F58461090501EB8B
:10190000D021400570470000B0B581EA030C0CF00F
:10191000004C40F2FF7515EA11541DBF15EA13572C
:10192000AC42AF4239E0E41923EA455343F4801353
:10193000C90241F0004141EA505EC7021100A7FB15
:10194000020200284FF00000EEFB01204FF00001E2
:10195000E3FB072118BF42F0010240180021494172
:10196000E3FB0E01A4F580640F0302D25200404154
:10197000494154F101046CDD470872F1004250F115
:10198000000051EB0451A1F580115CBF41EA0C014C
:10199000B0BD4CEA05510020B0BD05EA1357AC427A
:1019A00014BFAF4241E050EA410E1CBF52EA430E61
:1019B00002E061460020B0BD24423C441BD15FEAF6
:1019C000070EF6D0090302BF01460020AEF1140E47
:1019D000B1FA81F7AEEB070401FA07FE0C37C7F145
:1019E000200100FA07F7C8404EEA000E23EA4553EB
:1019F00043F48013A2E733F00043B3FA83F704BF44
:101A0000B2FA82FE77440B3FE41BB7F1200E2FBFE2
:101A100002FA0EF3BB40C7F1200E22FA0EFE38BFC9
:101A200043EA0E03BA40641C82E750EA410E14BF39
:101A300052EA430E6FF000014FF4001717EB430F0B
:101A40008ABF194617EB410FB5E74CEA0551002054
:101A5000B0BDD4F10104B4F120070FDAC4F12007BE
:101A6000520828BF42F0010210FA07F501FA07F701
:101A7000E1BF2A43E0403843E1400FE0352C98DCD9
:101A8000C7F1200452EA400220FA07F218BF42F0E0
:101A9000010231FA07F0A1400A43002172F100422D
:101AA00050F1000051EB0C01B0BD00000048704740
:101AB000FC010020BBBBE1B1B2F5803F80F07E802D
:101AC000022A1ED98C46B1FBF2F102FB11C31B04A2
:101AD00043EA1043B3FBF2FC02FB1C3380B240EA42
:101AE0000343B3FBF2F002FB103240EA0C40002348
:101AF0007047022A05D98446B0FBF2F002FB10C2FF
:101B000070474AB105D100F0010249085FEA300090
:101B1000704700220023704700F09EB90B000200BE
:101B2000002100207047904271EB030CF6D3B3F50F
:101B3000803F2FD2F0B5B3FA83F7B1FA81F4A7F161
:101B40000F0E3D1B5340CEF1200602FA0EF2F34178
:101B50005340B5F10F0746D80F3C2C444140C4F127
:101B60002006A040F1414140B1FBF3F603FB161102
:101B7000A2FB0645001BA94102D2761E80185941DE
:101B800080EA010221FA0EF362FA0EF200215A40B5
:101B90003046F0BD30B4B1FBF3FC03FB1C11A2FBDB
:101BA0000C45001BA94103D2ACF1010C801859412E
:101BB00030BC02460B46604600217047B2F1807F80
:101BC00065D3F0B5B2FA82F7B1FA81F4C7F10F0626
:101BD0003D1B22FA06F307F1110EF24120355A405F
:101BE000B5F10F07B8D94140C4F12006A040F1413A
:101BF0004140B1FBF3FC03FB1C11A2FB0C45001B95
:101C0000A94103D2BCF1010C801859410F2F12D306
:101C10000F3FC90341EA5041B1FBF3F603FB161134
:101C2000A2FB0645D4EBC030A94102D2761E801833
:101C3000594146EACC3C07B34140C7F12006B840C1
:101C4000F1414140B1FBF3F603FB1611A2FB06453F
:101C5000001BA94102D2761E8018594180EA010278
:101C600021FA0EF3C7F1200462FA0EF20CFA07F023
:101C70005A402CFA04F13043F0BD80EA010221FA07
:101C80000EF3002162FA0EF260465A40F0BD8C4617
:101C9000B1FBF2F102FB11C31B0243EA1063B3FB79
:101CA000F2FC02FB1C331B024CEA002043EA1063E7
:101CB000B3FBF2FC02FB1C331B024CEA002043EA9C
:101CC0001063B3FBF2FC02FB1C331B024CEA002046
:101CD00043EA1063B3FBF2FC02FB1C324CEA002027
:101CE00000237047012000F0B9B80000841A71EB9E
:101CF000030604D26E40001BB141121973414FF428
:101D0000001C1CEB410F34BF7CEB430683E00C0D41
:101D1000A4EB1356362E00F37C80012E45EAC32334
:101D200041DC43EA525312BFD20292025B082405FF
:101D300045EAC12141EA5051D2EBC020994125D456
:101D400007D1B0FA80F610FA06F162D000202036F2
:101D500008E0B1FA81F6B140C6F1200220FA02F2A1
:101D60001143B0404FEAF474B4EB465434F001062A
:101D70004FEA74040AD8D6F50016760D04F0004434
:101D8000F04061FA06F25040F1404840C00A40EA93
:101D9000415021F0004128BF5FEA500550F100009A
:101DA00044EBD12135E0DB0A45EAC121C90AB6F18D
:101DB00020050EDD42EA0242120CC5F1200603FAAC
:101DC00006F6EB4042EA06056D42984161F10001DA
:101DD0000DE062FA06F5F240554063FA06FC82EA2D
:101DE0000C02F3405A406D42904161EB030111F443
:101DF000801F05D1641E620502D06D00404149413B
:101E000021F48011430875F1004350F1000041EBCB
:101E1000045170BC70471CEB410F15D223F00043F6
:101E200052EA43060BD04FEA4C0CBCEB410F04D8EE
:101E30000C0D661E342EB7DDEBE7801A994150EA8F
:101E4000410608BF0021E4E708BF1CEB430F28BF91
:101E50006FF00001DDE7000070470000202109035A
:101E600026311820ABBEF9E778B585B005000B9890
:101E7000002807D1502080F31188BFF34F8FBFF3A4
:101E80006F8FFEE70C9C002C07D1502080F3118847
:101E9000BFF34F8FBFF36F8FFEE75C260096009E67
:101EA0005C2E07D0502080F31188BFF34F8FBFF313
:101EB0006F8FFEE7009E002C13D0002811D0206306
:101EC000022084F8590000200390029404A8019095
:101ED0000A980090280000F042F8200000F0A0F8D6
:101EE00001E000200490049806B070BD2DE9F8438D
:101EF00084B00700884616009946300080B2800002
:101F000000F054FD0500002D0BD05C2000F04EFDCC
:101F10000400002C01D0256304E0280000F0D8FD67
:101F200000E00024002C15D0002084F85900002087
:101F3000039002940D9801900C9800904B46B6B215
:101F400032004146380000F00AF8200000F068F83E
:101F5000012001E05FF0FF3005B0BDE8F0832DE91E
:101F6000F84305000C00170098460A9EB900A52208
:101F7000D6F83090484600F059FE306B00EB8700F1
:101F8000071FFF08FF0017F00700002807D05020A8
:101F900080F31188BFF34F8FBFF36F8FFEE7002CE4
:101FA00010D0002100E0491C102907D2605C06EB2C
:101FB000010282F83400605C0028F4D1002086F829
:101FC000430002E0002086F83400DDF82090B9F1EB
:101FD000380F01D35FF03709099CC6F82C90C6F87A
:101FE0004C9000203065301D00F062FE16F11800A4
:101FF00000F05EFE3661D9F13809C6F818907662B5
:1020000000207065002086F85800424629003800FC
:1020100000F08CFE3060002C00D02660BDE8F1831B
:1020200038B5040000F012FFDFF868130868401CA0
:102030000860DFF864532868002806D12C6008681F
:1020400001280DD100F0E5FA0AE0DFF8500300683E
:10205000002805D1E06A2968C96A884200D32C604B
:10206000DFF83C030168491C016000686064DFF828
:1020700034030168E26A914201D2E16A0160211DE4
:10208000DFF82423E36A1420434302EB030000F04B
:1020900012FE00F0F5FEDFF80403006800280DD002
:1020A0002868C06AE16A884208D25FF08050DFF891
:1020B00090140860BFF34F8FBFF36F8F31BD10B521
:1020C00004000020002C14D0DFF8B00300680028C2
:1020D00007D0502080F31188BFF34F8FBFF36F8F6D
:1020E000FEE700F05DF80021200000F013FC00F096
:1020F0005DF8002808D15FF08050DFF844140860D4
:10210000BFF34F8FBFF36F8F10BD10B586B00020A7
:1021100004900020039005AA03A904A800F032FF50
:10212000DFF8104604980290039801900020009078
:102130000023059ADFF800160FF2B140FFF794FE76
:1021400020602068002801D0012000E00020012844
:1021500001D100F023FF012817D1502080F311880E
:10216000BFF34F8FBFF36F8F5FF0FF30DFF8501674
:1021700008600120DFF8241208600020DFF838131F
:10218000086000F0FCFD06B010BD10F1010FFAD19F
:10219000502080F31188BFF34F8FBFF36F8FFEE79E
:1021A000DFF8D8020168491C0160704770B500244F
:1021B0000025DFF8C8623068002807D1502080F37E
:1021C0001188BFF34F8FBFF36F8FFEE700F03EFE25
:1021D0003068401E30603068002855D1DFF8B40107
:1021E0000068002826D14FE0C868C46814F11800C0
:1021F00000F088FD201D00F085FDDFF8A8010168D2
:10220000E26A914201D2E16A0160211DDFF8982162
:10221000E36A1420434302EB030000F04CFDE06A44
:10222000DFF874110968C96A884203D30120DFF816
:10223000B8160860DFF8F81408680028D4D1002C1C
:1022400001D000F052FADFF8BC663468002C0CD0E4
:1022500000F02AF8002803D00120DFF88C1608606F
:10226000641E002CF4D100203060DFF87C0600688A
:10227000002809D001255FF08050DFF8C412086003
:10228000BFF34F8FBFF36F8F00F0FAFD280070BDD2
:10229000DFF824020068704780B500F01BFE0020C4
:1022A000DFF81402006802BDF8B500257348006825
:1022B000002867D180480468641C0460002C19D190
:1022C000DFF8801208680068002807D0502080F3EB
:1022D0001188BFF34F8FBFF36F8FFEE708689A4AEC
:1022E00013680B601060DFF820060168491C01606C
:1022F00000F0FBF9DFF8C864306884422DD320E099
:10230000381D00F0FFFCB86A002803D017F1180050
:1023100000F0F8FC23480168FA6A914201D2F96A98
:102320000160391D204AFB6A1420434302EB03007D
:1023300000F0C1FCF86A18490968C96A884200D3EC
:102340000125804908680068002817D00868C0681F
:10235000C76878688442D3D230600F480068124959
:10236000C26A142042438858022800D30125DFF8AE
:102370007805006800280AD0012508E05FF0FF30EA
:102380003060EAE7DFF87C050168491C016028003D
:10239000F2BD0000B8630020A8630020C4630020E1
:1023A000D4630020C0630020343F002038B5334898
:1023B0000068002804D00120DFF82C15086045E0F3
:1023C0000020DFF824150860DFF840452068006B26
:1023D0005FF0A53102688A4208D142688A4205D17D
:1023E00082688A4202D1C068884205D0206810F114
:1023F0003401206801F013F8DFF81425106800E0BC
:10240000401E1423DFF8685503FB00F169580029CA
:1024100009D10028F4D1502080F31188BFF34F8FE9
:10242000BFF36F8FFEE703FB00F305EB03014B687F
:102430005B684B604B6811F10805AB4202D14B68F9
:102440005B684B604968C9682160106031BD10B598
:102450000C00002807D1502080F31188BFF34F8F64
:10246000BFF36F8FFEE7DFF80C150968183100F035
:102470002EFC0121200000F04DFA10BDE063002089
:1024800038B50D001400002807D1502080F31188C2
:10249000BFF34F8FBFF36F8FFEE7DFF8D8140968E3
:1024A000183100F008FC002C01D05FF0FF3521004E
:1024B000280000F02FFA31BDBC63002010B5C068C1
:1024C000C468002C07D1502080F31188BFF34F8FD0
:1024D000BFF36F8FFEE714F1180000F013FCDFF874
:1024E00098040068002815D1201D00F00BFCDFF8CF
:1024F00020040168E26A914201D2E16A0160211D73
:10250000DFF86C24E36A1420434302EB030000F07D
:10251000D2FB05E014F11801DFF8140200F0CBFB48
:10252000DFF8E8030068C06AE16A884205D201204A
:102530000121DFF8B423116000E0002010BD00008D
:1025400004ED00E0AC630020B0630020DFF8B813B6
:1025500009680160DFF8241409684160704738B5E4
:1025600004000D00002C07D1502080F31188BFF328
:102570004F8FBFF36F8FFEE7002D07D1502080F300
:102580001188BFF34F8FBFF36F8FFEE700F05EFC43
:10259000DFF8E80300686168411A2A6812F1010F48
:1025A00001D1002418E0DFF86023126823689A4202
:1025B00004D06268904201D301240DE02868814272
:1025C00007D22868411A29602000FFF7BFFF0024C6
:1025D00002E000202860012400F052FC200032BDFF
:1025E0000120DFF8041308607047000080B500F098
:1025F0003AF8DFF87C030068022807D35FF08050C8
:1026000028490860BFF34F8FBFF36F8F00F006FFBC
:10261000EDE738B5002408E0DFF85403142101FB8E
:1026200004F1084400F035FB641C382CF4D3DFF8C7
:102630005043200000F02DFBDFF84853280000F045
:1026400028FB3B4800F025FBDFF83C0300F021FBB2
:10265000DFF8380300F01DFBDFF834030460DFF817
:102660003403056031BD38B515E000F0EFFBDFF84D
:102670001803C068C468201D00F044FBDFF818038D
:102680000168491E01602868401E286000F0F8FBC0
:10269000200000F009F8DFF8045328680028E4D18E
:1026A00031BD000004ED00E010B5040094F85900BD
:1026B000002806D1206B00F00BFA200000F008FA89
:1026C00010BD94F85900012803D1200000F000FA51
:1026D000F6E794F859000228F2D0502080F31188D0
:1026E000BFF34F8FBFF36F8FFEE7DFF8A4120868C8
:1026F0000068002804D15FF0FF303149086005E030
:102700000868C068C06840682D4908607047DFF8F5
:1027100090020068002801D1012007E0DFF858028C
:102720000068002801D1022000E00020704700006E
:1027300080620020DC6300205CC20008F8B5040061
:102740000021002839D0DFF8C451E06A2A68D26A33
:1027500090422CD2A069002804D42868C06AD0F125
:102760003800A061DFF8086214276069E16A7943E4
:102770003144884216D1201D00F0C4FA2868C06A8E
:10278000E062DFF820020168E26A914201D2E16A68
:102790000160211DE06A07FB00F706EB070000F06F
:1027A0008AFA02E02868C06AE062012105E0E06C74
:1027B0002A68D26A904200D201210800F2BD0000CE
:1027C000D863002010B50400002100283DD0DFF8B8
:1027D0003C010068844207D0502080F31188BFF389
:1027E0004F8FBFF36F8FFEE7206D002807D1502079
:1027F00080F31188BFF34F8FBFF36F8FFEE7206D1B
:10280000401E2065E06AE26C90421ED0206D0028D8
:102810001BD1201D00F076FAE06CE062E06AD0F196
:102820003800A061DFF8E8000168E26A914201D255
:10283000E16A0160211DDFF83821E36A1420434377
:1028400002EB030000F037FA0121080010BD000080
:1028500070B504000122002844D0206D002807D163
:10286000502080F31188BFF34F8FBFF36F8FFEE7C7
:10287000E06C884200D3E16CE06A884232D0206D7F
:1028800090422FD1DFF884000068844207D15020A5
:1028900080F31188BFF34F8FBFF36F8FFEE7E06ABD
:1028A000E162A269002A02D4D1F13801A161DFF806
:1028B000C0501426616970432844814212D1201D02
:1028C00000F020FADFF8DC000168E26A914201D2F0
:1028D000E16A0160211DE06A06FB00F605EB0600D7
:1028E00000F0E9F970BD0000CC630020DFF884102F
:1028F0000868002803D00868026D521C0265086849
:1029000070470000C8630020D0630020A863002047
:10291000C0630020F8B505000C0018480668154F84
:102920003868001D00F0EEF915F1010F07D1002CF9
:1029300005D03868011D154800F0BDF916E0AD1945
:1029400038684560B54206D23868011D11480068F4
:1029500000F0BDF90AE03868011D0D48006800F07C
:10296000B6F9114801688D4200D20560F1BD000042
:10297000343F0020A8630020E0630020BC630020F7
:10298000586200206C62002094620020A86200203F
:10299000AC630020B0630020B8630020B463002063
:1029A000C4630020C0630020D86300202DE9F843F1
:1029B00004000025FFF7F4FBDFF84C92D9F8000083
:1029C000002801D100F0C1F8904F386804426AD164
:1029D000002C15D08E480068041914F0070F0FD092
:1029E00014F1080014F00704041B14F0070F07D0BB
:1029F000502080F31188BFF34F8FBFF36F8FFEE736
:102A0000002C50D0DFF80C82D8F80000A0424AD346
:102A100081480100066801E0310036687068A04214
:102A200002D230680028F7D1D9F8000086423AD0A7
:102A300077480A68036802EB030532680A60006899
:102A400040007168091B884214D206EB040111F0A2
:102A50000700002807D0502080F31188BFF34F8F64
:102A6000BFF36F8FFEE77068001B4860746008005A
:102A700000F09AF8D8F800107068091AC8F8001029
:102A80006648D8F800100268914202D2D8F80010C7
:102A900001607168386801437160002030606048EF
:102AA0000168491C0160FFF781FB002D01D100F096
:102AB000B7FC15F00700002807D0502080F31188DC
:102AC000BFF34F8FBFF36F8FFEE72800BDE8F2839F
:102AD00010B50100002837D04D480068404201EB96
:102AE00000044A4960680A68104207D1502080F308
:102AF0001188BFF34F8FBFF36F8FFEE72068002868
:102B000007D0502080F31188BFF34F8FBFF36F8F32
:102B1000FEE760680A68104216D02068002813D1CA
:102B20006268086882436260FFF73AFB39490A68C5
:102B3000606882180A60200000F036F839480168A1
:102B4000491C0160FFF732FB10BD10B44FF4705206
:102B50003548010011F0070F04D0C91DC908C9008C
:102B6000521A82182C4801600023436052182848EA
:102B70000068121AD208D2002348026000230468B9
:102B80006360002304682360521A4A60006808608A
:102B90004868224A106048681E4908605FF000409B
:102BA0001A49086010BC704710B41B4A00E0126854
:102BB00011688142FBD3110053681944814204D14A
:102BC0005168406841185160100001004368194481
:102BD0001368994210D10C4913680C68A34208D0BD
:102BE000436811684968CB1843601168096801603F
:102BF00004E00968016001E011680160824200D0D0
:102C0000106010BC704700007463002088630020CF
:102C100088C2000878630020286300207C630020BD
:102C200080630020846300203403002062F30F22BD
:102C300062F31F42401810F0030308D0C91A1FD3D3
:102C4000DB0748BF00F8012D28BF20F8022D130034
:102C500030B414461546103928BF20E93C00FAD894
:102C6000490728BF20E90C0048BF40F8042D89001F
:102C700028BF20F8022D48BF00F8012D30BC704756
:102C8000C91818BF00F8012DCB0728BF00F8012D87
:102C9000704710F1080141605FF0FF31816010F171
:102CA0000801C16010F10801016100210160704755
:102CB00000210161704742684A6093688B609368A5
:102CC0005960916008610168491C0160704710B447
:102CD0000B6813F1010F01D1026907E010F108023E
:102CE00000E0526854682468A342FAD253684B60EB
:102CF0004B6899608A60516008610168491C0160F5
:102D000010BC70470169826843689A6042688368B2
:102D10005A604A68824201D182684A600022026198
:102D20000868401E0860086870470000001F5FF0D8
:102D300080730360001F490849000160001F0FF203
:102D40001501016014380260001F7FF0020101606C
:102D5000203870477248006810F1010F07D05020EA
:102D600080F31188BFF34F8FBFF36F8FFEE75020C2
:102D700080F31188BFF34F8FBFF36F8FFEE7E0B58D
:102D800068480168684A914207D1502080F3118851
:102D9000BFF34F8FBFF36F8FFEE700686349884230
:102DA00007D1502080F31188BFF34F8FBFF36F8F8F
:102DB000FEE75F4801780191FF21017001788DF8ED
:102DC00000109DF8001011F050015A4A11705A4934
:102DD00007220A6007E00A68521E0A609DF8002078
:102DE00052008DF800209DF800201206F3D40A68E6
:102DF000D2F10702042A07D0502080F31188BFF3D4
:102E00004F8FBFF36F8FFEE70A6812020A600A68ED
:102E100012F4E0620A60019901704848016851F4B7
:102E200070010160016851F07041016000F090F89C
:102E300000203B49086000F03FFB4148016851F029
:102E40004041016000F028FB00200EBD502080F3BF
:102E50001188BFF34F8FBFF36F8F31490A68521C3F
:102E60000A60096801290AD136490968090606D0AD
:102E700080F31188BFF34F8FBFF36F8FFEE770476A
:102E800027490868002807D1502080F31188BFF334
:102E90004F8FBFF36F8FFEE70868401E0860086819
:102EA000002802D1002080F31188704780B550209F
:102EB00080F31188BFF34F8FBFF36F8FFFF7F4F9E3
:102EC000002803D05FF080501E490860002080F386
:102ED000118801BDEFF3058010280FD31A49096846
:102EE000085C14490978C0B2884207D2502080F3A8
:102EF0001188BFF34F8FBFF36F8FFEE70E48006856
:102F00001249096811F4E061884207D2502080F329
:102F10001188BFF34F8FBFF36F8FFEE7704700003C
:102F2000DC01002000ED00E071C20F4170C20F41D2
:102F300000E400E0036400209063002020ED00E046
:102F400034EF00E004ED00E08CC200080CED00E07E
:102F50000848002101600021074A116007490968FB
:102F60004FF47A72B1FBF2F1491E054A1160072154
:102F70000160704710E000E018E000E0E40100208C
:102F800014E000E0034B03600348086080201060F9
:102F9000704700BFF45C0020944F002038B586B025
:102FA000002400F0FCF9DFF84404006800281DD07C
:102FB000002004900020039005AA03A904A800F0B3
:102FC00089FADFF82C540498029003980190182095
:102FD00000900023059ADFF81C140FF2FD00FEF7A5
:102FE00043FF28602868002800D00124002C07D166
:102FF000502080F31188BFF34F8FBFF36F8FFEE730
:10300000200007B030BD7FB504001D000020002C5B
:1030100007D1502080F31188BFF34F8FBFF36F8F1C
:10302000FEE7DFF8C8633368002B1CD000910192E3
:103030000294062911DAFFF76AFB022806D1089AE2
:1030400000236946306800F063FB0CE00023002297
:103050006946306800F05CFB05E000232A00694601
:10306000306800F020FC04B070BD7CB504000D0099
:10307000DFF884030068C068C668301DFFF742FEB1
:1030800096F8280040071BD523002A00B1690919CA
:10309000300000F08DF8002818D0002000900023A8
:1030A000220000213000FFF7AEFF002807D150209A
:1030B00080F31188BFF34F8FBFF36F8FFEE705E0FA
:1030C00096F8280010F0FE0086F828003000316ADB
:1030D000884773BD0000000080B5684600F041F8E5
:1030E000009900F003F800F082F8F6E77CB50500DF
:1030F0000C00FFF755F8684600F046F80600009807
:1031000000282BD1002C08D1AE4206D3FFF74EF891
:1031100031002800FFF7A9FF22E0002C08D0DFF8DB
:10312000DC0200680068002801D1012400E00024CE
:103130002200AD1B2900DFF8B402006800F046FF52
:10314000FFF734F800280BD15FF08050DFF8B012A1
:103150000860BFF34F8FBFF36F8F01E0FFF726F8D2
:1031600073BDDFF8942211680968002901D101219B
:1031700000E0002101600068002803D11068C068E9
:10318000006800E00020704770B50400FFF780F889
:103190000500DFF870623068854204D200F0C5F89F
:1031A0000120206001E0002020603560280070BD13
:1031B00010B50024416000618A420BD3D21A8169A4
:1031C0008A4201D3012410E0011D8C480068FFF7FA
:1031D0007EFD0AE09A4203D2994201D3012404E021
:1031E000011D85480068FFF772FD200010BD10B575
:1031F00086B0FFE7002201A97C48006800F01FFCB0
:10320000002800F09080019800280ED502AA002A1C
:1032100007D1502080F31188BFF34F8FBFF36F8F1A
:10322000FEE7916850681268904701980028E1D441
:10323000039C6069002802D0201DFFF763FD05A8EC
:10324000FFF7A2FF0200019800280ED002280CD040
:103250000BD304283AD032D3062806D053D30828FB
:103260002DD002D3092831D05CE094F8280050F02A
:10327000010084F82800029B0299A06941182000EF
:10328000FFF796FF0028B5D02000216A884794F800
:1032900028004007AED5002000900023029AA069C4
:1032A000821800212000FFF7AEFE0028A2D1502096
:1032B00080F31188BFF34F8FBFF36F8FFEE794F851
:1032C000280010F0FE0084F8280093E794F8280006
:1032D00050F0010084F828000298A061A06900283D
:1032E00009D013001000A1698A1811000200200003
:1032F000FFF75EFF7EE7502080F31188BFF34F8F0A
:10330000BFF36F8FFEE794F82800800703D42000F6
:10331000FFF7DEFB05E094F8280010F0FE0084F8CB
:10332000280067E766E706B010BD7CB505E0706071
:103330003661311D2068FFF7CAFC2F4C20680068F9
:10334000002826D02068C06805682068C068C66864
:10335000301DFFF7D7FC3000316A884796F8280007
:103360004007EAD5B06940198542E0D300200090BB
:1033700000232A0000213000FFF745FE002800D07E
:10338000DBE7502080F31188BFF34F8FBFF36F8FBF
:10339000FEE7206819490A682260086073BD7CB5A1
:1033A000FFF754FD114C206800281BD1164D280052
:1033B000FFF76FFC154E3000FFF76BFC0E48056001
:1033C0000E48066000200090114B124A10210A207E
:1033D00000F0D5F820602068002803D00E4920684E
:1033E00000F0CCFDFFF74CFD73BD0000EC63002046
:1033F000F063002064C20008E4630020E86300205A
:1034000004ED00E0F4630020BC620020D0620020E4
:10341000A05E0020D85800206CC20008704770479A
:1034200070470000EFF30980BFF36F8F264B1A68D7
:103430001EF0100F08BF20ED108A20E9F04F106039
:1034400009B44FF0500080F31188BFF34F8FBFF3E2
:103450006F8FFEF7ABFF4FF0000080F3118809BCBF
:1034600019680868B0E8F04F1EF0100F08BFB0EC04
:10347000108A80F30988BFF36F8F7047124B196869
:103480000868B0E8F04F80F30988BFF36F8F4FF002
:10349000000080F3118870470C480068006880F3D2
:1034A00008884FF0000080F3148862B661B6BFF35D
:1034B0004F8FBFF36F8F00DFDFF81400016841F416
:1034C0007001016070470000A863002008ED00E073
:1034D00088ED00E0034B0360034808604FF4807000
:1034E00010607047505D00209443002038B5040000
:1034F0000D00002C07D1502080F31188BFF34F8FAF
:10350000BFF36F8FFEE7FFF7A1FC2168E26B206C31
:10351000424301EB0200A0600020A06320686060CD
:103520002168E26B521E206C424301EB0200E06016
:103530005FF0FF3084F8440084F84500002D12D17C
:103540002069002817D014F11000FEF7B7FF0028FB
:1035500011D05FF08050DFF8D8170860BFF34F8FAD
:10356000BFF36F8F07E014F11000FFF792FB14F127
:103570002400FFF78EFBFFF783FC012032BD38B536
:103580001C00002807D1502080F31188BFF34F8F13
:10359000BFF36F8FFEE7002C07D1502080F3118816
:1035A000BFF34F8FBFF36F8FFEE7002A01D00029D2
:1035B00001D0012300E00023DBB2002B07D1502013
:1035C00080F31188BFF34F8FBFF36F8FFEE7002AA0
:1035D00001D1002901D1012300E00023DBB2002B3F
:1035E00007D1502080F31188BFF34F8FBFF36F8F47
:1035F000FEE750230093009B502B07D0502080F310
:103600001188BFF34F8FBFF36F8FFEE7009B002C35
:1036100007D0049B012584F846500094DBB200F0EB
:1036200027F8200032BDF8B505000E001700002D68
:1036300007D1502080F31188BFF34F8FBFF36F8FF6
:10364000FEE706FB05F05030FFF7B0F90400002C50
:103650000CD0200010F15002002084F846000094A5
:103660003B00DBB23100280000F002F82000F2BD80
:1036700038B51C00049D002901D12D6000E02A60AE
:10368000E863296401212800FFF730FF85F84C40EA
:1036900031BD1CB50C001300002807D1502080F369
:1036A0001188BFF34F8FBFF36F8FFEE7A04207D2A1
:1036B000502080F31188BFF34F8FBFF36F8FFEE769
:1036C0000221009100220021FFF759FF002800D0BD
:1036D000846316BD10B50C00002807D1502080F37C
:1036E0001188BFF34F8FBFF36F8FFEE7A04207D261
:1036F000502080F31188BFF34F8FBFF36F8FFEE729
:1037000002220021FFF78FFF002800D0846310BD44
:10371000F7B505000E001F000024002D07D1502032
:1037200080F31188BFF34F8FBFF36F8FFEE7002E3A
:1037300002D1286C002801D1012000E00020C0B295
:10374000002807D1502080F31188BFF34F8FBFF3BB
:103750006F8FFEE7022F02D1E86B012801D1012013
:1037600000E00020C0B2002807D1502080F311886B
:10377000BFF34F8FBFF36F8FFEE7FEF7C8FF002840
:1037800002D10298002801D1012000E00020C0B23F
:10379000002838D1502080F31188BFF34F8FBFF33A
:1037A0006F8FFEE7029800285CD0002C03D168469A
:1037B000FEF7CCFE0124FFF763FBFEF7F1FCFFF7F9
:1037C00045FB95F9440010F1010F02D1002085F866
:1037D000440095F9450010F1010F02D1002085F851
:1037E0004500FFF74DFB02A96846FEF7B8FE00282A
:1037F00052D1280000F0B3FB002837D1280000F098
:1038000069FBFEF7D3FCFFF721FBA86BE96B88424D
:1038100001D3022FC6D13A003100280000F002FB8C
:10382000696A00290FD015F12400FEF747FE002831
:1038300014D05FF08050DFF8F8140860BFF34F8FAA
:10384000BFF36F8F0AE0002808D05FF08050DFF8E8
:10385000E0140860BFF34F8FBFF36F8FFFF710FBCB
:1038600001201FE0FFF70CFB00201BE0029915F17F
:103870001000FEF7ECFD280000F02CFBFEF796FC94
:103880000028C0D15FF08050DFF8A4140860BFF3B7
:103890004F8FBFF36F8FB6E7280000F01BFBFEF7DA
:1038A00085FC0020FEBD2DE9F84305000E00140044
:1038B0009846002D07D1502080F31188BFF34F8F19
:1038C000BFF36F8FFEE7002E02D1286C002801D1D4
:1038D000012000E00020C0B2002807D1502080F372
:1038E0001188BFF34F8FBFF36F8FFEE7B8F1020F60
:1038F00002D1E86B012801D1012000E00020C0B214
:10390000002807D1502080F31188BFF34F8FBFF3F9
:103910006F8FFEE7FFF7DEFAEFF31187502080F399
:103920001188BFF34F8FBFF36F8FA86BE96B88428D
:1039300002D3B8F1020F21D195F94590A86B424608
:103940003100280000F06EFA48465FF0FF3140B2C7
:1039500088420DD1686A002809D015F12400FEF7CD
:10396000ADFD002803D0002C01D00120206003E031
:1039700019F1010985F84590012000E0002087F346
:103980001188BDE8F28370B505000C00002D07D149
:10399000502080F31188BFF34F8FBFF36F8FFEE786
:1039A000286C002807D0502080F31188BFF34F8F78
:1039B000BFF36F8FFEE72868002802D1A8680028AF
:1039C00001D1012000E00020C0B2002807D1502022
:1039D00080F31188BFF34F8FBFF36F8FFEE7FFF7C0
:1039E00079FAEFF31186502080F31188BFF34F8FDF
:1039F000BFF36F8FA86BE96B88421CD295F9451015
:103A0000401CA86308005FF0FF3240B290420DD125
:103A1000686A00280DD015F12400FEF74FFD00283C
:103A200007D0002C05D00120206002E0491C85F859
:103A30004510012000E0002086F3118870BDF7B525
:103A400006000F000024002E07D1502080F31188BB
:103A5000BFF34F8FBFF36F8FFEE7002F02D1306CA3
:103A6000002801D1012000E00020C0B2002807D1C9
:103A7000502080F31188BFF34F8FBFF36F8FFEE7A5
:103A8000FEF745FE002802D10298002801D101204E
:103A900000E00020C0B200280CD1502080F3118833
:103AA000BFF34F8FBFF36F8FFEE7300000F012FAC5
:103AB000FEF77CFBFFF7CAF9B56B002D06D1029823
:103AC00000281FD1FFF7DCF9002064E03900300046
:103AD00000F0EBF96D1EB563306900280ED016F1C9
:103AE0001000FEF7EBFC002808D05FF08050DFF8F4
:103AF00040120860BFF34F8FBFF36F8FFFF7C0F91D
:103B0000012048E0002C03D16846FEF71FFD012488
:103B1000FFF7B6F9FEF744FBFFF798F996F9440072
:103B200010F1010F02D1002086F8440096F94500FB
:103B300010F1010F02D1002086F84500FFF7A0F92F
:103B400002A96846FEF70BFD002819D1300000F0ED
:103B5000F8F90028A9D0029916F12400FEF777FCA5
:103B6000300000F0B7F9FEF721FB0028A2D15FF08A
:103B700080506F490860BFF34F8FBFF36F8F99E795
:103B8000300000F0A7F9FEF711FB300000F0D9F982
:103B900000288FD00020FEBD73B582B0060000243F
:103BA0000025002E07D1502080F31188BFF34F8FDE
:103BB000BFF36F8FFEE7306C002807D0502080F3F2
:103BC0001188BFF34F8FBFF36F8FFEE7FEF79FFDA6
:103BD000002802D10398002801D1012000E0002034
:103BE000C0B200280CD1502080F31188BFF34F8F52
:103BF000BFF36F8FFEE7300000F06CF9FEF7D6FAE6
:103C0000FFF724F9B06B00280CD1039800282AD1C3
:103C1000002D24D0502080F31188BFF34F8FBFF3C5
:103C20006F8FFEE7401EB0633068002802D1FEF7B8
:103C30005DFEB060306900280DD016F11000FEF76F
:103C40003DFC002807D05FF0805039490860BFF381
:103C50004F8FBFF36F8FFFF713F9012065E0FFF778
:103C60000FF9002061E0002C03D16846FEF76EFCDE
:103C70000124FFF705F9FEF793FAFFF7E7F896F945
:103C8000440010F1010F02D1002086F8440096F99B
:103C9000450010F1010F02D1002086F84500FFF722
:103CA000EFF803A96846FEF75AFC002824D130003B
:103CB00000F047F900289ED03068002807D1FFF7B0
:103CC000C5F8B068FEF73AFD0500FFF7D9F803998B
:103CD00016F12400FEF7BBFB300000F0FBF8FEF706
:103CE00065FA00288CD15FF0805011490860BFF35D
:103CF0004F8FBFF36F8F83E7300000F0EBF8FEF7D4
:103D000055FA300000F01DF900283FF479AF002D7E
:103D10000AD0FFF79BF8300000F07AF80100B06895
:103D2000FEF796FDFFF7ACF8002004B070BD000070
:103D300004ED00E02DE9F84305000E001400002D0D
:103D400007D1502080F31188BFF34F8FBFF36F8FDF
:103D5000FEE7002E02D1286C002801D1012000E0EE
:103D60000020C0B2002807D1502080F31188BFF393
:103D70004F8FBFF36F8FFEE7FFF7ACF8EFF31188BB
:103D8000502080F31188BFF34F8FBFF36F8FAF6B5D
:103D9000002F21D095F944903100280000F085F8DB
:103DA0007F1EAF6348465FF0FF3140B288420DD1BD
:103DB000286900280ED015F11000FEF77FFB0028BF
:103DC00008D0002C06D00120206003E019F1010981
:103DD00085F84490012000E0002088F31188BDE8B8
:103DE000F28310B50400002C07D1502080F3118815
:103DF000BFF34F8FBFF36F8FFEE7200000F0D0F8C6
:103E000094F84600002802D12000FEF761FE10BDA4
:103E1000416A002904D0006B0068D0F1380000E04E
:103E2000002070472DE9F041060015000027B46B13
:103E3000306C002809D13068002831D1B068FEF715
:103E4000C1FC07000020B0602AE0002D0FD1326CC9
:103E500075682800FDF716FA7068316C08447060C8
:103E60007068B16888421BD33068706018E0326CAB
:103E7000D6F80C804046FDF705FAF068316C4942EF
:103E80000844F060F0683168884204D2B068316C50
:103E900049420844F060022D02D1002C00D0641E7B
:103EA000641CB4633800BDE8F08110B50C00016CEF
:103EB00000290ED0C168026C1144C160C1688268DB
:103EC000914201D30168C160026CC1682000FDF716
:103ED000D9F910BD70B50400FEF7B8FF94F945504C
:103EE00008E014F12400FEF7E9FA002801D0FEF7FB
:103EF00077FB6D1E280040B2012802DB606A0028B3
:103F0000EFD15FF0FF3584F84550FEF7B9FFFEF7BB
:103F10009DFF94F9446008E014F11000FEF7CEFA1A
:103F2000002801D0FEF75CFB761E300040B201286D
:103F300002DB20690028EFD184F84450FEF7A0FF8F
:103F400070BD10B50400FEF781FFA06B002801D101
:103F5000012400E00024FEF793FF200010BD10B5FF
:103F60000400FEF773FFA06BE16B884201D10124CE
:103F700000E00024FEF784FF200010BD10B40023F1
:103F800000E05B1C082B09D20F4C54F83320002AA8
:103F9000F7D144F8331004EBC301486010BC7047FC
:103FA000002100E0491C08290CD2074A02EBC1039A
:103FB0005B688342F6D1002042F83100002002EB1A
:103FC000C1014860704700004061002070B50400E6
:103FD0000D001600FEF73AFF94F9440010F1010FAE
:103FE00002D1002084F8440094F9450010F1010F3B
:103FF00002D1002084F84500FEF742FFA06B0028A4
:1040000005D13200290014F12400FEF739FA20000E
:10401000FFF760FF70BD000010B50400002C01D157
:10402000012033E0A0690028FFD194F83D0000286A
:1040300005D1002084F83C00200000F085FD2420FC
:1040400084F83D002068C06830F400502168C860E2
:10405000200000F0FFFB2068006930F490402168E8
:1040600008612068406930F02A00216848612068B2
:10407000C06850F400502168C860002020642020EF
:1040800084F83D00202084F83E00002010BD2DE97A
:10409000FC4106000D0014001F00002096F83D00B2
:1040A000202857D1002D03D0200080B2002801D154
:1040B000012050E096F83C00012801D102204AE09E
:1040C000012086F83C0000203064212086F83D0065
:1040D00001F0AAF88046B484F484B068B0F5805F3B
:1040E00004D13069002801D1002401E02C00002512
:1040F000002086F83C000FE0207831684860641C9E
:1041000007E0002CF8D12888C005C00D3168486050
:10411000AD1CF08C401EF084F08C00280AD0009773
:10412000434600228021300000F02EFA0028E8D01B
:10413000032010E00097434600224021300000F0A9
:1041400023FA002801D0032005E0202086F83D0056
:10415000002000E00220BDE8F68180B590F83E30F6
:10416000202B16D1002903D013009BB2002B01D1C4
:1041700001200FE090F83C30012B01D1022009E032
:10418000012380F83C300023036392B200F041FA2F
:1041900000E0022002BD13B50400130094F83D00B6
:1041A000202844D10198002803D0180080B20028AC
:1041B00001D101203CE094F83C00012801D102200B
:1041C00036E0012084F83C0001982062A384E38457
:1041D00000202064212084F83D001648616BC863EC
:1041E0001548616B08641548616BC8640020616BF9
:1041F000086501A89BB221680A1D0168606B01F087
:1042000089F87FF0400021680860002084F83C00B5
:104210002068143050E8001F51F08001206810F130
:10422000140242E800100028F2D1002000E0022031
:1042300016BD0000DB44000829450008334500088E
:1042400038B50400206801682068C26820684369A6
:104250000020002011F00F00002807D18D0605D5A1
:10426000950603D5200000F080FA33E1002879D0CC
:10427000D80702D412F4907F74D011F00100C0B2BC
:10428000002805D0D00503D5206C50F00100206433
:10429000480708D513F00100C0B2002803D0206CF5
:1042A00050F002002064880708D513F00100C0B266
:1042B000002803D0206C50F00400206408070AD5C1
:1042C000900604D413F00103DBB2002B03D0206C62
:1042D00050F008002064206C002842D0880604D5E5
:1042E000900602D5200000F040FA2068406980095D
:1042F00010F00100216C090701D400282CD0200007
:1043000000F0BAF920684069400621D520681430D1
:1043100050E8001F31F04001206810F1140242E81B
:1043200000100028F2D1A06B00280DD00FF2A930A8
:10433000A16B0865A06B01F075F8002811D0A06B87
:10434000A16B096D88470CE0200000F032FF08E007
:10435000200000F02EFF04E0200000F02AFF0020E3
:104360002064B7E0206B012840F0A480C80640F12B
:10437000A180D00640F19E80002000902068006857
:1043800000902068406800900098206840694006CE
:1043900055D5A06B00684168080080B200284DD058
:1043A0000800A28D80B2904248D2E185A06BC0691E
:1043B000B0F5807F3BD020680C3050E8001F31F40E
:1043C0008071206810F10C0242E800100028F2D140
:1043D0002068143050E8001F49084900206810F197
:1043E000140242E800100028F2D12068143050E88E
:1043F000001F31F04001206810F1140242E8001063
:104400000028F2D1202084F83E000020206320689C
:104410000C3050E8001F31F01001206810F10C0240
:1044200042E800100028F2D1A06B00F0ADFFA18D92
:10443000E08D091A89B2200001F088F94AE0A08DC8
:10444000E18D411AE08D002833D0080080B20028A9
:104450002FD020680C3050E8002F32F49072206882
:1044600010F10C0343E800200028F2D1206814303A
:1044700050E8002F52085200206810F1140343E85E
:1044800000200028F2D1202084F83E000020206384
:1044900020680C3050E8002F32F01002206810F134
:1044A0000C0343E800200028F2D189B2200001F07B
:1044B0004DF90FE0080605D5100603D5200000F0E1
:1044C00015F907E0480605D5500603D5200000F091
:1044D0003EF9FFE731BD006C704780B50100886B85
:1044E00009680968C9051CD40021C1840168143118
:1044F00051E8002F32F08002016811F1140343E803
:1045000000210029F2D101680C3151E8002F52F04E
:104510004002016811F10C0343E800210029F2D1A7
:1045200001E000F0D0FD01BD80B5806B01F00FF916
:1045300001BD10B50021846B20684069C00910F0EE
:10454000010094F83D10212906D1002804D0002054
:10455000E084200000F07FF820684069800910F0B6
:10456000010094F83E10222906D1002804D0002032
:10457000E085200000F080F8206C50F010002064EE
:10458000200000F016FE10BD2DE9F04105000E00E0
:1045900090461F00069C286800683040B04201D158
:1045A000012000E000204146C9B288422ED114F11A
:1045B000010FF0D0002C04D000F036FEC01B844266
:1045C000E9D228680C3050E8001F31F4D071286817
:1045D00010F10C0242E800100028F2D128681430D3
:1045E00050E8001F49084900286810F1140242E809
:1045F00000100028F2D1202085F83D00202085F809
:104600003E00002085F83C00032000E00020BDE8CB
:10461000F08181628285C28500210164222180F8B7
:104620003E10002180F83C100169002905D0016886
:10463000C96851F480710268D1600168496951F01C
:104640000101026851610168C96851F020010068E8
:10465000C1600020704701680C3151E8002F32F032
:10466000C002016811F10C0343E800210029F2D1D6
:10467000202180F83D10704701680C3151E8002F6F
:1046800032F49072016811F10C0343E80021002913
:10469000F2D10168143151E8002F5208520001682C
:1046A00011F1140343E800210029F2D1016B012923
:1046B0000CD101680C3151E8002F32F01002016872
:1046C00011F10C0343E800210029F2D1202180F8E8
:1046D0003E1000210163704780B5806B0021C185C9
:1046E0000021C18400F065FD01BD000090F83D107F
:1046F00021292AD18168B1F5805F0CD10169002997
:1047000009D1016A0988C905C90D02685160016AA9
:10471000891C016205E0016A4A1C0262097802688C
:104720005160C18C491EC18489B200290BD1016836
:10473000C96831F080010268D1600168C96851F030
:1047400040010068C160002000E00220704780B591
:104750000168C96831F040010268D160202180F809
:104760003D1000F0B0FC002002BD80B590F83E1076
:1047700022296DD18168B1F5805F0DD101690029D1
:104780000AD10021816A02685268D205D20D0A80DE
:10479000816A891C816217E0826A00218168B1F513
:1047A000805F05D08168002906D10169002903D105
:1047B00001684968117004E00168496811F07F01DF
:1047C0001170816A491C8162C18D491EC18589B2FF
:1047D00000293BD10168C96831F020010268D1602D
:1047E0000168C96831F480710268D1600168496963
:1047F0004908490002685161202180F83E10016B90
:1048000001291FD10021016301680C3151E8002FFB
:1048100032F01002016811F10C0343E80021002975
:10482000F2D101680968C90608D500210091016824
:10483000096800910168496800910099818D00F034
:1048400085FF01E000F05BFC002002E0002000E0BA
:10485000022002BD2DE9FE4F05002868016931F4F0
:104860004051E868014328680161A968286901434B
:1048700068690143E86901432868C268AF4802409B
:1048800011432868C1602868416931F44071A86902
:104890000143286841612868A949884203D02868F3
:1048A000A849884203D100F0FEFF040002E000F0B6
:1048B000EFFF0400E869B0F5004F40F09F805FF023
:1048C000640A022600275FF019085FF00009220041
:1048D0000023A8FB020108FB031109FB0211CDE92B
:1048E000000168680021A6FB002306FB013307FBDB
:1048F0000033DDE90001FDF7DDF86421B0FBF1F0E4
:10490000029022000023A8FB020108FB031109FB0F
:104910000211CDE9000168680021A6FB002306FB17
:10492000013307FB0033DDE90001FDF7C3F88346DF
:1049300022000023A8FB020108FB031109FB02115E
:10494000CDE9000168680021A6FB002306FB0133C6
:1049500007FB0033DDE90001FDF7ACF86421B0FB93
:10496000F1F00AFB10B0C00032306421B0FBF1F06E
:10497000400010F4F870029910EB01100290220030
:104980000023A8FB020108FB031109FB0211CDE97A
:10499000000168680021A6FB002306FB013307FB2A
:1049A0000033DDE90001FDF785F883462000002192
:1049B00002000B00A8FB020108FB031109FB021116
:1049C0006A68002390469946A6FB082306FB093334
:1049D00007FB0833FDF76EF86421B0FBF1F00AFB2A
:1049E00010BA5FEACA0032306421B0FBF1F111F075
:1049F000070102980918286881609CE004260027B6
:104A00005FF0640A5FF019085FF0000922000023DC
:104A1000A8FB020108FB031109FB0211CDE900010B
:104A200068680021A6FB002306FB013307FB003367
:104A3000DDE90001FDF73EF86421B0FBF1F00290E2
:104A400022000023A8FB020108FB031109FB02114D
:104A5000CDE9000168680021A6FB002306FB0133B5
:104A600007FB0033DDE90001FDF724F8834622004F
:104A70000023A8FB020108FB031109FB0211CDE989
:104A8000000168680021A6FB002306FB013307FB39
:104A90000033DDE90001FDF70DF86421B0FBF1F012
:104AA0000AFB10B0000132306421B0FBF1F010F0CD
:104AB000F000029910EB0110029022000023A8FBE5
:104AC000020108FB031109FB0211CDE9000168682E
:104AD0000021A6FB002306FB013307FB0033DDE9C1
:104AE0000001FCF7E7FF83462000002102000B00D5
:104AF000A8FB020108FB031109FB02116A680023ED
:104B000090469946A6FB082306FB093307FB0833AA
:104B1000FCF7D0FF6421B0FBF1F00AFB10BA5FEAAA
:104B20000A1032306421B0FBF1F111F00F0102984C
:104B3000091828688160BDE8F78F0000F369FFFF5E
:104B4000001001400014014010B586B0040014228A
:104B50000021684600F01AFF2068DFF870168842CE
:104B60002AD100200590DFF86806016851F0100195
:104B70000160006810F01000059005980020059075
:104B8000DFF85006016851F001010160006810F083
:104B90000100059005984FF4C0600090022001903C
:104BA0000020029003200390072004906946DFF85C
:104BB000280600F0F5FE5DE02068DFF82016884248
:104BC0002AD100200590DFF81806016851F48021F1
:104BD0000160006810F48020059005980020059081
:104BE000DFF8F005016851F002010160006810F083
:104BF0000200059005984FF440600090022001905B
:104C00000020029003200390072004906946DFF8FB
:104C1000D40500F0C5FE2DE02068DFF8CC158842F1
:104C200028D100200590DFF8A805016851F0200187
:104C30000160006810F020000590059800200590A4
:104C4000DFF89005016851F004010160006810F080
:104C5000040005900598C0200090022001900020DB
:104C6000029003200390082004906946DFF87C0539
:104C700000F096FE06B010BD10B5DFF87445DFF801
:104C80004C0520605FF4E13060600020A0600020EF
:104C9000E060002020610C2060610020A061002005
:104CA000E0612000FFF7B8F92068406950F001008A
:104CB0002168486110BD80B5DFF83805DFF81C15A4
:104CC00001605FF4E1314160002181600021C16039
:104CD000002101610C214161002181610021C1613C
:104CE000FFF79AF901BD80B5DFF80C05DFF8F8147D
:104CF00001605FF4E1314160002181600021C16009
:104D0000002101610C214161002181610021C1610B
:104D1000FFF782F901BD38B500200090DFF8B40438
:104D2000016851F480010160006810F48000009077
:104D30000098DFF8C844DFF8C80420605FF0006026
:104D400060604020A0600020E0604FF4806020613F
:104D5000002060610020A0610020E061002020624E
:104D600000206062200000F065FADFF884546C6374
:104D7000A56300220521462000F092FF462000F0A6
:104D8000A0FF01220621252000F08AFF252000F047
:104D900098FF0122DFF86C142800FFF7DEF931BD1F
:104DA0001CB500200090DFF82C04016851F40011BC
:104DB0000160006810F4001000900098DFF848448B
:104DC000DFF8480420605FF0006060604020A06071
:104DD0000020E0604FF480602061002060610020CE
:104DE000A0610020E06100202062002060622000BD
:104DF00000F020FADFF8FC034463A06300220521E1
:104E00000E2000F04DFF0E2000F05BFF0122052177
:104E1000272000F045FF272000F053FF13BD1CB5ED
:104E200000200090DFF8AC03016851F480010160BC
:104E3000006810F4800000900098DFF8D443DFF899
:104E4000D40320605FF0206060604020A0600020FC
:104E5000E0604FF480602061002060610020A0616C
:104E60000020E0610020206200206062200000F04D
:104E7000E1F9DFF884034463A063002205214520A3
:104E800000F00EFF452000F01CFF01220521472005
:104E900000F006FF472000F014FF13BD70B50400BA
:104EA0008C25DFF87463002005FB04F13144888011
:104EB000002005FB04F131444880002200218020BD
:104EC00001F034F86C4306EB0401C1F8880070BDB2
:104ED000F8B504001C25DFF8446305FB04F03044FA
:104EE000007E012803D16C4306EB0400A8E0002CEF
:104EF00003D0022C69D034D39AE005FB04F030448F
:104F00008460DFF81C7307EBC40005FB04F1314437
:104F1000486105FB04F03044C06800280AD1002233
:104F20000121012001F002F8002803D005FB04F163
:104F30003144C86007EBC4004068002809D1002252
:104F40000021012000F0F2FF002802D007EBC4018D
:104F500048602000FFF7A2FFFFF78EFEFFF7DBFEA1
:104F600066E005FB04F030448460DFF8B47207EBC0
:104F7000C40005FB04F13144486105FB04F03044F2
:104F8000C06800280AD100220121012000F0CEFFD4
:104F9000002803D005FB04F13144C86007EBC400CE
:104FA0004068002809D100220021012000F0BEFF46
:104FB000002802D007EBC40148602000FFF76EFF15
:104FC000FFF779FEFFF7ECFE32E005FB04F030441A
:104FD0008460DFF84C7207EBC40005FB04F1314438
:104FE000486105FB04F03044C06800280AD1002263
:104FF0000121012000F09AFF002803D005FB04F1F5
:105000003144C86007EBC4004068002809D1002281
:105010000021012000F08AFF002802D007EBC40124
:1050200048602000FFF73AFFFFF75DFEFFF7F7FE4D
:10503000012005FB04F1314408766C4306EB0400C3
:10504000F2BDF8B504000E0017006569002C02D00F
:10505000207E002800D126E0E068002804D05FF020
:10506000FF31E06800F0C3FF3A0092B231002868D7
:10507000FFF791F80100C9B2002908D1686800283B
:105080000BD05FF0FF31686800F0B1FF05E0C0B2FF
:105090000100DFF8900101F0D5F8E068002802D0A7
:1050A000E06800F0DAFFF1BD80B55148FFF7C8F8BD
:1050B00001BD80B54F48FFF7C3F801BD80B54E482C
:1050C000FFF7BEF801BD80B50168404A914204D1A6
:1050D0005348406800F0C1FF10E001683F4A914228
:1050E00004D14F48C06800F0B8FF07E000683E49AF
:1050F000884203D14A48406900F0AFFF01BD38B58E
:105100000400002020683149884215D1424D68884A
:1051100080B2401C802190FBF1F201FB12006880FC
:10512000D5F8880000F099FF6888012280B22844F1
:10513000811D2F48FFF711F820682849884219D1AE
:10514000354DB5F88E0080B2401C802190FBF1F205
:1051500001FB1200A5F88E00D5F8880000F07DFF55
:10516000B5F88E00012280B2284410F19201214846
:10517000FEF7F3FF20681C49884219D1264CB4F889
:105180001A0180B2401C802190FBF1F201FB120059
:10519000A4F81A01D4F8A00100F05FFFB4F81A01D6
:1051A000012280B2204410F58F711348FEF7D5FF1D
:1051B00031BD80B501680968016849680168034A22
:1051C000914201D1FFF787F901BD000000100140B5
:1051D000443802403038024000000240004800409D
:1051E0004038024000040240001401400008024020
:1051F000F80000203C01002080010020D45B00204A
:10520000B86402408A550020345C00205860024097
:10521000945C0020A064024084550020AC5D002016
:10522000C40100209CC0000801480068704700BF0E
:105230009C63002038B504000020FFF7F5FF05004F
:10524000002C01D1012064E0606A0028022084F86B
:105250003500002084F834002068006840084000D1
:105260002168086020680068C0070BD5FFF7DCFFE5
:10527000401B0628F6D320206065032084F8350003
:10528000032046E020680168DFF82C0401406268D2
:10529000A0680243E0680243206902436069024358
:1052A000A0690243E0690243206A02431143606A35
:1052B000042803D1E26A206B024311432068016095
:1052C00020684569ED08ED00606A0543606A0428BE
:1052D00010D1A06A0543E06A00280BD0200000F03E
:1052E000F1F9002806D040206065012084F83500DF
:1052F00001200EE020684561200000F0C4F93F2243
:10530000E16D8A40826000206065012084F83500EC
:10531000002032BD70B504000025A66D94F834005D
:10532000012801D102202EE0012084F8340094F8F5
:105330003500012821D1022084F835000020606565
:10534000200000F089F93F21E06D8140B1602068C4
:10535000006850F0160021680860206C002805D015
:105360002068006850F00800216808602068006824
:1053700050F001002168086003E0002084F8340048
:1053800002252800C0B270BD70B50400A56DFFF7FE
:105390004BFF060094F83500022806D08020606597
:1053A000002084F8340001203BE02068006830F0E1
:1053B0001600216808602068406930F0800021688C
:1053C0004861206C002802D1A06C002805D020681C
:1053D000006830F008002168086020680068400814
:1053E00040002168086020680068C0070ED5FFF7FC
:1053F0001BFF801B0628F6D320206065032084F85D
:105400003500002084F8340003200AE03F21E06DDD
:105410008140A960012084F83500002084F8340020
:10542000002070BD90F83510022903D0802141651D
:10543000012009E0052180F8351001680968490854
:1054400049000068016000207047F8B504000020A2
:105450000090DFF8680200684FF41651B0FBF1F5D8
:10546000A66D37680821E06D11FA00F0074210D0F0
:105470002068006840070CD52068006830F0040000
:1054800022681060E06D8140B160606D50F00100F5
:105490006065E06D3900C140C8070BD520684069E0
:1054A000000607D50121E06D8140B160606D50F0CC
:1054B000020060650421E06D11FA00F007420AD095
:1054C00020680068800706D5E06D8140B160606D9E
:1054D00050F0040060651021E06D11FA00F0074201
:1054E0002CD020680068000728D5E06D8140B160AD
:1054F00020680068400311D520680068000306D4C6
:10550000206C00281AD02000216C884716E0A06C7F
:10551000002813D02000A16C88470FE020680068A5
:10552000C00505D42068006830F0080021680860D4
:10553000206C002802D02000216C88472021E06DDB
:1055400011FA00F007425FD020680068C0065BD502
:10555000E06D8140B16094F83500052828D12068BD
:10556000006830F01600216808602068406930F05B
:10557000800021684861206C002802D1A06C0028BE
:1055800005D02068006830F00800216808603F21DD
:10559000E06D8140B160012084F83500002084F87E
:1055A0003400206D002802D02000216D884750E093
:1055B00020680068400311D520680068000306D405
:1055C000606C002820D02000616C88471CE0E06BF4
:1055D000002819D02000E16B884715E0206800689A
:1055E000C0050BD42068006830F010002168086006
:1055F000012084F83500002084F83400E06B002896
:1056000002D02000E16B8847606D002821D0606DDA
:10561000C00718D5052084F83500206800684008C8
:105620004000216808600098401C0090854204D327
:1056300020680068C007F6D4FFE7012084F8350031
:10564000002084F83400E06C002802D02000E16CD7
:105650008847F1BD406D704730B40468246834F465
:10566000802405682C60046863608368402B04D143
:1056700003689A600068C16003E00368996000688D
:10568000C26030BC7047017801F0FF011039182268
:10569000B1FBF2F10A4A525CC265042905D30168E4
:1056A000890A8902091D816503E00168890A890266
:1056B0008165806D704700003F8010F0E40100209C
:1056C00044C2000802000020936A9169002914D1A5
:1056D000002B05D0022B03D007D3032B0BD00BE0FC
:1056E000D16AC90100D501202EE0D16AB1F1C07F95
:1056F00000D1012028E027E026E09169B1F5005FA4
:1057000015D1002B05D0022B03D004D3032B07D0D7
:105710000CE0012018E0D16AC90100D5012013E096
:10572000D16AB1F1C07F00D101200DE00CE0002B67
:10573000022B02D9DB1E02D006E0012004E0D16A70
:10574000C90100D50120FFE7C0B27047704770471C
:105750002DE9F04104000E00002C01D1012092E05F
:10576000634D286810F00700B04207D22E702868F9
:1057700010F00700B04201D0012084E020788007BB
:1057800016D52078400704D55A48016851F4E051F5
:1057900001602078000704D55648016851F4604143
:1057A000016054490A6832F0F002A06802430A60BE
:1057B0002078C00735D56068012805D14E480068BB
:1057C000800313D401205EE06068022802D0606884
:1057D000032805D148480068800107D4012052E021
:1057E00045480068800701D401204CE0414F3968EA
:1057F00089088900606801433960FFF715FD80461C
:10580000386810F00C006168B0EB810F09D0FFF729
:105810000BFDB0EB080041F289318842F0D3032040
:1058200031E0286810F00700864207D22E70286801
:1058300010F00700B04201D0012024E0207840079A
:1058400006D52C490A6832F4E052E06802430A6047
:105850002078000707D52748016831F460412269A4
:1058600051EAC201016000F051F82449214A12684E
:10587000C2F30312895CC8402149086021480068CE
:1058800000F0F4FC0020BDE8F0811D48006870477E
:1058900080B5FFF7FAFF1C49164A1268C2F382224C
:1058A000895CC84002BD80B5FFF7EFFF1649114A79
:1058B0001268C2F34232895CC84002BD0F22026006
:1058C0000C4A136813F003034360136813F0F003EA
:1058D0008360136813F4E053C3601268D20812F4B3
:1058E000E05202610248006810F00700086070474B
:1058F000003C0240083802400038024038C100082D
:10590000E4010020E00100204CC2000810B5002096
:105910000020002000201948006810F00C0000282A
:1059200004D0042804D0082804D025E0144824E03A
:10593000144822E0144C226812F03F022068400212
:1059400009D52068C0F388100E49A1FB000100238F
:10595000FCF7B0F808E02068C0F388100849A1FB04
:1059600000010023FCF7A6F82168C1F30141491C9E
:105970004900B0FBF1F000E0014810BD08380240DA
:105980000024F40040787D010438024010B504463C
:1059900010460A4601462046FDF748F9204610BD4C
:1059A000F8B4002200220022002337E0082704E098
:1059B000DFF804229042F9D10727FFB213F0030267
:1059C000D2B2920097403E431A00920845F82260F6
:1059D000DFF8E8512A68A2434E68F60200D5224358
:1059E0002A60DFF8DC512A68A2434E68B60200D56F
:1059F00022432A60DFF8CC512A68A2434E68B603DE
:105A000000D522432A60DFF8C0512A68A2434E68BD
:105A1000F60301D5144322002A605B1C102B80F092
:105A2000A880012515FA03F20C6814409442F4D1C1
:105A30000A7912F00302012A04D00A7912F0030253
:105A4000022A16D1866803271A00D2B25200974064
:105A5000BE43CF681A00D2B2520097403E438660E0
:105A600042689D40AA434D68C5F300159D402A43F6
:105A700042600A7912F00302032A0DD0C56803269A
:105A80001A00D2B252009640B5438E681A00D2B2C4
:105A9000520096403543C5600A7912F00302022A8B
:105AA00017D11A00D20800EB8202156A0F2613F0F4
:105AB0000702D2B292009640B5430E6913F0070276
:105AC000D2B29200964035431A00D20800EB82020F
:105AD0001562056803261A00D2B252009640B543FB
