:020000040800F2
:10000000B8780020FD130108C1FC0008F9FC0008C5
:100010001DFE000821FE000825FE0008000000006B
:10002000000000000000000000000000C1CC00083B
:1000300029FE00080000000069CC0008A12A000881
:10004000C1170108C5170108C91701083FFE0008BC
:10005000CD170108D1170108A1AE0008A3AE000812
:10006000A5AE0008A7AE0008A9AE0008D517010884
:10007000D9170108DD17010881AC0008A344000866
:10008000E1170108E5170108E9170108ED17010854
:10009000F1170108F5170108F9170108ABAE0008C0
:1000A000FD17010873F100087DF10008011801082F
:1000B00005180108091801082BFE00080D18010891
:1000C000111801081518010819180108AF44000893
:1000D0001D1801085756000821180108615600082C
:1000E000ADAE000825180108291801082D180108CF
:1000F00087F100083118010835180108391801087E
:100100003D18010897AE000841180108451801087C
:10011000491801084D18010851180108551801081F
:10012000591801085D180108611801088DAE000812
:100130006518010835FE0008691801086D180108E6
:100140007118010875180108791801087D1801084F
:10015000811801082FAD000875AC00086B56000827
:1001600085180108891801088D18010891180108DF
:1001700095180108991801089D1801080000000051
:10018000A1180108A518010878B5A7B005000C0052
:100190002821002204AE300001F0CAF863222100B9
:1001A0000EA801F015F900208DF89B00B2A63100D1
:1001B0000EA801F045F9002804D004AADFF8601564
:1001C00001F064F93100002001F03AF9002805D06F
:1001D0000DF11A02DFF8481501F058F9310000203E
:1001E00001F02EF9002807D009AADFF8341501F034
:1001F0004DF901E000980C903100002001F020F949
:100200000400002816D06B4601AADFF8181520005C
:1002100001F03CF9B5A101A801F04CF90028E9D0A2
:10022000DFF8041501A801F045F90028E4D1009891
:100230000D90E1E7280004A9282201F063F928B015
:1002400070BDF8B50C001500DFF8E0746322010002
:10025000380001F0BDF8002087F863000020286016
:1002600085A63100380001F0EBF809E0296844F870
:1002700021002868401C28603100002001F0E0F8CF
:10028000002802D029680A29F0DBF1BD78B585B0D5
:1002900004000D00142100226E46300001F048F8E1
:1002A000200001F07FF900950120019000200290CC
:1002B0006946200001F024FA06B070BD78B585B01B
:1002C00004000D00142100226E46300001F030F8C9
:1002D000200001F067F900950020019000200290B5
:1002E0006946200001F00CFA06B070BD10B5DFF8C9
:1002F0004024142303FB00F111444C6803FB00F17C
:100300005158641A00EE104A03FB00F11144C96809
:10031000584310448068091A00EE901AF8EEE00A7B
:10032000B8EEC00A80EE800A10EE100A01F002FB5F
:100330000022DFF8003401F021FB01F043FC00EE65
:10034000100A10BD10B5DFF8E823142303FB00F1F9
:100350001144D1F8844203FB00F11144D1F880121A
:10036000641A00EE104A03FB00F11144D1F88C121C
:1003700058431044D0F88802091A00EE901AF8EE9B
:10038000E00AB8EEC00A80EE800A10EE100A01F012
:10039000D1FA0022DFF89C3301F0F0FA01F012FCF0
:1003A00000EE100A10BD38B52DED028B05000C00D3
:1003B000DFF87C03D0F8200301F038FC0022DFF8DE
:1003C000743301F0DBFA41EC100B53EC102B0020DE
:1003D0005FF0804101F03CFC0022DFF85C3301F06B
:1003E000CDFA41EC180B2D1B280001F01FFC53EC3B
:1003F000182B01F02DFC01F0E5FB00EE100ABDEC1E
:10040000028B31BD3EB50400DFF830532868002868
:1004100003D1002001F014FD2860DFF824030378E5
:1004200002AA2100286801F05CFD05009DF8080083
:10043000002805D02100DFF80C0301F0B1FE1AE01E
:100440002000FFF753FFDFF8E802142101FB04F15D
:1004500041582800FFF7A7FF10EE100A01F06AFAD2
:10046000CDE900012A00DFF8E00250F82410DFF89F
:10047000DC0201F095FE37BD2C0000003EB5040003
:10048000DFF8BC02037802AA14F12001DFF8C002F1
:10049000006801F026FD05009DF80800002808D03E
:1004A000DFF8B00250F82410DFF8AC0201F078FE5B
:1004B0001AE02000FFF746FFDFF87402142101FB69
:1004C00004F141582800FFF76EFF10EE100A01F00A
:1004D00031FACDE900012A00DFF8780250F8241043
:1004E000DFF8780201F05CFE37BD000070696E0035
:1004F00070B588B003A8DFF86812142201F002F882
:1005000086A001F04DFE00242DE0305DFFF71AFFBC
:100510008749325D1420424389582800FFF743FF82
:1005200010EE100A01F006FACDE900012A00864813
:1005300050F824108B4801F033FE13E003AE8048DE
:10054000037802AA315D7D48006801F0CAFC05000D
:100550009DF808000028D8D07B4850F824107E4829
:1005600001F01EFE641C122CE8D308B070BD78B5F3
:1005700085B003A87C49D1E90023C0E9002367A026
:1005800001F00EFE00242FE0305DFFF7DBFE68492E
:10059000325D1420424301EB0200D0F880122800A3
:1005A000FFF701FF10EE100A01F0C4F9CDE90001D8
:1005B0002A00684850F824106A4801F0F1FD12E062
:1005C00003AE02AA315D20316148006801F068FC89
:1005D00005009DF808000028D6D05E4850F8241089
:1005E0005D4801F0DDFD641C082CE9D306B070BD48
:1005F0002DE9FC4104000F001600514803786A46BB
:1006000021004E48006801F06CFC0500002F02D06C
:10061000012F34D07FE09DF8000000282AD1142754
:10062000DFF80C8107FB04F048F8005007FB04F0EA
:10063000404486604D4E042307FB04F008EB0002A3
:10064000002007FB04F10144306801F043FE04235D
:1006500007FB04F0404410F1080200207C432044D2
:1006600010F10801306801F035FE2900404801F022
:1006700097FD03E0DFF8B40B01F092FD4BE09DF82D
:100680000000002843D11427DFF8A48007FB04F002
:100690004044456007FB04F04044C660334E0423E9
:1006A00007FB04F04044021D002007FB04F108444E
:1006B000011D306801F00EFE042307FB04F04044E6
:1006C00010F10C02002007FB04F1084410F10C01AA
:1006D000306801F0FFFD2000FFF708FE07FB04F083
:1006E000404480ED040A042307FB04F0404410F169
:1006F000100200207C43204410F11001306801F00A
:10070000E9FD2900DFF8180A01F04AFD03E0DFF8EF
:100710001C0B01F045FDBDE8F38100000D0A00004F
:10072000E016010878150108E8160108246A00207F
:100730002459002000408F400000704114740020B4
:10074000BF0400205C1101085C0200203C1301087A
:1007500018740020DC0200204C13010870110108FD
:100760008411010898110108F0160108E4730020B3
:100770008415010870B5C6B0040000200E900EAAC2
:1007800032A92000FFF75DFD0E98002800F0C1841B
:100790000522DFF8B01A329801F0BCFD002840F0C5
:1007A000568232AD0422DFF8A01A686801F0B2FD6B
:1007B000002840F0DC800422DFF8901AA86801F0DD
:1007C000A9FD002840F0438221003CA8FFF7DCFC93
:1007D00068463CA9282200F095FEA86800796128A7
:1007E00011D0C0F03482632835D020D365285AD088
:1007F00045D3672800F07F8069D3692800F0A38083
:10080000C0F08D8023E2DFF8485A0126089916FAD5
:1008100001F12800FFF73AFD09980200D2B20898CA
:100820008640310089B2280001F05EF80FE2DFF85F
:10083000246A0125089915FA01F13000FFF726FD19
:1008400009980200D2B208988540290089B2300088
:1008500001F04AF8FBE1DFF8006A0125089915FA72
:1008600001F13000FFF712FD09980200D2B208989A
:100870008540290089B2300001F036F8E7E1DFF861
:10088000DC690125089915FA01F13000FFF7FEFC3B
:1008900009980200D2B208988540290089B2300038
:1008A00001F022F8D3E1DFF8B8690125089915FABB
:1008B00001F13000FFF7EAFC09980200D2B2089873
:1008C0008540290089B2300001F00EF8BFE1DFF861
:1008D00094690125089915FA01F13000FFF7D6FC5B
:1008E00009980200D2B208988540290089B23000E8
:1008F00000F0FAFFABE1DFF870690125089915FAFD
:1009000001F13000FFF7C2FC09980200D2B208984A
:100910008540290089B2300000F0E6FF97E1DFF85A
:100920004C690125089915FA01F13000FFF7AEFC7A
:1009300009980200D2B208988540290089B2300097
:1009400000F0D2FF83E1DFF828690125089915FA44
:1009500001F13000FFF79AFC09980200D2B2089822
:100960008540290089B2300000F0BEFF6FE105220A
:10097000DFF80019686801F0CDFC00284CD1042292
:10098000DFF8C818A86801F0C5FC002840F05F81B6
:1009900021003CA8FFF7F8FB68463CA9282200F09C
:1009A000B1FDA8680079612802D062281AD04EE112
:1009B000DFF8C4580722DFF8C418286801F054FD96
:1009C00040F6B8330A220FA9286801F070FD020032
:1009D000100080B2002804D092B20FA9286801F05C
:1009E00043FD34E1DFF898580722DFF898182868AB
:1009F00001F03AFD40F6B8330A220FA9286801F049
:100A000056FD010089B2002905D0020092B20FA95B
:100A1000286801F029FD1AE1ABA6032231006868BD
:100A200001F078FC002807D103223100DFF85808D4
:100A3000006801F0BBFD0AE10322DFF85018686886
:100A400001F068FC002840F0028121003CA8FFF77B
:100A50009BFB68463CA9282200F054FDA868007959
:100A600031280ED0C0F0F38033284CD02AD335285B
:100A700000F08B8068D3372800F0C980C0F0A680D2
:100A8000E5E0DFF80C1819A801F0B6FD01F0C0FD93
:100A9000DFF80058020092B219A9286801F02CFF73
:100AA00040F6B83314220FA9286801F037FF01007F
:100AB00089B2002905D0020092B20FA9286801F07E
:100AC0001BFFC4E0DFF8D01719A801F095FD01F075
:100AD0009FFDDFF8C857020092B219A9286801F0FB
:100AE0000BFF40F6B83314220FA9286801F016FF57
:100AF000010089B2002905D0020092B20FA928682E
:100B000001F0FAFEA3E0DFF8981719A801F074FDD0
:100B100001F07EFDDFF88C57020092B219A9286817
:100B200001F0EAFE40F6B83314220FA9286801F05C
:100B3000F5FE010089B2002905D0020092B20FA98A
:100B4000286801F0D9FE82E0DFF85C1719A801F0EF
:100B500053FD01F05DFDDFF85457020092B219A970
:100B6000286801F0C9FE40F6B83314220FA928689E
:100B700001F0D4FE010089B2002905D0020092B232
:100B80000FA9286801F0B8FE61E0DFF8241719A862
:100B900001F032FD01F03CFDDFF81857020092B27F
:100BA00019A9286801F0A8FE40F6B83314220FA94D
:100BB000286801F0B3FE010089B2002905D00200C7
:100BC00092B20FA9286801F097FE40E0DFF8E8161E
:100BD00019A801F011FD01F01BFDDFF8E05602003D
:100BE00092B219A9286801F087FE40F6B8331422A2
:100BF0000FA9286801F092FE010089B2002905D0F2
:100C0000020092B20FA9286801F076FE1FE0DFF81B
:100C1000B01619A801F0F0FC01F0FAFCDFF8A456B8
:100C2000020092B219A9286801F066FE40F6B833B6
:100C300014220FA9286801F071FE010089B2002971
:100C400005D0020092B20FA9286801F055FE0422D7
:100C5000DFF87416329801F05DFB002840F05B81EC
:100C600032AD0422DFF8E015686801F053FB00287C
:100C700040F00D810422DFF8D415A86801F04AFB8A
:100C8000002840F0488121003CA8FFF77DFA684623
:100C90003CA9282200F036FCA8680079612815D00C
:100CA000C0F03981632843D029D3652872D058D346
:100CB000672800F0A180C0F08680692800F0CE800F
:100CC000C0F0B38027E100BF73646900DFF880459E
:100CD0000125089915FA01F12000FFF7EFFA0898AD
:100CE0008540290089B2200000F0F5FD03009BB289
:100CF000089A05A9DFF8D40501F052FA0BE1DFF8F4
:100D000054550124089914FA01F12800FFF7D6FA86
:100D100008988440210089B2280000F0DCFD80B2F0
:100D20000300089A05A9DFF8A40501F039FAF2E0FA
:100D3000DFF824550124089914FA01F12800FFF77F
:100D4000BDFA08988440210089B2280000F0C3FD54
:100D500080B20300089A05A9DFF8700501F020FAB7
:100D6000D9E0DFF8F8540124089914FA01F12800B9
:100D7000FFF7A4FA08988440210089B2280000F007
:100D8000AAFD80B20300089A05A9DFF8400501F02A
:100D900007FAC0E0DFF8C8540124089914FA01F1F9
:100DA0002800FFF78BFA08988440210089B22800B8
:100DB00000F091FD80B20300089A05A9DFF80C0548
:100DC00001F0EEF9A7E0DFF89C540124089914FA29
:100DD00001F12800FFF772FA08988440210089B2D7
:100DE000280000F078FD80B20300089A05A9DFF81A
:100DF000DC0401F0D5F98EE0DFF86C540124089989
:100E000014FA01F12800FFF741FA08988440210004
:100E100089B2280000F05FFD80B20300089A05A99E
:100E2000DFF8A80401F0BCF975E0DFF840540124B4
:100E3000089914FA01F12800FFF740FA0898844055
:100E4000210089B2280000F046FD80B20300089A14
:100E500005A9DFF8780401F0A3F95CE0DFF810548D
:100E60000124089914FA01F12800FFF727FA0898DD
:100E70008440210089B2280000F02DFD80B20300DB
:100E8000089A05A9DFF8440401F08AF943E0032237
:100E9000A1A1686801F03EFA00283CD10722DFF8E2
:100EA0003014A86801F036FA00280BD118AADFF830
:100EB0002414A86800F0EAFA01282CD11898FFF74A
:100EC000A1FA28E00522DFF81014A86801F022FA40
:100ED00000280BD117AADFF80414A86800F0D6FA8E
:100EE000012818D11798FFF7C9FA14E00A22DFF891
:100EF000F013A86801F00EFA002802D1FFF7F8FA03
:100F000009E00822DFF8DC13A86801F003FA0028E2
:100F100001D1FFF72CFB032280A1329801F0FAF9EE
:100F2000002840F0F68032AC0522DFF848136068F4
:100F300001F0F0F900281CD160684079612802D0E6
:100F400062280BD014E0A06801F090FD020000219F
:100F5000DFF82403006801F0CDFADAE0A06801F0C0
:100F600085FD02000021C648006801F0C3FAD0E008
:100F7000CFE00622DFF87013606801F0CBF900289B
:100F80005CD16068807931280AD056D333281DD0CF
:100F900011D3352830D024D3372843D037D34CE071
:100FA000A06801F063FD0B900AAA0021B94800680F
:100FB00001F0ADFCADE0A06801F058FD0B900AAA6D
:100FC0000021B648006801F0A2FCA2E0A06801F090
:100FD0004DFD0B900AAA0021B248006801F097FC71
:100FE00097E0A06801F042FD0B900AAA0021AF48EB
:100FF000006801F08CFC8CE0A06801F037FD0B90DC
:101000000AAA0021AB48006801F081FC81E0A068D9
:1010100001F02CFD0B900AAA0021A848006801F0FD
:1010200076FC76E0A06801F021FD0B900AAA002171
:10103000A448006801F06BFC6BE06AE0032236A173
:10104000606801F067F9002863D10722A049A06811
:1010500001F060F9002824D116AA9E49A06800F08A
:1010600015FA012855D10622A049E06801F052F98D
:10107000002801D1002507E007229D49E06801F022
:1010800049F9002800D1012515AA6DA1369800F074
:10109000FDF901283DD1159A29001698FFF7A8FA05
:1010A00037E007229349A06801F034F900280ED1F7
:1010B00014AA9149A06800F0E9F9012829D18F48C4
:1010C0001499017001788E4801F06AF821E0042239
:1010D0008C49A06801F01EF900281AD10DAA8A498E
:1010E000A06800F0D3F9012813D188480D99016058
:1010F0000168874801F054F886480D99C0F820131C
:10110000042310F548724FF448718348006801F0D9
:10111000E1F846B070BD000061646300736574005F
:101120006C13010878B5ADF5017D0025002001F0B4
:1011300005F951490860012001F000F950490860A3
:10114000002001F0F5F950490860002001F07CFA18
:1011500050490860714C012001F076FA20600320AC
:1011600001F072FA4D490860042001F06DFA4D4912
:101170000860052001F068FA4C490860062001F07B
:1011800063FA4C490860092001F05EFA4B49086097
:101190000A2001F059FA4B490860206800F0EFFF7F
:1011A0005F4E3068002803D1002000F049FE306017
:1011B0005C4E3068002803D1202000F041FE3060F2
:1011C000554E002001F03AF830604FF44973514A0F
:1011D0000021306801F05EF85FF0FF3301226946BC
:1011E000206801F09BFB0028F6D001A89DF80010B4
:1011F0002A0092B281546D1C9DF800100A290DD16D
:101200000021ADB2415501A8FFF7B4FA4FF40071C7
:10121000002201AD280000F08BF80025280080B2E4
:10122000B0F5007FD8D10025D6E700005C13010897
:1012300080B53D4A00213D4801F08EFC01BD000013
:1012400025640000F81601080017010808170108B6
:10125000000002400004024000080240000C02406E
:10126000001002400014024000180240001C02401E
:101270000020024010170108E87300201817010829
:10128000EC73002020170108F073002028170108D4
:101290007C130108F873002090150108FC730020EE
:1012A0008C130108007400209C13010804740020B2
:1012B000AC13010808740020BC1301080C74002052
:1012C000CC1301081074002030170108DC1301084A
:1012D000381701089C150108401701084817010834
:1012E000A8150108B415010850170108581701087E
:1012F0006017010868170108C0150108BF04002025
:10130000F00F010870170108781701085802002033
:10131000EC13010824590020E4730020F47300202A
:101320001474002018740020640E010825110008B0
:1013300062F30F2262F31F42401810F0030308D03B
:10134000C91A1FD3DB0748BF00F8012D28BF20F8BA
:10135000022D130030B414461546103928BF20E979
:101360003C00FAD8490728BF20E90C0048BF40F8E4
:10137000042D890028BF20F8022D48BF00F8012D58
:1013800030BC7047C91818BF00F8012DCB0728BF23
:1013900000F8012D704730B4002513E050F8042BFD
:1013A000D30744BFA9F101039A18091F042942F881
:1013B000045BFAD213468C0744BF15809B1CC907F7
:1013C00048BF1D7050F8041B0029E7D130BC70479E
:1013D00001B58B071AD1830724D1121F21D351F8ED
:1013E000043BA3F1013C2CEA030C1CF0803C04BF3D
:1013F00040F8043BF1E79CFA8CFCBCFA8CF1C1F19B
:1014000018018B40CB4040F8043B13E0042A09D379
:1014100011F8013B521E00F8013B5BB18B07F7D17D
:10142000D9E7121D5AB111F8013B521E00F8013BD9
:1014300003B1F8D111001CBF0022FFF77DFF01BDF1
:1014400038B504000D460BD02946204601F08AFD30
:101450000444207848B90C4800210160002032BDC6
:1014600009490C68002CEFD132BD2946204601F015
:101470008AFD2118087810B1002201F8012B0248DA
:101480000160204632BD00BF6C7400200DB4C0B5B1
:101490000A4604A800210190009101AB03A9044869
:1014A00078440C3001F0A8FD06BC5DF810FB00BFCD
:1014B0001700000010F8012B11F8013B0AB19A4205
:1014C000F8D0D01A704703681AB95A1E026008464D
:1014D0007047197811B94FF0FF307047591C0160FF
:1014E0001878704762B38B0708D0521E11F8013B81
:1014F00000F8013B00F024808B07F6D1830740F011
:10150000208000BF103A07D330B4B1E83810103A49
:10151000A0E83810F9D230BC530724BFB1E8081056
:10152000A0E8081044BF51F8043B40F8043BD20740
:1015300024BF31F8022B20F8022B44BF0B78037034
:101540007047121F17D35B0009D151F8043B20F8F4
:10155000023B1B0C121F20F8023BF6D20BE051F8A5
:10156000043B00F8013B1B0A20F8023B1B0C121F36
:1015700000F8013BF3D238BF121D521E24BF11F8F0
:10158000013B00F8013BF8D870478268521C82602A
:10159000426832B10268531C036011704168491EF1
:1015A0004160704781B04D49884215D04C4988420E
:1015B00022D04C4988422FD04B4988423CD04B49DD
:1015C000884249D04A49884266D04A49884273D005
:1015D0004949884250D07EE048480168C9070AD48A
:1015E00000210091016851F001010160006810F0D4
:1015F0000100009000986EE04048016889070AD415
:1016000000210091016851F002010160006810F0B2
:101610000200009000985EE03848016849070AD44B
:1016200000210091016851F004010160006810F090
:101630000400009000984EE03048016809070AD481
:1016400000210091016851F008010160006810F06C
:101650000800009000983EE028480168C9060AD4B6
:1016600000210091016851F010010160006810F044
:101670001000009000982EE02048016809060AD466
:1016800000210091016851F080010160006810F0B4
:101690008000009000981EE01848016889060AD46E
:1016A00000210091016851F020010160006810F0F4
:1016B0002000009000980EE01048016849060AD406
:1016C00000210091016851F040010160006810F0B4
:1016D00040000090009801B0704700BF0000024039
:1016E0000004024000080240000C024000100240CA
:1016F0000014024000180240001C02403038024032
:10170000F8B4002200220022002337E0082704E07A
:10171000DFF8E8219042F9D10727FFB213F0030266
:10172000D2B2920097403E431A00920845F82260D8
:10173000DFF8CC512A68A2434E68F60200D5224356
:101740002A60DFF8C0512A68A2434E68B60200D56D
:1017500022432A60DFF8B0512A68A2434E68B603DC
:1017600000D522432A60DFF8A4512A68A2434E68BC
:10177000F60301D5144322002A605B1C102B80F075
:10178000A880012515FA03F20C6814409442F4D1A4
:101790000A7912F00302012A04D00A7912F0030236
:1017A000022A16D1866803271A00D2B25200974047
:1017B000BE43CF681A00D2B2520097403E438660C3
:1017C00042689D40AA434D68C5F300159D402A43D9
:1017D00042600A7912F00302032A0DD0C56803267D
:1017E0001A00D2B252009640B5438E681A00D2B2A7
:1017F000520096403543C5600A7912F00302022A6E
:1018000017D11A00D20800EB8202156A0F2613F0D6
:101810000702D2B292009640B5430E6913F0070258
:10182000D2B29200964035431A00D20800EB8202F1
:101830001562056803261A00D2B252009640B543DD
:101840000E7916F003061A00D2B2520096403543C4
:1018500005604A6812F4403F8FD0002200922C4A63
:10186000156855F480451560126812F480420092A4
:10187000009A284D1A00920855F822600F2713F09D
:101880000302D2B292009740BE43234A904201D154
:10189000002742E7214A904201D101273DE7204A33
:1018A000904201D1022738E71E4A904201D1032716
:1018B00033E71D4A904201D104272EE71B4A90428C
:1018C00001D1052729E71A4A90427FF421AF062764
:1018D00023E7F1BC7047006989B2084201D00120BA
:1018E00000E00020C0B27047D2B2002A02D089B214
:1018F000816102E089B2090481617047001C0240E5
:10190000083C01400C3C0140043C0140003C0140CB
:101910004438024008380140000002400004024000
:1019200000080240000C0240001002400014024077
:1019300000180240C0F3C75181B1FF2906D0C11081
:10194000400721F0E04101F16051704741020CBFB6
:1019500040F4E0016FF000410020704700F00041CA
:1019600000020AD0B0FA80FC00FA0CF001F16051DC
:10197000A1EB0C5101EBD02140057047F0B540F2CE
:10198000FF7581EA030C0CF0004C15EA11541DBFE1
:1019900015EA1357AC42AF42E5E0BC41C1F3130175
:1019A000C3F31303801A994143F4801304D2641ED5
:1019B0004000494180185941C90241EA5051B1FBE8
:1019C000F3F603FB1611A2FB0675D7EBC020A94165
:1019D00002D2761E80185941C90241EA5051B1FB2A
:1019E000F3FE03FB1E11A2FB0E75D7EBC020A9412D
:1019F00003D2AEF1010E80185941890241EA90519B
:101A0000760546EA8E2EB1FBF3F603FB1611A2FB18
:101A10000675D7EB8020A94102D2761E8018594165
:101A2000C90241EA50514EEA060EB1FBF3F603FB40
:101A30001611A2FB0675D7EBC020A94102D2761E73
:101A400080185941C90241EA5051B1FBF3F703FB39
:101A50001711A2FB0735D3EBC020A94167F100079E
:101A60000CBF004247F0010766F3D5274FEA1E314D
:101A7000B80814F5806412DDBD0775F1004250EB23
:101A80000E5051EB045111F5801F5CBF41EA0C016F
:101A9000F0BD4CF07F6141F0E0410020F0BDBD079A
:101AA0006D0840EA0E5041F48011D4F10104B4F104
:101AB00020060ADAC4F120060200E04001FA06F32B
:101AC000E1401843B24015430EE0342C13DCC6F15C
:101AD000200445EA40056D0820FA06F2154321FA74
:101AE00006F0A1400D43002175F1004250F10000C5
:101AF00051EB0C01F0BD00205FEA0C01F0BDCFB945
:101B000092185B41B3FA83F704BFB2FA82F6BF19A9
:101B10000B3FB7F120062FBF02FA06F3BB40C7F117
:101B2000200622FA06F638BF3343BA401CB1E41946
:101B3000641E33E77F4231F00041B1FA81F404BF03
:101B4000B0FA80F6A4190B3CB4F120062FBF00FABE
:101B500006F1A140C4F1200620FA06F638BF314351
:101B6000A0403C1B1AE7AC421ABF05EA1357AF422C
:101B700012E050EA41061CBF52EA4306BFE750EAB2
:101B80004107304661461CBF41EA0551F0BD52EAAB
:101B9000430C08BFC143F0BD00204FF4001616EB04
:101BA000410F98BF16EB430F08BF16EB410F24BF40
:101BB000C14305E016EB430F0CBF61464CEA0551EB
:101BC000F0BD2E0001F000428B1AA3F16051B1F577
:101BD000801F0ADBB1F17F6F1FD242EAC102C10050
:101BE00071F1004142EB507070470B15C3F10903CE
:101BF000212B10D2890241EA9051800201284941EB
:101C000041F0004121FA03F0C3F12003994071F142
:101C1000004150417047100070476FF0000013EB17
:101C2000103F5CBF000E42EAC0507047C11768B158
:101C30004840401AB0FA80F29040D21CC907C2F561
:101C4000846241EA025202EBD02140057047430012
:101C5000B0B581EA030C0CF0004C40F2FF7515EAB8
:101C600011541DBF15EA1357AC42AF4239E0E419D5
:101C700023EA455343F48013C90241F0004141EA8D
:101C8000505EC7021100A7FB020200284FF00000BF
:101C9000EEFB01204FF00001E3FB072118BF42F0EB
:101CA0000102401800214941E3FB0E01A4F58064C4
:101CB0000F0302D252004041494154F101046CDD4E
:101CC000470872F1004250F1000051EB0451A1F5B8
:101CD00080115CBF41EA0C01B0BD4CEA0551002007
:101CE000B0BD05EA1357AC4214BFAF4241E050EA21
:101CF000410E1CBF52EA430E02E061460020B0BD17
:101D000024423C441BD15FEA070EF6D0090302BF10
:101D100001460020AEF1140EB1FA81F7AEEB0704D4
:101D200001FA07FE0C37C7F1200100FA07F7C84097
:101D30004EEA000E23EA455343F48013A2E733F042
:101D40000043B3FA83F704BFB2FA82FE77440B3F35
:101D5000E41BB7F1200E2FBF02FA0EF3BB40C7F110
:101D6000200E22FA0EFE38BF43EA0E03BA40641C6E
:101D700082E750EA410E14BF52EA430E6FF00001B1
:101D80004FF4001717EB430F8ABF194617EB410FAB
:101D9000B5E74CEA05510020B0BDD4F10104B4F11F
:101DA00020070FDAC4F12007520828BF42F00102D1
:101DB00010FA07F501FA07F7E1BF2A43E04038437C
:101DC000E1400FE0352C98DCC7F1200452EA4002D4
:101DD00020FA07F218BF42F0010231FA07F0A140E1
:101DE0000A43002172F1004250F1000051EB0C0156
:101DF000B0BD0000F8B50400207E00281FD1214DA1
:101E00002878002818D1204F02F020F9386038686F
:101E10004669012002F0DBFA3060012002F082FB0B
:101E20007060002002F02AFCB060386802F0C2F84E
:101E300002F099FD01202870134800686060F1BD30
:101E400010B500281F2803D9203807280CD917E01F
:101E50000E4C2000FFF7CEFF0D480021017060619D
:101E60000C48206120000CE00B4C2000FFF7C2FF63
:101E70000A4801210170606106482061200000E0ED
:101E8000002010BD7C74002068730020D0710020F9
:101E90007874002038000020EC7100207A74002053
:101EA000F8B504000D001600276960690078012864
:101EB0000BD1203D280080B202F020FD3200ED0859
:101EC000290060687B6898470AE0280080B202F029
:101ED00009FC320015F00305290060683B6898474B
:101EE000F2BD2DE9F84F04008A4615001E0027694F
:101EF00060695FF000085FF00009007801281DD1DB
:101F0000BAF1200A504680B202F0F8FC5FF0000BF4
:101F10003000C0B283452DDA2A005146C9086068F6
:101F20007B68984701002878002804D111EB08014C
:101F3000884619F101091BF1010BE9E7504680B20F
:101F400002F0D0FB5FF0000B10E02A001AF0030152
:101F500060683B68984701002878002804D111EB9D
:101F60000801884619F101091BF1010B3000C0B2CC
:101F70008345EADB5FFA89F998FBF9F0BDE8F28F57
:101F80002DE9F84F84B08346A44D2868A4498842BF
:101F900003D102F0B2FD040002E002F0A3FD040050
:101FA000A048016851F4802101609F48016851F008
:101FB000020101609D48016851F4802101600168BF
:101FC00031F4802101609A48016831F470010160A8
:101FD000016851F4200101609648016831F47F41A5
:101FE0000160016851F4EE4101602868C06830F476
:101FF00000502968C8605FF0640A042600275FF07B
:1020000019085FF0000922000023A8FB020108FB69
:10201000031109FB0211CDE9000158460021A6FB7E
:10202000002306FB013307FB0033DDE9000102F06A
:10203000D7FD6421B0FBF1F0039022000023A8FB40
:10204000020108FB031109FB0211CDE9000158460A
:102050000021A6FB002306FB013307FB0033DDE96B
:10206000000102F0BDFD029022000023A8FB020146
:1020700008FB031109FB0211CDE9000158460021BC
:10208000A6FB002306FB013307FB0033DDE900015B
:1020900002F0A6FD6421B0FBF1F102980AFB1101E8
:1020A000080132306421B0FBF1F010F0F000039928
:1020B00010EB0110029022000023A8FB020108FB94
:1020C000031109FB0211CDE9000158460021A6FBCE
:1020D000002306FB013307FB0033DDE9000102F0BA
:1020E0007FFD00902000002102000B00A8FB0201F0
:1020F00008FB031109FB02115A460023904699463A
:10210000A6FB082306FB093307FB083302F068FD32
:102110006421B0FBF1F100980AFB110A5FEA0A1092
:1021200032306421B0FBF1F111F00F01029809186F
:10213000286881602868C06830F480502968C860C9
:102140002868006930F44050296808612868C06830
:1021500030F480602968C8602868C06850F00800C2
:102160002968C8602868C06850F400502968C860B1
:10217000286800684006FBD505B0BDE8F08F2E4901
:102180000860704708E025490A6812681206FAD507
:10219000027809684A60401C01780029F3D1704731
:1021A0000EB478B505000020002405AB2A000221FA
:1021B000684602F02DFE0600022E10D3701C02F0BD
:1021C00051FE0400002C08D005AB2A00761C31001B
:1021D000200002F01DFE250002E001201BE06D46FC
:1021E000154E306800280BD0002D09D0280000F0D3
:1021F0000FFA020092B22900306800F07DFB04E083
:10220000002D02D02800FFF7BDFF002C02D02000D7
:1022100002F02FFE002072BC5DF810FB4802002087
:10222000001001404038024030380240203802405F
:102230000004024024040240B473002038B5002892
:102240001FD102F055FE04006569002002F0BFF8BE
:102250002860022002F066F968600B4D0B48286187
:102260006C60E868002805D100220121012000F0FF
:10227000EDFCE860200002F0B0FE05482860280070
:1022800000E0002032BD000008720020E8150108BF
:10229000CC1101082DE9F04104000D0016001F00CB
:1022A000D4F81080E068002804D05FF0FF31E068C7
:1022B00000F02DFD3B009BB2320029006068D8F889
:1022C0000050A847E068002802D0E06800F055FD03
:1022D000BDE8F0812DE9F04104000D0016001F005B
:1022E000D4F81080E068002804D05FF0FF31E06887
:1022F00000F00DFD3B009BB2320029006068D8F869
:102300000450A847E068002802D0E06800F035FDDE
:10231000BDE8F08104E010F8013B6BB1491C521E8E
:1023200052B10B7890F800C09C45F4D002D24FF027
:10233000FF30704701207047002070472DE9FF41B2
:1023400004001C25444E05FB04F03044007E0128A7
:1023500003D16C4306EB04007AE0012005FB04F195
:1023600031440876002C02D0012C37D06DE03B4878
:1023700005FB04F170500C27DFF8E480072000F023
:1023800063F907FB04F148F801004FF496600190EF
:102390006A46002107FB04F058F8000000F0B7FA85
:1023A000102002F0BFF807FB04F14144486007FB2E
:1023B00004F708EB0700406802F054F905FB04F04D
:1023C0003044C068002808D100220121012000F01B
:1023D0003DFC05FB04F13144C86036E0214805FBB3
:1023E00004F170500C27DFF87880082000F02CF9F9
:1023F00007FB04F148F801004FF4966001906A462B
:10240000002107FB04F058F8000000F080FA1120CA
:1024100002F088F807FB04F14144486007FB04F729
:1024200008EB0700406802F01DF905FB04F030449A
:10243000C068002808D100220121012000F006FC1C
:1024400005FB04F13144C860FFE76C4306EB040070
:1024500004B0BDE8F081000000000020D81501089C
:1024600078720020E0150108F8B504000D00160090
:102470006769E068002804D05FF0FF31E06800F091
:1024800046FC786802F0F4F8320092B2290038680D
:1024900000F032FA142000F0C1FB786802F0E2F894
:1024A000E068002802D0E06800F067FCF1BD2DE98B
:1024B000F04104000D0016001F00D4F81480E068FD
:1024C000002804D05FF0FF31E06800F020FC3B0002
:1024D000320092B22900D8F8000000F01FFA05007F
:1024E000E068002802D0E06800F047FC280080B2D5
:1024F000BDE8F081FEB505000C0016006F69E868C4
:10250000002804D05FF0FF31E86800F000FCE4B27E
:10251000002C05D101966A460021386800F0F7F9D1
:10252000E868002802D0E86800F027FCF7BD00004A
:10253000F8B504001C251B4E05FB04F03044007E5A
:10254000012803D16C4306EB04002AE0012005FBBF
:1025500004F131440876002C20D1134F022002F000
:1025600019FF47F83400102001F0DCFF07EBC4012D
:10257000486007EBC400406802F074F805FB04F003
:102580003044C068002808D100220121012000F059
:102590005DFB05FB04F13144C860FFE76C4306EBCB
:1025A0000400F2BD5000002048730020F8B504007C
:1025B0000D0016006769E068002804D05FF0FF3165
:1025C000E06800F0A4FB786802F052F8012000F007
:1025D00025FB320092B22900386802F0BDFF78680E
:1025E00002F040F8012000F019FBE068002802D05A
:1025F000E06800F0C2FBF1BD5FEA000C11F8012BAE
:1026000000F8012B12B111F8012BF9E76046704771
:1026100000F10103810704D010F8011B820781B18A
:10262000FAD10268A2F10131914311F0803104BF67
:1026300050F8042FF6E709BAB1FA81F100EBD100A6
:10264000401CC01A704700007FB504001C259C4E3A
:1026500005FB04F03044007E012803D16C4306EBF7
:1026600004002BE1002C14D0022C34D022D3042CF3
:102670005ED041D3062C00F0938075D3082C00F077
:10268000C780C0F0A9800A2C00F0FA80C0F0DC807E
:1026900011E18C4805FB04F17050200002F07AFE35
:1026A00005FB04F131444860874805FB04F13144DF
:1026B000086100E1854805FB04F17050200002F03C
:1026C00069FE05FB04F1314448607F4805FB04F1D5
:1026D00031440861EFE07E4805FB04F170502000B2
:1026E00002F058FE05FB04F131444860764805FBD2
:1026F00004F131440861DEE0764805FB04F17050D6
:10270000E01E03F002F905FB04F1314448605FF478
:10271000E13001906A46002105FB04F03044406836
:1027200003F039F96C4805FB04F131440861C2E05B
:102730006A4805FB04F17050E01E03F0E6F805FB63
:1027400004F1314448605FF4E13001906A460021B1
:1027500005FB04F03044406803F01DF95E4805FBBA
:1027600004F131440861A6E05D4805FB04F17050B6
:10277000E01E03F0CAF805FB04F1314448604FF451
:10278000966001906A46002105FB04F030444068E1
:1027900003F001F9504805FB04F1314408618AE077
:1027A000504805FB04F17050E01E03F0AEF805FB45
:1027B00004F1314448604FF4966001906A4600216C
:1027C00005FB04F03044406803F0E5F8424805FB9F
:1027D00004F1314408616EE0434805FB04F1705098
:1027E000E01E03F092F805FB04F1314448604FF419
:1027F000165001906A46002105FB04F03044406801
:1028000003F0C9F8344805FB04F13144086152E093
:10281000364805FB04F17050E01E03F076F805FB26
:1028200004F1314448605FF4E13001906A460021D0
:1028300005FB04F03044406803F0ADF8264805FB82
:1028400004F13144086136E0294805FB04F1705079
:10285000E01E03F05AF805FB04F1314448604FF4E0
:10286000966001906A46002105FB04F03044406800
:1028700003F091F8184805FB04F1314408611AE0AF
:102880001C4805FB04F17050E01E03F03EF805FB08
:1028900004F1314448604FF4966001906A4600218B
:1028A00005FB04F03044406803F075F80A4805FB66
:1028B00004F1314408616C4306EB040004B070BDC0
:1028C000246500200C120108300200201C120108AF
:1028D0002C1201083C120108180200204C120108B9
:1028E0005C1201086C1201087C120108B81601087C
:1028F0008C1201089C12010810B5046913009BB2E8
:10290000002B03D092B240682368984710BD80B571
:102910000369C9B24068DB68984701BD10B5046916
:1029200092B240686469A04780B210BD2DE9F84FAB
:1029300084B00E4617460BB100221A600446A0462A
:1029400001E008F1010898F8000003F07EF8002883
:10295000F7D198F800002D2816BF2B2818F8015B36
:102960002B25002F019603D4012F01D0252F03DB47
:10297000002E55D0346053E0002F0CDD102F04BF23
:1029800098F80000302802BF98F8010040F02000BD
:10299000782811D10CE098F80000302818BF0A27D9
:1029A0000AD198F8010040F02000782803D11027C0
:1029B00008F1020800E00827CDF80C8001E008F1DA
:1029C000010898F800003028F9D0064E7E441436ED
:1029D0004FF0000906F12800CDF80880CA468DF8AE
:1029E00000000BE00CDD00009DF80010401ACA4604
:1029F0005FFA80FB07FB09B908F1010898F80000AD
:102A000003F02DF801463A4606F1280003F032F8AB
:102A10000028E9D10399414504D1019800B104602F
:102A2000002020E00299F05DA8EB0101081A0028BF
:102A300010D406DCB9EB0B0103D3B1FBF7F0504522
:102A400008D0AFF30080049808B1012101604FF075
:102A5000FF3903E02D2D08BFC9F10009019808B125
:102A6000C0F80080484605B0BDE8F08FFFE70023BE
:102A70000A2200215AE70000020052B2002A05D4BF
:102A80000901DFF8B82140B2115408E00901DFF86C
:102A9000B02140B210F00F00104400F8041C704741
:102AA00080B5DFF8A001006803F063FC012801D0C5
:102AB00003F06EFE01BD80B500217FF00400FFF73A
:102AC000DBFF01BDEFF30580002802D07FF0050099
:102AD0000AE0DFF874110868002803D101200860BB
:102AE000002001E05FF0FF30704780B503F041FC4B
:102AF000002803D0022803D1022009E0032007E0C8
:102B0000DFF844010068012801D1012000E0002025
:102B100002BD10B5EFF30580002802D07FF005005C
:102B20000EE0DFF824412068012807D1FFF7C3FF3A
:102B30000220206003F01BF9002001E05FF0FF306D
:102B400010BD80B5EFF30580002802D003F0D6F960
:102B500001E003F0CFF902BDF8B584B00023039380
:102B6000EFF30583002B56D10300002B53D08025B3
:102B7000182300245FF0FF36002A2ED01768002F9C
:102B800000D014689769002F00D09369002B04D0FF
:102B9000392B02D21779FF0701D500203CE0576995
:102BA000002F01D05569AD089768002F0AD0D7686B
:102BB0005C2F07D31769002F04D05769002F01D06D
:102BC00001260BE09768002F08D1D768002F05D1A8
:102BD0001769002F02D1002600E00026012E0BD13C
:102BE000966802961269019200930B002A00210058
:102BF00002F06CFF03900EE0002E0CD103AA0192AC
:102C000000930B002A0092B2210002F0A1FF0128DC
:102C100001D000200390039805B0F0BD10B5EFF38C
:102C20000581002902D07FF0050404E0002400287B
:102C300001D003F076F8200010BD000000E400E0B1
:102C400018ED00E010E000E0647300207CB50E0099
:102C500015000024EFF30581002956D1002854D037
:102C6000B04252D35FF0FF32002D0FD0A968002987
:102C700004D0E968502901D3012208E0A96800299D
:102C800005D1E968002902D1002200E0002212F1FA
:102C9000010F3AD0012822D1012A09D10320009046
:102CA000AB6800220021012003F027FE040005E0AC
:102CB00003220021012003F074FE0400002C1AD02E
:102CC000002E18D0002300220021200003F0DEFE99
:102CD000012810D0200004F042FA00240BE0012A61
:102CE00005D1AA68310003F092FE040003E0310030
:102CF00003F0AEFE0400002C07D0002D01D029689F
:102D000000E00021200004F0F7FA200076BD38B57D
:102D10000C000025002802D17FF003052BE0EFF323
:102D2000058100291BD0002C02D07FF0030522E092
:102D3000002100916A46002104F0BAF9012802D06E
:102D40007FF0020517E00098002814D05FF0805053
:102D500064490860BFF34F8FBFF36F8F0BE0210012
:102D600004F0D8F8012806D0002C02D07FF001052D
:102D700001E07FF00205280032BD1CB500240028C8
:102D800002D17FF0030422E0EFF30581002915D082
:102D900000210091694603F0B4FF012802D07FF0C2
:102DA000020414E00098002811D05FF080504D49D3
:102DB0000860BFF34F8FBFF36F8F08E0002300223E
:102DC000002103F063FE012801D07FF002042000FF
:102DD00016BD7CB514000025EFF30582002A40D112
:102DE00000283ED000293CD05FF0FF33002C1DD0DE
:102DF000A268002A0CD0E268502A09D32269002A6E
:102E000006D0626901FB00F6B24201D301230EE055
:102E1000A268002A0BD1E268002A08D12269002AA0
:102E200005D16269002A02D1002300E00023012BB2
:102E300007D100220092A368226903F05EFD05001D
:102E400005E0002B03D1002203F0ABFD0500002DAF
:102E500007D0002C01D0216800E00021280004F0F8
:102E60004BFA280076BD38B51C000025EFF305822B
:102E7000002A1FD0002803D0002901D0002C02D046
:102E80007FF003052AE00022009200236A4603F047
:102E9000C8FE012802D07FF002051FE0009800283C
:102EA0001CD05FF080500F490860BFF34F8FBFF315
:102EB0006F8F13E0002801D0002902D17FF00305B5
:102EC0000CE00023220003F0E1FD012806D0002CD5
:102ED00002D07FF0010501E07FF00205280032BD3D
:102EE0000000000004ED00E038B51C000025EFF301
:102EF0000582002A1FD0002803D0002901D0002C11
:102F000002D07FF0030529E0002200926A4604F017
:102F1000CFF8012802D07FF002051FE000980028BA
:102F20001CD05FF08050DFF838100860BFF34F8F7F
:102F3000BFF36F8F12E0002801D0002902D17FF08B
:102F400003050BE0220003F038FF012806D0002C17
:102F500002D07FF0010501E07FF00205280032BDBC
:102F600004ED00E070B4044607E00D462A783AB15B
:102F700015F8016BB342F9D1641C2378002BF4D10E
:102F8000201A70BC704770B4044600E0641C2378BB
:102F90003BB10D462A78002AF8D015F8016BB342F0
:102FA000F8D1201A70BC7047034608460122C16858
:102FB000491CC16000210068184703460846C168E3
:102FC0000269491C521E002A0261C16003D40068D4
:102FD0000122002118474FF0FF3070470346084692
:102FE0001146C268521E11F1010FC26002D0006882
:102FF00000221847704700002DE9F84F9AB04FF0B3
:10300000FF34009100261B68019302920DF13F02EC
:10301000249B8DF81F30A04603961992814613E039
:103020000398401C0390012200980021C8470646DF
:1030300002F00BFD0028F3D1324669464846FFF7FF
:10304000CDFF0298411C02910298007802F0FDFC2D
:103050000028E5D1029E307890B1252815D1701C4A
:10306000029001782A2911BF0021401C029010F81B
:10307000011D8DF81C1000210591DFF8800A20E069
:103080004045B8BF404600F036BD0398401C039051
:10309000012200980021C84731788842D1D00246E9
:1030A00069464846FFF79AFF0020E9E70599814203
:1030B00005DA01EB810602EB4602303A0592591C13
:1030C0000291029B1A78A2F130010A29EED30694EC
:1030D0000FF62C20197804F05DF920B10298401CFD
:1030E0000290401E00788DF81D009DF81D00682894
:1030F00005D10299087868280CD1622206E06C2874
:1031000002BF029908786C2804D17122491C8DF8FD
:103110001D200291029801780FF6EC1004F03AF9A4
:1031200080B90398401C0390012200980021C847F1
:10313000064602F08AFC0028F3D13246694648462A
:10314000FFF74CFF00208DF81E000298017825390A
:103150002DD01C3900F09080091F022940F28C808C
:10316000133900F02A83C91E1ED0891F00F0848005
:10317000891E00F0AA84491E00F01F83491E0229FF
:103180007AD9091F00F01983491F33D0491E01293C
:1031900040F21383091F2AD0891E00F00E83C91E36
:1031A00000F00B8300F0A1BC224600F08FBC039816
:1031B000401C039001220098C8470646252E0CD1DA
:1031C000B8F1000F9DF81E0048BF4FF0000800281E
:1031D0003FF437AF08F1010833E732466946484605
:1031E000FFF7FCFE16F1010F40F07F8487E3012218
:1031F00000F06CBC9DF81C000028E1D19DF81D007A
:1032000062282DD0682811D06A281BD06C2801D0E4
:10321000712817D0019951F8040B019118B90FF6D4
:10322000E42000F04EBC03990160C9E7019951F810
:10323000040B019118B90FF6CC2000F042BC0399A1
:103240000180BDE7019951F8040B019118B90FF6FF
:10325000B42000F036BC039AD317C0E90023AFE7CF
:10326000019951F8040B019118B90FF6982000F05C
:1032700028BC03990170A3E705980028D8BF6FF018
:103280000040049069464846FFF797FE00262B2829
:1032900018BF2D280AAF07D18DF828006946484687
:1032A000FFF78BFE0DF12907002530284FF00A0AA1
:1032B00016D169464846FFF780FE40F02001C9B2AA
:1032C000782902D001252946FFE030203870797036
:1032D00048466946FFF771FEBF1C4FF0100AF2E73F
:1032E00040F02001CAB26E2A4CD16E2007F8010BC3
:1032F00069464846FFF761FE83464BF02000C0B2A6
:103300006128B24640F09181612107F8011B4846CF
:103310006946FFF752FE83464BF02000C0B26E288C
:1033200040F0838169464846FFF747FE282806D0CB
:10333000024669464846FFF751FE6E205CE004985D
:10334000401E049005D469464846FFF72DFE83468B
:1033500003E00399491C0391A346CDF820B05846D9
:1033600004F023F80028EAD1ABF130000A28E6D3B4
:1033700008985F28E3D08346BBF1290F40F05581C0
:103380006E2039E0C9B2692940F0A680692007F8AB
:10339000010B69464846FFF710FE83464BF02000BC
:1033A000C0B26E28B24640F040816E2107F8011B82
:1033B00048466946FFF701FE83464BF02000C0B245
:1033C000662840F0328103980499401C491E002968
:1033D0000491039004D4009801220021C84700E022
:1033E000204640F02001C9B2692908D0024669464A
:1033F0004846FFF7F3FD662007F8010B1BE1039831
:103400000499401C491E00290491039005D400989A
:1034100001220021C847834600E0A3464BF020006C
:10342000C0B26E2840F0018103980499401C491EE7
:1034300000290491039005D4009801220021C84777
:10344000834600E0A3464BF02000C0B2692840F05C
:10345000EC8003980499401C491E002904910390B4
:1034600005D4009801220021C847834600E0A34606
:103470004BF02000C0B2742840F0D7800398049924
:10348000401C491E00290491039005D40098012294
:103490000021C847834600E0A3464BF02000C0B29D
:1034A000792840F0C280662107F8011BC3E0039829
:1034B000401C0390204607E00498401E0490F6D478
:1034C00069464846FFF770FD01213028F4D00D46CB
:1034D00011B1302107F8011B8346284600250EE074
:1034E0000398401C0390A34608E00498401E0490F3
:1034F000F6D469464846FFF757FD834601201BF185
:10350000010F1BD05FFA8BF2612AA8BFABF1570104
:103510000ADA412AA8BFABF1370105DA303A0A2AA4
:1035200034BFABF13001FF21C9B2514506D2242D81
:10353000BABF07F801BB6D1C761CD6E78DF82000DA
:10354000099503F05DFF406A01788B4510D107F8BB
:1035500001BB03980499401C491E00290491039063
:1035600005D4009801220021C847834600E0A34605
:103570000998E8B99DF820000FE00398401C0390DB
:10358000A34609E00498761E401E0490F5D46946CF
:103590004846FFF709FD83460120BBF1300FF1D00B
:1035A000002E8DF8200003D5302007F8010B761C83
:1035B0009DF82000099D13E00398401C0390A3464A
:1035C0000DE0242DBCBF07F801BB6D1C0498401E04
:1035D0000490F1D469464846FFF7E6FC8346012093
:1035E0001BF1010F14D05FFA8BF2612AA8BFABF177
:1035F00057010ADA412AA8BFABF1370105DA303AA0
:103600000A2A34BFABF13001FF21C9B25145D8D3EA
:10361000054650B14BF02000BAF10A0FC0B235D1C7
:10362000652835D001E083460D465A46694648462E
:10363000FFF7D4FC15B3002139709DF81C00002859
:103640007FF4BEADBAF10A0F0B4674DC32460AA80D
:1036500004F06AF801228DF81E20019A9DF81D6081
:10366000131D6C2E40F0948012680193002A40F0E4
:103670008C806348784400F5C47022E20AA887422F
:1036800008BF1BF1010F40F0318238E17028CCD126
:1036900007F801BB0498401E049010D40398401C06
:1036A0000390012200980021C8472B2818BF2D281D
:1036B00011D107F8010B0498401E049004D503981B
:1036C000401C0390204606E00398401C0390012212
:1036D00000980021C84700210DE00398401C03908A
:1036E000204607E00498401E0490F6D469464846F8
:1036F000FFF75AFC01213028F4D00A001CBF302209
:1037000007F8012B0025A0F130020A2A8BD2082DE0
:10371000BCBF07F8010B6D1C0498401E049004D533
:103720000398401C0390204603E069464846FFF793
:103730003BFC0121E7E700220AA803F0F5FFB200F5
:103740000E46B2464FEA4A035B0D02EB030511D069
:10375000002D0FDD40F2FF72954206DBDFF89C156D
:1037600006F000463143002074E76FF31E5A4AEA20
:1037700005516FE720F0000631F0004308BF002E2E
:103780003FF468AF04F0BEF864E7C2E9000117E552
:103790004C2E07D112680193002AF6D118487844BC
:1037A0005E308EE1166801931EB91548784450309A
:1037B00087E1FEF707FA306002E505980028CCBFE4
:1037C000401EDFF83C0500280DF1200A049012D4B9
:1037D0000398401C0390012200980021C8472B2821
:1037E00018BF2D2815D18DF820000DF1210A04985D
:1037F000401E049006D50398401C0390204608E024
:10380000C8D500000398401C0390012200980021B5
:10381000C847029A12780021642A18BF752A0FD06F
:10382000692A08BF00260CD06F2A08BF082608D0D6
:10383000702A1CBF42F02002782A02D1102600E034
:103840000A26302860D104980125401E0490039870
:1038500005D4401C039001220098C84702E0401C98
:103860000390204640F02001C9B2782949D1002EAA
:1038700018BF102E5AD104981026401E04900398A9
:1038800007D4401C0390012200980021C84700255E
:103890004CE0401C03902546002702E0BA4605464E
:1038A0000F462A4669464846FFF798FB07B30021B2
:1038B0008AF800109DF81C0000287FF481AC029863
:1038C0000078642818BF692800F0B680324608A83E
:1038D00004F08CF901228DF81E20029A1378702BC7
:1038E0005BD1019B53F8042B0193002A53D1E7E0ED
:1038F00008A8824508BF15F1010F40F0F680254663
:10390000F4E09EB9082611E006B90A2657462DE0D4
:103910000398401C0390204607E00498401E049042
:10392000F6D469464846FFF73FFB01253028F4D01E
:1039300029460A00EAD030220AF8012BE6E703986C
:10394000401C0390204610E0DBB2F2B29342A5D2B5
:1039500019998F4238BF07F8010B0498401E049054
:10396000EDD469464846FFF71FFB012110F1010F16
:1039700094D0C2B2612AA8BFA0F15703E4DA412A69
:10398000A8BFA0F13703DFDA303A0A2A34BFA0F12A
:103990003003FF23D8E7106012E49DF81D20622A4F
:1039A0003AD0682A11D06A2A26D06C2A06D0712A09
:1039B0002AD0742A19D07A2A10D036E0019B53F805
:1039C000042B0193002AE6D17AE0019B53F8042BE3
:1039D0000193002A74D01080FFF7F2BB019B53F8CB
:1039E000042B0193002AD6D16AE0019B53F8042BE3
:1039F0000193002ACFD163E0019B53F8042B01937C
:103A0000002A7FF4C2AE5BE0019B53F8042B0193C4
:103A1000002A7FF4BAAE53E0019B53F8042B0193C4
:103A2000002A4DD01070FFF7CBBB019B53F8042B3D
:103A30000193002AAFD143E0324608A804F02AF9E6
:103A400001228DF81E209DF81D20622AE4D0682AEC
:103A5000BBD06A2A1DD06C2A06D0712A21D0742AC4
:103A600010D07A2A07D024E0019B53F8042B01934D
:103A7000002A90D124E0019B53F8042B0193002AE3
:103A800089D11DE0019B53F8042B0193002A82D1B8
:103A900016E0019B53F8042B0193002A7FF475AEC6
:103AA0000EE0019B53F8042B0193002A7FF46DAEC6
:103AB00006E0019B53F8042B0193002A7FF46BAFBF
:103AC0009FA004F0EBF8251A05E00022694648465D
:103AD00000F040F80546002D3FF772AB249828B15E
:103AE00015F1230F02D1204605E00025B8F1000FA3
:103AF00058BF454628461BB0BDE8F08FCBCCCC0C58
:103B0000686A6C747A4C000063436E5B00000000CE
:103B1000C9B208E003789942A4BF90F802C08C456E
:103B200013DAC01CD21E032A0AD343782D2BF1D0FE
:103B300010F801CB8C4518BF521EF4D105E0521E7F
:103B40002AB110F8013B8B42F9D1012070470020C7
:103B5000704700002DE9F04F92460027BAF1000FA0
:103B600083B080460E464FF0000B25D5B068411C4F
:103B7000B160084601785E2903BF401CB06010F8B0
:103B8000019DB946B56828785D280CBF681C284699
:103B90005D2103F0FFFB002800F0A880411B00918D
:103BA000B0600098032807DB821E2D21681C01F0FD
:103BB00061FF08B14FF0010B7069002805DCBAF114
:103BC000000F14BF6FF0004001203061307F0028EB
:103BD00001BF706850F8044B7060002C08D14FF0A2
:103BE000FF3402487844001D11E000BF9CD2000061
:103BF000307FA8B9F07F98B1716851F8040B7160FB
:103C0000B0F1004FC0F007804FF0FF3444A004F043
:103C100045F8201A6FE0B169884288BF0846B06154
:103C2000CDF80490CDF808B0DDF800901AE03068C7
:103C300001220021C04783461BF1010F3ED0BAF19B
:103C4000000F1ADD01F001FF002837D1307F40B9A5
:103C5000B06990B304F801BB0121B069B177401E8F
:103C6000B0610227F0683169401C491E00293161AA
:103C7000F060DCD54FF0FF3B20E0E7D5029800284C
:103C800001980DD100284A465946284604D101F032
:103C9000F1FE0028DAD111E001F0ECFE70B9D5E7B1
:103CA00000284A465946284604D1FFF731FF00282C
:103CB000CCD103E0FFF72CFFF0E7012740465A463E
:103CC0003146FFF78BF9BAF1000F01D0022F09D06E
:103CD000022F0FD0F80702D41BF1010F06D14FF0CD
:103CE000FF3008E0307F28B9B06908B9002002E051
:103CF00000202070012003B0BDE8F08F0000F07FAD
:103D0000FEFFFF7F7363616E665F733A20626164DA
:103D100020256E20617267756D656E74000000006D
:103D20007363616E665F733A206261642025632C61
:103D30002025732C206F7220255B2073697A650023
:103D40007363616E665F733A2062616420696E74AA
:103D50006567657220617267756D656E740000003D
:103D6000F8B50C0015001E004769386800F087FBA5
:103D7000786800F077FC322003F0BEFFA40014F056
:103D80000C04681E10F00300044354F040042100AA
:103D9000C9B2386800F05BFB002405E03178386870
:103DA00000F055FB761C641C2800C0B28442F5D399
:103DB000786800F05DFC386800F06BFBF1BDF8B589
:103DC0000E0014001D0000214769386800F057FB01
:103DD000786800F047FC322003F08EFFB60016F042
:103DE0000C06601E10F00300064356F0200631005A
:103DF000C9B2386800F02BFB002605E0386800F0F7
:103E000036FB28706D1C761C2000C0B28642F5D3AC
:103E1000786800F02DFC386800F03BFBF1BD10B570
:103E20004469206800F02BFB606800F01BFC322026
:103E300003F062FF0821206800F009FB606800F0D1
:103E400017FC206800F025FB10BD38B504000D00FC
:103E500000208DF800006B46012200212000FFF7B2
:103E6000AEFF9DF8000010F00F0050EA051050F072
:103E700080008DF800006B46012200212000FFF732
:103E80006FFF31BD38B504000D0000208DF8000033
:103E90006B46012200212000FFF791FF002D02D088
:103EA000012D07D00EE09DF8000010F00F008DF8F6
:103EB000000007E09DF8000010F00F0050F05000E7
:103EC0008DF800006B46012200212000FFF748FF1B
:103ED00031BD10B54469206800F0D1FA606800F087
:103EE000C1FB0621206800F0B2FA606800F0C0FB58
:103EF000206800F0CEFA10BDF8B506000C000020D6
:103F0000756901202070564F00213868FEF7FFFECA
:103F10003000FFF784FF05213868FEF7F8FE4028DF
:103F200003D102202070002026E0286800F0A7FAC4
:103F3000686800F097FB1021286800F088FA28686C
:103F400000F095FA0600286800F091FA070057EA99
:103F50000627286800F08BFA060056EA072630028A
:103F600001D556F07F46686800F082FB0020207083
:103F7000286800F08EFA3000F2BD38B50400150054
:103F800000202000FFF761FF29002000FFF7B4FFA9
:103F900032BD38B5040015002000FFF773FF29007B
:103FA0002000FFF7A9FF32BD80B52D480068FEF75D
:103FB000E4FE01BD38B584B004006569002200212B
:103FC0000120FEF743FE2649086026480290264855
:103FD000019000208DF80C000520ADF80E0001AA1C
:103FE0000021A86800F076FB2000FFF772FFE06870
:103FF000002805D1002201210120FEF727FEE06004
:1040000001208DF800006B46012200212000FFF7FF
:10401000A7FEC0208DF800006B4601220121200080
:10402000FFF79EFE40208DF800006B460122022122
:104030002000FFF795FE00208DF800006B4601225E
:1040400003212000FFF78CFE05B030BD0748017E3C
:10405000002903D101210176054941617047000023
:1040600060730020A93F000844100108B4710020CB
:104070001C7300202DE9F84386B0040014220021AF
:1040800001A803F053FE2068DFF82C14884240F0AA
:10409000968000200090DFF82404016851F48051DC
:1040A0000160006810F4805000900098002000909B
:1040B000DFF80C54286850F002002860286810F0DF
:1040C0000200009000983820019002200290002009
:1040D0000390032004900520059001A9DFF8E40374
:1040E000FDF70EFB00200090286850F48000286047
:1040F000286810F4800000900098DFF8CC53DFF8B7
:10410000CC0328605FF0C0666E604020A86000208D
:10411000E8604FF480672F61002068610020A8618B
:104120000020E86100202862002068620320A86265
:104130005FF40008C5F82C805FF40019C5F83090D2
:10414000280003F0FDFDA564AC63DFF88453DFF8BD
:10415000840328606E600020A8600020E8602F6162
:10416000002068610020A8610020E8615FF4003051
:104170002862002068620320A862C5F82C80C5F878
:104180003090280003F0DCFDE564AC6301220521DA
:104190000F2004F0C2F80F2004F0D0F8002205210F
:1041A0000E2004F0BAF80E2004F0C8F80022052111
:1041B000232004F0B2F8232004F0C0F82DE020689A
:1041C000DFF81413884228D100200090DFF80C0398
:1041D000016851F480410160006810F48040009053
:1041E000009800200090DFF8D802016851F4807137
:1041F0000160006810F48070009000980E2001901B
:1042000002200290002003900320049005200590D6
:1042100001A9DFF8CC02FDF773FA07B0BDE8F0831F
:1042200080B500F09DFCAF490968C1F382210429E3
:1042300001D2012103E00222091F12FA01F1B0FBB1
:10424000F1F002BD38B590B0040008A8A6492022BC
:10425000FDF758F9FFF7E4FF05006846A34920225F
:10426000FDF750F9002000E0401C08280BDA6946F1
:1042700051F82010B5FBF1F1A142F5D208A901EBEC
:104280008000406800E0382011B030BD10B58A4988
:1042900002688A4226D1964C21604FF48270606099
:1042A0000020A0600020E060022020610120606109
:1042B0004FF40070A0618F48FFF7C4FFE061002059
:1042C0002062002060620020A0620A20E0622000DC
:1042D00004F04AF800282FD04FF48F71864804F07C
:1042E00047FD29E07C490068884225D1834C216044
:1042F0004FF4827060600020A0600020E060002029
:104300002061012060614FF40070A0617948FFF7DF
:1043100099FFE06100202062002060620020A0621E
:104320000A20E062200004F01FF8002804D040F2C8
:104330003111714804F01CFD10BD02B50021704917
:104340000B680122694604F076F8C0B2002804D058
:104350004FF4A371684804F00BFD01BD80B5684BB4
:104360001B6892B204F067F8C0B2002804D040F293
:104370005311614804F0FCFC01BD80B50021FF2110
:104380008DF800105E490B680122694604F028F997
:10439000C0B2002804D040F27111574804F0E8FC84
:1043A0009DF8000002BD80B50023FF23544B1B681D
:1043B00092B204F015F9C0B2002806D04FF4C271D1
:1043C0004D4804F0D5FC012000E0002002BD38B5C6
:1043D000002802D001281CD037E04A4C207E00285B
:1043E00015D10120207648482060414D2800FFF774
:1043F0004DFF46480560606145482061E06800283F
:1044000005D1002201210120FEF720FCE060200000
:104410001CE0404C207E002815D1012020763E482B
:104420002060364D2800FFF731FF3C480560606191
:1044300037482061E068002805D1002201210120D1
:10444000FEF704FCE060200000E0002032BD80B5F3
:104450000269C9B2406900685268904701BD80B5E1
:10446000036992B2406900689B68984701BD80B5B6
:10447000016940690068C9688847C0B202BD80B55B
:10448000C168002904D05FF0FF31C068FEF73FFC2F
:1044900001BD80B5C168002902D0C068FEF76DFC7F
:1044A00001BD80B51248806C03F055FD01BD80B59B
:1044B0000F4804F05DFA01BD00300140443802406D
:1044C0003038024000040240886A002058640240EC
:1044D000E86A002010640240003800404038024082
:1044E0000020024008380240F00E0108100F0108B9
:1044F0006C00002080841E0090070108C40000208A
:104500001C01002024720020581401088073002030
:1045100020010020407200206414010884730020F0
:104520007047000070B504001C25484E05FB04F1DF
:104530003144097E012903D16C4306EB040084E079
:10454000002C1AD0022C20D02BD3042C25D020D321
:10455000062C2ED029D3082C33D02ED30A2C38D0B9
:1045600033D30C2C3DD038D30E2C42D03DD3102C5D
:104570004BD042D3112C50D056E0354805FB04F106
:104580007050200004F024FC4EE0200004F020FCD9
:104590004AE0200004F01CFC46E0200004F018FC77
:1045A00042E0200004F014FC3EE0200004F010FC87
:1045B0003AE0200004F00CFC36E0200004F008FC97
:1045C00032E0200004F004FC2EE0200004F000FCA7
:1045D0002AE0200004F0FCFB26E0200004F0F8FBB9
:1045E00022E0200004F0F4FB1EE0200004F0F0FBC9
:1045F0001AE0200004F0ECFB16E0164805FB04F17D
:104600007050200004F0E4FB0EE0134805FB04F1B9
:104610007050200004F0DCFB06E0104805FB04F1BC
:104620007050200004F0D4FB0D4905FB04F2324425
:10463000116105FB04F131444860012005FB04F1E0
:10464000314408766C4306EB040070BD485E0020E0
:104650001C14010828140108AC110108BC11010840
:104660004800002080B5016940680968884701BD9D
:1046700080B5016940684968884701BD70B504008C
:104680001C25124E05FB04F13144097E012903D19A
:104690006C4306EB040017E021000029042902D82E
:1046A000200004F0A9FC0A4905FB04F23244116120
:1046B00005FB04F131444860012005FB04F131445D
:1046C00008766C4306EB040070BD0000886800208B
:1046D0004000002080B50369C9B240685B68984714
:1046E00001BD0000F0B585B00500280080B20421AE
:1046F00090FBF1F4ADB2042095FBF0F100FB1155F5
:10470000280080B2002827D1A14E4FF4006130006C
:10471000FDF7E1F8002805D101224FF400613000D7
:10472000FDF7E2F84FF480513000FDF7D4F801288E
:1047300005D100224FF480513000FDF7D5F84FF439
:1047400080613000FDF7C7F8012805D100224FF441
:1047500080613000FDF7C8F8280080B2012827D119
:104760008B4E4FF400613000FDF7B5F8012805D1FC
:1047700000224FF400613000FDF7B6F84FF480518D
:104780003000FDF7A8F8002805D101224FF4805130
:104790003000FDF7A9F84FF480613000FDF79BF879
:1047A000012805D100224FF480613000FDF79CF80C
:1047B000ADB2022D27D1764D4FF400612800FDF7F0
:1047C0008AF8012805D100224FF400612800FDF786
:1047D0008BF84FF480512800FDF77DF8012805D1B2
:1047E00000224FF480512800FDF77EF84FF48061DD
:1047F0002800FDF770F8002805D101224FF48061F0
:104800002800FDF771F802A8624991E82C0080E8C1
:104810002C0068466049D1E90023C0E90023002547
:1048200029E06E4602AF36F8151057F82500FDF75F
:1048300052F801281ED1002236F8151057F825002D
:10484000FDF752F816E00120A840210089B201428C
:10485000E7D06E4602AF36F8151057F82500FDF781
:104860003AF8002806D1012236F8151057F825002D
:10487000FDF73AF86D1C032DE5DB05B0F0BDF0B592
:1048800085B0040002A8454991E82C0080E82C007E
:1048900068464349D1E90023C0E90023002529E007
:1048A0006E4602AF36F8151057F82500FDF713F8DD
:1048B00001281ED1002236F8151057F82500FDF703
:1048C00013F816E00120A8402100C9B20142E7D048
:1048D0006E4602AF36F8151057F82500FCF7FBFFBF
:1048E000002806D1012236F8151057F82500FCF7EC
:1048F000FBFF6D1C032DE5DB05B0F0BD38B50400F2
:10490000A4B2082094FBF0F100FB1144204D4FF4B9
:1049100000612800FCF7DFFF012805D001224FF4D9
:1049200000612800FCF7E0FF4FF480512800FCF7FD
:10493000D2FF012805D001224FF480512800FCF756
:10494000D3FF4FF480612800FCF7C5FF012805D193
:1049500000224FF480612800FCF7C6FF2000C0B29F
:10496000FFF78DFF31BD10B5094C00224FF4005107
:104970002000FCF7B9FF00224FF480412000FCF733
:10498000B3FF00224FF400412000FCF7ADFF10BD43
:10499000001C024040140108F01501084C140108E5
:1049A000F81501082DE9F04104000E00002C01D19A
:1049B000012092E0634D286810F00700B04207D252
:1049C0002E70286810F00700B04201D0012084E06A
:1049D0002078800716D52078400704D55A4801680A
:1049E00051F4E05101602078000704D55648016871
:1049F00051F46041016054490A6832F0F002A06845
:104A000002430A602078C00735D56068012805D1C7
:104A10004E480068800313D401205EE060680228DD
:104A200002D06068032805D148480068800107D497
:104A3000012052E045480068800701D401204CE085
:104A4000414F39688908890060680143396004F082
:104A5000C1FB8046386810F00C006168B0EB810F34
:104A600009D004F0B7FBB0EB080041F2893188426D
:104A7000F0D3032031E0286810F00700864207D207
:104A80002E70286810F00700B04201D0012024E009
:104A90002078400706D52C490A6832F4E052E068D5
:104AA00002430A602078000707D52748016831F4DF
:104AB0006041226951EAC201016000F051F82449C5
:104AC000214A1268C2F30312895CC8402149086078
:104AD0002148006804F084FB0020BDE8F0811D48F7
:104AE0000068704780B5FFF7FAFF1C49164A126844
:104AF000C2F38222895CC84002BD80B5FFF7EFFF98
:104B00001649114A1268C2F34232895CC84002BD9C
:104B10000F2202600C4A136813F00303436013680A
:104B200013F0F0038360136813F4E053C36012685A
:104B3000D20812F4E05202610248006810F0070047
:104B400008607047003C02400838024000380240CC
:104B50002C1301085402002050020020D016010836
:104B600010B500200020002000201948006810F037
:104B70000C00002804D0042804D0082804D025E024
:104B8000144824E0144822E0144C226812F03F023A
:104B90002068400209D52068C0F388100E49A1FBA7
:104BA0000001002300F01CF808E02068C0F3881022
:104BB0000849A1FB0001002300F012F82168C1F3AD
:104BC0000141491C4900B0FBF1F000E0014810BD73
:104BD000083802400024F40040787D010438024087
:104BE000BBBBE1B1B2F5803F80F07E80022A1ED9C6
:104BF0008C46B1FBF2F102FB11C31B0443EA1043E4
:104C0000B3FBF2FC02FB1C3380B240EA0343B3FB6C
:104C1000F2F002FB103240EA0C4000237047022AF7
:104C200005D98446B0FBF2F002FB10C270474AB1CE
:104C300005D100F0010249085FEA30007047002208
:104C40000023704704F028BB0B0002000021002065
:104C50007047904271EB030CF6D3B3F5803F2FD22F
:104C6000F0B5B3FA83F7B1FA81F4A7F10F0E3D1B4B
:104C70005340CEF1200602FA0EF2F3415340B5F153
:104C80000F0746D80F3C2C444140C4F12006A040F9
:104C9000F1414140B1FBF3F603FB1611A2FB0645BF
:104CA000001BA94102D2761E8018594180EA0102F8
:104CB00021FA0EF362FA0EF200215A403046F0BD9E
:104CC00030B4B1FBF3FC03FB1C11A2FB0C45001B31
:104CD000A94103D2ACF1010C8018594130BC024605
:104CE0000B46604600217047B2F1807F65D3F0B576
:104CF000B2FA82F7B1FA81F4C7F10F063D1B22FA2E
:104D000006F307F1110EF24120355A40B5F10F07B5
:104D1000B8D94140C4F12006A040F1414140B1FB67
:104D2000F3FC03FB1C11A2FB0C45001BA94103D2A1
:104D3000BCF1010C801859410F2F12D30F3FC9034A
:104D400041EA5041B1FBF3F603FB1611A2FB064505
:104D5000D4EBC030A94102D2761E8018594146EAF0
:104D6000CC3C07B34140C7F12006B840F141414077
:104D7000B1FBF3F603FB1611A2FB0645001BA9418C
:104D800002D2761E8018594180EA010221FA0EF300
:104D9000C7F1200462FA0EF20CFA07F05A402CFA1E
:104DA00004F13043F0BD80EA010221FA0EF3002144
:104DB00062FA0EF260465A40F0BD8C46B1FBF2F149
:104DC00002FB11C31B0243EA1063B3FBF2FC02FBBC
:104DD0001C331B024CEA002043EA1063B3FBF2FCD5
:104DE00002FB1C331B024CEA002043EA1063B3FBB6
:104DF000F2FC02FB1C331B024CEA002043EA106366
:104E0000B3FBF2FC02FB1C324CEA0020002370478B
:104E100008B584B00023039300290EBF01930190CD
:104E2000491E0291009301A904AB07487844183049
:104E300004F034FA019909B100220A70002858BF21
:104E4000039805B000BD00BF43C7FFFF10B50100C8
:104E5000214C224805F068FE20602068002800D11F
:104E6000FEE710BD80B501001B48006805F071FE2B
:104E700002BD80B501001848006805F07DFE01BD47
:104E800080B54FF48050FFF7E1FF5FF4E130FDF7AC
:104E900077F81348FDF784F905F0C4FE06F09CF896
:104EA00006F08EF906F078FB06F00FFC06F01AFD0E
:104EB00002F014FFFCF7BCF903F034FF002802D025
:104EC0000848FDF76DF9FEE780B5074A002107485D
:104ED000FDF742FE01BD0000E0730020C440002049
:104EE0007C14010888140108400E0108814E000856
:104EF0003D483E494161704738B50C0045696868D6
:104F0000FFF7B0FB2100C9B22868FFF7A0FA686874
:104F1000FFF7AEFB31BDF8B50C0015001E00476968
:104F20000621FFF7E9FF7868FFF79CFB022138684C
:104F3000FFF78DFA2100090AC9B23868FFF787FA2E
:104F40002100C9B23868FFF782FA0120FDF766FE3A
:104F5000320092B229003868FFF781FA7868FFF7CB
:104F600087FBF1BDF8B50C0015001E004769002055
:104F70007868FFF777FB03213868FFF768FA2100AC
:104F8000090AC9B23868FFF762FA2100C9B2386865
:104F9000FFF75DFA002404E03868FFF768FA285547
:104FA000641C300080B28442F6D37868FFF760FB5F
:104FB000F1BD38B5446900206068FFF753FB052157
:104FC0002068FFF744FA2068FFF751FA050060688F
:104FD000FFF74EFB2800C0B232BD80B54169FFF734
:104FE000E8FF0349087001BD5C7200203C7300209B
:104FF0007F74002010B586B004001422002168469A
:1050000002F094FE2068DFF8741788422AD100204D
:105010000590DFF86C07016851F01001016000682D
:1050200010F010000590059800200590DFF8540757
:10503000016851F001010160006810F00100059065
:1050400005984FF4C060009002200190002002906B
:1050500003200390072004906946DFF82C07FCF733
:105060004FFB5DE02068DFF8241788422AD100203A
:105070000590DFF81C07016851F480210160006889
:1050800010F480200590059800200590DFF8F406C4
:10509000016851F002010160006810F00200059003
:1050A00005984FF44060009002200190002002908B
:1050B00003200390072004906946DFF8D806FCF728
:1050C0001FFB2DE02068DFF8D016884228D1002091
:1050D0000590DFF8AC06016851F02001016000681E
:1050E00010F020000590059800200590DFF8940648
:1050F000016851F004010160006810F0040005909F
:105100000598C0200090022001900020029003200A
:105110000390082004906946DFF88006FCF7F0FA57
:1051200006B010BD10B5DFF87846DFF850062060F5
:105130005FF4E13060600020A0600020E0600020AB
:1051400020610C2060610020A0610020E06120004F
:1051500006F0E2FB2068406950F0010021684861D8
:1051600010BD80B5DFF83C06DFF8201601605FF463
:10517000E1314160002181600021C16000210161B5
:105180000C214161002181610021C16106F0C4FB55
:1051900001BD80B5DFF81006DFF8FC1501605FF493
:1051A000E1314160002181600021C1600021016185
:1051B0000C214161002181610021C16106F0ACFB3D
:1051C00001BD38B500200090DFF8B805016851F442
:1051D00080010160006810F4800000900098DFF802
:1051E000CC45DFF8CC0520605FF0006060604020B7
:1051F000A0600020E0604FF48060206100206061CA
:105200000020A0610020E061002020620020606298
:10521000200002F095FDDFF888556C63A56300223D
:105220000521462003F079F8462003F087F8012293
:105230000621252003F071F8252003F07FF80122D4
:10524000DFF87015280006F029FC31BD38B50020C4
:105250000090DFF83005016851F40011016000682A
:1052600010F4001000900098DFF84C45DFF84C0572
:1052700020605FF0006060604020A0600020E0607F
:105280004FF480602061002060610020A061002058
:10529000E0610020206200206062200002F050FDEA
:1052A000DFF800556C63A563002205210E2003F092
:1052B00034F80E2003F042F801220521272003F0E4
:1052C0002CF8272003F03AF80122DFF8F414280024
:1052D00006F0E4FB31BD38B500200090DFF8A404EF
:1052E000016851F480010160006810F480000090B2
:1052F0000098DFF8D044DFF8D00420605FF0206031
:1053000060604020A0600020E0604FF48060206179
:10531000002060610020A0610020E0610020206288
:1053200000206062200002F00BFDDFF87C546C630B
:10533000A56300220521452002F0EFFF452002F081
:10534000FDFF01220521472002F0E7FF472002F080
:10535000F5FF0122DFF87414280006F09FFB31BD31
:1053600070B504008C25DFF86864002005FB04F1AB
:1053700031448880002005FB04F13144488000223C
:1053800000218020FDF762FC6C4306EB0401C1F8AC
:10539000880070BDF8B5040000201C25DFF83464D7
:1053A00005FB04F03044007E012803D16C4306EB7A
:1053B0000400ACE0002C03D0022C68D039D39EE06E
:1053C000DFF8140405FB04F1705005FB04F03044D1
:1053D0008460DFF8087407EBC40005FB04F1314476
:1053E000486105FB04F03044C06800280AD100225F
:1053F00001210120FDF72AFC002803D005FB04F160
:105400003144C86007EBC4004068002809D100227D
:1054100000210120FDF71AFC002802D007EBC4018F
:1054200048602000FFF79CFFFFF77CFEFFF7C9FEF6
:1054300065E0DFF8AC0305FB04F1705005FB04F0F8
:1054400030448460DFF8947307EBC40005FB04F17B
:1054500031444861002201210120FDF7F7FB0028BB
:1054600003D005FB04F13144C86000220021012073
:10547000FDF7ECFB002802D007EBC40148602000D8
:10548000FFF76EFFFFF76DFEFFF7E0FE37E0DFF896
:10549000540305FB04F1705005FB04F030448460B4
:1054A000DFF8387307EBC40005FB04F131444861B1
:1054B00005FB04F03044C06800280AD10022012115
:1054C0000120FDF7C3FB002803D005FB04F13144A4
:1054D000C86007EBC4004068002809D10022002101
:1054E0000120FDF7B3FB002802D007EBC4014860A0
:1054F0002000FFF735FFFFF74CFEFFF7ECFE012021
:1055000005FB04F1314408766C4306EB0400F2BD60
:1055100070B504000D00002A05D0022A08D004D37B
:10552000032A08D008E0002606E04FF4C06603E036
:105530004FF4806600E02669200006F028FA01009A
:10554000C9B2002901D0C0B205E065602661200023
:1055500006F0E2F9C0B270BDF8B504000E00170005
:105560006569002C02D0207E002800D126E0E0688A
:10557000002804D05FF0FF31E068FDF7C8FB3A0077
:1055800092B23100286806F0A7FA0100C9B20029DA
:1055900008D1686800280BD05FF0FF316868FDF71C
:1055A000B6FB05E0C0B20100DFF83C0206F06CFF7C
:1055B000E068002802D0E068FDF7DFFBF1BD2DE9CF
:1055C000F84304000D0016001F0000F093FC5FF08C
:1055D000000801E0B7EB090700F08CFC81463900B8
:1055E000D4F88800FDF793FB002819D100F082FC65
:1055F000B0EB0909A0882044807905F80800A0884C
:10560000401C802190FBF1F201FB1200A08018F1F8
:105610000108B94503D2300080B28045DAD1FFE7F6
:105620004046BDE8F28338B592B2694C85688C205B
:10563000454304EB0500FFF7C2FF80B232BD80B5E1
:1056400013004069C9B2002904D1032259680068D7
:10565000FFF75EFF01BD80B5514806F091FA01BD2C
:1056600080B5504806F08CFA01BD80B54E4806F072
:1056700087FA01BD80B50168404A914204D157487C
:105680004068FDF77AFB10E00168404A914204D17E
:105690005248C068FDF771FB07E000683E49884248
:1056A00003D14E484069FDF768FB01BD10B50021EC
:1056B0000168324A914216D1454C608880B2401C44
:1056C000802190FBF1F201FB12006080D4F8880089
:1056D000FDF753FB6088012280B22044811D3048D1
:1056E00006F0DCF93CE00168284A91421AD1384CB6
:1056F000B4F88E0080B2401C802190FBF1F201FBD7
:105700001200A4F88E00D4F81401FDF736FBB4F8AB
:105710008E00012280B2204410F19201214806F04F
:10572000BDF91DE000681C49884219D1284CB4F825
:105730001A0180B2401C802190FBF1F201FB1200A3
:10574000A4F81A01D4F8A001FDF717FBB4F81A0168
:10575000012280B2204410F58F71134806F09EF9A3
:1057600010BD80B501680968016849680168034A8D
:10577000914201D106F04FFB01BD00000010014035
:1057800044380240303802400000024000480040E7
:10579000403802400004024000140140000802406A
:1057A0003401002078010020BC010020486B00205B
:1057B000B86402403E620020A86B0020586002409E
:1057C000CA620020086C0020A064024056630020DA
:1057D00038620020E06D0020DC110108000200208A
:1057E000EC110108FC110108880F01080078C0B213
:1057F000704701707047F8B504005FF4611009014B
:10580000B0FBF1F58B4F57F82400C01CFFF7EEFFFB
:10581000060056F08001C9B257F82400C01CFFF7FB
:10582000E8FF2900C9B257F82400FFF7E2FFADB244
:105830002D0A2900C9B257F82400401CFFF7D9FFF0
:1058400016F07F06310057F82400C01CFFF7D1FF87
:10585000F1BD70B55FF4E13184685FF46110090156
:1058600090FBF1F5734E802156F82400C01CFFF721
:10587000C0FF2900C9B256F82400FFF7BAFFADB245
:105880002D0A2900C9B256F82400401CFFF7B1FFC9
:10589000032156F82400C01CFFF7ABFF072156F880
:1058A0002400801CFFF7A5FF002156F82400001DEE
:1058B000FFF79FFF70BD70B504000D005D4E56F8F8
:1058C0002400401DFFF792FF8006F7D52900C9B2DA
:1058D00056F82400FFF78DFF70BD704770B50400C7
:1058E0000D00544EA06856F82000401DFFF77EFFC3
:1058F000C00707D5A06856F82000FFF777FF28708B
:10590000012000E0002070BD704770B504001C2528
:10591000494E05FB04F03044007E012803D16C435E
:1059200006EB040010E005FB04F0304484604348BB
:1059300005FB04F13144086105FB04F03044FFF736
:1059400088FF6C4306EB040070BD70B504000D00C9
:10595000160005E0761E2978A068FFF7ACFF6D1CE5
:10596000300080B20028F5D170BD70B504000D0084
:10597000304EA06856F82000401DFFF737FFC007E3
:1059800007D5A06856F82000FFF730FF28700120E7
:1059900000E0002070BD80B5C9B2002903D1516874
:1059A0008068FFF728FF01BD70B504000D00214E8F
:1059B000A06856F82000401DFFF718FFC00707D564
:1059C000A06856F82000FFF711FF2870012000E0C2
:1059D000002070BD2DE9F04704000D0016001F00E7
:1059E0005FF0000800F086FA8146DFF848A0A06862
:1059F0005AF82000401DFFF7F9FEC00709D5A0683E
:105A00005AF82000FFF7F2FE414689B2685418F1B7
:105A100001084046310080B289B2884209D000F0C6
:105A200069FAB0EB09008742DFD2404680B2BDE898
:105A3000F087FAE7FC020020586600201C030020D3
:105A400080B501690969884701BD10B5044601F0B8
:105A5000D5FC01462046096ABDE81040084710B54C
:105A6000044601F0CBFC01462046896ABDE810409F
:105A700008470000C9B2830706D0521E22D310F88F
:105A8000013B9942F7D11FE0083A13D302F1040217
:105A900041EA012141EA014150F8043B121F21BFB4
:105AA0004B40A3F1013C2CEA030C1CF0803FF3D0E7
:105AB000C9B2001F083210F8013B521E28BF91EAFC
:105AC000030FF8D818BF0120401E704778B585B085
:105AD00005000B98002807D1502080F31188BFF3F0
