:020000040800F2
:10000000E8130020456B0008A1580008D9580008E3
:10001000FD590008015A0008055A000800000000B8
:10002000000000000000000000000000C1610008A6
:10003000095A000800000000696100084138000802
:10004000B16B0008B56B0008B96B00081F5A0008B7
:10005000BD6B0008C16B0008E5510008E7510008BE
:10006000E9510008EB510008ED510008C56B00088C
:10007000C96B0008CD6B0008C54F0008255D00085E
:10008000D16B0008D56B0008D96B0008DD6B000848
:10009000E16B0008E56B0008E96B0008EF51000810
:1000A000ED6B0008DF450008E9450008F16B00082A
:1000B000F56B0008F96B00080B5A0008FD6B00088F
:1000C000016C0008056C0008096C0008315D00082F
:1000D0000D6C0008F5360008116C0008FF360008AA
:1000E000F1510008156C0008196C00081D6C00081F
:1000F000F3450008216C0008256C0008296C0008F5
:100100002D6C0008DB510008316C0008356C0008CC
:10011000396C00083D6C0008416C0008456C000813
:10012000496C00084D6C0008516C0008D151000862
:10013000556C0008155A0008596C00085D6C0008E1
:10014000616C0008656C0008696C00086D6C000843
:10015000716C000873500008B94F00080937000897
:10016000756C0008796C00087D6C0008816C0008D3
:10017000856C0008896C00088D6C00080000000088
:10018000916C0008956C00082DE9F14FB0B09246D3
:1001900004910DF142013A9A2B9199464A70002040
:1001A0000AE01AF8011B0498309A9047002804903E
:1001B00000F0B4860D98401C0D909AF8000050B1E4
:1001C0002528EED1002100220791089209910A9278
:1001D0000B910C9204E00D9800F0A2BE41F00101D9
:1001E0001AF8010F2028F9D023280CD02B2804D08E
:1001F0002D2805D0302809D00BE041F00201EFE7AF
:1002000041F00401ECE741F00801E9E741F0100199
:10021000E6E72A280FD1D9F8002052F8040BC9F8D4
:10022000002000280F9003D540420F9041F00401B8
:100230000AF1010A14E00F92DFF824380AE00F985F
:10024000984205DA00EB800402EB4402303A0F9248
:100250000AF1010A9AF80020A2F130000A28EED330
:100260009AF800002E2803D04FF0FF320E9229E0BA
:100270001AF8010F2A2809D1D9F8000050F8042BE8
:10028000C9F800000E920AF1010A1BE02D280CBFEC
:100290000AF1010A002000220E92DFF8C4470BE0A9
:1002A00040B90E9AA24205DA02EB820503EB450340
:1002B000303B0E930AF1010A9AF80030A3F13002A4
:1002C0000A2AEDD3ADF84010DFF89807784400F221
:1002D00094709AF8001000F055FF08B11AF8010B5D
:1002E0008DF842009DF84200682805D19AF8000078
:1002F00068280CD1622106E06C2804BF9AF800003F
:100300006C2804D171218DF842100AF1010A12A85B
:1003100006901AF801BBBBF125012CD01C3900F066
:10032000D081091F022940F2CC81133900F02185C8
:10033000093900F0C681891E00F0B685491E00F01B
:100340006385491E022940F2BC81091F00F05C85CB
:10035000491F00F02881491E00F00B85491E00F05E
:10036000D080C91E0DD0891E00F00385C91E00F083
:10037000008500F0A4BD25238DF84830012100F050
:10038000A9BDD9F8000050F8044BC9F80000002CB2
:10039000059440F0A3802B994878002800F09980BC
:1003A0004FF0FF340FF6803000F004FF201A40F0C9
:1003B000B58500F090BD6D1E40F0A7853096079D75
:1003C00012AF75B1309E17F8012B02A9304600F02C
:1003D00071FE002801D46D1EF5D10028309640F042
:1003E0009D850A9D3020002D8DF804000CDD309E87
:1003F000012301AA02A9304600F06CFE002840F05B
:100400008D856D1EF4D13096059F089D75B1309E87
:1004100017F8012B02A9304600F04CFE002801D449
:100420006D1EF5D10028309640F078850B9D302068
:10043000002D8DF804000CDD309E012301AA02A9D5
:10044000304600F047FE002840F068856D1EF4D16C
:10045000309605980899099D471875B1309E17F890
:10046000012B02A9304600F025FE002801D46D1EA4
:10047000F5D10028309640F051850C9D3020002D9C
:100480008DF804000CDD309E012301AA02A930463C
:1004900000F020FE002840F041856D1EF4D130961A
:1004A0009DF8400041077FF588AE2020002C8DF894
:1004B00004007FF782AE309D012301AA02A92846DD
:1004C00000F008FE002840F02985641EF4D1309524
:1004D00073E60FF66040059000F0FDBC0E9D002D08
:1004E00004D5204600F086FE044607E02A46204652
:1004F00000F09CFE002814BF041B2C46089400F05A
:10050000EABCD9F8001051F8040BC9F8001020F02B
:100510000004002121F0FF3512ABCDE9024505931F
:10052000DDE9022306993C2413B90AB90E9898B163
:1005300002F00F053035641EEEB23A2EA8BF273503
:10054000120942EA03721B090D5508BF002A03D0A5
:1005500005980D19A842EBD308190590C4F13C0287
:100560000E98089282420ADABDF84010821A4FF6BD
:10057000EF7001400A92ADF8401000F0ACBC0028CA
:1005800040F1A9849DF8400000F01400102840F0CC
:10059000A2840F9B07990A985B1A1B1A9A1A002AC1
:1005A00040F39984E3E32B99487820B14FF0FF346E
:1005B0000FF65030F8E69DF84200622861D06828B6
:1005C00017D06A283FD06C2806D0712847D07428ED
:1005D0002CD07A281DD064E0D9F8001051F8040B13
:1005E000C9F80010002868D14FF0FF340FF62C3006
:1005F000DAE6D9F8001051F8040BC9F8001020B958
:100600004FF0FF340FF61430CEE60D99018000F064
:1006100062BCD9F8001051F8040BC9F8001000288A
:100620004BD14FF0FF340FF6F420BDE6D9F800109F
:1006300051F8040BC9F8001000283ED14FF0FF34E8
:100640000FF6D820B0E6D9F8001051F8040BC9F81D
:10065000001080B94FF0FF340FF6C020A4E6D9F89F
:10066000001051F8040BC9F8001020B94FF0FF3406
:100670000FF6A82098E60D9AD317C0E9002300F0E2
:100680002ABCD9F8001051F8040BC9F8001020B9A1
:100690004FF0FF340FF6842086E60D99017000F0CC
:1006A0001ABCD9F8001051F8040BC9F8001020B991
:1006B0004FF0FF340FF6642076E60D99016000F0EC
:1006C0000ABCD9F80020D21D22F00702C9F8002088
:1006D000D2E900010832C9F80020CDE90201C80FB3
:1006E00002D007982D210AE0BDF84000810702D50D
:1006F00007982B2103E0C00705D50798202112AAEF
:100700001154401C079012A807994BF0200243187F
:10071000DDE90201CDE92C01612A059321AC0BD062
:100720000E98002802D506200E9005E001BF4BF080
:100730002000672801210E91DDE9020148004015E3
:10074000401C0A460DD109030BD0ABF16105032013
:100750001A2D089002D20FF6E0110DE00FF6DC1111
:100760000AE070B912030CD1ABF1610503201A2D18
:1007700008901AD30FF6CC110322184600F082FD20
:10078000A9E3DDE90201CDE92E01DDE92E2323F005
:100790000047B7F5801F22F000060DD20022002F7F
:1007A00008BF002E009203D116E00FF69411E3E784
:1007B0006A4600F0BBFD0FE0DFF8D808DFF8D81874
:1007C00000EB17500090DDE92E234FF0FF30194069
:1007D000DFF8C87810403943CDE902014BF0200022
:1007E00061280DD1059830210170821CBBF1610F89
:1007F00005920CBF7821582141700798801C079002
:10080000DDE9020120F0000231F0004308BF002AB8
:1008100002D10026002567E14BF02008B8F1610FF6
:1008200040F0B4800E98002847BF21210191401C60
:100830000190019FDDE92C017F1C00220023DDE9EE
:10084000024500F0ABFD00998DF8842038BF85F09B
:100850000045091F002F00910DF1850653DD20464C
:1008600029460022002300F0B1FD4CD24800400D83
:1008700000F11C0312D0002B10DD40F2FF70834208
:1008800006DBDFF81C1805F000421143002011E0E0
:100890006FF31E5141EA035120460BE024F00000A3
:1008A00035F0004108BF00280FBF29461C22294609
:1008B00000F0A4FD04460D4600F03EFEFF1F002F91
:1008C000804609DD00F056FE02460B4620462946CA
:1008D00000F062FE04460D46F01D0721B8F1000F3E
:1008E0000CDD491E5EBF08F00F0200F8012D4FEA33
:1008F0002818F3D502E0002200F8012D491EFAD590
:10090000C61D002FABDC0DF18500361A019886421A
:10091000D8BF304600280DF1850430D4B04206DA45
:100920000DF185010A5C082AA8BF0F2100DA002119
:10093000024621AB134400E0401E13F80159521E39
:100940008D42F9D00F2904D10DF185018B5C5B1C20
:100950008B54002A04D50099091D21AC401C00913C
:10096000411E0CD46218ABF13A0613783033DDB275
:100970003A2DA8BFF318491E02F80139F5D50E9992
:10098000002940F1AF80421E0E92ABE00099DFF8E3
:10099000142747F29750414391FBF2F2DDE92C45D1
:1009A000009225F00045D2F1070204DD20462946D9
:1009B00000F04DFB0BE052420020DFF8EC1600F097
:1009C00046FB02460B462046294600F057FE0446E9
:1009D000B8F1660F0E9806BF009F0A3706273F182A
:1009E000142FC8BF142730200D468DF884000DF158
:1009F0008506002F38DD2046294600F063FF0146BA
:100A00000A4606F1080304200A26B2FBF6F606EBB6
:100A1000860EA2EB4E02303203F8012C0A22B6FBFE
:100A2000F2F202EB820EA6EB4E063036401E03F8C1
:100A3000026DE9D1083F002F03F10806D9DD084611
:100A400000F054FF02460B462046294600F0A4FD64
:100A50000022DFF8583600F057FF04460D46CAE77B
:100A6000CBCCCC0C286100000DF18500361A0DF1BD
:100A7000850404E00098401E761E0090641C2078D7
:100A80003028F7D0B8F1660F02D10099491C04E074
:100A9000B8F1650F0CBF012100210E98081886429D
:100AA000B8BF701E00281DD4B04204DA215C34297E
:100AB000C8BF392100DC30210246631E9D1800E0CA
:100AC000401E15F80169521E8E42F9D0392902D113
:100AD000A15C491CA154002A04D50099491C1C465C
:100AE000401C00910646009D00F0E0FF406A077838
:100AF000DDF8388030B2002802DC01260FF24864AD
:100B00004BF02000662808BF6D1C16D0672846D120
:100B100028B210F1040F48DB404546DA9DF840004A
:100B20006D1C010703D430B24045B8BF804628B2DF
:100B3000B8EB000848BF4FF000080FFA85FBBBF187
:100B4000000F00F3B5800898411C089130220599E8
:100B50000A54B8F1000F03DC9DF84000010704D5EA
:100B60000898411C089105990F5418EB0B0FB8BF5A
:100B7000C8F100052DB268420B90A84432B29045EE
:100B8000B8BF4646059B089836B2099632462146BC
:100B9000184400F077FBA8EB06000C90D2E0BBF104
:100BA000610F17D14FF0700B19E030B2404504DAF5
:100BB0009DF840100A0758BF8046B8F1010848BFA9
:100BC0004FF00008BBF1670F14BF4FF0450B4FF01B
:100BD000650B04E0BBF1410F08BF4FF0500B0898C4
:100BE000411C0891B8F1000F059914F8012B0A5423
:100BF00003DC9DF8400001071AD50898411C0891B4
:100C0000B8F1000F05990F5412DD761E30B2804501
:100C10000598089BB8BF464632B22146184400F0FA
:100C200031FB089936B271180891A8EB06000B90B9
:100C300005980899084429B2002980F800B003D427
:100C40002B224270821C04E02D2242700D46821C31
:100C50006D4200212CAB28460AE004460A2094FB92
:100C6000F0F000EB8005A4EB450403F8014B491CB0
:100C700000B20028F1DC012906DC4BF020006528D9
:100C800004BF302002F8010B00292CAB08D1302022
:100C900002F8010B06E0491E585C303002F8010BE7
:100CA0000029F8DC059908980844121A099249E0CD
:100CB00030B229B288421CDA0598089B32B221462C
:100CC000184400F0DFFA089936B27118ABEB06064B
:100CD000B8F1000F08910B9603DC9DF84000020765
:100CE00004D5059847540999491C0991CDF83080DD
:100CF00028E00598089B2AB22146184400F0C2FA61
:100D00000898761B5844B8F1000F089003DC9DF852
:100D100040100A0703D5411C089105990F5430B2C1
:100D200080450598089BB8BF464632B204EB0B01DC
:100D3000184400F0A7FA089836B230180890A8EBCB
:100D400006000B909DF8400000F01400102840F0C1
:100D5000C280079A08990B988A18099982180C98EA
:100D60008A1882180F98824280F2B580821A0A92FD
:100D7000B1E09DF84200622808D068280ED06A28A9
:100D800014D06C281FD0712810D01CE0D9F80010A6
:100D900051F8040BC9F80010C0B21AE0D9F80010DD
:100DA00051F8040BC9F8001080B212E0D9F8002005
:100DB000D21D22F00702C9F80020D2E90001083252
:100DC000C9F8002006E0D9F8001051F8040BC9F862
:100DD00000100021CDE902019DF8400001075AD51D
:100DE000DDE90223002B08BF002A54D04BF020007D
:100DF000782850D1079812A930220A54401C431C6D
:100E0000079301F800B046E09DF84200622808D040
:100E100068280ED06A2814D06C281FD0712810D0F2
:100E20001CE0D9F8001051F8040BC9F8001040B2CA
:100E30001AE0D9F8001051F8040BC9F8001000B2FC
:100E400012E0D9F80020D21D22F00702C9F80020D4
:100E5000D2E900010832C9F8002006E0D9F80010F4
:100E600051F8040BC9F80010C117CDE9020100299F
:100E700002D507982D210AE0BDF84000810702D570
:100E800007982B2103E0C00705D50798202112AA57
:100E90001154401C079012A807990144059102A81B
:100EA000594600F04FF816E001200790D9F80000ED
:100EB00050F8041BC9F800008DF848100BE02521FC
:100EC0000122BBF1000F8DF84810079203D08DF876
:100ED00049B0022107910F9A07980A990C9C121A9F
:100EE0000898521A0B99121A0998521A121A9DF858
:100EF0004000141B41073FF562AA2020002C8DF80A
:100F000004007FF75CAA309E2546012301AA02A9AE
:100F1000304600F0DFF800283FF44DAA4FF0FF30D4
:100F200031B0BDE8F08F00007072696E74665F7357
:100F30003A2062616420257320617267756D656E69
:100F4000740000002DE9FC4307466F293E6908BF85
:100F5000082405D041F02000782814BF0A2410246A
:100F60003C25D7E90023642918BF69299046994692
:100F700005D1002B03D5D8F1000869EB4909B9F177
:100F8000000F08BFB8F1000F0CD1386B50B9082C16
:100F900039D197F83800010735D530203B2586F840
:100FA0003B0030E08DF80010404649462246E317EA
:100FB00000F080FD3032D0B26D1E3A28019504DB7E
:100FC0009DF80000A0F151018A187255404649462B
:100FD0002246E31700F06EFD80465FEA010908BF74
:100FE000B8F1000F03D0F86871198842DCD3082CDF
:100FF00009D197F83800010705D5705D302802D077
:101000006D1E30207055C5F13C02BA617119F9604E
:10101000386B824208DA821A3A624FF6EF70398FE3
:1010200001403987BDE8F38300280ED597F83800D2
:1010300000F01400102808D17B6B7969386A5B1ABC
:101040001B1A9A1A002AC8BF3A62BDE8F3832DE939
:10105000D04306460F4614464FF00008DFF8509084
:1010600012E0E00707D542464B463046394600F0CD
:101070004BFC06460F464046494642464B4600F06A
:1010800043FC641080468946002CEAD1304639463C
:10109000BDE8D08302FCFFFFFFFF0F800000E03FB0
:1010A0000000F07FA08601000000F03F84D7974148
:1010B0000000244010B503460C461146A06898472E
:1010C000A06020B1E06A401CE062002010BD4FF03B
:1010D000FF3010BDF8B505460E4617461C460020E9
:1010E0005CB117F8011BB068A847B06030B1F06A76
:1010F000401CF0620020641EF3D1F2BD4FF0FF30BF
:10110000F2BD00007072696E74665F733A20256EDE
:1011100020646973616C6C6F776564007072696ECE
:1011200074663A2062616420256E20617267756D75
:10113000656E7400000000006E616E004E414E004E
:10114000696E6600494E4600300030B4002513E059
:1011500050F8042BD30744BFA9F101039A18091FC3
:10116000042942F8045BFAD213468C0744BF158069
:101170009B1CC90748BF1D7050F8041B0029E7D10C
:1011800030BC7047C9B202788A421AB11CBF10F84D
:10119000012FF9E718BF002070478268521C826057
:1011A000426832B10268531C036011704168491EE5
:1011B0004160704780B500B906A005490B681BB1B6
:1011C00022220021984701E000F08CFD222002BD80
:1011D000A80F0020636F6E73747261696E7420686B
:1011E000616E646C65723A20626164206D65737330
:1011F0006167650000F10103810704D010F8011B4D
:10120000820781B1FAD10268A2F10131914311F054
:10121000803104BF50F8042FF6E709BAB1FA81F122
:1012200000EBD100401CC01A70472E00C9B28307E2
:1012300006D0521E22D310F8013B9942F7D11FE08D
:10124000083A13D302F1040241EA012141EA0141C3
:1012500050F8043B121F21BF4B40A3F1013C2CEA84
:10126000030C1CF0803FF3D0C9B2001F083210F805
:10127000013B521E28BF91EA030FF8D818BF012086
:10128000401E704762B38B0708D0521E11F8013B15
:1012900000F8013B00F024808B07F6D1830740F073
:1012A000208000BF103A07D330B4B1E83810103AAC
:1012B000A0E83810F9D230BC530724BFB1E80810B9
:1012C000A0E8081044BF51F8043B40F8043BD207A3
:1012D00024BF31F8022B20F8022B44BF0B78037097
:1012E0007047121F17D35B0009D151F8043B20F857
:1012F000023B1B0C121F20F8023BF6D20BE051F808
:10130000043B00F8013B1B0A20F8023B1B0C121F98
:1013100000F8013BF3D238BF121D521E24BF11F852
:10132000013B00F8013BF8D87047000010B51446A7
:1013300000F002F8226010BDC1F30A5343B14A0025
:1013400012F5001F28D2A3F2FE32A1EB0251704722
:1013500050EA410C20D001F0004C31EA0C01B1FA06
:1013600081F204BFB0FA80F3D2180B3AB2F1200335
:101370002CBF00FA03F1914041EA0C013EBFC2F1DB
:10138000200C20FA0CF319439040524240F2FD33F6
:10139000D21A01EB03517047002270474FF4001C32
:1013A0001CEB410F94BF1CEB430F09E041EA030C17
:1013B00050EA4C0C52EA0C0C03D2994208BF9042FE
:1013C000704714BF8B428242704700004FF4001CEC
:1013D0001CEB410F94BF1CEB430F09E041EA030CE7
:1013E00050EA4C0C52EA0C0C03D28B4208BF8242EA
:1013F000704714BF9942904270470000124254D483
:1014000040F2FF7C1CEA11530FD0634531D09B188A
:1014100063453CBF01EB0251704701F0004141EAD6
:101420000C510020AFF30080704750EA410320D0F8
:1014300001F0004C91EA0C011CD0B1FA81F30B3B96
:101440009A420DD9D21A994051EA0C01C3F1200CED
:1014500020FA0CFC61449840531C40F2FF7CD7E713
:10146000914041EA0C01C2F1200C20FA0CF319431F
:1014700090407047B0FA80F31533202BE0D3202A38
:10148000EED3203A203B9A4209D9D21A00FA03F14E
:1014900041EA0C010020531C40F2FF7CB8E700FA3F
:1014A00002F141EA0C0100207047524240F2FF7CF9
:1014B0001CEA11530DD06345DBD0B2EB030C3CBFEB
:1014C000A1EB025170470CF1010221EA035141F4F2
:1014D000801150EA410CCCD001F0004C352A27DCB9
:1014E00030B481EA0C01B2F1200309DAC2F1200321
:1014F000044601FA03F5D0402843D1409C400CE05B
:10150000C3F12002450020FA03F418BF44F001049F
:1015100021FA03F091400C43002174F1004550F191
:10152000000051EB0C01244230BC7FF47BAF7047CC
:101530006146002076E70000C1F30A5340F2FE3214
:101540009B1A14DDD3F120034FEAE17208DDC902D2
:1015500041EA505141F00040D84080185040704757
:1015600003F2E13010B1D24382F000407047002016
:1015700070470000C11768B14840401AB0FA80F2C5
:101580009040D21CC907C2F5846241EA025202EBC4
:10159000D02140057047000070B44FF0004591EA3B
:1015A000030F40F1A3836B40841A71EB030603D24F
:1015B000001BB141121973414FF4001C1CEB410F89
:1015C00034BF7CEB430442E00C0DA4EB1356352EE4
:1015D0004FDC45EAC323DB0A45EAC121C912B6F153
:1015E00020050DDD63FA05F6EB4086EA030512429D
:1015F00018BF45F00105C01851F100010CD213E0ED
:1016000062FA06F5F2405540F3415A40B340F340C8
:101610005A408018594107D349085FEA30005FEA11
:10162000350528BF45F0010501F58011420875F127
:10163000004250F1000041EB04514E0016F5001F2E
:1016400070BC38BF70470020090D090570471CEBBE
:10165000410F10D252EA43060BD0BCEB410F05D824
:101660000C0DAB43661E342EB6DD02E0AB43801892
:10167000594170BC704770BC70470000F0B540F233
:10168000FF7581EA030C0CF0004C15EA11541DBFE4
:1016900015EA1357AC42AF42E5E0BC41C1F3130178
:1016A000C3F31303801A994143F4801304D2641ED8
:1016B0004000494180185941C90241EA5051B1FBEB
:1016C000F3F603FB1611A2FB0675D7EBC020A94168
:1016D00002D2761E80185941C90241EA5051B1FB2D
:1016E000F3FE03FB1E11A2FB0E75D7EBC020A94130
:1016F00003D2AEF1010E80185941890241EA90519E
:10170000760546EA8E2EB1FBF3F603FB1611A2FB1B
:101710000675D7EB8020A94102D2761E8018594168
:10172000C90241EA50514EEA060EB1FBF3F603FB43
:101730001611A2FB0675D7EBC020A94102D2761E76
:1017400080185941C90241EA5051B1FBF3F703FB3C
:101750001711A2FB0735D3EBC020A94167F10007A1
:101760000CBF004247F0010766F3D5274FEA1E3150
:10177000B80814F5806412DDBD0775F1004250EB26
:101780000E5051EB045111F5801F5CBF41EA0C0172
:10179000F0BD4CF07F6141F0E0410020F0BDBD079D
:1017A0006D0840EA0E5041F48011D4F10104B4F107
:1017B00020060ADAC4F120060200E04001FA06F32E
:1017C000E1401843B24015430EE0342C13DCC6F15F
:1017D000200445EA40056D0820FA06F2154321FA77
:1017E00006F0A1400D43002175F1004250F10000C8
:1017F00051EB0C01F0BD00205FEA0C01F0BDCFB948
:1018000092185B41B3FA83F704BFB2FA82F6BF19AC
:101810000B3FB7F120062FBF02FA06F3BB40C7F11A
:10182000200622FA06F638BF3343BA401CB1E41949
:10183000641E33E77F4231F00041B1FA81F404BF06
:10184000B0FA80F6A4190B3CB4F120062FBF00FAC1
:1018500006F1A140C4F1200620FA06F638BF314354
:10186000A0403C1B1AE7AC421ABF05EA1357AF422F
:1018700012E050EA41061CBF52EA4306BFE750EAB5
:101880004107304661461CBF41EA0551F0BD52EAAE
:10189000430C08BFC143F0BD00204FF4001616EB07
:1018A000410F98BF16EB430F08BF16EB410F24BF43
:1018B000C14305E016EB430F0CBF61464CEA0551EE
:1018C000F0BD0000400D491840EA81200CD2490DBE
:1018D000A1F58061491C40F0004005DBD1F11F01FA
:1018E00054BFC840C017704700207047014648B138
:1018F000B0FA80F18840C91CC1F58461090501EB8B
:10190000D021400570470000B0B581EA030C0CF00F
:10191000004C40F2FF7515EA11541DBF15EA13572C
:10192000AC42AF4239E0E41923EA455343F4801353
:10193000C90241F0004141EA505EC7021100A7FB15
:10194000020200284FF00000EEFB01204FF00001E2
:10195000E3FB072118BF42F0010240180021494172
:10196000E3FB0E01A4F580640F0302D25200404154
:10197000494154F101046CDD470872F1004250F115
:10198000000051EB0451A1F580115CBF41EA0C014C
:10199000B0BD4CEA05510020B0BD05EA1357AC427A
:1019A00014BFAF4241E050EA410E1CBF52EA430E61
:1019B00002E061460020B0BD24423C441BD15FEAF6
:1019C000070EF6D0090302BF01460020AEF1140E47
:1019D000B1FA81F7AEEB070401FA07FE0C37C7F145
:1019E000200100FA07F7C8404EEA000E23EA4553EB
:1019F00043F48013A2E733F00043B3FA83F704BF44
:101A0000B2FA82FE77440B3FE41BB7F1200E2FBFE2
:101A100002FA0EF3BB40C7F1200E22FA0EFE38BFC9
:101A200043EA0E03BA40641C82E750EA410E14BF39
:101A300052EA430E6FF000014FF4001717EB430F0B
:101A40008ABF194617EB410FB5E74CEA0551002054
:101A5000B0BDD4F10104B4F120070FDAC4F12007BE
:101A6000520828BF42F0010210FA07F501FA07F701
:101A7000E1BF2A43E0403843E1400FE0352C98DCD9
:101A8000C7F1200452EA400220FA07F218BF42F0E0
:101A9000010231FA07F0A1400A43002172F100422D
:101AA00050F1000051EB0C01B0BD00000048704740
:101AB0004C010020BBBBE1B1B2F5803F80F07E80DD
:101AC000022A1ED98C46B1FBF2F102FB11C31B04A2
:101AD00043EA1043B3FBF2FC02FB1C3380B240EA42
:101AE0000343B3FBF2F002FB103240EA0C40002348
:101AF0007047022A05D98446B0FBF2F002FB10C2FF
:101B000070474AB105D100F0010249085FEA300090
:101B1000704700220023704700F09EB90B000200BE
:101B2000002100207047904271EB030CF6D3B3F50F
:101B3000803F2FD2F0B5B3FA83F7B1FA81F4A7F161
:101B40000F0E3D1B5340CEF1200602FA0EF2F34178
:101B50005340B5F10F0746D80F3C2C444140C4F127
:101B60002006A040F1414140B1FBF3F603FB161102
:101B7000A2FB0645001BA94102D2761E80185941DE
:101B800080EA010221FA0EF362FA0EF200215A40B5
:101B90003046F0BD30B4B1FBF3FC03FB1C11A2FBDB
:101BA0000C45001BA94103D2ACF1010C801859412E
:101BB00030BC02460B46604600217047B2F1807F80
:101BC00065D3F0B5B2FA82F7B1FA81F4C7F10F0626
:101BD0003D1B22FA06F307F1110EF24120355A405F
:101BE000B5F10F07B8D94140C4F12006A040F1413A
:101BF0004140B1FBF3FC03FB1C11A2FB0C45001B95
:101C0000A94103D2BCF1010C801859410F2F12D306
:101C10000F3FC90341EA5041B1FBF3F603FB161134
:101C2000A2FB0645D4EBC030A94102D2761E801833
:101C3000594146EACC3C07B34140C7F12006B840C1
:101C4000F1414140B1FBF3F603FB1611A2FB06453F
:101C5000001BA94102D2761E8018594180EA010278
:101C600021FA0EF3C7F1200462FA0EF20CFA07F023
:101C70005A402CFA04F13043F0BD80EA010221FA07
:101C80000EF3002162FA0EF260465A40F0BD8C4617
:101C9000B1FBF2F102FB11C31B0243EA1063B3FB79
:101CA000F2FC02FB1C331B024CEA002043EA1063E7
:101CB000B3FBF2FC02FB1C331B024CEA002043EA9C
:101CC0001063B3FBF2FC02FB1C331B024CEA002046
:101CD00043EA1063B3FBF2FC02FB1C324CEA002027
:101CE00000237047012000F0B8B80000841A71EB9F
:101CF000030604D26E40001BB141121973414FF428
:101D0000001C1CEB410F34BF7CEB430683E00C0D41
:101D1000A4EB1356362E00F37C80012E45EAC32334
:101D200041DC43EA525312BFD20292025B082405FF
:101D300045EAC12141EA5051D2EBC020994125D456
:101D400007D1B0FA80F610FA06F162D000202036F2
:101D500008E0B1FA81F6B140C6F1200220FA02F2A1
:101D60001143B0404FEAF474B4EB465434F001062A
:101D70004FEA74040AD8D6F50016760D04F0004434
:101D8000F04061FA06F25040F1404840C00A40EA93
:101D9000415021F0004128BF5FEA500550F100009A
:101DA00044EBD12135E0DB0A45EAC121C90AB6F18D
:101DB00020050EDD42EA0242120CC5F1200603FAAC
:101DC00006F6EB4042EA06056D42984161F10001DA
:101DD0000DE062FA06F5F240554063FA06FC82EA2D
:101DE0000C02F3405A406D42904161EB030111F443
:101DF000801F05D1641E620502D06D00404149413B
:101E000021F48011430875F1004350F1000041EBCB
:101E1000045170BC70471CEB410F15D223F00043F6
:101E200052EA43060BD04FEA4C0CBCEB410F04D8EE
:101E30000C0D661E342EB7DDEBE7801A994150EA8F
:101E4000410608BF0021E4E708BF1CEB430F28BF91
:101E50006FF00001DDE70000704780B500F002F888
:101E600072B6FEE7DFF8B8020168491C01607047EE
:101E700070B500240025DFF8A8623068002807D17B
:101E8000502080F31188BFF34F8FBFF36F8FFEE7B1
:101E900000F098FA3068401E30603068002855D154
:101EA000DFF89C010068002826D14FE0C868C468AC
:101EB00014F1180000F023FB201D00F020FBDFF8D8
:101EC00088010168E26A914201D2E16A0160211D44
:101ED000DFF87821E36A1420434302EB030000F0AB
:101EE000E7FAE06ADFF85C110968C96A884203D33F
:101EF0000120DFF83C140860DFF8A0130868002810
:101F0000D4D1002C01D000F0A6F9DFF828643468A1
:101F1000002C0CD000F01EF8002803D00120DFF8C0
:101F200010140860641E002CF4D100203060DFF82B
:101F300000040068002809D001255FF08050DFF818
:101F40006C120860BFF34F8FBFF36F8F00F054FA2D
:101F5000280070BDF8B5002571480068002867D1D9
:101F600070480468641C0460002C19D1DFF840122A
:101F700008680068002807D0502080F31188BFF35C
:101F80004F8FBFF36F8FFEE708688A4A13680B60B4
:101F90001060DFF8A4030168491C016000F05BF9E0
:101FA000DFF8FC62306884422DD320E0381D00F059
:101FB000A6FAB86A002803D017F1180000F09FFABB
:101FC00021480168FA6A914201D2F96A0160391D1B
:101FD0001E4AFB6A1420434302EB030000F068FA38
:101FE000F86A18490968C96A884200D3012570490E
:101FF00008680068002817D00868C068C768786853
:102000008442D3D230600F4800681049C26A14205D
:1020100042438858022800D30125DFF814030068E2
:1020200000280AD0012508E05FF0FF303060EAE7C1
:10203000DFF800030168491C01602800F2BD0000C0
:10204000840F0020780F00208C0F002080020020D9
:1020500038B533480068002804D00120DFF8D012DA
:10206000086045E00020DFF8C8120860DFF8CC42C5
:102070002068006B5FF0A53102688A4208D142688F
:102080008A4205D182688A4202D1C068884205D05E
:10209000206810F13401206800F044FADFF8A02233
:1020A000106800E0401E1423DFF8F45203FB00F137
:1020B0006958002909D10028F4D1502080F31188F3
:1020C000BFF34F8FBFF36F8FFEE703FB00F305EB0A
:1020D00003014B685B684B604B6811F10805AB422C
:1020E00002D14B685B684B604968C9682160106029
:1020F00031BD10B50C00002807D1502080F31188A5
:10210000BFF34F8FBFF36F8FFEE7DFF898120968B8
:10211000183100F0D9F90121200000F013F910BDA9
:10212000A40F0020880F002010B5C068C468002CE0
:1021300007D1502080F31188BFF34F8FBFF36F8F0B
:10214000FEE714F1180000F0DAF9DFF85C0200682D
:10215000002815D1201D00F0D2F9DFF8E401016854
:10216000E26A914201D2E16A0160211DDFF830226A
:10217000E36A1420434302EB030000F099F905E001
:1021800014F11801DFF8140100F092F9DFF8AC0146
:102190000068C06AE16A884205D201200121DFF8A7
:1021A0009021116000E0002010BD000004ED00E06F
:1021B0007C0F0020800F0020DFF87C11096801608F
:1021C000DFF8E81109684160704738B504000D0078
:1021D000002C07D1502080F31188BFF34F8FBFF33D
:1021E0006F8FFEE7002D07D1502080F31188BFF3D9
:1021F0004F8FBFF36F8FFEE700F0E4F8DFF8AC011C
:1022000000686168411A2A6812F1010F01D10024A7
:1022100018E0DFF82421126823689A4204D062682B
:10222000904201D301240DE02868814207D228683A
:10223000411A29602000FFF7BFFF002402E00020C0
:102240002860012400F0D8F8200032BD0120DFF81A
:10225000E01008607047DFF85C110868006800282B
:1022600004D15FF0FF300E49086005E00868C068DF
:10227000C06840680A4908607047DFF8400100689C
:10228000002801D1012007E0DFF81C0100680028C8
:1022900001D1022000E0002070470000000F002064
:1022A000A00F002010B50400002100283DD0DFF869
:1022B0008C000068844207D0502080F31188BFF35F
:1022C0004F8FBFF36F8FFEE7206D002807D150209E
:1022D00080F31188BFF34F8FBFF36F8FFEE7206D40
:1022E000401E2065E06AE26C90421ED0206D0028FE
:1022F0001BD1201D00F003F9E06CE062E06AD0F130
:102300003800A061DFF838000168E26A914201D22A
:10231000E16A0160211DDFF88820E36A142043434D
:1023200002EB030000F0C4F80121080010BD00001A
:10233000980F0020940F00209C0F0020780F0020A1
:102340008C0F0020F8B505000C0018480668154FE2
:102350003868001D00F0D3F815F1010F07D1002CEB
:1023600005D03868011D124800F0A2F816E0AD193A
:1023700038684560B54206D23868011D0E480068CD
:1023800000F0A2F80AE03868011D0A48006800F071
:102390009BF80B4801688D4200D20560F1BD00003A
:1023A00080020020780F0020A40F0020880F00205A
:1023B000140F00207C0F0020800F0020900F0020C1
:1023C000A00F0020502080F31188BFF34F8FBFF380
:1023D0006F8F31490A68521C0A60096801290AD1C5
:1023E00030490968090606D080F31188BFF34F8F82
:1023F000BFF36F8FFEE7704727490868002807D1B1
:10240000502080F31188BFF34F8FBFF36F8FFEE72B
:102410000868401E08600868002802D1002080F388
:102420001188704780B5502080F31188BFF34F8F1B
:10243000BFF36F8FFFF78EFD002803D05FF0805051
:1024400018490860002080F3118801BDEFF3058072
:1024500010280FD314490968085C10490978C0B2E4
:10246000884207D2502080F31188BFF34F8FBFF30B
:102470006F8FFEE70A4800680C49096811F4E061B3
:10248000884207D2502080F31188BFF34F8FBFF3EB
:102490006F8FFEE77047000040010020B00F002062
:1024A000540F002004ED00E0946B00080CED00E0F8
:1024B00042684A6093688B609368596091600861D4
:1024C0000168491C0160704710B40B6813F1010FDB
:1024D00001D1026907E010F1080200E05268546877
:1024E0002468A342FAD253684B604B6899608A60B3
:1024F000516008610168491C016010BC70470169A6
:10250000826843689A60426883685A604A68824277
:1025100001D182684A60002202610868401E08609A
:10252000086870477047000001002020002900D192
:10253000401E0A0C1204002A01D10904103811F0BF
:102540007F4F01D10902083811F0704F01D1090104
:10255000001F11F0404F01D18900801E002901D4D5
:102560004900401E704780B5C143491C0840FFF731
:10257000DBFF401E02BD80B5FFF7D6FF401E02BD47
:102580004068DFF804170A68DFF8081709680A438B
:102590009043704710B44368DFF8EC261468DFF806
:1025A000F4261268144323401943416010BC70475D
:1025B00080B5FFF7E5FF002801D1012000E00020F1
:1025C000C0B202BD4068DFF8C01609680840704715
:1025D0004268DFF8B41609680A43426070474268EF
:1025E000DFF8A41609688A43426070474068DFF844
:1025F000A4160968084070474268DFF89816096811
:102600000A43426070474268DFF8881609688A43C7
:1026100042607047DFF880160968494208447047F5
:10262000DFF874160968084470470818704710B539
:1026300004002000FFF7DAFF002809D14FF4D87218
:10264000DFF84816DFF8540600F092FBAFF3008085
:10265000206810BD38B504002000FFF791FF050089
:102660002000FFF7DDFFDFF8281609686D1A290042
:10267000FFF7DBFF05002000FFF79AFF002809D0D5
:1026800040F2B912DFF80416DFF8140600F070FB10
:10269000AFF30080280032BD10B504002000FFF722
:1026A000D9FF046010BD10B504002000FFF7F4FF4F
:1026B000FFF7A2FF2000FFF78BFF10BD10B504004D
:1026C0002000FFF7C7FFFFF79EFF2000FFF787FFFF
:1026D00010BD38B504000D00681E054209D04FF446
:1026E000EB72DFF8A815DFF8E40500F041FBAFF36B
:1026F00000802C19641E6D1EAC43200032BD10B545
:1027000004000C19641E481E8443481E014209D06F
:102710004FF4F272DFF87415DFF8B00500F028FB13
:10272000AFF30080200010BD10B5002400280ED0AB
:10273000FFF7CFFFDFF86C150968884207D2DFF892
:10274000DC150A68824201D2040000E00C68200017
:1027500010BD70B504000D001600802C04D20020BE
:10276000042194FBF1F408E02000FFF704FF0100CE
:10277000491FCC4094F02004801F2860346070BD55
:10278000F8B504000D001600802C08D301272000A6
:10279000FFF7F1FE401F17FA00F0401E0419320047
:1027A00029002000FFF7D5FFF1BD2DE9F04106001B
:1027B00088461700D8F800503C685FF0FF3006EB01
:1027C0008501496910FA04F40C40002C11D13169DB
:1027D0006D1C10FA05F50D40002D01D100201FE001
:1027E0002800FFF7C0FE0500C8F8005006EB850082
:1027F0004469002C09D140F23722DFF89014DFF849
:10280000200500F0B5FAAFF300802000FFF7ABFE23
:10281000386080214D4306EB050101EB8000406FDD
:10282000BDE8F0812DE9F843060089461700984677
:10283000D9F80C50D9F80840002D09D14FF4117285
:10284000DFF84814DFF8DC0400F092FAAFF3008000
:10285000002C09D140F24522DFF83014DFF8D00413
:1028600000F086FAAFF30080E560AC60802000FBEA
:1028700007F0304400EB8800406F48451FD18020AE
:1028800000FB07F0304400EB88004467B44216D1E7
:10289000012106EB8700406911FA08F830EA0808C0
:1028A00006EB8700C0F8148006EB8700406900281B
:1028B00005D1306911FA07F730EA07073761BDE83B
:1028C000F1832DE9F04106000C00170098468020A6
:1028D00000FB07F0304400EB8800456F002D09D164
:1028E0004FF41872DFF8A413DFF83C0400F040FA4C
:1028F000AFF30080002C09D140F26122DFF88C1385
:10290000DFF8280400F034FAAFF30080A560E66039
:10291000EC602000FFF784FE05002000FFF780FE3A
:102920000421FFF7ECFE854209D040F26722DFF870
:102930005C13DFF8000400F01BFAAFF30080802086
:1029400000FB07F0304400EB880044670121326946
:1029500011FA07F00243326106EB8700406911FA71
:1029600008F858EA000806EB8700C0F81480BDE8B4
:10297000F0813EB504000D002800FFF701FE6A4615
:1029800001A9FFF7E6FE009B019A29002000FFF74E
:1029900049FF37BD3EB504000D002800FFF7F0FDEC
:1029A0006A4601A9FFF7D5FE009B019A2900200085
:1029B000FFF787FF37BD10B50C00FFF7E1FD1034BE
:1029C000A04201D3012000E00020C0B210BD2DE9DB
:1029D000F84304000D002000FFF722FEDFF8B0628C
:1029E0003168691AFFF721FE07002000FFF7C8FDD4
:1029F000401BD6F80080B0EB08083800FFF710FE47
:102A000081463800FFF70CFE0421FFF778FE814570
:102A100009D04FF42472DFF87412DFF81C0300F0C1
:102A2000A7F9AFF300802000FFF7AAFD15EB08021D
:102A300031688A18904209D040F29222DFF84C1295
:102A4000DFF8F80200F094F9AFF300804146380057
:102A5000FFF7A0FD3800FFF793FDDFF8C01209680B
:102A6000884209D24FF42572DFF82012DFF8D00235
:102A700000F07EF9AFF3008029002000FFF78AFD07
:102A80003800FFF710FE3800BDE8F28338B50400C7
:102A90000D002000FFF78CFD002809D040F29F2296
:102AA000DFF8E811DFF89C0200F062F9AFF3008074
:102AB0002800FFF765FD6268DFF88C1209680818C6
:102AC000801860602000FFF7E7FD200032BD70B580
:102AD00005000E003000FFF789FD002827D03000E8
:102AE000FFF7A5FD0400002C09D14FF42B72DFF88D
:102AF0009C11DFF8580200F03BF9AFF30080200092
:102B0000FFF760FD002809D140F2AD22DFF87C110B
:102B1000DFF83C0200F02CF9AFF300802100280020
:102B2000FFF727FF31002000FFF7B0FF060030005D
:102B300070BD70B505000E003000FFF78BFD04007E
:102B4000002C09D140F2B922DFF84011DFF804026D
:102B500000F00EF9AFF300802000FFF733FD0028EE
:102B600017D03000FFF724FD002809D040F2BD2225
:102B7000DFF81811DFF8E00100F0FAF8AFF3008099
:102B800021002800FFF7F5FE21003000FFF77EFF4F
:102B90000600300070BD70B504000D00160028005E
:102BA000FFF710FD002809D14FF43272DFF8DC1076
:102BB000DFF8A80100F0DCF8AFF300803100280056
:102BC000FFF7F9FE00280ED031002800FFF7FFFEC6
:102BD00006002800FFF760FD3000FFF70DFD310013
:102BE0002000FFF7D7FE70BD7CB506000D00002069
:102BF0000090002001900024002D0DD001AA69460C
:102C00002800FFF7BDFD0098182805DA01AA6946DB
:102C10003000FFF7CAFD0400002C14D02000FFF79D
:102C2000AFFCA84209D24FF44272DFF86010DFF81F
:102C3000300100F09DF8AFF30080019B009A210065
:102C40003000FFF7EFFD200076BD70B506000D00E7
:102C500014000020002D16D0002C09D14FF445722D
:102C6000DFF82810DFF8FC0000F082F8AFF30080F6
:102C7000220029003000FFF78EFF2800FFF71EFD1D
:102C80002800FFF7CDFC70BD986B0008B065000808
:102C9000A06B00089C6B0008A46B0008706600081D
:102CA000286A0008AC6B000838B50400080004214D
:102CB000FFF73AFD050029002000FFF795FF01000E
:102CC0002A002000FFF7C1FF32BD0000F0650008B8
:102CD00038B5040000291FD00800FFF79BFC050051
:102CE0002800FFF76FFC002807D040F2A3421E49DE
:102CF0001E4800F03DF8AFF300802800FFF7D3FC3A
:102D000029002000FFF7E3FE01002000FFF711FF7C
:102D100001002000FFF73EFE31BD0000A86B000857
:102D2000AC6600086868000808680008E8660008E3
:102D30009468000824640008B06300083066000846
:102D4000DC64000860670008A06B0008C068000829
:102D500028650008EC6800089867000838680008D3
:102D6000DC69000884690008B0650008D0670008C5
:102D700080B5034603A000F015F8BDE80140FEF75A
:102D8000B1BF000025733A2564202573202D2D2026
:102D9000617373657274696F6E206661696C6564D6
:102DA0000A0000000EB4C0B5024603A8002101903D
:102DB000009101AB0121044878440C30FDF7E4F99F
:102DC00006BC5DF810FB00BF793C00002DE9FC411A
:102DD00006000D0014001F00002096F83D0020287A
:102DE00057D1002D03D0200080B2002801D101204E
:102DF00050E096F83C00012801D102204AE0012071
:102E000086F83C0000203064212086F83D0000F068
:102E100003FB8046B484F484B068B0F5805F04D1CD
:102E20003069002801D1002401E02C000025002099
:102E300086F83C000FE0207831684860641C07E0A9
:102E4000002CF8D12888C005C00D31684860AD1C41
:102E5000F08C401EF084F08C00280AD00097434686
:102E600000228021300000F082F90028E8D0032001
:102E700010E00097434600224021300000F077F92F
:102E8000002801D0032005E0202086F83D00002026
:102E900000E00220BDE8F68180B590F83E30202B9E
:102EA00016D1002903D013009BB2002B01D10120C1
:102EB0000FE090F83C30012B01D1022009E0012302
:102EC00080F83C300023036392B200F095F900E0F3
:102ED000022002BD38B50400206801682068C2687D
:102EE000206843690020002011F00F00002807D15E
:102EF0008D0605D5950603D5200000F018FA33E1BC
:102F0000002879D0D80702D412F4907F74D011F041
:102F10000100C0B2002805D0D00503D5206C50F0C8
:102F200001002064480708D513F00100C0B2002852
:102F300003D0206C50F002002064880708D513F0FD
:102F40000100C0B2002803D0206C50F004002064BF
:102F500008070AD5900604D413F00103DBB2002B56
:102F600003D0206C50F008002064206C002842D070
:102F7000880604D5900602D5200000F0D8F9206814
:102F80004069800910F00100216C090701D4002874
:102F90002CD0200000F052F920684069400621D56D
:102FA0002068143050E8001F31F04001206810F113
:102FB000140242E800100028F2D1A06B00280DD0C6
:102FC0000FF2D920A16B0865A06B00F079FA0028F8
:102FD00011D0A06BA16B096D88470CE0200000F0B8
:102FE0000FFC08E0200000F00BFC04E0200000F0E3
:102FF00007FC00202064B7E0206B012840F0A4808B
:10300000C80640F1A180D00640F19E8000200090CB
:103010002068006800902068406800900098206850
:103020004069400655D5A06B00684168080080B231
:1030300000284DD00800A28D80B2904248D2E18590
:10304000A06BC069B0F5807F3BD020680C3050E8A1
:10305000001F31F48071206810F10C0242E800106A
:103060000028F2D12068143050E8001F49084900B8
:10307000206810F1140242E800100028F2D1206804
:10308000143050E8001F31F04001206810F11402A4
:1030900042E800100028F2D1202084F83E000020F1
:1030A000206320680C3050E8001F31F010012068C8
:1030B00010F10C0242E800100028F2D1A06B00F0E1
:1030C000B1F9A18DE08D091A89B2200000F0B6FB9C
:1030D0004AE0A08DE18D411AE08D002833D0080030
:1030E00080B200282FD020680C3050E8002F32F436
:1030F0009072206810F10C0343E800200028F2D100
:103100002068143050E8002F52085200206810F157
:10311000140343E800200028F2D1202084F83E0068
:103120000020206320680C3050E8002F32F010029D
:10313000206810F10C0343E800200028F2D189B286
:10314000200000F07BFB0FE0080605D5100603D534
:10315000200000F0ADF807E0480605D5500603D57D
:10316000200000F0D6F8FFE731BD006C70472DE974
:10317000F04105000E0090461F00069C286800687C
:103180003040B04201D1012000E000204146C9B2E8
:1031900088422ED114F1010FF0D0002C04D000F0A1
:1031A0003BF9C01B8442E9D228680C3050E8001F6C
:1031B00031F4D071286810F10C0242E800100028A8
:1031C000F2D12868143050E8001F490849002868E7
:1031D00010F1140242E800100028F2D1202085F8F6
:1031E0003D00202085F83E00002085F83C000320AB
:1031F00000E00020BDE8F08181628285C285002167
:103200000164222180F83E10002180F83C10016901
:10321000002905D00168C96851F480710268D16045
:103220000168496951F00101026851610168C9688A
:1032300051F020010068C1600020704701680C3126
:1032400051E8002F32F49072016811F10C0343E849
:1032500000210029F2D10168143151E8002F5208F1
:103260005200016811F1140343E800210029F2D152
:10327000016B01290CD101680C3151E8002F32F0AB
:103280001002016811F10C0343E800210029F2D17A
:10329000202180F83E1000210163704780B5806BCB
:1032A0000021C1850021C18400F0AAFA01BD0000FF
:1032B00090F83D1021292AD18168B1F5805F0CD1A9
:1032C0000169002909D1016A0988C905C90D026887
:1032D0005160016A891C016205E0016A4A1C0262B0
:1032E000097802685160C18C491EC18489B20029E5
:1032F0000BD10168C96831F080010268D1600168B2
:10330000C96851F040010068C160002000E002205F
:10331000704780B50168C96831F040010268D1602A
:10332000202180F83D1000F0F4F9002002BD80B5A6
:1033300090F83E1022296DD18168B1F5805F0DD1E2
:10334000016900290AD10021816A02685268D20508
:10335000D20D0A80816A891C816217E0826A00218D
:103360008168B1F5805F05D08168002906D10169C7
:10337000002903D101684968117004E001684968B7
:1033800011F07F011170816A491C8162C18D491E53
:10339000C18589B200293BD10168C96831F020019B
:1033A0000268D1600168C96831F480710268D16037
:1033B000016849694908490002685161202180F883
:1033C0003E10016B01291FD10021016301680C31FE
:1033D00051E8002F32F01002016811F10C0343E8AC
:1033E00000210029F2D101680968C90608D5002129
:1033F000009101680968009101684968009100998D
:10340000818D00F01BFA01E000F09FF9002002E03E
:10341000002000E0022002BD01480068704700BFA4
:103420005C0F002070B50400A56DFFF7F5FF0600E6
:1034300094F83500022806D080206065002084F8CA
:10344000340001203BE02068006830F0160021685D
:1034500008602068406930F0800021684861206C75
:10346000002802D1A06C002805D02068006830F048
:103470000800216808602068006840084000216852
:10348000086020680068C0070ED5FFF7C5FF801BE5
:103490000628F6D320206065032084F8350000203C
:1034A00084F8340003200AE03F21E06D8140A960E8
:1034B000012084F83500002084F83400002070BD1D
:1034C00090F83510022903D080214165012009E0E0
:1034D000052180F83510016809684908490000682D
:1034E000016000207047F8B5040000200090DFF86C
:1034F000000200684FF41651B0FBF1F5A66D376875
:103500000821E06D11FA00F0074210D02068006831
:1035100040070CD52068006830F004002268106075
:10352000E06D8140B160606D50F001006065E06D5C
:103530003900C140C8070BD520684069000607D58F
:103540000121E06D8140B160606D50F00200606566
:103550000421E06D11FA00F007420AD020680068EB
:10356000800706D5E06D8140B160606D50F00400C9
:1035700060651021E06D11FA00F007422CD0206840
:103580000068000728D5E06D8140B16020680068C0
:10359000400311D520680068000306D4206C002881
:1035A0001AD02000216C884716E0A06C002813D0A8
:1035B0002000A16C88470FE020680068C00505D492
:1035C0002068006830F0080021680860206C00283E
:1035D00002D02000216C88472021E06D11FA00F014
:1035E00007425FD020680068C0065BD5E06D81406F
:1035F000B16094F83500052828D12068006830F0C3
:103600001600216808602068406930F08000216859
:103610004861206C002802D1A06C002805D02068E9
:10362000006830F00800216808603F21E06D8140AB
:10363000B160012084F83500002084F83400206D4A
:10364000002802D02000216D884750E020680068E3
:10365000400311D520680068000306D4606C002880
:1036600020D02000616C88471CE0E06B002819D056
:103670002000E16B884715E020680068C0050BD486
:103680002068006830F0100021680860012084F88C
:103690003500002084F83400E06B002802D02000C0
:1036A000E16B8847606D002821D0606DC00718D598
:1036B000052084F835002068006840084000216833
:1036C00008600098401C0090854204D32068006880
:1036D000C007F6D4FFE7012084F83500002084F805
:1036E0003400E06C002802D02000E16C8847F1BD76
:1036F0004801002080B54C48FFF7ECFB01BD80B5C8
:103700004A48FFF7E7FB01BD80B54948FFF7E2FBF8
:1037100001BD80B50168414A914204D146484068E4
:1037200000F09CF810E001683D4A914204D1424803
:10373000C06800F093F807E000683A49884203D176
:103740003D48406900F08AF801BD10B500210168CC
:10375000324A914216D1374C608880B2401C802199
:1037600090FBF1F201FB12006080D4F8880000F0B9
:1037700075F86088012280B22044811D2A48FFF735
:103780008BFB3CE00168264A91421AD1294CB4F8DF
:103790008E0080B2401C802190FBF1F201FB1200F0
:1037A000A4F88E00D4F8140100F058F8B4F88E0094
:1037B000012280B2204410F192011C48FFF76CFBFB
:1037C0001DE000681749884219D11A4CB4F81A0153
:1037D00080B2401C802190FBF1F201FB1200A4F8A2
:1037E0001A01D4F8A00100F039F8B4F81A01012246
:1037F00080B2204410F58F710D48FFF74DFB10BDCE
:1038000080B501680968016849680168034A914206
:1038100001D1FFF7AAFC01BD00000000001001402B
:103820000048004000140140580000209C00002087
:10383000E0000020E0060020240100207047000086
:1038400080B5DFF814000068FEF717FD012801D0ED
:10385000FEF7E8FD01BD000010E000E01CB500240B
:10386000002802D17FF0030422E0EFF30581002954
:1038700015D000210091694600F097F9012802D087
:103880007FF0020414E00098002811D05FF080500F
:1038900027490860BFF34F8FBFF36F8F08E0002305
:1038A0000022002100F046F8012801D07FF0020438
:1038B000200016BD38B51C000025EFF30582002A54
:1038C0001FD0002803D0002901D0002C02D07FF0A7
:1038D00003052AE00022009200236A4600F0F5F872
:1038E000012802D07FF002051FE0009800281CD0BC
:1038F0005FF080500E490860BFF34F8FBFF36F8FAA
:1039000013E0002801D0002902D17FF003050CE06C
:103910000023220000F00EF8012806D0002C02D06F
:103920007FF0010501E07FF00205280032BD0000B4
:1039300004ED00E0F7B505000E001F000024002D87
:1039400007D1502080F31188BFF34F8FBFF36F8FE3
:10395000FEE7002E02D1286C002801D1012000E0F2
:103960000020C0B2002807D1502080F31188BFF397
:103970004F8FBFF36F8FFEE7022F02D1E86B012854
:1039800001D1012000E00020C0B2002807D1502062
:1039900080F31188BFF34F8FBFF36F8FFEE7FEF701
:1039A0006CFC002802D10298002801D1012000E01F
:1039B0000020C0B2002838D1502080F31188BFF316
:1039C0004F8FBFF36F8FFEE7029800285CD0002C6A
:1039D00003D16846FEF7F0FB0124FEF70DFDFEF76C
:1039E00041FAFEF7EFFC95F9440010F1010F02D106
:1039F000002085F8440095F9450010F1010F02D12F
:103A0000002085F84500FEF7F7FC02A96846FEF79E
:103A1000DCFB002852D1280000F0A0F9002837D1A3
:103A2000280000F064F9FEF723FAFEF7CBFCA86B40
:103A3000E96B884201D3022FC6D13A003100280039
:103A400000F012F9696A00290FD015F12400FEF781
:103A50006BFB002814D05FF08050DFF8081208607C
:103A6000BFF34F8FBFF36F8F0AE0002808D05FF0DD
:103A70008050DFF8F0110860BFF34F8FBFF36F8FF6
:103A8000FEF7BAFC01201FE0FEF7B6FC00201BE0A9
:103A9000029915F11000FEF72CFB280000F027F921
:103AA000FEF7E6F90028C0D15FF08050DFF8B411CE
:103AB0000860BFF34F8FBFF36F8FB6E7280000F0A9
:103AC00016F9FEF7D5F90020FEBD2DE9F8430500F3
:103AD0000E0014009846002D07D1502080F3118865
:103AE000BFF34F8FBFF36F8FFEE7002E02D1286C1C
:103AF000002801D1012000E00020C0B2002807D139
:103B0000502080F31188BFF34F8FBFF36F8FFEE714
:103B1000B8F1020F02D1E86B012801D1012000E0C9
:103B20000020C0B2002807D1502080F31188BFF3D5
:103B30004F8FBFF36F8FFEE7FEF788FCEFF311871F
:103B4000502080F31188BFF34F8FBFF36F8FA86BA6
:103B5000E96B884202D3B8F1020F21D195F9459063
:103B6000A86B42463100280000F07EF848465FF01E
:103B7000FF3140B288420DD1686A002809D015F1A2
:103B80002400FEF7D1FA002803D0002C01D0012038
:103B9000206003E019F1010985F84590012000E05B
:103BA000002087F31188BDE8F28370B505000C0092
:103BB000002D07D1502080F31188BFF34F8FBFF342
:103BC0006F8FFEE7286C002807D0502080F3118803
:103BD000BFF34F8FBFF36F8FFEE72868002802D135
:103BE000A868002801D1012000E00020C0B2002810
:103BF00007D1502080F31188BFF34F8FBFF36F8F31
:103C0000FEE7FEF723FCEFF31186502080F31188C6
:103C1000BFF34F8FBFF36F8FA86BE96B88421CD245
:103C200095F94510401CA86308005FF0FF3240B2D0
:103C300090420DD1686A00280DD015F12400FEF7DE
:103C400073FA002807D0002C05D00120206002E084
:103C5000491C85F84510012000E0002086F31188FA
:103C600070BD000004ED00E02DE9F04106001500F4
:103C70000027B46B306C002809D13068002831D19E
:103C8000B068FEF70FFB07000020B0602AE0002DAF
:103C90000FD1326C75682800FDF7F4FA7068316C4A
:103CA000084470607068B16888421BD330687060E7
:103CB00018E0326CD6F80C804046FDF7E3FAF06865
:103CC000316C49420844F060F0683168884204D29F
:103CD000B068316C49420844F060022D02D1002CDA
:103CE00000D0641E641CB4633800BDE8F08170B578
:103CF0000400FEF767FB94F9455008E014F1240036
:103D0000FEF712FA002801D0FEF7A0FA6D1E280077
:103D100040B2012802DB606A0028EFD15FF0FF3576
:103D200084F84550FEF768FBFEF74CFB94F94460BD
:103D300008E014F11000FEF7F7F9002801D0FEF7B3
:103D400085FA761E300040B2012802DB2069002887
:103D5000EFD184F84450FEF74FFB70BD10B504005E
:103D6000FEF730FBA06BE16B884201D1012400E03B
:103D70000024FEF741FB200010BD00002DE9FC41AE
:103D80000400002C01D10120C4E12078C0075FD5D8
:103D9000DFF88403016811F00C01042909D00068E0
:103DA00010F00C0008280ED1DFF870030068400204
:103DB00009D5DFF86C030068800349D560680028E6
:103DC00046D10120A6E16068B0F5803F06D1DFF85A
:103DD0005003016851F48031016018E06068B0F56B
:103DE000A02F0AD1DFF83803016851F48021016067
:103DF000016851F48031016009E0DFF824030168B3
:103E000031F480310160016831F480210160606823
:103E100000280ED0FFF700FB0500DFF80403006860
:103E2000800315D4FFF7F8FA401B6528F5D303206B
:103E300070E1FFF7F1FA0500DFF8E40200688003A3
:103E400006D5FFF7E9FA401B6528F5D3032061E1A9
:103E5000207880071DD5B048016811F00C0F08D0FC
:103E6000006810F00C0008282AD1AC480068400215
:103E700026D4AB480168890704D5E168012901D03F
:103E8000012047E1016831F0F801226951EAC201DD
:103E900001602078000751D5606900283DD00120DD
:103EA000A0490860FFF7B8FA05009F48006880073E
:103EB00044D4FFF7B1FA401B0328F6D3032029E1CD
:103EC000E068002818D0012098490860FFF7A4FA9C
:103ED000050093480168890706D4FFF79DFA401B47
:103EE0000328F6D3032015E1016831F0F8012269B7
:103EF00051EAC2010160CCE700208C490860FFF75D
:103F00008BFA0500864800688007C2D5FFF784FA5F
:103F1000401B0328F6D30320FCE000208149086001
:103F2000FFF77AFA050080480068800706D5FFF79A
:103F300073FA401B0328F6D30320EBE020784007F8
:103F40006FD500267A4D2868C0000BD40020009061
:103F5000286850F080502860286810F08050009049
:103F600000980126734F3868C00511D4386850F4A2
:103F700080703860FFF750FA80463868C00507D473
:103F8000FFF74AFAB0EB08000328F6D30320C1E09C
:103F9000A068012805D16848016851F0010101605D
:103FA00015E0A068052809D16348016851F00401B3
:103FB0000160016851F00101016008E05E4801689C
:103FC000490849000160016831F004010160A068FE
:103FD00000280FD0FFF720FA070057480068800735
:103FE00018D4FFF719FAC01B41F289318842F4D383
:103FF00003208FE0FFF710FA07004F4800688007A2
:1040000008D5FFF709FAC01B41F289318842F4D381
:1040100003207FE0F6B2012E03D1286830F08050F3
:104020002860A069002874D03B48006810F00C009C
:10403000082843D0A06902282FD1404E00203060CC
:10404000FFF7EAF90700364D2868800106D5FFF72B
:10405000E3F9C01B0328F6D303205BE0E169206A83
:104060000143606A51EA8011A06A4008401E51EA8B
:104070000041E06A51EA0061284801600120306097
:10408000FFF7CAF904002868800142D4FFF7C4F999
:10409000001B0328F7D303203CE0002027490860D9
:1040A000FFF7BAF904001E480068800131D5FFF718
:1040B000B3F9001B0328F6D303202BE0A0690128E5
:1040C00001D1012026E015480068A16901291ED010
:1040D00010F48001E269914219D110F03F01226A87
:1040E000914214D147F6C0710140626AB1EB821F60
:1040F0000DD110F44031A26A5208521EB1EB024FAA
:1041000005D110F07060E16AB0EB016F01D00120C1
:1041100000E00020BDE8F681083802400438024083
:1041200000380240800E4742743802400000474287
:104130004038024000700040703802406000474242
:1041400010B50400002C01D101202FE094F83D00AF
:10415000002805D1002084F83C00200000F0C8F9B8
:10416000022084F83D00211D206800F04CF9012058
:1041700084F84600012084F83E00012084F83F00C6
:10418000012084F84000012084F84100012084F8D7
:104190004200012084F84300012084F844000120FB
:1041A00084F84500012084F83D00002010BD90F8FF
:1041B0003D10012901D0012043E0022180F83D108B
:1041C0000168C96851F001010268D1600168DFF837
:1041D0007420914221D00168B1F1804F1DD0016857
:1041E000DFF86420914218D00168DFF86020914226
:1041F00013D00168DFF8582091420ED00168DFF833
:104200005420914209D00168DFF84C20914204D03B
:104210000168DFF8482091420CD10168896811F0EB
:10422000070106290CD00168096851F001010068F6
:10423000016005E00168096851F001010068016052
:1042400000207047000001400004004000080040CA
:10425000000C0040000401400040014000180040F4
:1042600010B504002068006980071AD52068C0686E
:10427000800716D57FF002002168086101202077B1
:104280002068806910F0030F03D0200000F070F95F
:1042900005E0200000F0CEF9200000F0CCF900206D
:1042A00020772068006940071AD52068C068400759
:1042B00016D57FF00400216808610220207720686D
:1042C000806910F4407F03D0200000F051F905E030
:1042D000200000F0AFF9200000F0ADF900202077B9
:1042E0002068006900071AD52068C068000716D545
:1042F0007FF0080021680861042020772068C069E9
:1043000010F0030F03D0200000F032F905E0200088
:1043100000F090F9200000F08EF90020207720684E
:104320000069C0061AD52068C068C00616D57FF09F
:10433000100021680861082020772068C06910F407
:10434000407F03D0200000F013F905E0200000F0CA
:1043500071F9200000F06FF90020207720680069D3
:10436000C0070AD52068C068C00706D57FF00100E5
:1043700021680861200000F0DEF92068006900066D
:104380000AD52068C068000606D57FF08000216845
:104390000861200000F0F0F92068006940060AD5A5
:1043A0002068C068400606D57FF04000216808619B
:1043B000200000F0E2F92068006980060AD5206834
:1043C000C068800606D57FF02000216808612000C3
:1043D00000F0D4F910BD02000020002906D0042905
:1043E00007D0082908D00C2909D00BE01068406BD1
:1043F00008E01068806B05E01068C06B02E0106890
:10440000006CFFE7704710B40468DFF8B8309842DA
:1044100012D0B0F1804F0FD0DFF8AC2090420BD01B
:10442000DFF8A820904207D0DFF8A420904203D004
:10443000DFF8A020904203D134F070044A6814439E
:10444000984227D0B0F1804F24D0DFF87C209042F2
:1044500020D0DFF8782090421CD0DFF87420904202
:1044600018D0DFF87020904214D0DFF86C20904212
:1044700010D0DFF8682090420CD0DFF86420904222
:1044800008D0184A904205D0174A904202D0174AE5
:10449000904203D134F44074CA68144334F0800469
:1044A0004A69144304608A68C2620A688262984258
:1044B00002D0084A904201D109690163012141619A
:1044C00010BC70470000014000040040000800409C
:1044D000000C004000040140004001400044014045
:1044E0000048014000180040001C0040002000402F
:1044F0007047000080B52DED048B414890EC038A95
:1045000000F0E9F901EE100A3E490A683E4B1868CE
:10451000121A00EE102A09681868091A00EE901A9B
:10452000F8EE401AB8EE411A81EE811AF0EE418A97
:10453000F5EE408AF1EE10FA05DDB7EE001A81EED5
:10454000281AB0EE418AF8EE600AB8EE400A80EE12
:10455000800ADFED2A0A20EE200AB0EE409AB0EE83
:10456000480AF0EE680AB0EE491ABDEC048B01BDB2
:1045700010B5040020682549884204D1002120009C
:10458000FFF729FF2AE020682149884204D1002151
:104590002000FFF720FF21E020681E4988421DD13E
:1045A00000212000FFF717FF01001B4A10780028A8
:1045B00004D015480160002010700FE01148016020
:1045C000012010702000FFF795FF144880ED000ACD
:1045D0001348C0ED000A134880ED001A10BD80B5E5
:1045E0001248FFF73DFE01BD80B51148FFF738FEC8
:1045F00001BD80B50C48FFF733FE01BD0000C84285
:10460000646B0008340F0020300F0020004401408C
:1046100000480140001C00407C020020380F0020B0
:104620003C0F0020400F0020700E0020E00D002005
:10463000280E00207047704780B592B030220021CC
:1046400006A800F0BBF91422002101A800F0B6F979
:10465000002000904148016851F0805101600068DD
:1046600010F0805000900098002000903C480168B5
:1046700051F480410160006810F48040009000987F
:10468000012006905FF48030079002200C905FF4C8
:1046900080000D9019200E904FF4A8700F9002200A
:1046A00010900720119006A8FFF768FB002803D0A0
:1046B00020212C4800F048F80F20019002200290A1
:1046C000002003904FF4A05004904FF480500590C8
:1046D000052101A800F054F8002803D02E2121481C
:1046E00000F032F813B000BD80B586B0142200216E
:1046F00001A800F063F9002000901B48016851F008
:1047000002010160006810F002000090009808208B
:104710000190002002900020039001A9134800F0AE
:1047200057F907B000BD80B500F05AFAFFF784FFD3
:10473000FFF7DAFFFEE780B500680D49884201D136
:1047400000F068FA01BD000080B50A0001000948C8
:1047500000F07AFA72B600BEFEE700004038024070
:1047600000700040706500083038024000040240CC
:10477000000800407C6B00087047704770470000DD
:104780002DE9F04104000E00002C01D1012092E03F
:10479000634D286810F00700B04207D22E702868D9
:1047A00010F00700B04201D0012084E0207880079B
:1047B00016D52078400704D55A48016851F4E051D5
:1047C00001602078000704D55648016851F4604123
:1047D000016054490A6832F0F002A06802430A609E
:1047E0002078C00735D56068012805D14E4800689B
:1047F000800313D401205EE06068022802D0606864
:10480000032805D148480068800107D4012052E000
:1048100045480068800701D401204CE0414F3968C9
:1048200089088900606801433960FEF7F5FD80461C
:10483000386810F00C006168B0EB810F09D0FEF70A
:10484000EBFDB0EB080041F289318842F0D3032040
:1048500031E0286810F00700864207D22E702868E1
:1048600010F00700B04201D0012024E0207840077A
:1048700006D52C490A6832F4E052E06802430A6027
:104880002078000707D52748016831F46041226984
:1048900051EAC201016000F051F82449214A12682E
:1048A000C2F30312895CC8402149086021480068AE
:1048B00000F00CFA0020BDE8F0811D480068704748
:1048C00080B5FFF7FAFF1C49164A1268C2F382222C
:1048D000895CC84002BD80B5FFF7EFFF1649114A59
:1048E0001268C2F34232895CC84002BD0F220260E6
:1048F0000C4A136813F003034360136813F0F003CA
:104900008360136813F4E053C3601268D20812F492
:10491000E05202610248006810F00700086070472A
:10492000003C02400838024000380240346B000866
:104930004801002044010020846B000810B50020CD
:104940000020002000201948006810F00C0000280A
:1049500004D0042804D0082804D025E0144824E01A
:10496000144822E0144C226812F03F0220684002F2
:1049700009D52068C0F388100E49A1FB000100236F
:10498000FDF798F808E02068C0F388100849A1FBFB
:1049900000010023FDF78EF82168C1F30141491C95
:1049A0004900B0FBF1F000E0014810BD08380240BA
:1049B0000024F40040787D010438024010B504461C
:1049C00010460A460146204600F0DCF9204610BD9C
:1049D000F8B4002200220022002337E0082704E078
:1049E000DFF8C4219042F9D10727FFB213F0030288
:1049F000D2B2920097403E431A00920845F82260D6
:104A0000DFF8A8512A68A2434E68F60200D5224377
:104A10002A60DFF89C512A68A2434E68B60200D58E
:104A200022432A60DFF88C512A68A2434E68B603FD
:104A300000D522432A60DFF880512A68A2434E68DD
:104A4000F60301D5144322002A605B1C102B80F072
:104A5000A880012515FA03F20C6814409442F4D1A1
:104A60000A7912F00302012A04D00A7912F0030233
:104A7000022A16D1866803271A00D2B25200974044
:104A8000BE43CF681A00D2B2520097403E438660C0
:104A900042689D40AA434D68C5F300159D402A43D6
:104AA00042600A7912F00302032A0DD0C56803267A
:104AB0001A00D2B252009640B5438E681A00D2B2A4
:104AC000520096403543C5600A7912F00302022A6B
:104AD00017D11A00D20800EB8202156A0F2613F0D4
:104AE0000702D2B292009640B5430E6913F0070256
:104AF000D2B29200964035431A00D20800EB8202EF
:104B00001562056803261A00D2B252009640B543DA
:104B10000E7916F003061A00D2B2520096403543C1
:104B200005604A6812F4403F8FD000220092234A69
:104B3000156855F480451560126812F480420092A1
:104B4000009A1F4D1A00920855F822600F2713F0A3
:104B50000302D2B292009740BE431A4A904201D15A
:104B6000002742E7184A904201D101273DE7174A42
:104B7000904201D1022738E7154A904201D103271C
:104B800033E7144A904201D104272EE7124A90429B
:104B900001D1052729E7114A90427FF421AF06276A
:104BA00023E7F1BC70470000001C0240083C0140B4
:104BB0000C3C0140043C0140003C014044380240B0
:104BC0000838014000000240000402400008024092
:104BD000000C024000100240001402400018024085
:104BE00080B50B48016851F400710160016851F40F
:104BF00080610160016851F480710160032000F060
:104C000052F90F2000F062F800F078F9002002BDA0
:104C1000003C024003480168034A12788918016089
:104C2000704700BF5C0F00207D02002008E025498E
:104C30000A6812681206FAD5027809684A60401CB0
:104C400001780029F3D170470EB478B50500002033
:104C5000002405AB2A000221684600F073F9060023
:104C6000022E10D3701C00F08BF90400002C08D029
:104C700005AB2A00761C3100200000F063F9250006
:104C800002E001201BE06D460F4E306800280BD07B
:104C9000002D09D02800FCF7ADFA020092B22900DD
:104CA000306800F07DF904E0002D02D02800FFF705
:104CB000BDFF002C02D0200000F069F9002072BC7A
:104CC0005DF810FB3C0100204C0F002078B587B048
:104CD000040000200020002000902548016851F0C9
:104CE00004010160006810F004000090009801A920
:104CF00002A8FFF7FBFD0598002802D1FFF7E0FDB1
:104D000002E0FFF7DDFD40001A49B0FBF1F0401E64
:104D1000194D1A49296040F2E731E96068600020C6
:104D200028610020A8600020A8612800FFF708FA89
:104D300006003000C0B2002815D12800FFF737FA6E
:104D400006003000C0B200280DD11E2000F0C0F8CF
:104D5000102C07D2002221001E2000F0A8F80848DD
:104D6000046000E001263000C0B208B070BD000051
:104D70004038024040420F00B80E002000080040BA
:104D80004401002062F30F2262F31F42401810F02A
:104D9000030308D0C91A1FD3DB0748BF00F8012D51
:104DA00028BF20F8022D130030B4144615461039E0
:104DB00028BF20E93C00FAD8490728BF20E90C00A9
:104DC00048BF40F8042D890028BF20F8022D48BFB5
:104DD00000F8012D30BC7047C91818BF00F8012D2C
:104DE000CB0728BF00F8012D7047000010F0070026
:104DF0003C4B1A684FF6FF010A403B4951EA00213B
:104E00000A431A60704737480068C0F302207047B1
:104E1000010049B2002908D4012210F01F018A4084
:104E2000324940B2400941F820207047020052B296
:104E3000002A04D409012E4A40B2115407E00901A6
:104E40002C4A40B210F00F00104400F8041C7047C8
:104E500010B410F00700D0F10703052B01D3042391
:104E600001E0D0F10703041D072C01D2002000E06F
:104E7000C01E012414FA03F35B1E1940814014FA8A
:104E800000F0401E1040084310BC7047BFF34F8F26
:104E900014490A6812F4E062174802430A60BFF33B
:104EA0004F8F00BFFDE780B5FFF7A0FF01BD70B5D4
:104EB00004000D0016000020FFF7A5FF32002900B6
:104EC000FFF7C6FF0100200040B2FFF7AFFF70BD43
:104ED00080B540B2FFF79CFF01BD80B5FFF7D6FF5C
:104EE00001BD00000CED00E00000FA0500E100E06B
:104EF00000E400E018ED00E00400FA0580B50020B1
:104F000000900E48016851F480410160006810F47F
:104F1000804000900098002000900948016851F0FE
:104F200080510160006810F08050009000980022CD
:104F30000F217FF00100FFF7BAFF01BD44380240A6
:104F40004038024008B584B00023039300290EBF07
:104F500001930190491E0291009301A904AB0748F7
:104F600078441830FBF710F9019909B100220A7052
:104F7000002858BF039805B000BD00BF1FC2FFFF47
:104F800080B5010005480068FDF78EFE02BD80B5C2
:104F9000010002480068FDF79BFE01BD740F002070
:104FA00010B5046913009BB2002B03D092B2406885
:104FB0002368984710BD000080B5DFF80C03FEF7AA
:104FC00092FA01BD80B5DFF80423DFF8040301681D
:104FD000914205D3DFF8FC12096811F000611AE074
:104FE0000168DFF8F432994205D3DFF8F01209685E
:104FF00011F000610FE00168DFF8E432994205D357
:10500000DFF8E012096811F0006104E0DFF8D8125F
:10501000096811F00061002902D0FEF764FA27E068
:10502000DFF8C8020168914204D3AA49096811F067
:10503000006115E00168A84A914204D3A7490968B4
:1050400011F000610CE00168A54A914204D3A54922
:10505000096811F0006103E0A349096811F00061DB
:10506000002905D0FEF73FFAA148806CFEF73BFA15
:1050700001BD80B5954A9F480168914204D3954986
:10508000096811F4001115E00168934B994204D3AB
:105090009249096811F400110CE00168904B9942A3
:1050A00004D39049096811F4001103E08E4909689E
:1050B00011F40011002902D0FEF715FA87E001680B
:1050C000914204D38349096811F4001115E0016885
:1050D000814B994204D38149096811F400110CE015
:1050E00001687F4B994204D37E49096811F400118D
:1050F00003E07D49096811F40011002920D00168FE
:10510000914204D35FF400117B4A116015E00168FD
:10511000714A914204D35FF40011784A11600CE0A7
:1051200001686F4A914204D35FF40011744A116020
:1051300003E05FF40011734A1160FEF7D4F946E012
:105140000168914204D36349096811F4001115E024
:105150000168614B994204D36049096811F4001158
:105160000CE001685E4B994204D35E49096811F472
:10517000001103E05C49096811F40011002902D014
:10518000FEF7B1F923E060490868904204D3514822
:10519000006810F4001015E008684F4A904204D3EC
:1051A0004E48006810F400100CE008684C4A904229
:1051B00004D34C48006810F4001003E04A4800682B
:1051C00010F40010002802D00800FEF78CF901BD91
:1051D00080B54E48FEF787F901BD80B54C4800F018
:1051E0009BF801BD70477047704770477047704724
:1051F00010B5002000204FF480641DE0B4F5004F8E
:1052000019D13049D1F8A000006CD1F8A010496C38
:105210000A00002A0FD088470DE0B4F5804FEDD189
:105220002849D1F8A000406BD1F8A010896B0A0082
:10523000002A00D08847640048F20100844240D22E
:10524000344801682142F6D00460B4F5806F0BD178
:105250001C49D1F8A0004068D1F8A01089680A0064
:10526000002AE8D08847E6E7B4F5006F0BD115496E
:10527000D1F8A0000069D1F8A01049690A00002AFD
:10528000D9D08847D7E7B4F5805F0BD10D49D1F865
:10529000A000C069D1F8A010096A0A00002ACAD08B
:1052A0008847C8E7B4F5005FB7D10649D1F8A00038
:1052B000806AD1F8A010C96A0A00002ABBD08847CA
:1052C000B9E710BD84080020600B0020596402403B
:1052D000C00B002004640240B96002400064024038
:1052E000596002400460024000600240000B002050
:1052F00000000020E00C00200C6402400864024022
:105300000C60024008600240200C0020800C00204D
:105310007C0A0020143C014038B50400256B20684D
:10532000406B000405D5280703D5200000F050F994
:10533000D9E02068406BC00555D54FF480702168D6
:1053400088632068C16BDFF8540201402068C163A4
:105350002068C06A400840002168C862280721D53B
:1053600015F0220F0AD0206800F0A3F9002805D01C
:10537000A16B0843A063200000F06AFA40F23A50A3
:1053800021688863012084F834000020206315F030
:10539000030F03D0200000F064FAA4E0200000F026
:1053A0005CFAA0E0280640F19E80A8060AD5206895
:1053B00000F07FF9002805D0A16B0843A06320000E
:1053C00000F046FA15F0030F40F08D802068C06AA7
:1053D00030F008002168C862012084F83400200001
:1053E00000F03BFA7FE02068406B400405D52807B9
:1053F00003D5200000F00EF975E02068406B40F204
:105400003A2108426FD02068406B800703D5A06B1B
:1054100050F00200A0632068406B000703D5A06B2A
:1054200050F00800A0632068406B800603D5A06B95
:1054300050F02000A0632068406BC00603D5A06B2D
:1054400050F01000A0632068406B800503D5A06B6E
:1054500050F00800A06340F23A7021688863206829
:10546000C16BDFF83C0101402068C163206800F097
:1054700020F9A16B0843A063280708D5012084F810
:10548000340000202063200000F0E2F92BE0280621
:1054900029D515F0300F0CD00FF27100E16B0865C3
:1054A000E06BFEF70DF800281DD0E06B00F02EF841
:1054B00019E015F0030F0CD00FF29900216C08656C
:1054C000206CFDF7FDFF00280DD0206C00F042F8A5
:1054D00009E00020A063012084F83400002020634C
:1054E000200000F0B6F931BD00001CB5040000201A
:1054F00000906946200000F055F8002802D0A16B0A
:105500000843A0630098C0F3432016BD10B5846B18
:1055100040F23A50216888632000FFF7E6FF01213E
:1055200084F8341000212163062801D0052805D114
:10553000206800F0BEF8A16B0843A063A06B0028B0
:1055400003D1200000F085F902E0200000F080F98E
:1055500010BD000010B5846B40F23A50216888639A
:105560002000FFF7C2FF012184F8341000212163DD
:10557000062801D0052805D1206800F09AF8A16B13
:105580000843A063A06B002803D1200000F061F95C
:1055900002E0200000F05CF910BD0000C53CFFFFF8
:1055A000C5FCFFFF38B505000C00002C02D15FF0F0
:1055B00000600CE0296D0904286800F094F80028C8
:1055C00005D10021286800F070F82060002032BD6D
:1055D000F8B50500AF6AEC6A002C1AD0002614E07A
:1055E000286800F043F83870791C641E0200120A23
:1055F0000A70491C641E0200120C0A70491C641EC9
:10560000000E08704F1C641E761C082EE8D3AF6293
:10561000EC62F1BDF8B505002F6A6C6A002C23D04E
:1056200000261DE038780090781C641E00990278EE
:1056300051EA02210091401C641E0099027851EA4F
:1056400002410091401C641E0099027851EA0261F7
:105650000091471C641E6946286800F00AF8761C11
:10566000082EDFD32F626C62F1BD0000D0F88000FD
:1056700070470968C0F880100020704710B40023FC
:105680000A6882604C688A681443CA6814430969CE
:105690000C432343C168090B09030B43C36000207B
:1056A00010BC70470069C0B2704714300918086810
:1056B000704718B585B00400002000900C200190C0
:1056C00040200290002003904FF4806004906946CF
:1056D0002000FFF7D3FFDFF86C210C21200000F041
:1056E0001BF806B010BD18B585B0040000910D2060
:1056F000019040200290002003904FF480600490BD
:1057000069462000FFF7BAFF41F288320D212000E0
:1057100000F002F806B010BD38B504000D00DFF847
:1057200028010068C0084FF47A71B0FBF1F04243E1
:105730001000421E00280CD0606B10F0450FF7D00F
:105740000005F5D4606B400706D50420A063042053
:1057500076E05FF0004073E0606BC00703D5012086
:10576000A06301206CE0C520A0632000FFF79AFF32
:10577000EDB2A84201D0012062E000212000FFF735
:1057800094FF3249084201D1002059E0002802D597
:105790005FF0007054E0410001D5402050E08100EE
:1057A00001D580204CE0C10002D54FF4807047E065
:1057B000010102D54FF4007042E0410102D54FF4DF
:1057C00080603DE0C10102D54FF4006038E0010285
:1057D00002D54FF4805033E0410202D54FF400501F
:1057E0002EE0810202D54FF4804029E0C10202D5AB
:1057F0004FF4004024E0410302D55FF400301FE085
:10580000810302D55FF480201AE0C10302D55FF462
:10581000002015E0010402D55FF4801010E041047F
:1058200002D55FF400100BE0810402D55FF4800024
:1058300006E0000702D55FF4000001E05FF480306D
:1058400032BD000000E1F5054801002008E0FFFD41
:10585000704780B500F009F801BD80B500F006F88A
:1058600001BD80B500F00EF801BD704780B5022083
:10587000ADF8000000230022694608480068FEF7E2
:1058800019F801BD80B50120ADF800000023002209
:10589000694602480068FEF70DF801BD580F002068
:1058A00000BEFDE70EB410B58DB002006C460FAB24
:1058B00032216846FFF746FB07E05E4800680006B5
:1058C000FBD520785C490860641C20780028F4D15E
:1058D0000DB010BC5DF810FB70B55849EFF30880AF
:1058E00010300860564AEFF309801060554873463F
:1058F0000360554B00241C6002E01C68641C1C60A3
:105900001C68062C18D20468504D1E6855F82650A5
:10591000AC42F2D11868002802D01868032803D1DD
:1059200008684B49086007E0494B10681860186820
:10593000002801D10868186045490868002858D037
:10594000444C086800682060086840686060086827
:105950008068A0600868C068E0600868006920612D
:1059600008684069606108688069A0610868C0696A
:10597000E061394D3948006828603948006868603E
:1059800038480068A86038480068E8603748FFF782
:1059900089FF21683648FFF785FF61683548FFF7C2
:1059A00081FFA1683448FFF77DFFE1683348FFF7C6
:1059B00079FF21693248FFF775FF61693148FFF7C8
:1059C00071FFA1693048FFF76DFFE1692F48FFF7CC
:1059D00069FF29682E48FFF765FF69682D48FFF7C2
:1059E00061FFA9682C48FFF75DFFE9682B48FFF7C6
:1059F00059FFFFF772FAFCE70000000000BEFDE768
:105A000000BEFDE700BEFDE7704780B52448FEF705
:105A100027FC01BD80B5234800F04AF801BD2248AB
:105A2000016831F4806101605FF480001F49086003
:105A3000704700000048004004480040680F002004
:105A40006C0F0020640F0020700F0020106A000807
:105A5000600F0020B40F0020D40F002028ED00E0DC
:105A60002CED00E034ED00E038ED00E0F8690008CE
:105A7000B46A0008C46A0008D46A0008E46A00082E
:105A8000F46A0008046B0008146B0008246B00081B
:105A9000646A0008786A00088C6A0008A06A000836
:105AA000B80E0020CC0900200C280040143C014016
:105AB00038B5040041F214052068405940060CD561
:105AC000206841F21C014058400606D5DFF8CC00A2
:105AD00021684851200000F067F820684059C0074D
