:020000040800F2
:100000008867002079D0000835CD000837CD00087A
:1000100039CD00083BCD00083DCD000800000000B0
:10002000000000000000000000000000F53500089E
:100030003FCD0008000000009D350008B9410008D0
:10004000C1D10008C5D10008C9D10008CDD1000830
:10005000D1D10008D5D1000841CD00084BCD000812
:10006000D9D10008DDD1000855CD0008E1D1000844
:10007000E5D10008E9D1000833C50008F9510008AE
:10008000EDD10008F1D10008F5D10008F9D1000840
:10009000FDD1000801D2000805D200085FCD00089C
:1000A00009D200080DD2000811D2000815D20008AC
:1000B00019D200081DD2000885CD000821D2000801
:1000C00025D2000829D200082DD2000805520008C8
:1000D00031D20008DF5A000835D20008E95A00087A
:1000E000C5C3000839D200083DD2000841D200083B
:1000F00045D2000849D200084DD2000851D200086C
:1001000055D2000859D200085DD2000861D200081B
:1001100065D2000869D200086DD2000871D20008CB
:1001200075D2000879D200087DD2000881D200087B
:1001300085D200088FCD000889D200088DD2000832
:1001400091D2000895D2000899D200089DD20008EB
:10015000A1D20008CFC5000829C50008F35A00083D
:10016000A5D20008A9D20008ADD20008B1D200087B
:10017000B5D20008B9D20008BDD2000800000000C6
:10018000C1D20008C5D200082DE9F14FB0B09246A7
:1001900004910DF142013A9A2B9199464A70002040
:1001A0000AE01AF8011B0498309A9047002804903E
:1001B00000F0B4860D98401C0D909AF8000050B1E4
:1001C0002528EED1002100220791089209910A9278
:1001D0000B910C9204E00D9800F0A2BE41F00101D9
:1001E0001AF8010F2028F9D023280CD02B2804D08E
:1001F0002D2805D0302809D00BE041F00201EFE7AF
:1002000041F00401ECE741F00801E9E741F0100199
:10021000E6E72A280FD1D9F8002052F8040BC9F8D4
:10022000002000280F9003D540420F9041F00401B8
:100230000AF1010A14E00F92DFF824380AE00F985F
:10024000984205DA00EB800402EB4402303A0F9248
:100250000AF1010A9AF80020A2F130000A28EED330
:100260009AF800002E2803D04FF0FF320E9229E0BA
:100270001AF8010F2A2809D1D9F8000050F8042BE8
:10028000C9F800000E920AF1010A1BE02D280CBFEC
:100290000AF1010A002000220E92DFF8C4470BE0A9
:1002A00040B90E9AA24205DA02EB820503EB450340
:1002B000303B0E930AF1010A9AF80030A3F13002A4
:1002C0000A2AEDD3ADF84010DFF89807784400F221
:1002D00094709AF8001000F055FF08B11AF8010B5D
:1002E0008DF842009DF84200682805D19AF8000078
:1002F00068280CD1622106E06C2804BF9AF800003F
:100300006C2804D171218DF842100AF1010A12A85B
:1003100006901AF801BBBBF125012CD01C3900F066
:10032000D081091F022940F2CC81133900F02185C8
:10033000093900F0C681891E00F0B685491E00F01B
:100340006385491E022940F2BC81091F00F05C85CB
:10035000491F00F02881491E00F00B85491E00F05E
:10036000D080C91E0DD0891E00F00385C91E00F083
:10037000008500F0A4BD25238DF84830012100F050
:10038000A9BDD9F8000050F8044BC9F80000002CB2
:10039000059440F0A3802B994878002800F09980BC
:1003A0004FF0FF340FF6803000F004FF201A40F0C9
:1003B000B58500F090BD6D1E40F0A7853096079D75
:1003C00012AF75B1309E17F8012B02A9304600F02C
:1003D00071FE002801D46D1EF5D10028309640F042
:1003E0009D850A9D3020002D8DF804000CDD309E87
:1003F000012301AA02A9304600F06CFE002840F05B
:100400008D856D1EF4D13096059F089D75B1309E87
:1004100017F8012B02A9304600F04CFE002801D449
:100420006D1EF5D10028309640F078850B9D302068
:10043000002D8DF804000CDD309E012301AA02A9D5
:10044000304600F047FE002840F068856D1EF4D16C
:10045000309605980899099D471875B1309E17F890
:10046000012B02A9304600F025FE002801D46D1EA4
:10047000F5D10028309640F051850C9D3020002D9C
:100480008DF804000CDD309E012301AA02A930463C
:1004900000F020FE002840F041856D1EF4D130961A
:1004A0009DF8400041077FF588AE2020002C8DF894
:1004B00004007FF782AE309D012301AA02A92846DD
:1004C00000F008FE002840F02985641EF4D1309524
:1004D00073E60FF66040059000F0FDBC0E9D002D08
:1004E00004D5204600F086FE044607E02A46204652
:1004F00000F09CFE002814BF041B2C46089400F05A
:10050000EABCD9F8001051F8040BC9F8001020F02B
:100510000004002121F0FF3512ABCDE9024505931F
:10052000DDE9022306993C2413B90AB90E9898B163
:1005300002F00F053035641EEEB23A2EA8BF273503
:10054000120942EA03721B090D5508BF002A03D0A5
:1005500005980D19A842EBD308190590C4F13C0287
:100560000E98089282420ADABDF84010821A4FF6BD
:10057000EF7001400A92ADF8401000F0ACBC0028CA
:1005800040F1A9849DF8400000F01400102840F0CC
:10059000A2840F9B07990A985B1A1B1A9A1A002AC1
:1005A00040F39984E3E32B99487820B14FF0FF346E
:1005B0000FF65030F8E69DF84200622861D06828B6
:1005C00017D06A283FD06C2806D0712847D07428ED
:1005D0002CD07A281DD064E0D9F8001051F8040B13
:1005E000C9F80010002868D14FF0FF340FF62C3006
:1005F000DAE6D9F8001051F8040BC9F8001020B958
:100600004FF0FF340FF61430CEE60D99018000F064
:1006100062BCD9F8001051F8040BC9F8001000288A
:100620004BD14FF0FF340FF6F420BDE6D9F800109F
:1006300051F8040BC9F8001000283ED14FF0FF34E8
:100640000FF6D820B0E6D9F8001051F8040BC9F81D
:10065000001080B94FF0FF340FF6C020A4E6D9F89F
:10066000001051F8040BC9F8001020B94FF0FF3406
:100670000FF6A82098E60D9AD317C0E9002300F0E2
:100680002ABCD9F8001051F8040BC9F8001020B9A1
:100690004FF0FF340FF6842086E60D99017000F0CC
:1006A0001ABCD9F8001051F8040BC9F8001020B991
:1006B0004FF0FF340FF6642076E60D99016000F0EC
:1006C0000ABCD9F80020D21D22F00702C9F8002088
:1006D000D2E900010832C9F80020CDE90201C80FB3
:1006E00002D007982D210AE0BDF84000810702D50D
:1006F00007982B2103E0C00705D50798202112AAEF
:100700001154401C079012A807994BF0200243187F
:10071000DDE90201CDE92C01612A059321AC0BD062
:100720000E98002802D506200E9005E001BF4BF080
:100730002000672801210E91DDE9020148004015E3
:10074000401C0A460DD109030BD0ABF16105032013
:100750001A2D089002D20FF6E0110DE00FF6DC1111
:100760000AE070B912030CD1ABF1610503201A2D18
:1007700008901AD30FF6CC110322184600F082FD20
:10078000A9E3DDE90201CDE92E01DDE92E2323F005
:100790000047B7F5801F22F000060DD20022002F7F
:1007A00008BF002E009203D116E00FF69411E3E784
:1007B0006A4600F0BBFD0FE0DFF8D808DFF8D81874
:1007C00000EB17500090DDE92E234FF0FF30194069
:1007D000DFF8C87810403943CDE902014BF0200022
:1007E00061280DD1059830210170821CBBF1610F89
:1007F00005920CBF7821582141700798801C079002
:10080000DDE9020120F0000231F0004308BF002AB8
:1008100002D10026002567E14BF02008B8F1610FF6
:1008200040F0B4800E98002847BF21210191401C60
:100830000190019FDDE92C017F1C00220023DDE9EE
:10084000024500F0ABFD00998DF8842038BF85F09B
:100850000045091F002F00910DF1850653DD20464C
:1008600029460022002300F0B1FD4CD24800400D83
:1008700000F11C0312D0002B10DD40F2FF70834208
:1008800006DBDFF81C1805F000421143002011E0E0
:100890006FF31E5141EA035120460BE024F00000A3
:1008A00035F0004108BF00280FBF29461C22294609
:1008B00000F0A4FD04460D4600F03EFEFF1F002F91
:1008C000804609DD00F056FE02460B4620462946CA
:1008D00000F062FE04460D46F01D0721B8F1000F3E
:1008E0000CDD491E5EBF08F00F0200F8012D4FEA33
:1008F0002818F3D502E0002200F8012D491EFAD590
:10090000C61D002FABDC0DF18500361A019886421A
:10091000D8BF304600280DF1850430D4B04206DA45
:100920000DF185010A5C082AA8BF0F2100DA002119
:10093000024621AB134400E0401E13F80159521E39
:100940008D42F9D00F2904D10DF185018B5C5B1C20
:100950008B54002A04D50099091D21AC401C00913C
:10096000411E0CD46218ABF13A0613783033DDB275
:100970003A2DA8BFF318491E02F80139F5D50E9992
:10098000002940F1AF80421E0E92ABE00099DFF8E3
:10099000142747F29750414391FBF2F2DDE92C45D1
:1009A000009225F00045D2F1070204DD20462946D9
:1009B00000F04DFB0BE052420020DFF8EC1600F097
:1009C00046FB02460B462046294600F057FE0446E9
:1009D000B8F1660F0E9806BF009F0A3706273F182A
:1009E000142FC8BF142730200D468DF884000DF158
:1009F0008506002F38DD2046294600F063FF0146BA
:100A00000A4606F1080304200A26B2FBF6F606EBB6
:100A1000860EA2EB4E02303203F8012C0A22B6FBFE
:100A2000F2F202EB820EA6EB4E063036401E03F8C1
:100A3000026DE9D1083F002F03F10806D9DD084611
:100A400000F054FF02460B462046294600F0A4FD64
:100A50000022DFF8583600F057FF04460D46CAE77B
:100A6000CBCCCC0C40C700000DF18500361A0DF13F
:100A7000850404E00098401E761E0090641C2078D7
:100A80003028F7D0B8F1660F02D10099491C04E074
:100A9000B8F1650F0CBF012100210E98081886429D
:100AA000B8BF701E00281DD4B04204DA215C34297E
:100AB000C8BF392100DC30210246631E9D1800E0CA
:100AC000401E15F80169521E8E42F9D0392902D113
:100AD000A15C491CA154002A04D50099491C1C465C
:100AE000401C00910646009D00F0E0FF406A077838
:100AF000DDF8388030B2002802DC01260FF24864AD
:100B00004BF02000662808BF6D1C16D0672846D120
:100B100028B210F1040F48DB404546DA9DF840004A
:100B20006D1C010703D430B24045B8BF804628B2DF
:100B3000B8EB000848BF4FF000080FFA85FBBBF187
:100B4000000F00F3B5800898411C089130220599E8
:100B50000A54B8F1000F03DC9DF84000010704D5EA
:100B60000898411C089105990F5418EB0B0FB8BF5A
:100B7000C8F100052DB268420B90A84432B29045EE
:100B8000B8BF4646059B089836B2099632462146BC
:100B9000184400F077FBA8EB06000C90D2E0BBF104
:100BA000610F17D14FF0700B19E030B2404504DAF5
:100BB0009DF840100A0758BF8046B8F1010848BFA9
:100BC0004FF00008BBF1670F14BF4FF0450B4FF01B
:100BD000650B04E0BBF1410F08BF4FF0500B0898C4
:100BE000411C0891B8F1000F059914F8012B0A5423
:100BF00003DC9DF8400001071AD50898411C0891B4
:100C0000B8F1000F05990F5412DD761E30B2804501
:100C10000598089BB8BF464632B22146184400F0FA
:100C200031FB089936B271180891A8EB06000B90B9
:100C300005980899084429B2002980F800B003D427
:100C40002B224270821C04E02D2242700D46821C31
:100C50006D4200212CAB28460AE004460A2094FB92
:100C6000F0F000EB8005A4EB450403F8014B491CB0
:100C700000B20028F1DC012906DC4BF020006528D9
:100C800004BF302002F8010B00292CAB08D1302022
:100C900002F8010B06E0491E585C303002F8010BE7
:100CA0000029F8DC059908980844121A099249E0CD
:100CB00030B229B288421CDA0598089B32B221462C
:100CC000184400F0DFFA089936B27118ABEB06064B
:100CD000B8F1000F08910B9603DC9DF84000020765
:100CE00004D5059847540999491C0991CDF83080DD
:100CF00028E00598089B2AB22146184400F0C2FA61
:100D00000898761B5844B8F1000F089003DC9DF852
:100D100040100A0703D5411C089105990F5430B2C1
:100D200080450598089BB8BF464632B204EB0B01DC
:100D3000184400F0A7FA089836B230180890A8EBCB
:100D400006000B909DF8400000F01400102840F0C1
:100D5000C280079A08990B988A18099982180C98EA
:100D60008A1882180F98824280F2B580821A0A92FD
:100D7000B1E09DF84200622808D068280ED06A28A9
:100D800014D06C281FD0712810D01CE0D9F80010A6
:100D900051F8040BC9F80010C0B21AE0D9F80010DD
:100DA00051F8040BC9F8001080B212E0D9F8002005
:100DB000D21D22F00702C9F80020D2E90001083252
:100DC000C9F8002006E0D9F8001051F8040BC9F862
:100DD00000100021CDE902019DF8400001075AD51D
:100DE000DDE90223002B08BF002A54D04BF020007D
:100DF000782850D1079812A930220A54401C431C6D
:100E0000079301F800B046E09DF84200622808D040
:100E100068280ED06A2814D06C281FD0712810D0F2
:100E20001CE0D9F8001051F8040BC9F8001040B2CA
:100E30001AE0D9F8001051F8040BC9F8001000B2FC
:100E400012E0D9F80020D21D22F00702C9F80020D4
:100E5000D2E900010832C9F8002006E0D9F80010F4
:100E600051F8040BC9F80010C117CDE9020100299F
:100E700002D507982D210AE0BDF84000810702D570
:100E800007982B2103E0C00705D50798202112AA57
:100E90001154401C079012A807990144059102A81B
:100EA000594600F04FF816E001200790D9F80000ED
:100EB00050F8041BC9F800008DF848100BE02521FC
:100EC0000122BBF1000F8DF84810079203D08DF876
:100ED00049B0022107910F9A07980A990C9C121A9F
:100EE0000898521A0B99121A0998521A121A9DF858
:100EF0004000141B41073FF562AA2020002C8DF80A
:100F000004007FF75CAA309E2546012301AA02A9AE
:100F1000304600F0DFF800283FF44DAA4FF0FF30D4
:100F200031B0BDE8F08F00007072696E74665F7357
:100F30003A2062616420257320617267756D656E69
:100F4000740000002DE9FC4307466F293E6908BF85
:100F5000082405D041F02000782814BF0A2410246A
:100F60003C25D7E90023642918BF69299046994692
:100F700005D1002B03D5D8F1000869EB4909B9F177
:100F8000000F08BFB8F1000F0CD1386B50B9082C16
:100F900039D197F83800010735D530203B2586F840
:100FA0003B0030E08DF80010404649462246E317EA
:100FB00000F080FD3032D0B26D1E3A28019504DB7E
:100FC0009DF80000A0F151018A187255404649462B
:100FD0002246E31700F06EFD80465FEA010908BF74
:100FE000B8F1000F03D0F86871198842DCD3082CDF
:100FF00009D197F83800010705D5705D302802D077
:101000006D1E30207055C5F13C02BA617119F9604E
:10101000386B824208DA821A3A624FF6EF70398FE3
:1010200001403987BDE8F38300280ED597F83800D2
:1010300000F01400102808D17B6B7969386A5B1ABC
:101040001B1A9A1A002AC8BF3A62BDE8F3832DE939
:10105000D04306460F4614464FF00008DFF8509084
:1010600012E0E00707D542464B463046394600F0CD
:101070004BFC06460F464046494642464B4600F06A
:1010800043FC641080468946002CEAD1304639463C
:10109000BDE8D08302FCFFFFFFFF0F800000E03FB0
:1010A0000000F07FA08601000000F03F84D7974148
:1010B0000000244010B503460C461146A06898472E
:1010C000A06020B1E06A401CE062002010BD4FF03B
:1010D000FF3010BDF8B505460E4617461C460020E9
:1010E0005CB117F8011BB068A847B06030B1F06A76
:1010F000401CF0620020641EF3D1F2BD4FF0FF30BF
:10110000F2BD00007072696E74665F733A20256EDE
:1011100020646973616C6C6F776564007072696ECE
:1011200074663A2062616420256E20617267756D75
:10113000656E7400000000006E616E004E414E004E
:10114000696E6600494E4600300030B4002513E059
:1011500050F8042BD30744BFA9F101039A18091FC3
:10116000042942F8045BFAD213468C0744BF158069
:101170009B1CC90748BF1D7050F8041B0029E7D10C
:1011800030BC7047C9B202788A421AB11CBF10F84D
:10119000012FF9E718BF002070478268521C826057
:1011A000426832B10268531C036011704168491EE5
:1011B0004160704780B500B906A005490B681BB1B6
:1011C00022220021984701E000F08CFD222002BD80
:1011D0007C630020636F6E73747261696E74206843
:1011E000616E646C65723A20626164206D65737330
:1011F0006167650000F10103810704D010F8011B4D
:10120000820781B1FAD10268A2F10131914311F054
:10121000803104BF50F8042FF6E709BAB1FA81F122
:1012200000EBD100401CC01A70472E00C9B28307E2
:1012300006D0521E22D310F8013B9942F7D11FE08D
:10124000083A13D302F1040241EA012141EA0141C3
:1012500050F8043B121F21BF4B40A3F1013C2CEA84
:10126000030C1CF0803FF3D0C9B2001F083210F805
:10127000013B521E28BF91EA030FF8D818BF012086
:10128000401E704762B38B0708D0521E11F8013B15
:1012900000F8013B00F024808B07F6D1830740F073
:1012A000208000BF103A07D330B4B1E83810103AAC
:1012B000A0E83810F9D230BC530724BFB1E80810B9
:1012C000A0E8081044BF51F8043B40F8043BD207A3
:1012D00024BF31F8022B20F8022B44BF0B78037097
:1012E0007047121F17D35B0009D151F8043B20F857
:1012F000023B1B0C121F20F8023BF6D20BE051F808
:10130000043B00F8013B1B0A20F8023B1B0C121F98
:1013100000F8013BF3D238BF121D521E24BF11F852
:10132000013B00F8013BF8D87047000010B51446A7
:1013300000F002F8226010BDC1F30A5343B14A0025
:1013400012F5001F28D2A3F2FE32A1EB0251704722
:1013500050EA410C20D001F0004C31EA0C01B1FA06
:1013600081F204BFB0FA80F3D2180B3AB2F1200335
:101370002CBF00FA03F1914041EA0C013EBFC2F1DB
:10138000200C20FA0CF319439040524240F2FD33F6
:10139000D21A01EB03517047002270474FF4001C32
:1013A0001CEB410F94BF1CEB430F09E041EA030C17
:1013B00050EA4C0C52EA0C0C03D2994208BF9042FE
:1013C000704714BF8B428242704700004FF4001CEC
:1013D0001CEB410F94BF1CEB430F09E041EA030CE7
:1013E00050EA4C0C52EA0C0C03D28B4208BF8242EA
:1013F000704714BF9942904270470000124254D483
:1014000040F2FF7C1CEA11530FD0634531D09B188A
:1014100063453CBF01EB0251704701F0004141EAD6
:101420000C510020AFF30080704750EA410320D0F8
:1014300001F0004C91EA0C011CD0B1FA81F30B3B96
:101440009A420DD9D21A994051EA0C01C3F1200CED
:1014500020FA0CFC61449840531C40F2FF7CD7E713
:10146000914041EA0C01C2F1200C20FA0CF319431F
:1014700090407047B0FA80F31533202BE0D3202A38
:10148000EED3203A203B9A4209D9D21A00FA03F14E
:1014900041EA0C010020531C40F2FF7CB8E700FA3F
:1014A00002F141EA0C0100207047524240F2FF7CF9
:1014B0001CEA11530DD06345DBD0B2EB030C3CBFEB
:1014C000A1EB025170470CF1010221EA035141F4F2
:1014D000801150EA410CCCD001F0004C352A27DCB9
:1014E00030B481EA0C01B2F1200309DAC2F1200321
:1014F000044601FA03F5D0402843D1409C400CE05B
:10150000C3F12002450020FA03F418BF44F001049F
:1015100021FA03F091400C43002174F1004550F191
:10152000000051EB0C01244230BC7FF47BAF7047CC
:101530006146002076E70000C1F30A5340F2FE3214
:101540009B1A14DDD3F120034FEAE17208DDC902D2
:1015500041EA505141F00040D84080185040704757
:1015600003F2E13010B1D24382F000407047002016
:1015700070470000C11768B14840401AB0FA80F2C5
:101580009040D21CC907C2F5846241EA025202EBC4
:10159000D02140057047000070B44FF0004591EA3B
:1015A000030F40F1A3836B40841A71EB030603D24F
:1015B000001BB141121973414FF4001C1CEB410F89
:1015C00034BF7CEB430442E00C0DA4EB1356352EE4
:1015D0004FDC45EAC323DB0A45EAC121C912B6F153
:1015E00020050DDD63FA05F6EB4086EA030512429D
:1015F00018BF45F00105C01851F100010CD213E0ED
:1016000062FA06F5F2405540F3415A40B340F340C8
:101610005A408018594107D349085FEA30005FEA11
:10162000350528BF45F0010501F58011420875F127
:10163000004250F1000041EB04514E0016F5001F2E
:1016400070BC38BF70470020090D090570471CEBBE
:10165000410F10D252EA43060BD0BCEB410F05D824
:101660000C0DAB43661E342EB6DD02E0AB43801892
:10167000594170BC704770BC70470000F0B540F233
:10168000FF7581EA030C0CF0004C15EA11541DBFE4
:1016900015EA1357AC42AF42E5E0BC41C1F3130178
:1016A000C3F31303801A994143F4801304D2641ED8
:1016B0004000494180185941C90241EA5051B1FBEB
:1016C000F3F603FB1611A2FB0675D7EBC020A94168
:1016D00002D2761E80185941C90241EA5051B1FB2D
:1016E000F3FE03FB1E11A2FB0E75D7EBC020A94130
:1016F00003D2AEF1010E80185941890241EA90519E
:10170000760546EA8E2EB1FBF3F603FB1611A2FB1B
:101710000675D7EB8020A94102D2761E8018594168
:10172000C90241EA50514EEA060EB1FBF3F603FB43
:101730001611A2FB0675D7EBC020A94102D2761E76
:1017400080185941C90241EA5051B1FBF3F703FB3C
:101750001711A2FB0735D3EBC020A94167F10007A1
:101760000CBF004247F0010766F3D5274FEA1E3150
:10177000B80814F5806412DDBD0775F1004250EB26
:101780000E5051EB045111F5801F5CBF41EA0C0172
:10179000F0BD4CF07F6141F0E0410020F0BDBD079D
:1017A0006D0840EA0E5041F48011D4F10104B4F107
:1017B00020060ADAC4F120060200E04001FA06F32E
:1017C000E1401843B24015430EE0342C13DCC6F15F
:1017D000200445EA40056D0820FA06F2154321FA77
:1017E00006F0A1400D43002175F1004250F10000C8
:1017F00051EB0C01F0BD00205FEA0C01F0BDCFB948
:1018000092185B41B3FA83F704BFB2FA82F6BF19AC
:101810000B3FB7F120062FBF02FA06F3BB40C7F11A
:10182000200622FA06F638BF3343BA401CB1E41949
:10183000641E33E77F4231F00041B1FA81F404BF06
:10184000B0FA80F6A4190B3CB4F120062FBF00FAC1
:1018500006F1A140C4F1200620FA06F638BF314354
:10186000A0403C1B1AE7AC421ABF05EA1357AF422F
:1018700012E050EA41061CBF52EA4306BFE750EAB5
:101880004107304661461CBF41EA0551F0BD52EAAE
:10189000430C08BFC143F0BD00204FF4001616EB07
:1018A000410F98BF16EB430F08BF16EB410F24BF43
:1018B000C14305E016EB430F0CBF61464CEA0551EE
:1018C000F0BD0000400D491840EA81200CD2490DBE
:1018D000A1F58061491C40F0004005DBD1F11F01FA
:1018E00054BFC840C017704700207047014648B138
:1018F000B0FA80F18840C91CC1F58461090501EB8B
:10190000D021400570470000B0B581EA030C0CF00F
:10191000004C40F2FF7515EA11541DBF15EA13572C
:10192000AC42AF4239E0E41923EA455343F4801353
:10193000C90241F0004141EA505EC7021100A7FB15
:10194000020200284FF00000EEFB01204FF00001E2
:10195000E3FB072118BF42F0010240180021494172
:10196000E3FB0E01A4F580640F0302D25200404154
:10197000494154F101046CDD470872F1004250F115
:10198000000051EB0451A1F580115CBF41EA0C014C
:10199000B0BD4CEA05510020B0BD05EA1357AC427A
:1019A00014BFAF4241E050EA410E1CBF52EA430E61
:1019B00002E061460020B0BD24423C441BD15FEAF6
:1019C000070EF6D0090302BF01460020AEF1140E47
:1019D000B1FA81F7AEEB070401FA07FE0C37C7F145
:1019E000200100FA07F7C8404EEA000E23EA4553EB
:1019F00043F48013A2E733F00043B3FA83F704BF44
:101A0000B2FA82FE77440B3FE41BB7F1200E2FBFE2
:101A100002FA0EF3BB40C7F1200E22FA0EFE38BFC9
:101A200043EA0E03BA40641C82E750EA410E14BF39
:101A300052EA430E6FF000014FF4001717EB430F0B
:101A40008ABF194617EB410FB5E74CEA0551002054
:101A5000B0BDD4F10104B4F120070FDAC4F12007BE
:101A6000520828BF42F0010210FA07F501FA07F701
:101A7000E1BF2A43E0403843E1400FE0352C98DCD9
:101A8000C7F1200452EA400220FA07F218BF42F0E0
:101A9000010231FA07F0A1400A43002172F100422D
:101AA00050F1000051EB0C01B0BD00000048704740
:101AB00098020020BBBBE1B1B2F5803F80F07E8090
:101AC000022A1ED98C46B1FBF2F102FB11C31B04A2
:101AD00043EA1043B3FBF2FC02FB1C3380B240EA42
:101AE0000343B3FBF2F002FB103240EA0C40002348
:101AF0007047022A05D98446B0FBF2F002FB10C2FF
:101B000070474AB105D100F0010249085FEA300090
:101B1000704700220023704700F09EB90B000200BE
:101B2000002100207047904271EB030CF6D3B3F50F
:101B3000803F2FD2F0B5B3FA83F7B1FA81F4A7F161
:101B40000F0E3D1B5340CEF1200602FA0EF2F34178
:101B50005340B5F10F0746D80F3C2C444140C4F127
:101B60002006A040F1414140B1FBF3F603FB161102
:101B7000A2FB0645001BA94102D2761E80185941DE
:101B800080EA010221FA0EF362FA0EF200215A40B5
:101B90003046F0BD30B4B1FBF3FC03FB1C11A2FBDB
:101BA0000C45001BA94103D2ACF1010C801859412E
:101BB00030BC02460B46604600217047B2F1807F80
:101BC00065D3F0B5B2FA82F7B1FA81F4C7F10F0626
:101BD0003D1B22FA06F307F1110EF24120355A405F
:101BE000B5F10F07B8D94140C4F12006A040F1413A
:101BF0004140B1FBF3FC03FB1C11A2FB0C45001B95
:101C0000A94103D2BCF1010C801859410F2F12D306
:101C10000F3FC90341EA5041B1FBF3F603FB161134
:101C2000A2FB0645D4EBC030A94102D2761E801833
:101C3000594146EACC3C07B34140C7F12006B840C1
:101C4000F1414140B1FBF3F603FB1611A2FB06453F
:101C5000001BA94102D2761E8018594180EA010278
:101C600021FA0EF3C7F1200462FA0EF20CFA07F023
:101C70005A402CFA04F13043F0BD80EA010221FA07
:101C80000EF3002162FA0EF260465A40F0BD8C4617
:101C9000B1FBF2F102FB11C31B0243EA1063B3FB79
:101CA000F2FC02FB1C331B024CEA002043EA1063E7
:101CB000B3FBF2FC02FB1C331B024CEA002043EA9C
:101CC0001063B3FBF2FC02FB1C331B024CEA002046
:101CD00043EA1063B3FBF2FC02FB1C324CEA002027
:101CE00000237047012000F0B9B80000841A71EB9E
:101CF000030604D26E40001BB141121973414FF428
:101D0000001C1CEB410F34BF7CEB430683E00C0D41
:101D1000A4EB1356362E00F37C80012E45EAC32334
:101D200041DC43EA525312BFD20292025B082405FF
:101D300045EAC12141EA5051D2EBC020994125D456
:101D400007D1B0FA80F610FA06F162D000202036F2
:101D500008E0B1FA81F6B140C6F1200220FA02F2A1
:101D60001143B0404FEAF474B4EB465434F001062A
:101D70004FEA74040AD8D6F50016760D04F0004434
:101D8000F04061FA06F25040F1404840C00A40EA93
:101D9000415021F0004128BF5FEA500550F100009A
:101DA00044EBD12135E0DB0A45EAC121C90AB6F18D
:101DB00020050EDD42EA0242120CC5F1200603FAAC
:101DC00006F6EB4042EA06056D42984161F10001DA
:101DD0000DE062FA06F5F240554063FA06FC82EA2D
:101DE0000C02F3405A406D42904161EB030111F443
:101DF000801F05D1641E620502D06D00404149413B
:101E000021F48011430875F1004350F1000041EBCB
:101E1000045170BC70471CEB410F15D223F00043F6
:101E200052EA43060BD04FEA4C0CBCEB410F04D8EE
:101E30000C0D661E342EB7DDEBE7801A994150EA8F
:101E4000410608BF0021E4E708BF1CEB430F28BF91
:101E50006FF00001DDE7000070470000202109035A
:101E600026311820ABBEF9E778B585B005000B9890
:101E7000002807D1502080F31188BFF34F8FBFF3A4
:101E80006F8FFEE70C9C002C07D1502080F3118847
:101E9000BFF34F8FBFF36F8FFEE75C260096009E67
:101EA0005C2E07D0502080F31188BFF34F8FBFF313
:101EB0006F8FFEE7009E002C13D0002811D0206306
:101EC000022084F8590000200390029404A8019095
:101ED0000A980090280000F042F8200000F0A0F8D6
:101EE00001E000200490049806B070BD2DE9F8438D
:101EF00084B00700884616009946300080B2800002
:101F000000F054FD0500002D0BD05C2000F04EFDCC
:101F10000400002C01D0256304E0280000F0D8FD67
:101F200000E00024002C15D0002084F85900002087
:101F3000039002940D9801900C9800904B46B6B215
:101F400032004146380000F00AF8200000F068F83E
:101F5000012001E05FF0FF3005B0BDE8F0832DE91E
:101F6000F84305000C00170098460A9EB900A52208
:101F7000D6F83090484600F059FE306B00EB8700F1
:101F8000071FFF08FF0017F00700002807D05020A8
:101F900080F31188BFF34F8FBFF36F8FFEE7002CE4
:101FA00010D0002100E0491C102907D2605C06EB2C
:101FB000010282F83400605C0028F4D1002086F829
:101FC000430002E0002086F83400DDF82090B9F1EB
:101FD000380F01D35FF03709099CC6F82C90C6F87A
:101FE0004C9000203065301D00F062FE16F11800A4
:101FF00000F05EFE3661D9F13809C6F818907662B5
:1020000000207065002086F85800424629003800FC
:1020100000F08CFE3060002C00D02660BDE8F1831B
:1020200038B5040000F012FFDFF868130868401CA0
:102030000860DFF864532868002806D12C6008681F
:1020400001280DD100F0E5FA0AE0DFF8500300683E
:10205000002805D1E06A2968C96A884200D32C604B
:10206000DFF83C030168491C016000686064DFF828
:1020700034030168E26A914201D2E16A0160211DE4
:10208000DFF82423E36A1420434302EB030000F04B
:1020900012FE00F0F5FEDFF80403006800280DD002
:1020A0002868C06AE16A884208D25FF08050DFF891
:1020B00090140860BFF34F8FBFF36F8F31BD10B521
:1020C00004000020002C14D0DFF8B00300680028C2
:1020D00007D0502080F31188BFF34F8FBFF36F8F6D
:1020E000FEE700F05DF80021200000F013FC00F096
:1020F0005DF8002808D15FF08050DFF844140860D4
:10210000BFF34F8FBFF36F8F10BD10B586B00020A7
:1021100004900020039005AA03A904A800F032FF50
:10212000DFF8104604980290039801900020009078
:102130000023059ADFF800160FF2B140FFF794FE76
:1021400020602068002801D0012000E00020012844
:1021500001D100F023FF012817D1502080F311880E
:10216000BFF34F8FBFF36F8F5FF0FF30DFF8501674
:1021700008600120DFF8241208600020DFF838131F
:10218000086000F0FCFD06B010BD10F1010FFAD19F
:10219000502080F31188BFF34F8FBFF36F8FFEE79E
:1021A000DFF8D8020168491C0160704770B500244F
:1021B0000025DFF8C8623068002807D1502080F37E
:1021C0001188BFF34F8FBFF36F8FFEE700F03EFE25
:1021D0003068401E30603068002855D1DFF8B40107
:1021E0000068002826D14FE0C868C46814F11800C0
:1021F00000F088FD201D00F085FDDFF8A8010168D2
:10220000E26A914201D2E16A0160211DDFF8982162
:10221000E36A1420434302EB030000F04CFDE06A44
:10222000DFF874110968C96A884203D30120DFF816
:10223000B8160860DFF8F81408680028D4D1002C1C
:1022400001D000F052FADFF8BC663468002C0CD0E4
:1022500000F02AF8002803D00120DFF88C1608606F
:10226000641E002CF4D100203060DFF87C0600688A
:10227000002809D001255FF08050DFF8C412086003
:10228000BFF34F8FBFF36F8F00F0FAFD280070BDD2
:10229000DFF824020068704780B500F01BFE0020C4
:1022A000DFF81402006802BDF8B500257348006825
:1022B000002867D180480468641C0460002C19D190
:1022C000DFF8801208680068002807D0502080F3EB
:1022D0001188BFF34F8FBFF36F8FFEE708689A4AEC
:1022E00013680B601060DFF820060168491C01606C
:1022F00000F0FBF9DFF8C864306884422DD320E099
:10230000381D00F0FFFCB86A002803D017F1180050
:1023100000F0F8FC23480168FA6A914201D2F96A98
:102320000160391D204AFB6A1420434302EB03007D
:1023300000F0C1FCF86A18490968C96A884200D3EC
:102340000125804908680068002817D00868C0681F
:10235000C76878688442D3D230600F480068124959
:10236000C26A142042438858022800D30125DFF8AE
:102370007805006800280AD0012508E05FF0FF30EA
:102380003060EAE7DFF87C050168491C016028003D
:10239000F2BD00003C6300202C6300204863002055
:1023A0005863002044630020D03F002038B53348F4
:1023B0000068002804D00120DFF82C15086045E0F3
:1023C0000020DFF824150860DFF840452068006B26
:1023D0005FF0A53102688A4208D142688A4205D17D
:1023E00082688A4202D1C068884205D0206810F114
:1023F0003401206801F013F8DFF81425106800E0BC
:10240000401E1423DFF8685503FB00F169580029CA
:1024100009D10028F4D1502080F31188BFF34F8FE9
:10242000BFF36F8FFEE703FB00F305EB03014B687F
:102430005B684B604B6811F10805AB4202D14B68F9
:102440005B684B604968C9682160106031BD10B598
:102450000C00002807D1502080F31188BFF34F8F64
:10246000BFF36F8FFEE7DFF80C150968183100F035
:102470002EFC0121200000F04DFA10BD6463002005
:1024800038B50D001400002807D1502080F31188C2
:10249000BFF34F8FBFF36F8FFEE7DFF8D8140968E3
:1024A000183100F008FC002C01D05FF0FF3521004E
:1024B000280000F02FFA31BD4063002010B5C0683D
:1024C000C468002C07D1502080F31188BFF34F8FD0
:1024D000BFF36F8FFEE714F1180000F013FCDFF874
:1024E00098040068002815D1201D00F00BFCDFF8CF
:1024F00020040168E26A914201D2E16A0160211D73
:10250000DFF86C24E36A1420434302EB030000F07D
:10251000D2FB05E014F11801DFF8140200F0CBFB48
:10252000DFF8E8030068C06AE16A884205D201204A
:102530000121DFF8B423116000E0002010BD00008D
:1025400004ED00E03063002034630020DFF8B813AE
:1025500009680160DFF8241409684160704738B5E4
:1025600004000D00002C07D1502080F31188BFF328
:102570004F8FBFF36F8FFEE7002D07D1502080F300
:102580001188BFF34F8FBFF36F8FFEE700F05EFC43
:10259000DFF8E80300686168411A2A6812F1010F48
:1025A00001D1002418E0DFF86023126823689A4202
:1025B00004D06268904201D301240DE02868814272
:1025C00007D22868411A29602000FFF7BFFF0024C6
:1025D00002E000202860012400F052FC200032BDFF
:1025E0000120DFF8041308607047000080B500F098
:1025F0003AF8DFF87C030068022807D35FF08050C8
:1026000028490860BFF34F8FBFF36F8F00F006FFBC
:10261000EDE738B5002408E0DFF85403142101FB8E
:1026200004F1084400F035FB641C382CF4D3DFF8C7
:102630005043200000F02DFBDFF84853280000F045
:1026400028FB3B4800F025FBDFF83C0300F021FBB2
:10265000DFF8380300F01DFBDFF834030460DFF817
:102660003403056031BD38B515E000F0EFFBDFF84D
:102670001803C068C468201D00F044FBDFF818038D
:102680000168491E01602868401E286000F0F8FBC0
:10269000200000F009F8DFF8045328680028E4D18E
:1026A00031BD000004ED00E010B5040094F85900BD
:1026B000002806D1206B00F00BFA200000F008FA89
:1026C00010BD94F85900012803D1200000F000FA51
:1026D000F6E794F859000228F2D0502080F31188D0
:1026E000BFF34F8FBFF36F8FFEE7DFF8A4120868C8
:1026F0000068002804D15FF0FF303149086005E030
:102700000868C068C06840682D4908607047DFF8F5
:1027100090020068002801D1012007E0DFF858028C
:102720000068002801D1022000E00020704700006E
:1027300010620020606300208CD10008F8B504000E
:102740000021002839D0DFF8C451E06A2A68D26A33
:1027500090422CD2A069002804D42868C06AD0F125
:102760003800A061DFF8086214276069E16A7943E4
:102770003144884216D1201D00F0C4FA2868C06A8E
:10278000E062DFF820020168E26A914201D2E16A68
:102790000160211DE06A07FB00F706EB070000F06F
:1027A0008AFA02E02868C06AE062012105E0E06C74
:1027B0002A68D26A904200D201210800F2BD0000CE
:1027C0005C63002010B50400002100283DD0DFF834
:1027D0003C010068844207D0502080F31188BFF389
:1027E0004F8FBFF36F8FFEE7206D002807D1502079
:1027F00080F31188BFF34F8FBFF36F8FFEE7206D1B
:10280000401E2065E06AE26C90421ED0206D0028D8
:102810001BD1201D00F076FAE06CE062E06AD0F196
:102820003800A061DFF8E8000168E26A914201D255
:10283000E16A0160211DDFF83821E36A1420434377
:1028400002EB030000F037FA0121080010BD000080
:1028500070B504000122002844D0206D002807D163
:10286000502080F31188BFF34F8FBFF36F8FFEE7C7
:10287000E06C884200D3E16CE06A884232D0206D7F
:1028800090422FD1DFF884000068844207D15020A5
:1028900080F31188BFF34F8FBFF36F8FFEE7E06ABD
:1028A000E162A269002A02D4D1F13801A161DFF806
:1028B000C0501426616970432844814212D1201D02
:1028C00000F020FADFF8DC000168E26A914201D2F0
:1028D000E16A0160211DE06A06FB00F605EB0600D7
:1028E00000F0E9F970BD000050630020DFF88410AB
:1028F0000868002803D00868026D521C0265086849
:10290000704700004C630020546300202C630020BB
:1029100044630020F8B505000C0018480668154F00
:102920003868001D00F0EEF915F1010F07D1002CF9
:1029300005D03868011D154800F0BDF916E0AD1945
:1029400038684560B54206D23868011D11480068F4
:1029500000F0BDF90AE03868011D0D48006800F07C
:10296000B6F9114801688D4200D20560F1BD000042
:10297000D03F00202C6300206463002040630020CF
:10298000E8610020FC610020246200203862002001
:1029900030630020346300203C6300203863002053
:1029A00048630020446300205C6300202DE9F84365
:1029B00004000025FFF7F4FBDFF84C92D9F8000083
:1029C000002801D100F0C1F8904F386804426AD164
:1029D000002C15D08E480068041914F0070F0FD092
:1029E00014F1080014F00704041B14F0070F07D0BB
:1029F000502080F31188BFF34F8FBFF36F8FFEE736
:102A0000002C50D0DFF80C82D8F80000A0424AD346
:102A100081480100066801E0310036687068A04214
:102A200002D230680028F7D1D9F8000086423AD0A7
:102A300077480A68036802EB030532680A60006899
:102A400040007168091B884214D206EB040111F0A2
:102A50000700002807D0502080F31188BFF34F8F64
:102A6000BFF36F8FFEE77068001B4860746008005A
:102A700000F09AF8D8F800107068091AC8F8001029
:102A80006648D8F800100268914202D2D8F80010C7
:102A900001607168386801437160002030606048EF
:102AA0000168491C0160FFF781FB002D01D100F096
:102AB000B7FC15F00700002807D0502080F31188DC
:102AC000BFF34F8FBFF36F8FFEE72800BDE8F2839F
:102AD00010B50100002837D04D480068404201EB96
:102AE00000044A4960680A68104207D1502080F308
:102AF0001188BFF34F8FBFF36F8FFEE72068002868
:102B000007D0502080F31188BFF34F8FBFF36F8F32
:102B1000FEE760680A68104216D02068002813D1CA
:102B20006268086882436260FFF73AFB39490A68C5
:102B3000606882180A60200000F036F839480168A1
:102B4000491C0160FFF732FB10BD10B44FF4705206
:102B50003548010011F0070F04D0C91DC908C9008C
:102B6000521A82182C4801600023436052182848EA
:102B70000068121AD208D2002348026000230468B9
:102B80006360002304682360521A4A60006808608A
:102B90004868224A106048681E4908605FF000409B
:102BA0001A49086010BC704710B41B4A00E0126854
:102BB00011688142FBD3110053681944814204D14A
:102BC0005168406841185160100001004368194481
:102BD0001368994210D10C4913680C68A34208D0BD
:102BE000436811684968CB1843601168096801603F
:102BF00004E00968016001E011680160824200D0D0
:102C0000106010BC70470000F062002004630020D8
:102C1000B8D10008F4620020B8620020F8620020F9
:102C2000FC62002000630020D003002062F30F222A
:102C300062F31F42401810F0030308D0C91A1FD3D3
:102C4000DB0748BF00F8012D28BF20F8022D130034
:102C500030B414461546103928BF20E93C00FAD894
:102C6000490728BF20E90C0048BF40F8042D89001F
:102C700028BF20F8022D48BF00F8012D30BC704756
:102C8000C91818BF00F8012DCB0728BF00F8012D87
:102C9000704710F1080141605FF0FF31816010F171
:102CA0000801C16010F10801016100210160704755
:102CB00000210161704742684A6093688B609368A5
:102CC0005960916008610168491C0160704710B447
:102CD0000B6813F1010F01D1026907E010F108023E
:102CE00000E0526854682468A342FAD253684B60EB
:102CF0004B6899608A60516008610168491C0160F5
:102D000010BC70470169826843689A6042688368B2
:102D10005A604A68824201D182684A600022026198
:102D20000868401E0860086870470000001F5FF0D8
:102D300080730360001F490849000160001F0FF203
:102D40001501016014380260001F7FF0020101606C
:102D5000203870477248006810F1010F07D05020EA
:102D600080F31188BFF34F8FBFF36F8FFEE75020C2
:102D700080F31188BFF34F8FBFF36F8FFEE7E0B58D
:102D800068480168684A914207D1502080F3118851
:102D9000BFF34F8FBFF36F8FFEE700686349884230
:102DA00007D1502080F31188BFF34F8FBFF36F8F8F
:102DB000FEE75F4801780191FF21017001788DF8ED
:102DC00000109DF8001011F050015A4A11705A4934
:102DD00007220A6007E00A68521E0A609DF8002078
:102DE00052008DF800209DF800201206F3D40A68E6
:102DF000D2F10702042A07D0502080F31188BFF3D4
:102E00004F8FBFF36F8FFEE70A6812020A600A68ED
:102E100012F4E0620A60019901704848016851F4B7
:102E200070010160016851F07041016000F090F89C
:102E300000203B49086000F0FBFB4148016851F06D
:102E40004041016000F0E4FB00200EBD502080F303
:102E50001188BFF34F8FBFF36F8F31490A68521C3F
:102E60000A60096801290AD136490968090606D0AD
:102E700080F31188BFF34F8FBFF36F8FFEE770476A
:102E800027490868002807D1502080F31188BFF334
:102E90004F8FBFF36F8FFEE70868401E0860086819
:102EA000002802D1002080F31188704780B550209F
:102EB00080F31188BFF34F8FBFF36F8FFFF7F4F9E3
:102EC000002803D05FF080501E490860002080F386
:102ED000118801BDEFF3058010280FD31A49096846
:102EE000085C14490978C0B2884207D2502080F3A8
:102EF0001188BFF34F8FBFF36F8FFEE70E48006856
:102F00001249096811F4E061884207D2502080F329
:102F10001188BFF34F8FBFF36F8FFEE7704700003C
:102F20007802002000ED00E071C20F4170C20F4135
:102F300000E400E0876300200C63002020ED00E047
:102F400034EF00E004ED00E0BCD100080CED00E03F
:102F50000848002101600021074A116007490968FB
:102F60004FF47A72B1FBF2F1491E054A1160072154
:102F70000160704710E000E018E000E080020020EF
:102F800014E000E0034B03600348086080201060F9
:102F9000704700BFD05B00203050002038B586B0AD
:102FA000002400F0FCF9DFF84404006800281DD07C
:102FB000002004900020039005AA03A904A800F0B3
:102FC00045FBDFF82C5404980290039801900220EE
:102FD00000900023059ADFF81C140FF2FD00FEF7A5
:102FE00043FF28602868002800D00124002C07D166
:102FF000502080F31188BFF34F8FBFF36F8FFEE730
:10300000200007B030BD7FB504001D000020002C5B
:1030100007D1502080F31188BFF34F8FBFF36F8F1C
:10302000FEE7DFF8C8633368002B1CD000910192E3
:103030000294062911DAFFF76AFB022806D1089AE2
:1030400000236946306800F01FFC0CE000230022DA
:103050006946306800F018FC05E000232A00694644
:10306000306800F0DCFC04B070BD7CB504000D00DD
:10307000DFF884030068C068C668301DFFF742FEB1
:1030800096F8280040071BD523002A00B1690919CA
:10309000300000F08DF8002818D0002000900023A8
:1030A000220000213000FFF7AEFF002807D150209A
:1030B00080F31188BFF34F8FBFF36F8FFEE705E0FA
:1030C00096F8280010F0FE0086F828003000316ADB
:1030D000884773BD0000000080B5684600F041F8E5
:1030E000009900F003F800F082F8F6E77CB50500DF
:1030F0000C00FFF755F8684600F046F80600009807
:1031000000282BD1002C08D1AE4206D3FFF74EF891
:1031100031002800FFF7A9FF22E0002C08D0DFF8DB
:10312000DC0200680068002801D1012400E00024CE
:103130002200AD1B2900DFF8B402006801F002F89C
:10314000FFF734F800280BD15FF08050DFF8B012A1
:103150000860BFF34F8FBFF36F8F01E0FFF726F8D2
:1031600073BDDFF8942211680968002901D101219B
:1031700000E0002101600068002803D11068C068E9
:10318000006800E00020704770B50400FFF780F889
:103190000500DFF870623068854204D200F0C5F89F
:1031A0000120206001E0002020603560280070BD13
:1031B00010B50024416000618A420BD3D21A8169A4
:1031C0008A4201D3012410E0011D8C480068FFF7FA
:1031D0007EFD0AE09A4203D2994201D3012404E021
:1031E000011D85480068FFF772FD200010BD10B575
:1031F00086B0FFE7002201A97C48006800F0DBFCF4
:10320000002800F09080019800280ED502AA002A1C
:1032100007D1502080F31188BFF34F8FBFF36F8F1A
:10322000FEE7916850681268904701980028E1D441
:10323000039C6069002802D0201DFFF763FD05A8EC
:10324000FFF7A2FF0200019800280ED002280CD040
:103250000BD304283AD032D3062806D053D30828FB
:103260002DD002D3092831D05CE094F8280050F02A
:10327000010084F82800029B0299A06941182000EF
:10328000FFF796FF0028B5D02000216A884794F800
:1032900028004007AED5002000900023029AA069C4
:1032A000821800212000FFF7AEFE0028A2D1502096
:1032B00080F31188BFF34F8FBFF36F8FFEE794F851
:1032C000280010F0FE0084F8280093E794F8280006
:1032D00050F0010084F828000298A061A06900283D
:1032E00009D013001000A1698A1811000200200003
:1032F000FFF75EFF7EE7502080F31188BFF34F8F0A
:10330000BFF36F8FFEE794F82800800703D42000F6
:10331000FFF7DEFB05E094F8280010F0FE0084F8CB
:10332000280067E766E706B010BD7CB505E0706071
:103330003661311D2068FFF7CAFC2F4C20680068F9
:10334000002826D02068C06805682068C068C66864
:10335000301DFFF7D7FC3000316A884796F8280007
:103360004007EAD5B06940198542E0D300200090BB
:1033700000232A0000213000FFF745FE002800D07E
:10338000DBE7502080F31188BFF34F8FBFF36F8FBF
:10339000FEE7206819490A682260086073BD7CB5A1
:1033A000FFF754FD114C206800281BD1164D280052
:1033B000FFF76FFC154E3000FFF76BFC0E48056001
:1033C0000E48066000200090114B124A10210A207E
:1033D00000F091F920602068002803D00E49206891
:1033E00000F088FEFFF74CFD73BD00007063002005
:1033F0007463002094D10008686300206C6300208F
:1034000004ED00E0786300204C6200206062002040
:103410007C5D0020CC5800209CD10008704770478C
:10342000704780B5494A00210FF2411000F058FF63
:103430004749086001BD70B5002001F05BF9040048
:10344000002002E043490854401C0528FAD3414DAE
:1034500005232A000021200001F094F90521002213
:103460002E003000FFF7E2FB05232A000021200098
:1034700001F068F970BD70B5002001F0A3F90400F7
:1034800000F009FF050011E0334E3100200001F08B
:10349000C5F996F9063096F9052096F904102F48DB
:1034A00001F0D4F94FF4FA7000F07CFF00F0F3FE65
:1034B000401B44F620618842E6D370BD1CB5002055
:1034C00001F0DAF90400002002E025490854401C0C
:1034D000B0F5806FF9D3002003E00021214A115498
:1034E000401CB0F5806FF8D34FF480631C4A002174
:1034F000200001F06CFA4FF4806000904FF480637C
:10350000184A0021200001F0DDF913BD38B54FF64F
:10351000FF70FF252800002001F0F6FA04000821C2
:10352000200001F027FBC0B201000F4801F02AFB88
:103530002A00D2B292B22021200001F013FB95F0B4
:10354000FF05642000F02EFFE9E7000080CE0008B0
:10355000E4620020A8620020B062002020D00008B1
:1035600030480020304C0020A4D0000800B585B0C1
:103570000020FFF760FFFFF77EFFFFF79FFF01F0DE
:103580003DFB01F0A0FBFFF7C1FF0021684601F001
:10359000CFFB4FF47A7000F005FFFAE7EFF30980F4
:1035A000BFF36F8F264B1A681EF0100F08BF20ED77
:1035B000108A20E9F04F106009B44FF0500080F3FA
:1035C0001188BFF34F8FBFF36F8FFEF7EFFE4FF001
:1035D000000080F3118809BC19680868B0E8F04F52
:1035E0001EF0100F08BFB0EC108A80F30988BFF3FB
:1035F0006F8F7047124B19680868B0E8F04F80F37E
:103600000988BFF36F8F4FF0000080F31188704777
:103610000C480068006880F308884FF0000080F3D1
:10362000148862B661B6BFF34F8FBFF36F8F00DFB0
:10363000DFF81400016841F4700101607047000078
:103640002C63002008ED00E088ED00E0034B0360F0
:10365000034808604FF48070106070472C5C0020B5
:103660003044002038B504000D00002C07D1502054
:1036700080F31188BFF34F8FBFF36F8FFEE7FFF723
:10368000E5FB2168E26B206C424301EB0200A06085
:103690000020A063206860602168E26B521E206CED
:1036A000424301EB0200E0605FF0FF3084F8440029
:1036B00084F84500002D12D12069002817D014F19C
:1036C0001000FEF7FBFE002811D05FF08050DFF8FD
:1036D000D8170860BFF34F8FBFF36F8F07E014F167
:1036E0001000FFF7D6FA14F12400FFF7D2FAFFF723
:1036F000C7FB012032BD38B51C00002807D150207F
:1037000080F31188BFF34F8FBFF36F8FFEE7002C5C
:1037100007D1502080F31188BFF34F8FBFF36F8F15
:10372000FEE7002A01D0002901D0012300E0002398
:10373000DBB2002B07D1502080F31188BFF34F8FED
:10374000BFF36F8FFEE7002A01D1002901D10123C9
:1037500000E00023DBB2002B07D1502080F311885A
:10376000BFF34F8FBFF36F8FFEE750230093009B93
:10377000502B07D0502080F31188BFF34F8FBFF339
:103780006F8FFEE7009B002C07D0049B012584F877
:1037900046500094DBB200F027F8200032BDF8B5A7
:1037A00005000E001700002D07D1502080F311886E
:1037B000BFF34F8FBFF36F8FFEE706FB05F050306E
:1037C000FFF7F4F80400002C0CD0200010F1500298
:1037D000002084F8460000943B00DBB23100280052
:1037E00000F002F82000F2BD38B51C00049D00294D
:1037F00001D12D6000E02A60E863296401212800DE
:10380000FFF730FF85F84C4031BD1CB50C001300AC
:10381000002807D1502080F31188BFF34F8FBFF3EA
:103820006F8FFEE7A04207D2502080F31188BFF3CC
:103830004F8FBFF36F8FFEE702210091002200211E
:10384000FFF759FF002800D0846316BD10B50C00A7
:10385000002807D1502080F31188BFF34F8FBFF3AA
:103860006F8FFEE7A04207D2502080F31188BFF38C
:103870004F8FBFF36F8FFEE702220021FFF78FFF0C
:10388000002800D0846310BDF7B505000E001F00AE
:103890000024002D07D1502080F31188BFF34F8FF3
:1038A000BFF36F8FFEE7002E02D1286C002801D1F4
:1038B000012000E00020C0B2002807D1502080F392
:1038C0001188BFF34F8FBFF36F8FFEE7022F02D136
:1038D000E86B012801D1012000E00020C0B20028DF
:1038E00007D1502080F31188BFF34F8FBFF36F8F44
:1038F000FEE7FEF70CFF002802D10298002801D154
:10390000012000E00020C0B2002838D1502080F310
:103910001188BFF34F8FBFF36F8FFEE70298002827
:103920005CD0002C03D16846FEF710FE0124FFF79F
:10393000A7FAFEF735FCFFF789FA95F9440010F174
:10394000010F02D1002085F8440095F9450010F1DF
:10395000010F02D1002085F84500FFF791FA02A976
:103960006846FEF7FCFD002852D1280000F0B3FBAA
:10397000002837D1280000F069FBFEF717FCFFF79D
:1039800065FAA86BE96B884201D3022FC6D13A00D1
:103990003100280000F002FB696A00290FD015F100
:1039A0002400FEF78BFD002814D05FF08050DFF874
:1039B000F8140860BFF34F8FBFF36F8F0AE0002841
:1039C00008D05FF08050DFF8E0140860BFF34F8F3D
:1039D000BFF36F8FFFF754FA01201FE0FFF750FA93
:1039E00000201BE0029915F11000FEF730FD2800C1
:1039F00000F02CFBFEF7DAFB0028C0D15FF080500E
:103A0000DFF8A4140860BFF34F8FBFF36F8FB6E7E2
:103A1000280000F01BFBFEF7C9FB0020FEBD2DE9CE
:103A2000F84305000E0014009846002D07D15020E1
:103A300080F31188BFF34F8FBFF36F8FFEE7002E27
:103A400002D1286C002801D1012000E00020C0B282
:103A5000002807D1502080F31188BFF34F8FBFF3A8
:103A60006F8FFEE7B8F1020F02D1E86B012801D198
:103A7000012000E00020C0B2002807D1502080F3D0
:103A80001188BFF34F8FBFF36F8FFEE7FFF722FA66
:103A9000EFF31187502080F31188BFF34F8FBFF3EE
:103AA0006F8FA86BE96B884202D3B8F1020F21D166
:103AB00095F94590A86B42463100280000F06EFA57
:103AC00048465FF0FF3140B288420DD1686A002855
:103AD00009D015F12400FEF7F1FC002803D0002CDA
:103AE00001D00120206003E019F1010985F845901B
:103AF000012000E0002087F31188BDE8F28370B553
:103B000005000C00002D07D1502080F31188BFF371
:103B10004F8FBFF36F8FFEE7286C002807D050202F
:103B200080F31188BFF34F8FBFF36F8FFEE72868D4
:103B3000002802D1A868002801D1012000E000205F
:103B4000C0B2002807D1502080F31188BFF34F8FF7
:103B5000BFF36F8FFEE7FFF7BDF9EFF3118650203B
:103B600080F31188BFF34F8FBFF36F8FA86BE96BA2
:103B700088421CD295F94510401CA86308005FF0EC
:103B8000FF3240B290420DD1686A00280DD015F185
:103B90002400FEF793FC002807D0002C05D001205C
:103BA000206002E0491C85F84510012000E000205B
:103BB00086F3118870BDF7B506000F000024002EB3
:103BC00007D1502080F31188BFF34F8FBFF36F8F61
:103BD000FEE7002F02D1306C002801D1012000E067
:103BE0000020C0B2002807D1502080F31188BFF315
:103BF0004F8FBFF36F8FFEE7FEF789FD002802D1DC
:103C00000298002801D1012000E00020C0B2002865
:103C10000CD1502080F31188BFF34F8FBFF36F8F0B
:103C2000FEE7300000F012FAFEF7C0FAFFF70EF9D7
:103C3000B56B002D06D1029800281FD1FFF720F99F
:103C4000002064E03900300000F0EBF96D1EB56330
:103C5000306900280ED016F11000FEF72FFC002866
:103C600008D05FF08050DFF840120860BFF34F8F3C
:103C7000BFF36F8FFFF704F9012048E0002C03D158
:103C80006846FEF763FC0124FFF7FAF8FEF788FAAE
:103C9000FFF7DCF896F9440010F1010F02D1002083
:103CA00086F8440096F9450010F1010F02D100207A
:103CB00086F84500FFF7E4F802A96846FEF74FFCD6
:103CC000002819D1300000F0F8F90028A9D0029995
:103CD00016F12400FEF7BBFB300000F0B7F9FEF749
:103CE00065FA0028A2D15FF080506F490860BFF3E9
:103CF0004F8FBFF36F8F99E7300000F0A7F9FEF701
:103D000055FA300000F0D9F900288FD00020FEBD10
:103D100073B582B0060000240025002E07D1502084
:103D200080F31188BFF34F8FBFF36F8FFEE7306CC6
:103D3000002807D0502080F31188BFF34F8FBFF3C6
:103D40006F8FFEE7FEF7E3FC002802D103980028FE
:103D500001D1012000E00020C0B200280CD1502089
:103D600080F31188BFF34F8FBFF36F8FFEE73000F2
:103D700000F06CF9FEF71AFAFFF768F8B06B00284C
:103D80000CD1039800282AD1002D24D0502080F394
:103D90001188BFF34F8FBFF36F8FFEE7401EB063F4
:103DA0003068002802D1FEF7A1FDB060306900281C
:103DB0000DD016F11000FEF781FB002807D05FF050
:103DC000805039490860BFF34F8FBFF36F8FFFF703
:103DD00057F8012065E0FFF753F8002061E0002C60
:103DE00003D16846FEF7B2FB0124FFF749F8FEF75E
:103DF000D7F9FFF72BF896F9440010F1010F02D123
:103E0000002086F8440096F9450010F1010F02D118
:103E1000002086F84500FFF733F803A96846FEF74F
:103E20009EFB002824D1300000F047F900289ED0E6
:103E30003068002807D1FFF709F8B068FEF77EFC6C
:103E40000500FFF71DF8039916F12400FEF7FFFAAD
:103E5000300000F0FBF8FEF7A9F900288CD15FF0E4
:103E6000805011490860BFF34F8FBFF36F8F83E716
:103E7000300000F0EBF8FEF799F9300000F01DF982
:103E800000283FF479AF002D0AD0FEF7DFFF3000A5
:103E900000F07AF80100B068FEF7DAFCFEF7F0FFF8
:103EA000002004B070BD000004ED00E02DE9F843EF
:103EB00005000E001400002D07D1502080F311885A
:103EC000BFF34F8FBFF36F8FFEE7002E02D1286C38
:103ED000002801D1012000E00020C0B2002807D155
:103EE000502080F31188BFF34F8FBFF36F8FFEE731
:103EF000FEF7F0FFEFF31188502080F31188BFF335
:103F00004F8FBFF36F8FAF6B002F21D095F9449087
:103F10003100280000F085F87F1EAF6348465FF04F
:103F2000FF3140B288420DD1286900280ED015F12A
:103F30001000FEF7C3FA002808D0002C06D001209C
:103F4000206003E019F1010985F84490012000E0A8
:103F5000002088F31188BDE8F28310B50400002C1E
:103F600007D1502080F31188BFF34F8FBFF36F8FBD
:103F7000FEE7200000F0D0F894F84600002802D1B7
:103F80002000FEF7A5FD10BD416A002904D0006B9A
:103F90000068D0F1380000E0002070472DE9F041C2
:103FA000060015000027B46B306C002809D130687A
:103FB000002831D1B068FEF705FC07000020B06092
:103FC0002AE0002D0FD1326C75682800FDF75AF9F0
:103FD0007068316C084470607068B16888421BD3A7
:103FE0003068706018E0326CD6F80C804046FDF7FF
:103FF00049F9F068316C49420844F060F068316872
:10400000884204D2B068316C49420844F060022D05
:1040100002D1002C00D0641E641CB4633800BDE8DB
:10402000F08110B50C00016C00290ED0C168026C43
:104030001144C160C1688268914201D30168C160C6
:10404000026CC1682000FDF71DF910BD70B50400B9
:10405000FEF7FCFE94F9455008E014F12400FEF749
:104060002DFA002801D0FEF7BBFA6D1E280040B2E1
:10407000012802DB606A0028EFD15FF0FF3584F889
:104080004550FEF7FDFEFEF7E1FE94F9446008E0BE
:1040900014F11000FEF712FA002801D0FEF7A0FA82
:1040A000761E300040B2012802DB20690028EFD1E3
:1040B00084F84450FEF7E4FE70BD10B50400FEF72E
:1040C000C5FEA06B002801D1012400E00024FEF70A
:1040D000D7FE200010BD10B50400FEF7B7FEA06BA0
:1040E000E16B884201D1012400E00024FEF7C8FE04
:1040F000200010BD10B4002300E05B1C082B09D287
:104100000F4C54F83320002AF7D144F8331004EB55
:10411000C301486010BC7047002100E0491C082919
:104120000CD2074A02EBC1035B688342F6D1002040
:1041300042F83100002002EBC101486070470000E6
:10414000D45F002070B504000D001600FEF77EFE5F
:1041500094F9440010F1010F02D1002084F84400CA
:1041600094F9450010F1010F02D1002084F84500B8
:10417000FEF786FEA06B002805D13200290014F15D
:104180002400FEF77DF92000FFF760FF70BD0000FE
:10419000020052B2002A05D40901DFF8282240B2F9
:1041A000115408E00901DFF8202240B210F00F009E
:1041B000104400F8041C704780B5DFF81002006856
:1041C000FEF7A5FA012801D0FEF770FE01BD80B50B
:1041D00000217FF00400FFF7DBFF01BDEFF3058056
:1041E000002802D07FF005000AE0DFF8E41108683B
:1041F000002803D101200860002001E05FF0FF30BB
:10420000704780B5FEF783FA002803D0022803D157
:10421000022009E0032007E0DFF8B401006801286C
:1042200001D1012000E0002002BD10B5EFF30580B0
:10423000002802D07FF005000EE0DFF894412068EE
:10424000012807D1FFF7C3FF02202060FDF75DFFC3
:10425000002001E05FF0FF3010BD80B5EFF3058076
:10426000002802D0FEF718F801E0FEF711F802BDB1
:10427000DFF860010068DFF860110968401A7047D4
:10428000DFF848010068C0F300407047DFF84401E0
:104290000068401C704770B5EFF31080002803D110
:1042A000EFF31180002801D0012400E00024E4B2E3
:1042B00072B6FDF7EDFF0500FFF7DAFF0600FFF726
:1042C000DFFF002803D0FFF7D3FF06006D1CFFF7C8
:1042D000DDFF00FB0565002C00D162B6280070BD33
:1042E000F8B584B000230393EFF30583002B56D178
:1042F0000300002B53D08025182300245FF0FF36E5
:10430000002A2ED01768002F00D014689769002F5C
:1043100000D09369002B04D0392B02D21779FF0704
:1043200001D500203CE05769002F01D05569AD0848
:104330009768002F0AD0D7685C2F07D31769002F22
:1043400004D05769002F01D001260BE09768002F99
:1043500008D1D768002F05D11769002F02D1002698
:1043600000E00026012E0BD1966802961269019298
:1043700000930B002A002100FDF776FD03900EE06C
:10438000002E0CD103AA019200930B002A0092B2D6
:104390002100FDF7ABFD012801D000200390039818
:1043A00005B0F0BD10B5EFF30581002902D07FF014
:1043B000050404E00024002801D0FDF780FE200061
:1043C00010BD000000E400E018ED00E010E000E0A7
:1043D000CC62002014E000E018E000E07CB50E00A4
:1043E00015000024EFF30581002956D1002854D090
:1043F000B04252D35FF0FF32002D0FD0A9680029E0
:1044000004D0E968502901D3012208E0A9680029F5
:1044100005D1E968002902D1002200E0002212F152
:10442000010F3AD0012822D1012A09D1032000909E
:10443000AB68002200210120FFF75DF9040005E0D0
:10444000032200210120FFF7AAF90400002C1AD052
:10445000002E18D00023002200212000FFF714FABC
:10446000012810D02000FFF778FD00240BE0012A7E
:1044700005D1AA683100FFF7C8F9040003E0310054
:10448000FFF7E4F90400002C07D0002D01D02968C3
:1044900000E000212000FFF72DFE200076BD38B59A
:1044A0000C000025002802D17FF003052BE0EFF37C
:1044B000058100291BD0002C02D07FF0030522E0EB
:1044C000002100916A460021FFF7F0FC012802D08C
:1044D0007FF0020517E00098002814D05FF08050AC
:1044E00064490860BFF34F8FBFF36F8F0BE021006B
:1044F000FFF70EFC012806D0002C02D07FF001054A
:1045000001E07FF00205280032BD1CB50024002820
:1045100002D17FF0030422E0EFF30581002915D0DA
:10452000002100916946FFF7EAFA012802D07FF0E6
:10453000020414E00098002811D05FF080504D492B
:104540000860BFF34F8FBFF36F8F08E00023002296
:104550000021FFF799F9012801D07FF00204200023
:1045600016BD7CB514000025EFF30582002A40D16A
:1045700000283ED000293CD05FF0FF33002C1DD036
:10458000A268002A0CD0E268502A09D32269002AC6
:1045900006D0626901FB00F6B24201D301230EE0AE
:1045A000A268002A0BD1E268002A08D12269002AF9
:1045B00005D16269002A02D1002300E00023012B0B
:1045C00007D100220092A3682269FFF794F8050042
:1045D00005E0002B03D10022FFF7E1F80500002DD4
:1045E00007D0002C01D0216800E000212800FFF74F
:1045F00081FD280076BD38B51C000025EFF305824B
:10460000002A1FD0002803D0002901D0002C02D09E
:104610007FF003052AE00022009200236A46FFF79C
:10462000FEF9012802D07FF002051FE00098002863
:104630001CD05FF080500F490860BFF34F8FBFF36D
:104640006F8F13E0002801D0002902D17FF003050D
:104650000CE000232200FFF717F9012806D0002CF8
:1046600002D07FF0010501E07FF00205280032BD95
:104670000000000004ED00E038B51C000025EFF359
:104680000582002A1FD0002803D0002901D0002C69
:1046900002D07FF0030529E0002200926A46FFF76E
:1046A00005FC012802D07FF002051FE000980028D9
:1046B0001CD05FF08050DFF838100860BFF34F8FD8
:1046C000BFF36F8F12E0002801D0002902D17FF0E4
:1046D00003050BE02200FFF76EFA012806D0002C3C
:1046E00002D07FF0010501E07FF00205280032BD15
:1046F00004ED00E038B500281DD100F023FB0400D4
:104700006569002000F026FD2860022000F0ACFD65
:1047100068600A4D0A4828616C60E868002805D185
:10472000002201210120FFF759FEE860200000F07F
:1047300082FB280000E0002032BD00002C61002038
:10474000D4D000082DE9F04104000D0016001F0030
:10475000D4F81080E068002804D05FF0FF31E068F2
:10476000FFF79DFE3B009BB2320029006068D8F83D
:104770000050A847E068002802D0E068FFF7C5FEB7
:10478000BDE8F0812DE9F04104000D0016001F0086
:10479000D4F81080E068002804D05FF0FF31E068B2
:1047A000FFF77DFE3B009BB2320029006068D8F81D
:1047B0000450A847E068002802D0E068FFF7A5FE93
:1047C000BDE8F08138B5002821D100F0CDFD04000E
:1047D0006569002000F0BEFC2860032000F044FD65
:1047E0006860012000F054FEA8600A4D0A48286164
:1047F0006C60E868002805D1002201210120FFF744
:10480000EDFDE860200000F02BFE280000E0002015
:1048100032BD000048610020E4D0000870B50400FB
:104820000D002669E068002804D05FF0FF31E068E1
:10483000FFF735FE2900606832689047E06800287D
:1048400002D0E068FFF761FE70BD00000EB400B555
:10485000B2B0020033ABC821684600F049FE020046
:1048600092B269460348006801F0DDF8002032B0DA
:104870005DF810FBE862002038B500281DD101F07A
:10488000EDF904006569002000F064FC2860042054
:1048900000F0EAFC6860094D094828616C60E8682E
:1048A000002805D1002201210120FFF797FDE860D3
:1048B000200001F068FB2800FFE732BD10610020F6
:1048C00058D000082DE9F84FADF5027D0400894667
:1048D00090462569E068002804D05FF0FF31E06869
:1048E000FFF7DDFDDDF830A24E46760A5FEAC959D2
:1048F0005FEAD959D9F5007702AA31006068AB6840
:104900009847380080B2504550D23A0092B202A87F
:1049100000EB0901C1464846FCF7B4FCB9461FFA52
:1049200089F9BAEB09095FEA5929380080B2BAEB74
:10493000000A5FEACA5A5FEADA5ACDF800A05FF0CF
:10494000000A16E002AA1AEB0601491C6068AB686F
:1049500098474FF4007202A94FF4007000FB0AF070
:1049600010FA87F008EB000B5846FCF78BFC1AF1A5
:10497000010ACA45E6D3009800281ED002AA1AEB05
:104980000606761C31006068AB6898470098019075
:1049900002A94FF4007000FB0AFA1AFA87F008EB3C
:1049A0000005019A2800FCF76DFC06E0524602A8BB
:1049B00000EB09014046FCF765FCE068002802D0E6
:1049C000E068FFF7A2FD0DF5037DBDE8F08F2DE94E
:1049D000F84FADF5027D05000C0091469A462E6910
:1049E000E868002804D05FF0FF31E868FFF757FD62
:1049F00027007F0AE405E40DD4F50078002C05D0EB
:104A000002AA39006868B368984707E0BAF5007FE2
:104A100004D202AA39006868B3689847404680B259
:104A200050455AD2424692B2494602A80444200058
:104A3000FCF728FC02AA39006868F36898474446E6
:104A4000A4B2BAEB0404640A404680B2BAEB000A8E
:104A50005FEACA5A5FEADA5ACDF800A05FF0000AAE
:104A600017E04FF400724FF4007000FB0AF010FAE8
:104A700088F009EB00010DF1080B5846FCF702FC29
:104A800002AA1AEB0701491C6868F36898471AF1F3
:104A9000010AA245E5D3009800282AD002AA1AEB01
:104AA0000701491C6868B3689847009801904FF463
:104AB000007000FB0AF010FA88F009EB000102AC6C
:104AC000019A2000FCF7DEFB02AA1AEB07077F1C05
:104AD00039006868F36898470BE05246494602A8D7
:104AE00004442000FCF7CEFB02AA39006868B368D2
:104AF0009847E868002802D0E868FFF706FD002024
:104B00000DF5037DBDE8F08F38B5002824D10020D5
:104B100001F088FA05006C69012001F07BFB206040
:104B200020202081002252F0010252F0020252F0B5
:104B3000040252F0080252F0100252F0200252F029
:104B4000400252F0800292B20021280001F08DFA5A
:104B50000248034901614560004832BD4C600020B5
:104B60000C00002080B5036992B289B24068DB680E
:104B7000984702BD80B5026989B240689268904743
:104B800002BD00000EB4C0B5024603A8002101908A
:104B9000009101AB0121044878440C30FBF7F4FA92
:104BA00006BC5DF810FB00BF4184000080B5010029
:104BB0005FF0FF3300221A480068FFF71CFD01BDBB
:104BC00000B5ADF5037DFFE75FF0FF3300226946D6
:104BD00013480068FFF750FD0028F5D19DF8080044
:104BE0000128F1D0F0D3032805D003D3052804D041
:104BF00002D3E9E7E8E7E7E7E6E7E5E780B5002283
:104C00004FF403710120FFF7ACFC05490860054A29
:104C100000210548FFF764FB0449086001BD00005E
:104C200020630020A4CE0008C14B00081C630020B4
:104C300010B5ADF5826D002414E0200080B200288C
:104C400010D00DF10D02210089B284A801F07AFB89
:104C5000010089B2002904D0ADF80E0201A8FFF7C7
:104C6000A5FF00245FF0FF3269462448006800F089
:104C700027FF0028F6D09DF800000028DDD0200096
:104C800080B2B0F5007F07D29DF8000084A9220011
:104C900092B28854641CE5E70024E3E700B5ADF563
:104CA000017D5FF0FF330022694613480068FFF77B
:104CB000E3FC0028F5D1BDF8002269460F480068E2
:104CC00000F0B1FEEDE780B5002000F0F3FD0B49E8
:104CD0000860002240F202210220FFF742FC064950
:104CE0000860074A00210748FFF7FAFA064A002140
:104CF0000648FFF7F5FA01BD246300202863002071
:104D0000ECCE00089D4C0008C8CE0008314C0008CD
:104D100080B500224FF40071084801F04BFC01BD42
:104D200080B501224FF40071044801F043FC01BD3D
:104D3000002902D1024A0261C1607047001C024092
:104D4000DCD000083F4840494161704738B50C004D
:104D50004569686800F0FCFA2100C9B2286800F0D3
:104D600018FA686800F0FAFA31BDF8B50C001500C1
:104D70001E0047690621FFF7E9FF786800F0E8FAAE
:104D80000221386800F005FA2100090AC9B2386822
:104D900000F0FFF92100C9B2386800F0FAF90020EC
:104DA00000E0401C310089B28842FAD3320092B24E
:104DB0002900386800F0F5F9786800F0CFFAF1BD05
:104DC000F8B50C0015001E0047690020786800F057
:104DD000BFFA0321386800F0DCF92100090AC9B2E2
:104DE000386800F0D6F92100C9B2386800F0D1F96E
:104DF000002404E0386800F0DCF92855641C300019
:104E000080B28442F6D3786800F0A8FAF1BD38B5D4
:104E100044690020606800F09BFA0521206800F0DA
:104E2000B8F9206800F0C5F90500606800F096FA4E
:104E30002800C0B232BD80B54169FFF7E8FF0349E1
:104E4000087001BD9C6100209462002086630020F0
:104E50002DE9F84386B004001422002101A801F0D6
:104E6000E0FB2068DFF8A813884240F0968000201D
:104E70000090DFF8A003016851F4805101600068E0
:104E800010F480500090009800200090DFF88853C4
:104E9000286850F002002860286810F00200009096
:104EA00000983820019002200290002003900320F7
:104EB00004900520059001A9DFF8600301F086FA4F
:104EC00000200090286850F480002860286810F4C2
:104ED000800000900098DFF84853DFF8480328600E
:104EE0005FF0C0666E604020A8600020E8604FF46C
:104EF00080672F61002068610020A8610020E861C0
:104F000000202862002068620320A8625FF4000885
:104F1000C5F82C805FF40019C5F83090280001F026
:104F20008BFBA564AC63DFF80053DFF80003286057
:104F30006E600020A8600020E8602F61002068619A
:104F40000020A8610020E8615FF4003028620020A2
:104F500068620320A862C5F82C80C5F8309028004C
:104F600001F06AFBE564AC63012205210F2001F02A
:104F700043FE0F2001F051FE002205210E2001F01A
:104F80003BFE0E2001F049FE00220521232001F006
:104F900033FE232001F041FE29E02068A449884225
:104FA00025D100200090A348016851F480410160A0
:104FB000006810F48040009000980020009096480F
:104FC000016851F480710160006810F480700090F5
:104FD00000980E20019002200290002003900320F0
:104FE00004900520059001A9934801F0EFF907B05E
:104FF000BDE8F08380B501F0FDFE90490968C1F37A
:105000008221042901D2012103E00222091F12FAA0
:1050100001F1B0FBF1F002BD38B590B0040008A872
:1050200087492022FCF73EF9FFF7E4FF05006846B8
:1050300084492022FCF736F9002000E0401C0828B3
:105040000BDA694651F82010B5FBF1F1A142F5D217
:1050500008A901EB8000406800E0382011B030BDA5
:1050600010B56B4902688A4223D1774C21604FF416
:10507000827060600020A0600020E060022020615B
:10508000012060614FF40070A0617048FFF7C4FF19
:10509000E06100202062002060620020A0620A20FF
:1050A000E062200001F0E6FE002825D002F0F4FBCB
:1050B00022E05F49006888421ED1654C21604FF4B0
:1050C000827060600020A0600020E060002020610D
:1050D000012060614FF40070A0615C48FFF79CFF05
:1050E000E06100202062002060620020A0620A20AF
:1050F000E062200001F0BEFE10BD02B5002155495E
:105100000B680122694601F01CFF01BD80B5514BBF
:105110001B6892B201F015FF01BD80B50021FF218F
:105120008DF800104B490B680122694601F0DEFF43
:105130009DF8000002BD80B50023FF23454B1B688E
:1051400092B201F0D3FFC0B2002801D0012000E0EC
:10515000002002BD38B5002819D13F4C207E002820
:1051600013D101202076384D2800FFF779FF3B4806
:10517000056060613A482061E068002805D100229E
:1051800001210120FFF72AF9E060200000E0002063
:1051900032BD80B50269C9B2406900685268904763
:1051A00001BD80B5036992B2406900689B68984769
:1051B00001BD80B5016940690068C9688847C0B20F
:1051C00002BD80B5036992B2406900681B699847C7
:1051D000002002BD80B5C168002904D05FF0FF3116
:1051E000C068FFF75CF901BD80B5C168002902D035
:1051F000C068FFF78AF901BD80B51348806C01F0E3
:1052000026FB01BD80B5104802F038F901BD000051
:10521000003001404438024030380240000402406F
:10522000F059002058640240505A00201064024097
:105230000038004040380240002002400838024058
:1052400054CF000874CF00081C00002080841E008A
:1052500074000020CC00002064610020D062002097
:10526000D00000207047000070B504001C25364EA9
:1052700005FB04F13144097E012903D16C4306EB9F
:1052800004005FE0012C21D04BD3032C16D011D3A6
:10529000052C1FD016D3072C24D01FD3092C29D0BE
:1052A00024D30B2C2ED029D30D2C33D02ED30E2C5F
:1052B00034D036E0200002F009FB32E0200002F09A
:1052C00005FB2EE0200002F001FB2AE0200002F0A6
:1052D000FDFA26E0200002F0F9FA22E0200002F0B8
:1052E000F5FA1EE0200002F0F1FA1AE0200002F0C8
:1052F000EDFA16E0200002F0E9FA12E0200002F0D8
:10530000E5FA0EE0200002F0E1FA0AE0200002F0E7
:10531000DDFA06E0200002F0D9FA02E0200002F0F7
:10532000D5FA0A4905FB04F23244116105FB04F188
:1053300031444860012005FB04F1314408766C4398
:1053400006EB040070BD0000305200200400002075
:1053500080B5016940680968884701BD80B5016969
:1053600040684968884701BD3A483B4941617047F8
:10537000F8B50C00150047693868FFF72BFF78680F
:10538000FFF7ECFF2100C9B23868FFF702FF386869
:10539000FFF70FFF28707868FFF7DAFF3868FFF72C
:1053A00023FF3000F2BDF8B50C00150047693868DE
:1053B000FFF710FF7868FFF7D1FFB4F18001C9B2A1
:1053C0003868FFF7E6FE2900C9B23868FFF7E1FE4A
:1053D0007868FFF7BDFF3868FFF706FF3000F2BDC1
:1053E0000100C9B20909C9B20A22C0B210F00F0007
:1053F00002FB0100C0B270477CB50C006946174A39
:1054000013680B60002546693068FFF7E3FE70689B
:10541000FFF7A4FF2900C9B23068FFF7BAFE0322E4
:1054200069463068FFF7CDFE7068FFF791FF30687E
:10543000FFF7DAFE9DF80000FFF7D2FFA0719DF89C
:105440000100FFF7CDFF60719DF80200FFF7C8FF74
:10545000207173BD8061002074620020B4D1000807
:105460001CB5040000220F212000FFF79CFF002242
:1054700011212000FFF797FF6A4610212000FFF757
:1054800077FF6A4607212000FFF772FF13BD000077
:1054900070B504001C25144E05FB04F13144097E4F
:1054A000012903D16C4306EB04001CE0002C02D060
:1054B000012C04D006E0200002F0F6FA02E0200001
:1054C00002F0F2FA094905FB04F23244116105FBCE
:1054D00004F131444860012005FB04F131440876B1
:1054E0006C4306EB040070BD146000200000002037
:1054F00008B584B00023039300290EBF01930190E7
:10550000491E0291009301A904AB07487844183062
:10551000FAF73AFE019909B100220A70002858BF33
:10552000039805B000BD00BF73BCFFFF10B586B087
:10553000040014220021684601F073F82068DFF8A7
:10554000C01688422AD100200590DFF8B80601680D
:1055500051F010010160006810F0100005900598EE
:1055600000200590DFF8A006016851F001010160FC
:10557000006810F00100059005984FF4C06000909D
:105580000220019000200290032003900720049045
:105590006946DFF8780600F019FF5DE02068DFF863
:1055A000701688422AD100200590DFF8680601684D
:1055B00051F480210160006810F480200590059866
:1055C00000200590DFF84006016851F002010160FB
:1055D000006810F00200059005984FF440600090BC
:1055E00002200190002002900320039007200490E5
:1055F0006946DFF8240600F0E9FE2DE02068DFF8B8
:105600001C16884228D100200590DFF8F8050168B3
:1056100051F020010160006810F02000059005980D
:1056200000200590DFF8E005016851F004010160F9
:10563000006810F0040005900598C020009002203A
:1056400001900020029003200390082004906946F6
:10565000DFF8CC0500F0BAFE06B010BD10B5DFF8DB
:10566000C445DFF89C0520605FF4E13060600020F5
:10567000A0600020E060002020610C20606100201C
:10568000A0610020E061200002F048FA2068406933
:1056900050F001002168486110BD80B5DFF8880531
:1056A000DFF86C1501605FF4E13141600021816039
:1056B0000021C160002101610C2141610021816153
:1056C0000021C16102F02AFA01BD80B5DFF85C0556
:1056D000DFF8481501605FF4E1314160002181602D
:1056E0000021C160002101610C2141610021816123
:1056F0000021C16102F012FA01BD38B5002000900E
:10570000DFF80405016851F480010160006810F4BD
:10571000800000900098DFF81845DFF81805206039
:105720005FF0006060604020A0600020E0604FF407
:1057300080602061002060610020A0610020E061A5
:105740000020206200206062200000F075FFDFF87A
:10575000D4546C63A56300220521462001F04CFA65
:10576000462001F05AFA01220621252001F044FAD0
:10577000252001F052FA0122DFF8BC14280002F0C3
:105780006EFA31BD1CB500200090DFF87C04016882
:1057900051F400110160006810F4001000900098AE
:1057A000DFF89844DFF8980420605FF000606060E4
:1057B0004020A0600020E0604FF480602061002065
:1057C00060610020A0610020E061002020620020D4
:1057D0006062200000F030FFDFF84C044463A063F7
:1057E000002205210E2001F007FA0E2001F015FA23
:1057F00001220521272001F0FFF9272001F00DFAF1
:1058000013BD1CB500200090DFF8FC03016851F4C3
:1058100080010160006810F4800000900098DFF8BB
:105820002444DFF8240420605FF0206060604020A2
:10583000A0600020E0604FF4806020610020606183
:105840000020A0610020E061002020620020606252
:10585000200000F0F1FEDFF8D4034463A0630022CF
:105860000521452001F0C8F9452001F0D6F90122B3
:105870000521472001F0C0F9472001F0CEF913BD02
:1058800070B504008C25DFF8C463002005FB04F12B
:1058900031448880002005FB04F131444880002217
:1058A00000218020FEF79AFD6C4306EB0401C1F84D
:1058B000880070BDF8B504001C25DFF8946305FB73
:1058C00004F03044007E012803D16C4306EB040051
:1058D000A8E0002C03D0022C69D034D39AE005FB59
:1058E00004F030448460DFF86C7307EBC40005FB00
:1058F00004F13144486105FB04F03044C0680028DD
:105900000AD1002201210120FEF768FD002803D002
:1059100005FB04F13144C86007EBC400406800286F
:1059200009D1002200210120FEF758FD002802D0F5
:1059300007EBC40148602000FFF7A2FFFFF78EFECF
:10594000FFF7DBFE66E005FB04F030448460DFF81F
:10595000047307EBC40005FB04F13144486105FB07
:1059600004F03044C06800280AD10022012101203F
:10597000FEF734FD002803D005FB04F13144C86074
:1059800007EBC4004068002809D100220021012053
:10599000FEF724FD002802D007EBC4014860200078
:1059A000FFF76EFFFFF779FEFFF7ECFE32E005FB35
:1059B00004F030448460DFF89C7207EBC40005FB00
:1059C00004F13144486105FB04F03044C06800280C
:1059D0000AD1002201210120FEF700FD002803D09A
:1059E00005FB04F13144C86007EBC400406800289F
:1059F00009D1002200210120FEF7F0FC002802D08E
:105A000007EBC40148602000FFF73AFFFFF75DFE97
:105A1000FFF7F7FE012005FB04F1314408766C43E3
:105A200006EB0400F2BDF8B504000E00170065692E
:105A3000002C02D0207E002800D126E0E06800285B
:105A400004D05FF0FF31E068FEF729FD3A0092B222
:105A50003100286802F021F90100C9B2002908D1FB
:105A6000686800280BD05FF0FF316868FEF717FD0B
:105A700005E0C0B20100DFF8E001FFF783F8E0685D
:105A8000002802D0E068FEF740FDF1BD38B5040003
:105A90000D001100D4F88800FEF701FD00280DD19B
:105AA000A088204480792870A088401C802190FB29
:105AB000F1F201FB1200A080012000E0002032BDC5
:105AC00010B5624B84688C20444303EB0400FFF75D
:105AD000DDFF002801D0012000E0002010BD80B5CE
