:020000040800F2
:1000000038E10020899101086163010863630108F8
:100010006563010867630108696301080000000067
:10002000000000000000000000000000C5120108F0
:100030006B630108000000006D120108899A000836
:100040000194010805940108099401080D94010820
:1000500011940108159401086D6301087763010884
:10006000199401081D940108816301082194010875
:100070002594010829940108D9300108CD300108E0
:100080002D94010831940108359401083994010830
:100090003D94010841940108459401088B630108CF
:1000A000499401084D9401085194010855940108A0
:1000B000599401085D940108B16301086194010835
:1000C00065940108699401086D940108E530010800
:1000D0007194010875940108799401087D940108D0
:1000E000095C01088194010885940108899401083C
:1000F0008D94010891940108959401089994010840
:100100009D940108A1940108A5940108A9940108EF
:10011000AD940108B1940108B5940108B99401089F
:10012000BD940108C1940108C5940108C99401084F
:10013000CD940108BB630108D1940108D59401084E
:10014000D9940108DD940108E1940108E5940108BF
:10015000E9940108ED940108F1940108F59401086F
:10016000F9940108FD94010801950108059501081D
:10017000099501080D95010811950108000000007E
:1001800015950108199501082DE9FE4F0500002D70
:1001900008D1DFF8403C8322DFF8A818DFF8A80870
:1001A00001F0ACFDDFF8A468B6F89200401CA6F898
:1001B0009200D6F85401401CC6F85401DFF8187CB0
:1001C000686838606889142813DAB6F89A00401C09
:1001D000A6F89A00B6F89600401CA6F89600D6F845
:1001E0005801401CC6F85801280002F00CF8BDE880
:1001F000F78FDFF85C88D8F80010D8F8140002F008
:100200002FFA002805D198F8140010F0F000E0282B
:1002100005D1B6F8A000401CA6F8A000DAE73868BF
:10022000808902F043FA80B2000B81000800C0B25E
:10023000142805DB28890A00D2B292B2904205D276
:10024000B6F89A00401CA6F89A00C3E7DFF80498B5
:100250000800C0B21438A9F80000DFF8FC470020FD
:10026000206068890A00D2B292B2904209D3B9F8EC
:100270000000DFF8E8271080C9B2280001F076FFFF
:1002800050E02868002808D1DFF8483BC222DFF898
:10029000D017DFF8B40701F031FD1421280001F078
:1002A00065FFDFF8B80769890180B9F80010B0F878
:1002B0000090B1EB09090188280001F057FF286878
:1002C0004089494689B2884205D2B6F89A00401C56
:1002D000A6F89A007EE7286840682060494689B2FF
:1002E000286801F043FF2889B0EB0909A5F80890B8
:1002F0006889002808D0DFF8DC3ADF22DFF86417CD
:10030000DFF8440701F0FAFC288929680989884246
:1003100008D0DFF8C03AE022DFF84C17DFF82807F2
:1003200001F0ECFC3868008802F0C0F939680880F8
:100330003868408802F0BAF93968488039684868F6
:1003400002F0BCF939684860DFF8201708603968A6
:10035000886802F0B3F939688860DFF8609CC9F8F2
:1003600000003868C08902F0A1F93968C88138688E
:10037000808902F09BF910F03F00DFF8F416087056
:10038000DFF8F0A62889AAF80000DFF8E406007874
:1003900010F0030F0FD0BAF80000401CAAF80000BC
:1003A000BAF800002989884205D2B6F89A00401CA4
:1003B000A6F89A000EE75FF0000BDFF8BC060468B1
:1003C00001E0A346E468002C72D0207D002808D10B
:1003D000DFF8003AFB22DFF8A416DFF86C0601F024
:1003E0008DFC207D0A2808D1DFF8E839FC22DFF8EF
:1003F0009016DFF8540601F081FC207D012808D119
:10040000DFF8D039FD22DFF87C16DFF83C0601F07A
:1004100075FC207A00280AD0207AD8F8041091F8C8
:100420003410491CC9B2884201D0A346CAE7208BC8
:10043000396809888842C4D1E08A39684988884285
:10044000BFD16068D8F810108842BAD12068D8F8B7
:1004500014108842B5D1E068A04209D1DFF87439A0
:1004600040F20D12DFF8B81BDFF8DC0501F046FCA6
:10047000BBF1000F0AD0E068CBF80C00DFF8F805FC
:100480000068E060DFF8F005046004E0B6F8A6005C
:10049000401CA6F8A600E068A04209D1DFF8343974
:1004A00040F21512DFF87C1BDFF89C0501F026FCFA
:1004B000002C7AD1DFF8100C046809E0207AD8F813
:1004C000041091F83410491CC9B2884212D0E46873
:1004D000002C2AD0207D0A2809D0DFF8F83840F215
:1004E0001F12DFF8441BDFF8600501F007FC207ADB
:1004F0000028E3D1208B396809888842E7D1E08A57
:10050000396849888842E2D16068D8F8101088427A
:10051000DDD12068D8F814108842D8D1200000F02E
:1005200043FA280001F06FFE61E60022DFF89C3BF1
:10053000186806E0002823D00168002920D00200B6
:10054000C06800281CD0017A00290CD0017AD8F8A4
:1005500004C09CF834C01CF1010C5FFA8CFC6145AE
:1005600001D00200ECE7C18AD7F800C0BCF802C095
:100570006145E4D10168D8F814C06145DAD1FFE7DC
:10058000002812D0002A05D0C168D1601968C16066
:10059000186004E0B6F8A610491CA6F8A61000F0F2
:1005A0005DF9280001F02FFE21E6002C00F0028109
:1005B000DFF8CC8B0020C8F800002889A8F80800D4
:1005C000C8F804503868C8F80C00DFF8B87B002081
:1005D0003860DFF8B49B002089F80000DFF8ACBB7E
:1005E0000020ABF80000DFF888040078000703D58E
:1005F000687B50F001006873A06F00281DD02000B8
:1006000002F0D3FD10F10D0F06D0A06F002814D01A
:10061000BAF80000002810D0608D002802D1200018
:1006200004F07EF8B6F89600401CA6F89600D6F8BE
:100630005801401CC6F85801AAE0DFF8545B2C6052
:10064000200000F021FA40B210F10D0F00F0A08060
:1006500099F80000000712D5D4F89000002805D0C2
:100660007FF00D012069D4F8902090472100DFF839
:10067000080402F0B3FF200002F039F888E00020FF
:10068000BBF80000002815D0BBF80020D4F880008B
:10069000002806D092B221002069D4F88030984713
:1006A00000E000207FF00C0140B2884270D00020B2
:1006B000ABF80000200000F0A7F8002868D13868E7
:1006C000002833D0A06F002809D0DFF808374FF496
:1006D000F372DFF8C01ADFF8700301F00FFBA07EA1
:1006E000C00606D5386801F08EFD200002F022FA1F
:1006F0004EE0D4F88400002807D000233A68210097
:100700002069D4F88460B04705E000233A682100EE
:10071000002002F0DBFD01007FF00C0249B29142A3
:1007200036D040B2002801D03868A06799F80000A0
:10073000800608D5A06F00280DD0A06F407B50F038
:100740002000A16F487300202860200000F05CF8B2
:1007500000281AD01CE0208DB0F5066F02D0208D45
:10076000401C2085D4F88400002807D000230022F4
:1007700021002069D4F88460B04700E000207FF0B9
:100780000C0140B28842DED102E0200003F034FBCD
:100790000020DFF8FC19086000203860D8F8040059
:1007A000002830D0D8F8040001F02DFD0020C8F852
:1007B000040028E03868808901F078FF40071FD4E2
:1007C000B6F8A000401CA6F8A000B6F89600401CA1
:1007D000A6F8960038680088029038684088019032
:1007E00018F11000009018F11403A0480068BAF83E
:1007F000001010FA81F2D9F80010002003F03EFF3B
:10080000280001F000FDF2E410B50400002C08D12E
:10081000DFF8C03540F25A22DFF87C198A4801F02F
:100820006DFADFF864090078C00615D5A07EC00611
:1008300009D4D4F89000002805D07FF00E0120697B
:10084000D4F89020904721008B4802F0C7FE20008A
:1008500001F04DFF012000E0002010BDFEB50500B5
:10086000834C2078400700F19E80002D08D1DFF8EE
:10087000643540F28122DFF82419734801F03EFA12
:100880002078C00619D57248DFF84C150A6812881E
:10089000029209684988019110F11001009110F14C
:1008A000140372480068734909884218DFF80C077E
:1008B0000168280003F0E2FE75E02078800772D519
:1008C000687D02F0C3FD0400002C12D15F48B0F82F
:1008D0009C10491CA0F89C10A869002806D05FF065
:1008E000FF3200212869AB69984701E07FF00F00D3
:1008F00059E057484169216000696060E88AE082F8
:10090000DFF8D46430680088208303202075574FB7
:100910003868401C6062606AE062200002F0C8FE35
:10092000A06520656064E0653868401E60652869E0
:100930002061E567687A10F00C006072287A2072F6
:100940004D480168E160046004F03BF80120DFF8E5
:1009500050180870200001F045F93068C089A4F8EB
:100960006000B4F86000A4F86200201D04F018F9DB
:100970000100221D608E02F0B1FE60863348D0F87F
:100980004011491CC0F840111221200003F062F907
:1009900040B2002804D00021200002F044F802E018
:1009A000200003F029FAF7BD3EB50400304D287849
:1009B000400745D4002C08D1DFF8183440F2EE226D
:1009C000DFF8E017204801F099F92878800725D54D
:1009D00026490A68606A121A002A26D40A68606AE0
:1009E000121A208D121A012A1FDA1948DFF8E8239B
:1009F00013681B88029312685288019210F110024A
:100A0000009210F1140308681A4909884218DFF8A7
:100A1000AC050168200003F031FE11E02878C00722
:100A200003D5DFF884070068206212480088002898
:100A300006D0608B50F002006083200003F0DCF9E8
:100A400037BD0000788C0108C0790108E0C10020A2
:100A5000F0D8002018DD0020C4DC00201ADD0020C2
:100A600008910108BC920108C8830108C8DC002075
:100A70002FDD002020DD0020B8DC0020E87901080F
:100A800074750108107A01087FB505000024002064
:100A9000002D09D1DFF83C334FF44772DFF80C1713
:100AA000DFF80C0701F02AF9DFF81C6A30784007FC
:100AB00041D5287D022807D1DFF800050068296D9F
:100AC000884219D1012417E0DFF8E81608686A6A3D
:100AD000904201D101240FE00A68686A121A002AC4
:100AE0000AD40968686A091A288D091A012903DAE3
:100AF000688B50F002006883E4B2002C19D0287D86
:100B0000002808D1B34B4FF44E72DFF8AC16DFF873
:100B1000A00601F0F3F8DFF87006017851F0080143
:100B20000170698B4FF6FE70014069837FF00D0004
:100B300074E2002072E2307880070BD5287D02280D
:100B400008D0287D032805D0688B50F00200688308
:100B5000002063E2A87EC00603D4DFF84C060068DC
:100B60002862002085F89B00002085F89A00280064
:100B700001F038F8287D022814D0C0F04E820428F5
:100B800000F07781C0F0D080062800F0CF81C0F05F
:100B90007F81082800F0F881C0F06B81092800F0FF
:100BA00027823AE2307810F01200122840F0958047
:100BB000DFF8081408686A6C521C904240F08D807F
:100BC000DFF8F0050268521C6A626A6AEA62096824
:100BD000696481490968C989A5F86010B5F8601091
:100BE000A5F862100068401E686504202875281D5D
:100BF00003F0D6FF01002A1D688E02F06FFD6886A3
:100C000041F21D10698E4900814202D3698E49006C
:100C100001E041F21C116A8E92008A4203D2688E72
:100C200080B2800009E0698E4900814203D3688E5A
:100C300080B2400001E041F21C10A5F84800B5F870
:100C40006600002808D1634B4FF45B72DFF86C1527
:100C5000DFF85C0501F052F8B5F86600401EA5F813
:100C600066002C6F002C0ED1EC6E002C08D1594B75
:100C70004FF45D72DFF84815DFF8340501F03EF8F7
:100C80002068E86601E020682867200002F0EEFA9C
:100C9000286F002803D15FF0FF30288604E0002091
:100CA0002886002085F84200D5F88800002807D063
:100CB000002229002869D5F888309847010000E013
:100CC00000217FF00C00020049B2914200F0A681A1
:100CD000688B50F00200688325E03078C00622D58A
:100CE000DFF8E0043C490A681288029209684988E2
:100CF000019110F11001009110F11403DFF8B40418
:100D00000068DFF8281C09884218AC4801682800F0
:100D100003F0B4FC95F84200062804DA0020288687
:100D2000280003F001FB78E13078C00640F19380A1
:100D3000A2490A68686C121A521E002A70D40A6806
:100D4000286D121A012A6BDA04202875E86F002832
:100D500002D17FF005011AE0E86F8069002808D110
:100D60001C4B4FF46A72DFF86014DFF8440400F0A3
:100D7000C5FFE86F8069002807D000222900286994
:100D8000EB6F9B699847010001E07FF00F010800BD
:100D900040B2002809D049B211F10D0F02D028004D
:100DA00001F0C8FE7FF00C0038E1280000F010FAD6
:100DB000DFF8D8130888002802D00888401E088071
:100DC00041F21D10698E4900814207D3698E4900A6
:100DD00006E000BF84660108C0DC002041F21C115F
:100DE0006A8E92008A4203D2688E80B2800009E047
:100DF000698E4900814203D3688E80B2400001E0D1
:100E000041F21C10A5F84800DFF87C03007880064A
:100E10002ED5688B50F0020068830720287527E0E4
:100E2000DFF8A003DFF8082B13681B880293126811
:100E30005288019210F11002009210F11403DFF8B1
:100E400074030068DFF8E42A128882180968280011
:100E500003F014FC0CE03078800709D5DFF8540368
:100E60000068696A491E884202D1280003F074FABA
:100E7000D3E0280000F0ACF9DFF80C03007880061E
:100E800005D5688B50F00200688307202875C4E000
:100E9000280000F09DF9BC480078800638D53078ED
:100EA000C0062ED545480068296D884229D1E86ED4
:100EB000002826D1688B50F002006883280002F0D9
:100EC00051FBC2480168A94203D10168C9680160A9
:100ED00009E0006800E0C068002804D0C168A942A9
:100EE000F9D1E968C1600020E8600120AC490870D0
:100EF0000A20287574480168E960056003F061FD07
:100F000013E0688B50F002006883082028750CE01D
:100F10003078C00609D529480068296D884204D177
:100F2000E86E002801D10620287576E0280000F040
:100F30004FF995480078800625D5688B50F002005F
:100F40006883280002F00EFBA0480168A94203D183
:100F50000168C968016009E0006800E0C068002815
:100F600004D0C168A942F9D1E968C1600020E860F5
:100F700001208B4908700A20287553480168E960F0
:100F8000056003F01EFD48E0280000F021F93078EC
:100F9000C0062CD509480068296D884227D1E86E23
:100FA000002824D1280002F0DDFA88480168A9420F
:100FB00006D10168C96801600CE000BFCCDC0020EC
:100FC000006800E0C068002804D0C168A942F9D1D7
:100FD000E968C1600020E8600120714908700A20BA
:100FE000287539480168E960056003F0EAFC14E0FF
:100FF000280000F0EDF83078C0060DD5DFF88C0C35
:101000000068296D884207D1E86E002804D15E4847
:10101000017851F010010170FFE7002004B070BDAD
:10102000A0750108CC7501085873010838B5050092
:101030000C00002D08D1DFF8583C40F21F42DFF8C9
:10104000A01B5B4800F05AFEE868808901F02EFB87
:10105000C00716D5200002F000F9002432E0E06855
:10106000808901F023FBC00707D5012001F01EFB9A
:10107000E96889890843E96888812000246802F0CA
:10108000F5F8002C0AD0E06841684A4800682A89CF
:101090008018411A2089091A0029E0D5002C11D0A6
:1010A000E0684168434802682B89D218511A012927
:1010B00008DBE26851680068091A29812989686893
:1010C00000F0B3FF2C6031BDBCDC0020B4DC00209C
:1010D0002DE9F04106000C001D0033E027002468D4
:1010E000786801F003F98046B6F86600414689B297
:1010F000884208D2DFF8983B40F25742DFF8941B51
:101100002B4800F0FBFDB6F86600B0EB0808A6F827
:1011100066801E490A88388982180A80380002F0E1
:10112000A5F8B6F8660000280CD0002C0AD1002DD6
:1011300008D1DFF85C3B40F26242DFF85C1B1C48E0
:1011400000F0DCFD002C17D0E168486801F0B6FA29
:101150000700E068808901F0A9FA10F0030F01D0C0
:10116000012100E00021208938180918DFF81C0B44
:101170000068091A0129B1DB2000BDE8F0810000F8
:10118000A0DA0020D0DC002030DD00201EDD0020B1
:10119000D4DC002050890108387A0108E88301086E
:1011A0002CDD002008840108ACDC00206C890108DB
:1011B000C0790108C8DC002028840108908C01084F
:1011C0000C8F0108F0D8002048840108B8DC00200A
:1011D0002DE9F84306000024002E09D1DFF8B03ACB
:1011E00040F27B42DFF8B41ADFF8B40A00F086FD63
:1011F000307D042809DADFF8983A40F27C42DFF8C3
:10120000A41ADFF89C0A00F079FDAF480078C00608
:1012100040F19B81B6F86000B16D0918DFF8882AAB
:10122000736D10681B1A002B18D4706D13689842E8
:1012300006D1B36DDFF8540A00681B1A002B0DD4D9
:10124000B06DDFF8483A1B6898421DD1B6F86000CF
:10125000DFF8DC361B68DB89984215D2DFF8D00650
:101260000068C089A6F86000B6F86200B6F8603081
:10127000984203D2B6F86000A6F862001068706564
:10128000DFF8080A0068B065DFF8005A2A68706C59
:10129000121A012A46DADFF89406008800283AD1AB
:1012A000B06DB6F860208018884234D1B6F93000AD
:1012B000002830D4706C296888422CD1012496F81B
:1012C000430096F84310491CC9B2884204D296F8EC
:1012D0004300401C86F8430096F84300042813DBC3
:1012E000B6F84810708E4118B6F8480089B28142AD
:1012F00006D3B6F84810708E4118A6F8481003E0DF
:101300004FF6FF70A6F8480096F84300032802DB6A
:10131000300003F071F8002C40F0EA80002086F8DD
:101320004300E5E02968706C091A491E002900F1A4
:10133000DC802968306D091A012980F2D680B07EE0
:1013400040070BD5718B4FF6FB7001407183B6F8E7
:101350004A00A6F848000020A6F86A00002086F897
:101360004200B6F93C00C010B6F93E104018A6F88D
:1013700040002868716C411A002086F843002868F4
:101380007064307D04285EDBB6F84800B6F84A2069
:10139000904225D2708B000501D5012200E0022287
:1013A0000B001400E4B2708E44439BB2A4B2A3427B
:1013B00003D3D2B2708E12FB00F1B6F848000818C1
:1013C000B6F8482080B2904205D3B6F84800091814
:1013D000A6F8481003E04FF6FF70A6F8480032E088
:1013E000B6F86A000818B6F86A2080B2904205D3B1
:1013F000B6F86A000918A6F86A1003E04FF6FF7005
:10140000A6F86A00B6F86A00B6F8481088421AD3FF
:10141000B6F86A10B6F84800091AA6F86A10B6F8C5
:101420004810708E4118B6F8480089B2814206D340
:10143000B6F84810708E4118A6F8481003E04FF631
:10144000FF70A6F84800F36EDFF86028316F3000B7
:10145000FFF73EFE3067336FDFF85428F16E30003F
:10146000FFF736FEF066306F002803D15FF0FF30E3
:10147000308601E00020308600203077F06E0028B2
:1014800002D10020A6F86800B6F86410DFF824083E
:1014900000884118A6F86410708B000528D5306FBD
:1014A000002813D1F06E002808D0F06EC16848689B
:1014B00001F004F9F16C081A012819DA718B4FF266
:1014C000FF700140718313E02FDD0020306FC16891
:1014D000486801F0F3F8F16C081A012808DA718BFA
:1014E0004FF2FF700140718302E0300003F018F901
:1014F000706B002829D0B16B2868091A002924D5FF
:10150000DFF8B4070168706B081A00B2B6F93C1036
:10151000B0EBE100B18F4118B187010009B2002999
:1015200001D500B2404200B2B6F93E10B0EBA100C6
:10153000F18F4018F087B6F93C00C010B6F93E10A4
:101540004018A6F8400000207063DFF8E083B8F888
:101550000000002800F01283307D072880F20E83FF
:10156000DFF84477716A3868091A491E00295CD48B
:10157000716A3868091AB8F80000091A491C01296B
:1015800053DADFF838476568706AD7F80090B0EB37
:1015900009096068002809D1DFF8F43640F2945256
:1015A000DFF81C17DFF8F80600F0A8FB4FF6FF7015
:1015B000814509D3DFF8D83640F29552DFF8041799
:1015C000DFF8DC0600F09AFB60680089494689B2C2
:1015D000884209D2DFF8B83640F29752DFF8E816B1
:1015E000DFF8BC0600F08AFB2089B0EB09002081FF
:1015F00060680189B1EB090106E06889B9EB00096F
:101600002981002068812D6868894A4692B29042FB
:10161000F3D31FFA89F94946280000F0A7FD706A44
:101620003860E0683968416008E03968706A091A12
:10163000002903D5708B50F0020070833968706AFE
:10164000091A002900F196823968706A091A308DEA
:10165000091A491C012980F28D82706A3968884212
:1016600040F0A281DFF85456E868808901F01EF846
:1016700010F0030F01D0012000E00020298940185C
:10168000A8F80000308DB8F80010884247D2E8680A
:10169000808901F00BF8C00710D5E868808901F057
:1016A00005F8C0B210F03E0001F000F8E9688A8940
:1016B0004CF2FF010A401043E9688881308D28818F
:1016C000E868808900F0F2FF800702D52889401E73
:1016D00028812989686800F0A8FCE868808900F002
:1016E000E5FF10F0030F01D0012000E00020298960
:1016F0004018A8F800003868B8F8001010FA81F017
:10170000716A328D8918884209D0DFF8843540F239
:10171000CC52DFF8B815DFF8880500F0EFFA706FEB
:10172000002800F08680E868808900F0BFFFC007CD
:1017300009D5706F00287CD0706F716F0968716770
:1017400001F094FDF5E7746F25E000201BE0E068F0
:10175000808900F0ABFFC00719D5E868808900F0E8
:10176000A5FF800713D4012000F0A0FFE968898954
:101770000843E9688881E868808900F097FF10F0E5
:10178000030FE2D0012029894018A8F800002000AA
:10179000246801F06BFD002C0BD0E06841683868CC
:1017A000B8F8002010FA82F0411A2089091A00299D
:1017B000CDD5002C3CD0E16848683968B8F80020E5
:1017C00011FA82F1081A012832DBE06841683868B2
:1017D000091A2981E868808900F068FF800702D52E
:1017E0002889401E28812989686800F01EFCE86865
:1017F000808900F05BFF10F0030F01D0012000E0B2
:10180000002029894018A8F80000E1684868396874
:10181000B8F8002011FA82F1814209D0DFF8703463
:1018200040F2FD52DFF8A814DFF8740400F066FA05
:1018300074673868B8F8001010FA81F07062308D63
:10184000B8F80010884209D2DFF8443440F2076249
:10185000DFF88014DFF8480400F050FA318DB8F852
:101860000000091A3185300001F069F968680089C3
:10187000002805D06868DFF8601408600020686000
:10188000E868808900F012FFC00737D5DFF84C0404
:10189000017851F02001017030E06068106015E0BF
:1018A0000021328D2089121A511A3185300001F041
:1018B00046F96068008900280AD0DFF81C24106807
:1018C0000028EAD06168106800F032FD00206060F6
:1018D000E068808900F0EAFEC0070AD5DFF8FC0363
:1018E000017851F020010170307D042801D10720DA
:1018F000307520687067200001F0B8FC706F002818
:1019000040D0706FC1684868716A88423AD1746F7C
:10191000706FC16848683860E068808900F0C6FE72
:1019200010F0030F06D0012005E000BF20DD0020ED
:10193000C0DC00200020716A228980184118716281
:10194000E068808900F0B2FE10F0030F01D00120A2
:1019500000E00020318D22898018814209D2DFF811
:10196000303340F22C62DFF87813DFF8340300F0F4
:10197000C5F9E068808900F099FE10F0030F8FD060
:1019800001218EE7B07EC00709D5718B4FF6FE703E
:1019900001407183708B50F00200708303E0708B04
:1019A00050F001007083FBE0706F002804D1C34841
:1019B00001F06BFC7067D9E00024756F0AE02C0021
:1019C0002868002805D1E96848683968081A01289C
:1019D0005ADA2D68002D00F0C980E9684868396836
:1019E000814211D0002C22D1E96848683968081A70
:1019F0000028E4D5B14801F048FC002803D0706706
:101A00002900FFF713FBB1E0AC4829890289914214
:101A10000CD201F03AFC002807D0002C01D0206045
:101A200000E070672900FFF701FB9FE09EE0E1689E
:101A300048683968081A401E0028C0D4E968486818
:101A40003968081A401C0128B9DA9C4801F01DFCCD
:101A50008046B8F1000F16D0E16848682189411826
:101A60003868091A012908DBE16848683968081AEA
:101A700020812189606800F0D8FAC4F8008029002C
:101A80004046FFF7D3FA71E0E868808900F00EFE67
:101A9000C0076BD4894801F0F8FB2860286800284B
:101AA00064D0E9684868298941183868091A012909
:101AB00008DBE96848683968081A28812989686854
:101AC00000F0B3FAB8F80000396811FA80F1706AD2
:101AD000091A308D091A012948DB2868C0688089F5
:101AE00000F0E4FDC00713D52868C068808900F0C5
:101AF000DDFDC0B210F03E0000F0D8FD2968C968D5
:101B00008A894CF2FF010A4010432968C96888811C
:101B1000716A308D41183868091A2868018128686F
:101B200001892868406800F080FA2868C0688089C8
:101B300000F0BCFD10F0030F01D0012000E00020F8
:101B4000296809894018A8F800003868B8F800101A
:101B500010FA81F0716A328D8918884206D04C4B98
:101B600040F2F96259494E4800F0C8F8300002F0DE
:101B7000D7FD15E0300002F0D3FD11E04A490A68B4
:101B8000706A121A002A07D40968706A091A308D1F
:101B9000091A491C012903DB708B50F00200708385
:101BA000BDE8F18310B44F4801880288521C0280BE
:101BB0004D4A1068002805D04C480B0004889BB2A1
:101BC000A34205D24A480068143089B2405C04E060
:101BD0000088091A1068C9B2405C10BC7047000048
:101BE000607A0108F8B50400002C06D1284B40F2B9
:101BF0007D7240492A4800F081F83F4D288800282E
:101C00003DD0384E00203080FFE730882988884258
:101C100035D2FFF7C7FFC0B200280ED002280DD082
:101C2000F3D3FFF7BFFF0100C9B2022926DB3188D9
:101C3000C0B2801E41183180E7E720E0FFF7B2FF15
:101C4000042804D128883188891C884200DA16E0EB
:101C5000FFF7A8FF07003F02FFF7A4FF0743380084
:101C600080B240F21921884203DA380080B200289D
:101C700002D14FF40677FFE76786C6E7FFE7F1BDBD
:101C80001648017851F0100101707047CCDC00203B
:101C900084660108887A0108688401088889010837
:101CA000C0790108A4890108C8DC0020C09301089C
:101CB000C89301081EDD0020ACDC0020A0DA002063
:101CC000189101082891010838910108346F010822
:101CD000686D010888840108D0DC002030DD002018
:101CE000B07A01081CDD0020C4DC00201ADD0020D1
:101CF000C0DC0020C089010818DD00200EB4C0B58A
:101D0000024603A800210190009101AB0121044883
:101D100078440C3003F0D6F906BC5DF810FB00BF28
:101D20006170010080B504F06CFA0021DFF87C28B6
:101D3000117004F06FFADFF8B408006800E0C068C2
:101D4000002805D0416F0029F9D001F075FDFFE7AB
:101D500001BD80B5FFF7E6FF01BD38B504F051FACB
:101D6000DFF8484825780121217004F053FAEDB2DC
:101D7000002D0CD10021DFF8780804F00BFB0028BF
:101D800005D004F03EFA0021217004F043FA31BD81
:101D900070B4BDF90C50049C0026066041600281BD
:101DA000438105734473012181730021C17370BCA9
:101DB00070472DE9FC470E009046C0B20500404632
:101DC00000B2012808D0412806D0B0F5C17F0ED05E
:101DD000B0F5207F7BD0C8E0424612B2310089B214
:101DE000002000F0CEF804002000BDE8F6870024B3
:101DF0005FF0000937000C2004F0BCFB0600002E49
:101E000045D039002A0092B2D21C4FF6FC70024035
:101E1000D2F5147289B292B2914241D2BA460020F0
:101E20000190404600B2009053469BB23A0092B2F5
:101E3000280080B2304410F11001C91C89088900C3
:101E40003000FFF7A5FF307910F0030F09D0DFF85D
:101E5000A43740F20112DFF8A017DFF8A007FFF760
:101E60004DFFADB2ED1CAD08AD00D5F51475002DDC
:101E700009D1DFF8803740F20312DFF88417DFF86A
:101E80007C07FFF73BFF002C16D1340016E0FFF76C
:101E900064FF002C02D0200000F0B5F90020A4E778
:101EA000AA461FFA8AFA1AF1030A4FF6FC7010EAE2
:101EB0000A0ADAF5147AB2E7C9F80060B146B7EB5E
:101EC0000A070025380080B2002894D18CE7290049
:101ED00089B2C91C4FF6FC700140320092B2D21C8C
:101EE0004FF6FC700240511811F1100089B2320017
:101EF00092B2D21C92089200914208D3010089B29A
:101F0000320092B2D21C92089200914201D200207B
:101F10006BE780B204F013FE0400002C01D1002016
:101F200063E7002001900FFA88F8CDF800803300B5
:101F30009BB2320092B2ADB204EB050010F1100179
:101F4000C91C890889002000FFF722FF207910F0C2
:101F5000030F09D0DFF89C3640F22312DFF8A416F5
:101F6000DFF89806FFF7CAFE3EE7DFF8883640F252
:101F70002712DFF89416DFF88406FFF7BFFE002073
:101F800033E7FEB505000E001700380000B2412807
:101F90000DD0380000B2012809D0DFF858364FF4D0
:101FA000A572DFF86816DFF85406FFF7A7FE0B20CE
:101FB00004F0E0FA0400002C01D100200CE0002025
:101FC00001903FB2009733009BB2320092B22900D9
:101FD0002000FFF7DDFE2000FEBD3EB51C00079B84
:101FE000C0B29BB20500ADB2ED1CAD08AD0015FA54
:101FF00081F5AB4201D2002016E0069B002B05D0F4
:1020000080B2C01C80088000184400E00020022339
:10201000019312B200920B009BB20A0092B201002F
:102020002000FFF7B5FE20003EBD70B504000D0096
:10203000002C09D1DFF8BC354FF4CC72DFF8D01595
:10204000DFF8B805FFF75AFE2800218980B28842E0
:1020500044D22689761B11E060892D1A2089801BC5
:1020600020812468002C09D1DFF8883540F2AF12B6
:10207000DFF8A015DFF88405FFF740FE608929002E
:1020800089B28842E8D3207B10F00F0F1BD12800C3
:10209000618980B2884216D0607B800713D4616862
:1020A000091B691889B2200004F057FC0400002CB9
:1020B00009D1DFF8403540F2BD12DFF85C15DFF8DA
:1020C0003C05FFF71BFE65816089208120680028A0
:1020D00002D0206800F097F80020206070BD70B535
:1020E00004000D001600002C09D1DFF8083540F27D
:1020F000DF12DFF82815DFF80405FFF7FFFD002CDD
:1021000002D0B5F5803F01D3012027E0002D01D199
:10211000002023E02900208940180A0080B292B2F2
:10212000904201D2012019E0207B000608D56068AA
:102130006D42284414F11002904207D201200DE0B4
:10214000F6B2002E0BD060686D4228446060608952
:1021500008186081208909182181002070BD0120A4
:10216000FCE780B50022FFF7BAFF02BD38B50400D6
:102170000D00002C09D1DFF87C3440F24B22DFF84F
:102180009C14DFF87804FFF7B9FD002C02D0B5F5F8
:10219000803F01D3012020E0002D01D100201CE070
:1021A000290060890A0092B290420BD2DFF84434D1
:1021B00040F25522DFF86814DFF84004FFF79EFD77
:1021C00001200AE060686068284460606089401A05
:1021D00060812089411A2181002032BD80B50B0029
:1021E0001BB2002B04D509B24942FFF7BFFF03E041
:1021F000D2B209B2FFF773FF02BD80B5012209B266
:10220000FFF7ECFF02BDF8B50400002C0DD1002C47
:1022100009D1DFF8E0334FF43772DFF80014DFF84C
:10222000DC03FFF76BFD00205FE000250BE0DFF82B
:10223000C43340F20F32DFF8EC13DFF8C003FFF7CE
:102240005DFD6D1C3400002C4DD003F0DAFF07005B
:10225000A07B002809D1DFF89C3340F2F122DFF89F
:10226000C813DFF89803FFF749FDA07B401EA07359
:10227000A67B380003F0CEFFF6B2002E31D12668DF
:10228000207B10F00F00617B890711D5270038698A
:10229000002809D1DFF85C3340F2FF22DFF88C130D
:1022A000DFF85803FFF72AFD200039698847C8E79F
:1022B0000100C9B2022904D121000C2004F0A2F9C6
:1022C000BFE70100C9B2012904D121000B2004F0AD
:1022D00099F9B6E7C0B20028A9D1200004F0A3FA0A
:1022E000AFE70024AFE72800C0B2F2BD0100002034
:1022F00001E0401C09680029FBD180B2704710B58D
:102300000400002C13D003F07CFFA17B491CA173B7
:1023100003F080FFA07B002809D1DFF8D83240F21B
:102320004232DFF80C13DFF8D402FFF7E7FC10BDF0
:1023300038B504000D00002C01D0002D0AD1DFF8C3
:10234000B43240F25A32DFF8EC12DFF8B002FFF795
:10235000D5FC28E004E021892889411821812468DE
:1023600020680028F7D120896189884209D0DFF8E8
:10237000843240F26232DFF8C012DFF88002FFF7E9
:10238000BDFC2068002809D0DFF8683240F26332D3
:10239000DFF8A812DFF86402FFF7B0FC2189288972
:1023A00041182181256031BD10B50C002100FFF7D7
:1023B000BFFF2000FFF7A3FF10BD2DE9F843050084
:1023C0000C0000260027002D05D0002C03D0288902
:1023D000218988420CD2DFF81C3240F2CA32DFF881
:1023E0006012DFF81802FFF789FC7FF00F0059E058
:1023F0006889801B6189C91B884204D3B4F80A80AC
:10240000B8EB070803E0B5F80A80B8EB06084246C7
:10241000606800EB0701686800EB0609484604F0B5
:10242000BBFC18EB060618EB07076889B04209D217
:10243000DFF8C03140F2D932DFF80812DFF8BC0112
:10244000FFF75CFC6089B84209D2DFF8A83140F29E
:10245000DA32DFF8F411DFF8A401FFF74FFC6089EE
:10246000874201D3002724686889864205D1002667
:102470002D68002D01D1002C16D1002C06D06089CA
:102480002189884202D1206800281AD1002D06D067
:1024900068892989884202D1286800281ED1002C29
:1024A000A6D10020BDE8F283DFF848314FF47972FD
:1024B000DFF89811DFF84401FFF720FC7FF00F00F0
:1024C000F0E7DFF8303140F2EA32DFF88411DFF86C
:1024D0002C01FFF713FC7FF00500E3E7DFF8143170
:1024E00040F2EF32DFF86811DFF81001FFF706FC69
:1024F0007FF00500D6E72DE9F04704000D00904677
:1025000000260027002C0BD1DFF8E83040F20A4209
:10251000DFF84011DFF8E400FFF7F0FB002042E0B5
:10252000002D0BD1DFF8CC3040F20B42DFF8281140
:10253000DFF8C800FFF7E2FB002034E02BE0B4F83E
:102540000A90B9EB03094046494680B289B28842F5
:1025500000D2C1464A4692B260689BB200EB0301CA
:10256000300080B205EB000A504604F015FC19EB70
:10257000070719EB0606B8EB090800230AE0180064
:1025800080B20028DBD01800618980B28842D6D39F
:1025900060891B1A2468404680B2002801D0002CB4
:1025A000EDD1380080B2BDE8F08700002ADD0020C0
:1025B00038B515000A0012B22989C0B2FFF7F9FB3D
:1025C0000400002C01D100200EE029002000FFF7BC
:1025D000F4FE40B2002806D0064B40F224521F49B8
:1025E0000648FFF78BFB200032BD0000B8DC00205E
:1025F000531D0008B8680108687201088078010856
:10260000A87001086C740108E4870108948E010821
:10261000A08B0108B88B010800880108A49201086A
:1026200048830108A88E0108D08B0108447F010867
:10263000BC8E0108C46E010898720108A8900108B8
:10264000C8720108E88B01081C880108B8900108CD
:102650009874010868830108687F0108D08E01081A
:1026600010B40300C243002A01D0002801D1012088
:102670001AE091F83120920701D4002014E04A6852
:10268000904201D100200FE08A6813404C688A68AC
:102690001440A34207D18A6890438968C94388429D
:1026A00001D1012000E0002010BC704701000800AB
:1026B00080B2000A50EA012080B27047010008028F
:1026C00010F47F0050EA01600A00120A12F47F42FF
:1026D000104350EA1160704780B504F0B1FB8004EC
:1026E000800CB0F58040DFF84015088001BD10B5C2
:1026F0000400207D012808D1DFF83035D422DFF82E
:102700003015DFF83005FFF7F9FA2100012003F05A
:1027100079FF10BD10B50400207D012808D1DFF835
:102720000C35DF22DFF81015DFF80805FFF7E6FAB1
:102730002100022003F066FF10BD80B500F0F6FC1A
:10274000DFF8F8040178491C01700078C00701D552
:1027500000F090FA01BD38B504000D00002D08D13D
:10276000DFF8C834FF22DFF8D814DFF8C804FFF719
:10277000C5FA05E0E06FA84201D10020E067E468F7
:10278000002CF7D131BD38B50400002C09D1DFF899
:102790009C3440F21112DFF8AC14DFF89804FFF714
:1027A000ADFA207D012809D0DFF880344FF489721A
:1027B000DFF89414DFF87C04FFF7A0FA012508E0A5
:1027C0002100DFF8880450F825000068FFF7C3FFF8
:1027D0006D1C042DF4D331BD3EB504000D00002C5A
:1027E00009D1DFF848344FF4AF72DFF86414DFF832
:1027F0004404FFF783FAEDB2002D4ED0207D04286B
:1028000002D0207D072848D1A06F002803D1208D59
:10281000B0F5066F41D0A07EC00609D4DFF80C34B5
:102820004FF4B272DFF82C14DFF80804FFF766FAF1
:10283000208B0290E08A0190201D00902300626AA4
:10284000216D200001F01AFF200000F08BFEDFF860
:1028500008040168A14203D10168C968016009E068
:10286000006800E0C068002804D0C168A142F9D126
:10287000E168C1600020E0600120DFF8E01308702B
:10288000DFF8DC030068A04202D1FFF7F9F902E0AB
:102890002000FFF72CFF002022E0207D002803D03D
:1028A00002282AD01DD33CE0E08A002814D0DFF8AB
:1028B000B4030168A14203D10168C968016009E05D
:1028C000006800E0C068002804D0C168A142F9D1C6
:1028D000E168C1600020E0602000FFF708FF0020F1
:1028E0003EBD2000FFF74FFF2100DFF87C0300F022
:1028F00075FE2000FFF70EFFF1E72100DFF8580317
:1029000000F06CFE0120DFF8541308702000FFF780
:10291000EEFEDFF85803D0F84411491CC0F844110A
:10292000DDE7200000F001F8DAE738B50400002CFC
:1029300009D1DFF8F8324FF4CE72DFF80813DFF870
:10294000F402FFF7DBF9207D032804D004281DD012
:1029500007282DD03EE0200001F042F905002800B4
:1029600040B2002808D1DFF80403D0F84411491C14
:10297000C0F8441105202075280040B200282BD152
:10298000200001F039FA280040B232BD200001F0E9
:1029900027F90500280040B2002808D1DFF8CC0252
:1029A000D0F84811491CC0F8481105202075E3E70C
:1029B000200001F015F90500280040B2002808D1D8
:1029C000DFF8A802D0F84811491CC0F848110920C6
:1029D0002075D1E70020D8E728005FF0FF3140B232
:1029E0008842D0D1608B50F0080060830020CCE793
:1029F00080B500280CD1DFF834324FF4F472DFF8E0
:102A00007012DFF83002FFF779F97FF00F0009E06C
:102A1000017D012903D0418B51F010014183012137
:102A2000FFF7DAFE02BD2DE9FE4F04008B46002CB5
:102A30000AD1DFF8F83140F23D22DFF8E416DFF882
:102A4000F401FFF75BF973E0207D012809D1DFF87D
:102A5000DC3140F24122DFF8CC16DFF8D801FFF775
:102A60004DF9207D0A2808D12100DFF8BC0600F0CE
:102A7000B5FD2000FFF73BFE5AE000250026276D3C
:102A8000D4F82480D4F89090D4F810A0207D0028A9
:102A900018D1E08A002820D0DFF8C8010168A142DF
:102AA00003D10168C968016009E0006800E0C068FE
:102AB000002804D0C168A142F9D1E168C1600020BA
:102AC000E0600AE05D46E68A2100DFF88C0100F054
:102AD00085FD0120DFF884110870206F002802D0E6
:102AE000206F00F0BAFBE06E002802D0E06E00F02C
:102AF000B4FB606F002802D0606F00F0AEFB002DC9
:102B00000BD0208B0290B6B20196201D00902300BE
:102B100042463900200001F0B1FD207D2000FFF782
:102B2000E6FD4846002803D07FF00C015046C84718
:102B3000BDE8F78F80B50121FFF775FF01BD38B5FE
:102B40000400002C07D1394B40F2A632DFF8C4183C
:102B50003848FFF7D3F8606A218D4018618E40F243
:102B60003142914202DB4FF4866100E0618EE26AFD
:102B7000821A511A002904D4218D6185E16A401A14
:102B800017E0616AE06A091A012902DB002060850A
:102B90000EE0E06A656A451BB5F5803F07D3234B1D
:102BA00040F2B632DFF898182248FFF7A7F865859B
:102BB000002032BD38B504000D00002C08D11B4B9D
:102BC00040F2CF32DFF87C181A48FFF797F829E077
:102BD000207D012807D1154B40F2D332DFF8681869
:102BE0001448FFF78BF8208D2D18280080B240F68E
:102BF0006101884204DA2800218D80B2884203D224
:102C00004FF40660208500E025852000FFF797FF40
:102C1000B0F5067F06D3608B50F002006083200081
:102C200001F0EAF831BD00008C02002014690108AF
:102C3000F88E0108A8780108388801082DDD0020E9
:102C4000D0780108B0920108008C0108F8900108C2
:102C50008883010854880108B8DC00202CDD00209E
:102C6000D4DC0020B0DC0020B4DC0020E0C1002077
:102C7000188C01082DE9FE4F0020DFF85099D9F893
:102C80000000401CC9F80000DFF844A99AF80000D1
:102C9000401C8AF8000035E0DBF80000A84209D0AB
:102CA000DFF8303A40F27152DFF82819DFF8C00A35
:102CB000FFF724F8E868CBF80000F6B2002E0BD03E
:102CC000288B0290E88A0190281D00902B006A6AE8
:102CD000296D280001F0D2FC2E69287D2800ED68BE
:102CE000FFF705FDDFF8B889002088F800003800FC
:102CF000002803D07FF00C013000B84798F800009E
:102D0000002807D00024DFF8D0B8DBF8005001E03D
:102D10002C00ED68002D00F0B781287D002809D136
:102D2000DFF8B03940F2BE42DFF87819DFF8400A28
:102D3000FEF7E4FF287D012809D1DFF8983940F239
:102D4000BF42DFF86419DFF8280AFEF7D7FF287DB5
:102D50000A2809D1DFF87C394FF49862DFF84C1962
:102D6000DFF80C0AFEF7CAFFA87F9AF80010884225
:102D7000CED09AF80000A87700270026287D0228E8
:102D800005D195F84200062801DB7F1CCEE095F8BE
:102D900042000C2801DB7F1CC8E095F89900002850
:102DA00063D0286F002809D0DFF8283940F2D442D8
:102DB000DFF82419DFF8B809FEF7A0FFE86E002855
:102DC00009D1DFF8103940F2D542DFF86419DFF895
:102DD000A009FEF793FF95F89A000C2801DB7F1CF1
:102DE000A4E0DFF8500995F89910084410F8010C98
:102DF00095F898100200D2B2914204D295F898103A
:102E0000491C85F8981095F89810C0B28142C0F01E
:102E10008D805FF00108B5F86000002807D1280018
:102E200001F00EFD002810D05FF000080DE0B5F8AD
:102E30006010280000F0CCFD002806D1280000F02A
:102E4000DBFF002801D15FF00008B8F1000F6DD062
:102E5000002085F8980095F89900072866D295F823
:102E60009900401C85F8990060E0B5F93000002811
:102E700008D4B5F9300047F6FF71884202D0288E99
:102E8000401C2886B5F93000B5F9401088424DDB6A
:102E9000280001F0E3F9002805D0286F002845D16B
:102EA000E86E002842D0287D02281AD095F842000A
:102EB0000C2802D295F8420000E00C20B5F93C1035
:102EC000C910B5F93E208918DFF8F028C0B21056B5
:102ED00011FA00F047F6FF71884200DB0800A5F800
:102EE000400000202886B5F84800B5F860108842F8
:102EF00002D2B5F8480001E0B5F8600080B24008A1
:102F0000A5F84A00B5F84A00698E490089B288429E
:102F100003D2688E4000A5F84A00688EA5F84800E4
:102F20000020A5F86A00280001F0E3F9287D0628B2
:102F300009D1A87EC00606D5D9F80010286A091A5A
:102F4000292900D37F1C687A000734D5287D0428FE
:102F500002D0287D07282ED1D5F89410DFF860081C
:102F600041184FF4FA70B1FBF0F1D9F80020286A4B
:102F7000121A914202D27F1C761C1CE0D5F89410E4
:102F800095F89B20DFF83C0800FB02114FF4FA7023
:102F9000B1FBF0F1D9F80020286A121A91420AD246
:102FA000280001F017FC40B2002804D195F89B00DE
:102FB000401C85F89B00686F00280DD0D9F80010E0
:102FC000286A091AB5F94000062210FB02F0814276
:102FD00002D3280000F030FC287D032806D1D9F860
:102FE0000010286A091A292900D37F1C287D092886
:102FF00006D1D9F80010286A091AF12900D37F1CDC
:10300000FFB2002F18D0D5F89070280000F0AAFA6F
:10301000002C3FF441AEDBF80000854209D1DFF817
:10302000B43640F26D52DFF8A017DFF84407FEF720
:1030300065FEE868E06040E62C00ED68207F401CFB
:103040002077207F617F8842FFF464AE00202077E4
:10305000DFF84C6600203070D4F88C00002806D0D1
:1030600021002069D4F88C209047010000E0002165
:10307000307800287FF446AE49B200297FF44AAE8A
:10308000200000F0B9FE45E60024274E356812E026
:103090003068A84209D0DFF83C3640F2B352DFF87E
:1030A0002C17DFF8CC06FEF729FEE8683060280010
:1030B000ED68FFF71CFB002D2FD0287D0A2809D0D2
:1030C000DFF8103640F2A152DFF80417DFF8A0064F
:1030D000FEF714FE0020D9F80020296A521AF12ABE
:1030E00000D3401CC0B2002814D0280000F03AFAE7
:1030F000002CCDD03068854209D1DFF8D83540F2B8
:10310000AF52DFF8D016DFF86806FEF7F7FDE86883
:10311000E060CCE72C00ED68CDE7BDE8F78F00005C
:1031200070880108DC700108BCDC0020F8B5DFF80D
:10313000A0542878401C287029E02878A077A07E29
:10314000C0070BD5608B50F002006083200000F0B8
:1031500053FE618B4FF6FC7001406183A07E000737
:1031600007D5618B4FF6F770014061832000FFF7B0
:10317000DCFBE668A06F00280DD0DFF82475002086
:103180003870200000F011F83878002803D0DFF8FC
:103190004806046800E03400002C05D0A07F2978A0
:1031A0008842CAD1E468F7E7F1BDF8B50400002C05
:1031B0000CD1DFF8203540F20962DFF82016DFF885
:1031C0002006FEF79BFD7FF00F0045E0A06F467BD9
:1031D000A56F0020A067D4F88400002807D0002342
:1031E0002A0021002069D4F88470B84705E0002344
:1031F0002A002100002000F069F8010049B20029EE
:103200001DD1B00627D5208DB0F5066F02D0208DD8
:10321000401C2085D4F88400002808D00023002218
:1032200021002069D4F88440A047010000E000217B
:103230007FF00C00020049B291420CD10CE07FF00B
:103240000C010A0040B2904201D1080004E0A567D9
:103250007FF0040000E00020F2BD10B503E0046838
:1032600000F004F820000028F9D110BD10B50400CA
:10327000002C09D06068002802D06068FEF7C3FF08
:103280002100032003F0BEF910BD70B50500002D2C
:1032900009D1DFF8403440F28262DFF84815DFF8E8
:1032A000D004FEF72BFD032003F064F90400002C8A
:1032B00001D1002009E0102226002900300003F08F
:1032C0006BFD6068FFF71BF8200070BD10B50800AB
:1032D000140000280CD1DFF810354FF4D362DFF86A
:1032E0000C15DFF8FC04FEF709FD7FF00F0008E085
:1032F000002C07D02189FFF75DFC2000FEF783FF3B
:10330000002010BD5BB2002BFAD1FFF771FBF8E78C
:10331000000038B50100C9B2802901DB7F20FFE73A
:103320000100C9B2002925D0441E00230020DFF887
:10333000A814096818E04A7D2500EDB2AA420BD313
:103340004A7D2500EDB2AA420DD1DFF88022156832
:103350000A6AAD1A9D4206D3DFF8700200680B6A54
:10336000C31A08004C7DC9680029E4D1002801D0A7
:10337000FFF7E0FB31BD70B504002000C0B20828A3
:103380000DD02000C0B2092809D0DFF85C3440F22B
:10339000DD62DFF85C14DFF84804FEF7AFFC0023C1
:1033A0000022DFF8340400680FE0017D2500EDB253
:1033B000A94209D1854D2E68016A761A9E4203D32F
:1033C0002968036ACB1A0200C0680028EDD1002AE0
:1033D00003D000211000FFF726FB70BD000038B5B8
:1033E00000230020DFF80C1409680AE0774C2568F8
:1033F0000A6AAD1A9D4203D320680B6AC31A0800FB
:10340000C9680029F2D1002801D0FFF793FB31BD34
:10341000000000008C7F010810B5DFF8BC030068D5
:103420000BE0C468817E090706D5428B4FF6F77121
:103430000A404283FFF779FA20000028F1D110BD3D
:103440008C880108308C0108F878010870B50500F7
:10345000012003F08FF80400002C4FD1FFF7DCFFB0
:10346000FFF7BDFF012003F085F80400002C3AD1DE
:103470000920FFF780FF012003F07CF80400002CF6
:1034800026D10820FFF777FF012003F073F804002E
:10349000002C12D12800C0B2FFF73BFF012003F03F
:1034A00069F80400002C08D0DFF84C03D0F8B810FD
:1034B0000988491ED0F8B8000180002C08D0DFF838
:1034C0003803D0F8B8100988491ED0F8B800018038
:1034D000002C08D0DFF82003D0F8B8100988491E66
:1034E000D0F8B8000180002C08D0DFF80C03D0F829
:1034F000B8100988491ED0F8B8000180002C2FD0E0
:103500009C2100222600300003F0E8FC65754FF492
:103510008660A4F864004FF406616185618D2185A1
:10352000FF21E1724FF4067161860621A4F8401074
:103530000621E1875FF0FF3121860121A4F84810C0
:1035400022490968216222490978A177A4F84A0032
:10355000DFF8A802C4F88400DFF8A402C4F89400DD
:10356000200070BD10B50400002C07D1594B40F667
:103570005102A4497E48FEF7C1FB26E0207D0028C9
:1035800023D0207D0A2820D0207D01281DD0A06FC7
:10359000002804D0A06FFEF736FE0020A067606F01
:1035A000002802D0200000F047F95FF0FF302086AD
:1035B000E06EFFF752FE206FFFF74FFE0020E0663F
:1035C000E06E20670020A4F8680010BDACDC00208D
:1035D0002EDD002048750108B8DC002038B5050054
:1035E0000C00002C06D1804B40F6830286497C48B3
:1035F000FEF784FB002D06D17B4B40F68402834905
:103600007748FEF77BFB2868A04203D12868C06892
:10361000286009E0286800E0C068002804D0C1687C
:10362000A142F9D1E168C1600020E0602000FFF70D
:1036300099FF207D0A280CD0207D012809D0A07E8A
:10364000C00706D5608B50F002006083200000F0B8
:10365000D3FB207D01281DD0E06E002806D0624BF0
:1036600040F693026A495E48FEF748FB206F002847
:1036700006D05D4B40F6940266495948FEF73EFB82
:10368000606F002806D0584B40F6960262495448B5
:10369000FEF734FB002020750020E08231BD0000E1
:1036A0002CDD0020C4740108F0740108F8720108D0
:1036B00080B5002806D14C4B40F6AF0257492C4844
:1036C000FEF71CFB56490A685648006882180A60D3
:1036D000086802BD146901081071010838B50500B9
:1036E0000C00002A06D1404B40F6C5024E493C482A
:1036F000FEF704FB002C02D1280080B217E0218DD8
:10370000080080B2002810D0282002000B0092B2DE
:103710009BB29A4201D2081A00E000202900020060
:1037200089B292B2914200D30500280080B232BD26
:10373000FC6E0108B893010870B505000C00002D5F
:1037400006D1294B4FF4106238492548FEF7D6FAC6
:1037500004E0E6682000FFF7EDF93400002C05D006
:10376000206829688842F4D0E468F7E770BD00005B
:10377000A878010838B504000D00002C1DD0206881
:1037800000281AD0144801682000FFF7D5FF284808
:1037900001682000FFF7D0FF002D0ED02868002818
:1037A0000BD02448006806E001682268914201D1EC
:1037B00029680160C0680028F6D131BDE890010891
:1037C000B84C0A00F82401001C750108487901086A
:1037D0002873010820790108B8DC002070790108FD
:1037E000A8780108A888010814690108C48801089C
:1037F000D8900108BCDC0020E0C10020CD320008D8
:1038000000DD6D00E0880108FC880108A88301083C
:10381000488C010818890108608C01083489010866
:103820003C010020ACDC00209879010844710108BB
:10383000B0DC0020B4DC002010B50400606F00286C
:1038400004D0606FFFF709FD0020606710BD30B441
:10385000002513E050F8042BD30744BFA9F101035E
:103860009A18091F042942F8045BFAD213468C0700
:1038700044BF15809B1CC90748BF1D7050F8041B2E
:103880000029E7D130BC704780B5002806D0017A06
:10389000002903D0007A03F044FD02E0100001F09B
:1038A0007FF902BD2DE9F04705000E0091469A46CA
:1038B000002D08D1DFF88833A322DFF88813DFF862
:1038C0008803FEF71BFA002E08D1DFF87433A42218
:1038D000DFF87813DFF87003FEF710FA089FF80797
:1038E00002D55FF0040801E05FF00008B80701D5D9
:1038F000002000E00020390701D5002100E0002170
:10390000FA0601D5002200E0002210EB080811EBB6
:10391000080812EB0808032002F02CFE0400002C1B
:1039200004D13000FEF76FFC00204FE0A7720020AA
:103930002060666030894146C9B289B2884208D2A7
:10394000DFF8FC32B022DFF80813DFF8FC02FEF7E4
:10395000D5F931894046C0B2091A218114213000BD
:10396000FEF7FFFB00280BD0DFF88804B0F8A410A6
:10397000491CA0F8A4102000FFF778FC002025E0E7
:1039800060684068E060E88AFEF790FEE1680880C1
:10399000288BFEF78BFEE16848805046FEF78EFECE
:1039A000E16848605FFA88F8042098FBF0F0401D59
:1039B0005FFA89F959EA0039484680B2FEF776FE87
:1039C000E16888810020E16848822000BDE8F08736
:1039D0002DE9F84F06008846002400200020002E24
:1039E00007D1974B40F24B32DFF8901A9648FEF71A
:1039F00085F9F76E002F02D15FF0FF3075E0404689
:103A000080B200280AD18E4B40F25332DFF8201BDF
:103A10008D48FEF773F97FF0050066E0404639896E
:103A200080B2884201D300205FE0708E414689B2A7
:103A3000884207D2824B40F25B32DFF8F81A8248A4
:103A4000FEF75CF93889002807D17D4B4FF4577297
:103A5000DFF8381B7C48FEF751F997F80A905FEAC7
:103A6000C97002D55FF0040B01E05FF0000B5FEA64
:103A7000897001D5002000E000205FEA097101D5BE
:103A8000002100E000215FEAC96201D5002200E0C8
:103A9000002210EB0B0B11EB0B0B12EB0B0BB7F81F
:103AA00008A0BAEB080A4FF420725AFA8BF189B2D7
:103AB0003620FEF77EF90500002D18D1CD48B0F86C
:103AC0009C10491CA0F89C10002C07D05C4B4FF4B4
:103AD0007672DFF8301B5C48FEF710F9002D02D03B
:103AE0002800FEF790FB5FF0FF30BDE8F28F7868AA
:103AF00000893B89C31A18EB03039BB2524692B26A
:103B000068685FFA8BFB00EB0B017868FEF7F3FC4B
:103B1000514689B28842D1D1F8688089FEF7C6FD46
:103B200083461BF03F0B00245FEA0B7003D51BF0AC
:103B3000F70B54F008045FEACB7003D51BF0FE0BC3
:103B400054F00104F9684868FEF7B8FD5FFA89F996
:103B5000CDF8009010FA88F32200D2B2290030008C
:103B6000FFF7A0FE0400002CA8D07868FEF7BEFB8B
:103B7000B6F86610081AA6F8660078680189B1EBF5
:103B80000A0189B27868FEF750FA3889B0EB0A0A60
:103B9000A7F808A05FFA8BFB584680B2FEF786FDB7
:103BA000F96889890843F96888817868FEF79EFB7F
:103BB000B6F866104018A6F866006068FEF796FB37
:103BC000B6F866104018A6F86600386820603C60B9
:103BD0002068002802D10020A6F86800002084E7B1
:103BE00038B50400002C07D1154B40F2EB32DFF85A
:103BF000881A1548FEF782F8E06E00281AD0E56EA4
:103C000000E02D6828680028FBD1E8688089FEF76D
:103C10004DFD10F0070F0DD10120FEF747FDE968BB
:103C200089890843E9688881608B50F020006083AF
:103C3000002003E00121200000F00CF832BD00005C
:103C4000E4660108A8840108D87A0108B07F010859
:103C5000A88C01082DE9FC4104000D00002600207D
:103C600015F0030F09D1DFF8AC3A40F21242DFF849
:103C7000A81ADFF8BC0BFEF741F8002C09D1DFF8D9
:103C8000943A40F21342DFF8941ADFF8A40BFEF7DF
:103C900035F8A80700D50126F00701D5042700E074
:103CA0000027B00701D5002000E00020310701D532
:103CB000002100E00021F20601D5002200E00022F0
:103CC000C719CF19D7194FF420723900C9B289B278
:103CD0003620FEF76EF8804600280CD1608B50F03D
:103CE000800060834348B0F89C10491CA0F89C10E9
:103CF0005FF0FF307BE0B8F80A00FFB2BFB2B84215
:103D000009D2DFF8103A40F23A42DFF8C41ADFF87D
:103D1000200BFDF7F3FFF6B20096E36D2A00D2B256
:103D200041462000FFF7BEFD060000280CD1608B45
:103D300050F0800060832F48B0F89C10491CA0F818
:103D40009C105FF0FF3052E0307B10F0030F09D081
:103D5000DFF8C03940F24242DFF8D81ADFF8D00A63
:103D6000FDF7CCFF3089002809D0DFF8A83940F2F0
:103D70004342DFF8C41ADFF8B80AFDF7BFFFE06E70
:103D8000002801D1E66606E0E16E00E009680868F7
:103D90000028FBD10E600020A4F8680015F0030F86
:103DA00002D0E06D401CE065E80703D5608B50F061
:103DB000200060837068FEF799FAB4F86610401826
:103DC000A4F86600B4F8660000280FD0206F002821
:103DD0000CD1E06E002809D1DFF8383940F2664294
:103DE000DFF8581ADFF8480AFDF788FF0020BDE821
:103DF000F6810000E0C100202DE9F0470500002D0C
:103E000009D1DFF8103940F2E142DFF8201BDFF87A
:103E1000200BFDF773FF287D012809D1DFF8F43866
:103E200040F2E442DFF80C1BDFF8040BFDF766FFFD
:103E3000DFF8040B0068A84201D10020F8E0B5F8D3
:103E40006000B5F84810884202D2B5F8608001E001
:103E5000B5F84880EC6E002C07D1A87E800703D50A
:103E6000280000F05DFCE3E0DCE02A1D29002800CA
:103E7000FFF70AFD0600002E02D17FF00300D7E015
:103E8000002D02D0286800280BD1002E01D0301D53
:103E900000E00020002802D17FF00300C8E00068A5
:103EA0002860E1684868FEF709FC696C401A2189BE
:103EB000401880451BD2B5F8600080450FD1286FAF
:103EC00000280CD195F89900002808D1002085F829
:103ED0009800012085F89900002085F89A00A87EB6
:103EE000800703D5280000F01BFCA1E09AE0002029
:103EF00085F899002F6F002F04D000E03F683868E4
:103F00000028FBD1002C00F08780E1684868FEF7AC
:103F1000D5FB696C401A2189401880457CD3E06844
:103F20008089FEF7C3FB400709D5DFF8E83740F288
:103F30003752DFF8081ADFF8F809FDF7DFFE286FBF
:103F4000002817D0A87E10F0440F13D1E86E002887
:103F500008D0E86E006800280CD1E86E0089698EF0
:103F6000884207D2B5F86400002803D0B5F866008F
:103F7000092801DB012000E00020002803D1A87EF1
:103F800010F0A00F48D0287D022807D01020FEF79F
:103F90008DFBE16889890843E16888813200290046
:103FA000200000F09BF8010049B2002942D12068AE
:103FB000E866287D022804D0698B4FF6FC7001402A
:103FC0006983E1684868FEF779FB8146E06880898B
:103FD000FEF76CFB10F0030F32D00121208919EBA2
:103FE00000000818296D091A002900D52865E06825
:103FF0008089FEF75BFB10F0030F23D0012021899D
:104000004018002850D000202060286F00281BD1C5
:104010002C672700EC6E75E7E86E002802D10020BF
:10402000A5F86800698B4FF67F7001406983002016
:10403000BDE8F087698B51F08001698340B2F7E7F2
:104040000021CBE70020DAE7E1684868FEF736FB9D
:104050008146F9684868FEF731FBB9EB0009B9F110
:10406000000F1ED515F1700901E0D9F80090D9F8BC
:10407000000000280FD0D9F80000C1684868FEF79A
:104080001DFB8246E1684868FEF718FBBAEB000AA0
:10409000BAF1000FE9D4D9F800002060C9F8004057
:1040A000B8E73C603F68B5E72000FFF7DFF8B1E70D
:1040B00010B50400002C09D1DFF8583640F29A52AE
:1040C000DFF87C18DFF86808FDF718FE6068807B71
:1040D000012801D0012000E0002010BDFEB5040041
:1040E0000D001600002C09D1DFF828364FF4B76216
:1040F000DFF85018DFF83808FDF700FE002D09D171
:10410000DFF8103640F2B952DFF83C18DFF820082B
:10411000FDF7F4FD002E09D1DFF8F83540F2BA5270
:10412000DFF82818DFF80808FDF7E8FD2000FFF7A2
:10413000BFFF002801D000208FE0686AFEF7BEFABA
:10414000E1688860688DFEF7B1FAE168C881686A45
:10415000698D4018E862E06810F11407A07AC00782
:104160000CD52A1D31004FF40670FFF7B7FA80B264
:1041700050F00170FEF7A2FA38603F1DB5F930002B
:10418000002801D500202886686B002808D1DFF8B8
:10419000C00700686863E1684868FEF78FFAA863A3
:1041A000E16860684068081A010089B2002906D1F8
:1041B000DFF8A017D1F84C21521CC1F84C216168DE
:1041C0004989091A6268518161680989081A616818
:1041D0000881E068616848600020E1680882A07A90
:1041E000C00701D5042000E00020A17A890701D58D
:1041F000002100E00021A27A120701D5002200E090
:104200000022A37ADB0601D5002300E00023D4F8C6
:104210000CC060440844104418441430874209D04C
:10422000DFF8F03440F21C62DFF82C17DFF80007EB
:10423000FDF764FDDFF81C07B0F89010491CA0F8EA
:104240009010029606200190A87A0090EB7A2A1D21
:104250002900606800F06CFE40B2FEBD70B504003D
:10426000002C09D1DFF8AC3440F26362DFF8EC16C1
:10427000DFF8BC06FDF742FD206F002802D17FF079
:10428000050035E0256F00E02D682868002807D07C
:104290002800FFF70DFF0028F6D07FF0050027E08B
:1042A0002800FFF705FF002802D07FF005001FE07F
:1042B000E06E2860206FE06600202067608B50F47D
:1042C00000606083E9684868FEF7F8F90600E8686E
:1042D0008089FEF7EBF910F0030F01D0012000E018
:1042E0000020298971184018E064002060630020D4
:1042F00070BD10B50400002C09D1DFF818344FF45C
:10430000D362DFF85C16DFF82806FDF7F7FC94F8B7
:104310004200FF2804D094F84200401C84F8420078
:104320002000FFF769FD10BD10B50400002C09D175
:10433000DFF8E03340F2AD62DFF82816DFF8F00571
:10434000FDF7DCFC2000FFF789FF002802D12000E8
:10435000FFF7CFFF10BD0000F8B50400002C09D115
:10436000DFF8B03340F2C162DFF8FC15DFF8C004BB
:10437000FDF7C4FC206F002802D17FF005003AE071
:10438000256F2800FFF794FE002802D07FF005007B
:1043900031E02868206714F16C0600E03668306868
:1043A00000280CD03068C1684868FEF787F907001C
:1043B000E9684868FEF782F93F1A002FEED43068AA
:1043C000286035602868002802D10020A4F8680021
:1043D00094F84200FF2804D094F84200401C84F86E
:1043E000420000206063DFF86C05D0F85011491CD2
:1043F000C0F850110020F2BD10B50400002C08D107
:10440000C44B40F2F962DFF86415DFF82405FDF7CC
:1044100075FC206F002830D0A07E40072DD42000EE
:10442000FFF79AFF002828D1B4F84800B4F86010CC
:10443000884202D2B4F8480001E0B4F860000221DA
:1044400090FBF1F0A4F84A00B4F84A00618EB0EB9A
:10445000410F04D2608E80B24000A4F84A00B4F844
:104460004A10628E032042435018A4F84800608B23
:1044700050F0040060830020208610BDD47F010826
:104480002DE9F84F82468846110099464FF4207274
:1044900011EB0801143189B22220FDF78AFC0400D7
:1044A000002C41D06089414689B21431884208DA33
:1044B000984B40F22472DFF8B814DFF87404FDF76B
:1044C0001DFC0D9D0C9E0B9F0A98D4F804B080B281
:1044D000FEF7ECF8ABF80000380080B2FEF7E6F823
:1044E000ABF80200CBF804905046FEF7E7F8CBF8A3
:1044F00008001FFA88F8042098FBF0F0401DF6B27F
:1045000056EA0036300080B2FEF7D0F8ABF80C0067
:10451000280080B2FEF7CAF8ABF80E000020ABF816
:1045200010000020ABF812002000BDE8F28F000060
:10453000F87F010848910108F8B584B004000D0027
:1045400016001F00002C08D1724B40F24272DFF8B7
:104550002414DFF8DC03FDF7D1FB608D03901020FD
:104560000290208B0190E08A00903B00320092B2D2
:10457000290089B2606AFFF783FF002803D0616ACF
:10458000628D8918E16205B0F0BD00005891010804
:1045900070B50C0016000025002C08D15D4B40F2D0
:1045A0005672DFF8D413DFF88803FDF7A7FB6168C4
:1045B00011F11400F20701D5042200E00022B30734
:1045C00001D5002300E00023340701D5002400E0DA
:1045D0000024F60601D5002600E00026ADB201EB6E
:1045E000850111441944214431441431884207D0D3
:1045F000484B40F27572DFF86013CD48FDF77EFB43
:1046000070BD0000C8920108FEB505000C00160040
:104610001F00002C07D13F4B40F28772DFF85C137C
:104620008348FDF76BFB3A0031002800FFF72CF9B7
:10463000002802D17FF0030518E0002D02D0EB7AAC
:10464000A97A01E0FF230021C24AB2F890506D1C04
:10465000A2F89050029006200190C9B20091DBB2FE
:104660003A003100200000F063FC05002000FDF757
:10467000CAFD280040B2FEBDDC8901082DE9FF47D4
:104680000700894616001C00002C06D1214B40F281
:10469000C472BB496648FDF731FB0C9D002D06D165
:1046A0001C4B40F2C572B7496148FDF727FB5FF02C
:1046B000000846F2080A4846FEF700F81FFA8AFA90
:1046C000CDF80CA014210291BDF838100191BDF86D
:1046D00034100091030000224146C9B289B2300073
:1046E000FFF7CEFE0600002E12D04346DBB20022BA
:1046F00031003800FFF74CFF9648D0F85C11491C98
:10470000C0F85C112B00220031003800FFF77CFF5D
:10471000BDE8FF87E4660108286A0108C88401082B
:10472000F8B5040000260027002C06D1964B40F275
:10473000EA7296497E48FDF7E1FAF00701D50425B3
:1047400000E00025B00701D5002000E0002031077F
:1047500001D5002100E00021F20601D5002200E091
:10476000002245194D195519206DFDF7A7FF0300CB
:104770000022EDB2290089B22000FFF7DDFE05001E
:10478000002D06D1608B50F0030060837FF00100A4
:104790001CE03B00DBB23200D2B229002000FFF760
:1047A000F7FE231D220029002000FFF72DFF010046
:1047B00049B2002904D0618B51F00301618304E008
:1047C000628B4FF6FC710A40628340B2F2BD00007A
:1047D000A46D010870B505000026002D06D16A4BB6
:1047E00040F624026A495248FDF788FA286D401EB7
:1047F000FDF764FF030000223100C9B289B228002E
:10480000FFF79AFE0400002C02D15FF0FF300DE0AC
:104810003300DBB2002221002800FFF7B9FE2B1D78
:104820002A0021002800FFF7EFFE40B270BD000013
:10483000D87A0108C08C0108F8750108007B0108CE
:104840002DE9F84304005FF00008002C06D14E4B20
:1048500040F64F024F493648FDF750FAE66E002EFB
:1048600001D100205FE094F89A00FF2804D094F86A
:104870009A00401C84F89A00F0688089FDF716FFC2
:10488000C00704D53089002801D1012700E00027A6
:104890003800C0B2002801D0002200E00122F068F8
:1048A000436892B24146C9B289B22000FFF744FE84
:1048B0000500002D02D15FF0FF3034E0D5F8049000
:1048C000FFB2002F0BD01120FDF7F0FEB9F80C203D
:1048D0004CF2FF010A401043A9F80C000BE0686895
:1048E00010F114017068038930891B1A9BB20122F0
:1048F0007068FDF700FEF1684868FDF7DFFE401CB8
:10490000216D091A002900D520654346DBB200223B
:1049100029002000FFF73CFE231D22002900200073
:10492000FFF772FE40B2BDE8F2830000D88C0108A8
:10493000D87A0108287B0108D4DC0020F08C01081B
:10494000507B0108E8840108088501081C800108E3
:10495000ACDC0020E0C10020208F0108408001086D
:1049600064800108F8890108088D0108288501087C
:1049700088730108787B0108A07B01082476010870
:10498000148A0108308A0108E46601084885010894
:104990004C8A01088880010880B5FDF7CEFE734877
:1049A0000068002803D172480068002805D0002262
:1049B0007049FA2000F080F802E000206E4908609B
:1049C00001BD80B56C49086800280ED167480068B1
:1049D000002803D166480068002806D0012008603E
:1049E00000226449FA2000F067F801BD70B50400A8
:1049F0000D0016000A2001F0BDFD002808D1002896
:104A000005D15E4BBE225E495E48FDF777F927E08F
:104A1000002101608560C66044605B4A116800291E
:104A200001D110601CE04368116849685B1AB3F15A
:104A3000004F03D311680160106011E0126800E0BC
:104A40001268002A0CD01168002906D0436811684A
:104A500049685B1AB3F1004FF2D31168016010602E
:104A600070BD38B5040025006868804702F03DFE3F
:104A700046490B682968CB18191AB1F1004F06D3C3
:104A8000220043492B681818FFF7B0FF04E022000A
:104A90003F491800FFF7AAFF31BD10B5012408E017
:104AA0003C4800EBC4023A4950F8340000F004F8E6
:104AB000641C052CF4D310BD70B504000D00160065
:104AC000B4F1804F06D32D4B40F2291232492D48C4
:104AD000FDF714F902F009FE241832002900200025
:104AE000FFF784FF70BD70B502F0FFFD040013E016
:104AF0004A68A21AB2F1004F13D20A6802608D68A8
:104B0000CE684868214A10600A2001F07BFD280029
:104B1000002801D03000A8471B4801680029E7D1D0
:104B2000FFE770BD38B5184D2868002802D15FF046
:104B3000FF3018E002F0D9FD040028684068001B2F
:104B4000B0F1004F01D300200DE028684068041B3D
:104B5000B4F1004F06D3094B4FF4DC720F490948FA
:104B6000FDF7CCF8200032BD00000000B8DC0020CA
:104B7000BCDC002099490008F0DC002044670108F3
:104B8000B06C0108F07B0108E8DC0020ECDC0020C0
:104B9000634A0008187C01086C6F0108348F010813
:104BA00010B4DFF8F814096808E091F83120920792
:104BB00003D40268CB689A4215D00968002914D042
:104BC00091F8312012F00502052AF6D14A68002A30
:104BD000F3D003688A6813404C688A681440A34283
:104BE000E3D1080025E0080023E0DFF8B4241168D1
:104BF00000290FD0116891F8311011F00501052935
:104C000008D111684968002904D0007800F0FF003D
:104C10007F280DD1DFF88C04B0F85610491CA0F89D
:104C20005610D0F81811491CC0F81811002000E0E7
:104C3000106810BC704780B5010091F83100C007C2
:104C40000FD5486800280CD0DFF85C0442694B6837
:104C50009A4204D04069FDF703FD002801D00120ED
:104C600000E0002002BD2DE9F84F05008B4601262B
:104C7000DFF83094B9F84A00401CA9F84A00D9F886
:104C80003801401CC9F838016F683878C0B2000993
:104C9000C0B2042813D02800FDF7B5FAB9F85C00BB
:104CA000401CA9F85C00B9F84E00401CA9F84E0061
:104CB000D9F8FC00401CC9F8FC00002036E1387827
:104CC00010F00F005FEA80085FFA88F87888FDF737
:104CD000EDFC04002000298980B2884204D2210022
:104CE00089B22800FDF7A1F96889414689B2884256
:104CF00007D32889A4B2A04203D3404680B2142827
:104D000013DA2800FDF77FFAB9F85200401CA9F821
:104D10005200B9F84E00401CA9F84E00D9F808011D
:104D2000401CC9F80801002000E13869DFF878A3C9
:104D3000CAF81400F868CAF810009AF8140010F0C5
:104D4000F000E0280BD19BF83100C00705D5DBF857
:104D50000400002801D05C461DE000241BE05846FA
:104D6000FFF769FF002801D05C4614E000249AF8A0
:104D7000140000F0FF007F280DD0DFF82003046846
:104D800000E02468002C06D05C45FAD02000FFF734
:104D900052FF0028F5D0002C0BD1787A112808D1C9
:104DA000404680B238444088B0F5884F01D15C4617
:104DB0000026002E24D0DAF81000002820D0594612
:104DC000DAF81000FDF74CFC002805D19AF8100025
:104DD00010F0F000E02813D12800FDF714FAB9F81C
:104DE0004E00401CA9F84E00D9F80001401CC9F83B
:104DF0000001D9F80801401CC9F80801002095E01D
:104E0000002C13D1B9F84E00401CA9F84E00D9F877
:104E10000001401CC9F80001D9F80801401CC9F87C
:104E200008012800FDF7EFF900207FE0F8884FF631
:104E30003F71084208D0280003F02FF80500002D2C
:104E400001D1002072E06F68CAF80040CAF804B0CF
:104E5000CAF80870387810F00F008000C0B2AAF8C5
:104E60000C00414689B22800FDF780F9787A0128C4
:104E700017D006280BD011281DD1D9F80C01401CE1
:104E8000C9F80C015946280003F05BFB3BE0D9F858
:104E90000C01401CC9F80C0159462800FBF774F9B5
:104EA00031E0D9F80C01401CC9F80C015946280022
:104EB00003F0AEFE27E02100DAF81400FDF7D0FB86
:104EC00000280ED19AF8140010F0F000E02808D065
:104ED000414609B22800FDF790F90221280003F0AD
:104EE000F0FFB9F85800401CA9F85800B9F84E0076
:104EF000401CA9F84E00D9F80401401CC9F804016F
:104F00002800FDF780F90020CAF800000020CAF848
:104F100004000020CAF808000020AAF80C000020B5
:104F2000CAF810000020CAF814000020BDE8F28F73
:104F30003EB5089D0C00002A05D0002902D0096862
:104F4000002900D12C1D02959DF81C1001919DF89F
:104F500018100091DBB2210000F001F83EBD2DE9F0
:104F6000FC4706000D0014009A46B07B012806D0CD
:104F70004E4B4FF455724E494E48FCF7BFFE494F19
:104F8000D7F81001401CC7F81001002C57D05FF073
:104F9000140814213000FDF7E4F800280CD0B7F80D
:104FA0005C00401CA7F85C00D7F81401401CC7F84F
:104FB00014017FF001006EE0D6F804907089142887
:104FC00006D23A4B40F289323B493A48FCF796FE0A
:104FD0000B980A9989F808A089F809002068C9F88F
:104FE00010001FFA88F8042098FBF0F050F0400001
:104FF00089F8000089F801103089FDF757FBA9F8FE
:1050000002000020A9F80600DFF8B080B8F8000020
:10501000FDF74CFBA9F80400B8F80000401CA8F804
:105020000000002D04D126480068C9F80C0002E0F9
:105030002868C9F80C000020A9F80A0013E070895C
:1050400014280CDAB7F85C00401CA7F85C00D7F80D
:105050001401401CC7F814017FF001001BE07068C8
:10506000016900916C460C9BB7F84800401CA7F8FA
:105070004800188D002809D0188D3189884205D242
:1050800022001900300003F085F804E0220031000E
:1050900018005B699847BDE8F687000058DC0020DF
:1050A0005CDC0020E0C10020F0D80020C4650108CD
:1050B0005C92010890770108A871010814DD0020B6
:1050C000F49301082DE9F14FB0B0924604910DF12F
:1050D00042013A9A2B9199464A7000200AE01AF848
:1050E000011B0498309A90470028049000F0B48681
:1050F0000D98401C0D909AF8000050B12528EED173
:10510000002100220791089209910A920B910C92BA
:1051100004E00D9800F0A2BE41F001011AF8010F61
:105120002028F9D023280CD02B2804D02D2805D0F6
:10513000302809D00BE041F00201EFE741F0040113
:10514000ECE741F00801E9E741F01001E6E72A2821
:105150000FD1D9F8002052F8040BC9F8002000281C
:105160000F9003D540420F9041F004010AF1010A6B
:1051700014E00F92DFF824380AE00F98984205DA1D
:1051800000EB800402EB4402303A0F920AF1010A6C
:105190009AF80020A2F130000A28EED39AF8000015
:1051A0002E2803D04FF0FF320E9229E01AF8010F9B
:1051B0002A2809D1D9F8000050F8042BC9F80000BA
:1051C0000E920AF1010A1BE02D280CBF0AF1010A18
:1051D000002000220E92DFF8C4470BE040B90E9A7F
:1051E000A24205DA02EB820503EB4503303B0E9346
:1051F0000AF1010A9AF80030A3F130020A2AEDD32D
:10520000ADF84010DFF89807784400F294709AF8EF
:10521000001003F0D5FE08B11AF8010B8DF842001A
:105220009DF84200682805D19AF8000068280CD142
:10523000622106E06C2804BF9AF800006C2804D1B3
:1052400071218DF842100AF1010A12A806901AF88D
:1052500001BBBBF125012CD01C3900F0D081091F06
:10526000022940F2CC81133900F02185093900F080
:10527000C681891E00F0B685491E00F06385491E6F
:10528000022940F2BC81091F00F05C85491F00F033
:105290002881491E00F00B85491E00F0D080C91EF0
:1052A0000DD0891E00F00385C91E00F0008500F0B6
:1052B000A4BD25238DF84830012100F0A9BDD9F8FF
:1052C000000050F8044BC9F80000002C059440F091
:1052D000A3802B994878002800F099804FF0FF3484
:1052E0000FF6803003F078FE201A40F0B58500F00C
:1052F00090BD6D1E40F0A7853096079D12AF75B129
:10530000309E17F8012B02A9304600F071FE0028EC
:1053100001D46D1EF5D10028309640F09D850A9D80
:105320003020002D8DF804000CDD309E012301AAF1
:1053300002A9304600F06CFE002840F08D856D1EFD
:10534000F4D13096059F089D75B1309E17F8012B5A
:1053500002A9304600F04CFE002801D46D1EF5D1A4
:105360000028309640F078850B9D3020002D8DF878
:1053700004000CDD309E012301AA02A9304600F092
:1053800047FE002840F068856D1EF4D130960598E0
:105390000899099D471875B1309E17F8012B02A98D
:1053A000304600F025FE002801D46D1EF5D10028FE
:1053B000309640F051850C9D3020002D8DF8040072
:1053C0000CDD309E012301AA02A9304600F020FE28
:1053D000002840F041856D1EF4D130969DF84000C4
:1053E00041077FF588AE2020002C8DF804007FF760
:1053F00082AE309D012301AA02A9284600F008FED2
:10540000002840F02985641EF4D1309573E60FF62C
:105410006040059000F0FDBC0E9D002D04D5204697
:1054200003F0FAFD044607E02A46204603F010FE8A
:10543000002814BF041B2C46089400F0EABCD9F8DD
:10544000001051F8040BC9F8001020F000040021EE
:1054500021F0FF3512ABCDE902450593DDE90223CA
:1054600006993C2413B90AB90E9898B102F00F05B9
:105470003035641EEEB23A2EA8BF2735120942EA33
:1054800003721B090D5508BF002A03D005980D199A
:10549000A842EBD308190590C4F13C020E9808927B
:1054A00082420ADABDF84010821A4FF6EF700140CE
:1054B0000A92ADF8401000F0ACBC002840F1A9847D
:1054C0009DF8400000F01400102840F0A2840F9BCB
:1054D00007990A985B1A1B1A9A1A002A40F39984B2
:1054E000E3E32B99487820B14FF0FF340FF65030AA
:1054F000F8E69DF84200622861D0682817D06A2833
:105500003FD06C2806D0712847D074282CD07A2838
:105510001DD064E0D9F8001051F8040BC9F8001050
:10552000002868D14FF0FF340FF62C30DAE6D9F8B6
:10553000001051F8040BC9F8001020B94FF0FF34E7
:105540000FF61430CEE60D99018000F062BCD9F858
:10555000001051F8040BC9F8001000284BD14FF08F
:10556000FF340FF6F420BDE6D9F8001051F8040B13
:10557000C9F8001000283ED14FF0FF340FF6D820B4
:10558000B0E6D9F8001051F8040BC9F8001080B942
:105590004FF0FF340FF6C020A4E6D9F8001051F800
:1055A000040BC9F8001020B94FF0FF340FF6A82003
:1055B00098E60D9AD317C0E9002300F02ABCD9F869
:1055C000001051F8040BC9F8001020B94FF0FF3457
:1055D0000FF6842086E60D99017000F01ABCD9F808
:1055E000001051F8040BC9F8001020B94FF0FF3437
:1055F0000FF6642076E60D99016000F00ABCD9F838
:105600000020D21D22F00702C9F80020D2E90001D3
:105610000832C9F80020CDE90201C80F02D007986E
:105620002D210AE0BDF84000810702D507982B2103
:1056300003E0C00705D50798202112AA1154401C89
:10564000079012A807994BF020024318DDE90201E8
:10565000CDE92C01612A059321AC0BD00E980028CE
:1056600002D506200E9005E001BF4BF02000672810
:1056700001210E91DDE9020148004015401C0A4657
:105680000DD109030BD0ABF1610503201A2D089051
:1056900002D20FF6E0110DE00FF6DC110AE070B94E
:1056A00012030CD1ABF1610503201A2D08901AD317
:1056B0000FF6CC110322184601F06EFBA9E3DDE9D9
:1056C0000201CDE92E01DDE92E2323F00047B7F5D5
:1056D000801F22F000060DD20022002F08BF002EEE
:1056E000009203D116E00FF69411E3E76A4603F047
:1056F000DBFC0FE0DFF8D808DFF8D81800EB175014
:105700000090DDE92E234FF0FF301940DFF8C87814
:1057100010403943CDE902014BF0200061280DD142
:10572000059830210170821CBBF1610F05920CBFFE
:105730007821582141700798801C0790DDE902010B
:1057400020F0000231F0004308BF002A02D10026F9
:10575000002567E14BF02008B8F1610F40F0B480FC
:105760000E98002847BF21210191401C0190019F04
:10577000DDE92C017F1C00220023DDE9024503F056
:10578000CBFC00998DF8842038BF85F00045091FB7
:10579000002F00910DF1850653DD20462946002299
:1057A000002303F0D1FC4CD24800400D00F11C0353
:1057B00012D0002B10DD40F2FF70834206DBDFF8D1
:1057C0001C1805F000421143002011E06FF31E5138
:1057D00041EA035120460BE024F0000035F000417F
:1057E00008BF00280FBF29461C22294603F0C4FC2D
:1057F00004460D4603F05EFDFF1F002F804609DDC5
:1058000003F076FD02460B462046294603F082FD52
:1058100004460D46F01D0721B8F1000F0CDD491EAE
:105820005EBF08F00F0200F8012D4FEA2818F3D5EB
:1058300002E0002200F8012D491EFAD5C61D002FF6
:10584000ABDC0DF18500361A01988642D8BF304690
:1058500000280DF1850430D4B04206DA0DF185013F
:105860000A5C082AA8BF0F2100DA0021024621ABFA
:10587000134400E0401E13F80159521E8D42F9D026
:105880000F2904D10DF185018B5C5B1C8B54002A20
:1058900004D50099091D21AC401C0091411E0CD477
:1058A0006218ABF13A0613783033DDB23A2DA8BF57
:1058B000F318491E02F80139F5D50E99002940F177
:1058C000AF80421E0E92ABE00099DFF8142747F23A
:1058D0009750414391FBF2F2DDE92C45009225F00F
:1058E0000045D2F1070204DD2046294600F04DFBB9
:1058F0000BE052420020DFF8EC1600F046FB0246B7
:105900000B462046294603F077FD0446B8F1660FA2
:105910000E9806BF009F0A3706273F18142FC8BFEE
:10592000142730200D468DF884000DF18506002FD8
:1059300038DD2046294603F083FE01460A4606F17B
:10594000080304200A26B2FBF6F606EB860EA2EB4D
:105950004E02303203F8012C0A22B6FBF2F202EBBF
:10596000820EA6EB4E063036401E03F8026DE9D1DA
:10597000083F002F03F10806D9DD084603F074FE46
:1059800002460B462046294603F0C4FC0022DFF8FD
:10599000583603F077FE04460D46CAE7CBCCCC0C54
:1059A000403A01000DF18500361A0DF1850404E03E
:1059B0000098401E761E0090641C20783028F7D096
:1059C000B8F1660F02D10099491C04E0B8F1650FE7
:1059D0000CBF012100210E9808188642B8BF701E26
:1059E00000281DD4B04204DA215C3429C8BF392113
:1059F00000DC30210246631E9D1800E0401E15F8B1
:105A00000169521E8E42F9D0392902D1A15C491C8C
:105A1000A154002A04D50099491C1C46401C009141
:105A20000646009D03F000FF406A0778DDF83880E5
:105A300030B2002802DC01260FF248644BF020004F
:105A4000662808BF6D1C16D0672846D128B210F111
:105A5000040F48DB404546DA9DF840006D1C010705
:105A600003D430B24045B8BF804628B2B8EB000836
:105A700048BF4FF000080FFA85FBBBF1000F00F3A1
:105A8000B5800898411C0891302205990A54B8F154
:105A9000000F03DC9DF84000010704D50898411C65
:105AA000089105990F5418EB0B0FB8BFC8F100050A
:105AB0002DB268420B90A84432B29045B8BF46461A
:105AC000059B089836B2099632462146184401F0E3
:105AD00063F9A8EB06000C90D2E0BBF1610F17D17F
